{
  "abi": [
    {
      "type": "constructor",
      "inputs": [
        {
          "name": "depositToken_",
          "type": "address",
          "internalType": "address"
        },
        {
          "name": "depositBaseFeeMultiplier_",
          "type": "uint256",
          "internalType": "uint256"
        },
        {
          "name": "addressDirectory_",
          "type": "address",
          "internalType": "address"
        },
        {
          "name": "estimatedGasUsedWithoutSig_",
          "type": "uint256",
          "internalType": "uint256"
        },
        {
          "name": "estimatedGasUsedWithSig_",
          "type": "uint256",
          "internalType": "uint256"
        }
      ],
      "stateMutability": "nonpayable"
    },
    {
      "type": "function",
      "name": "addEjectorBalance",
      "inputs": [
        {
          "name": "amount",
          "type": "uint256",
          "internalType": "uint256"
        }
      ],
      "outputs": [],
      "stateMutability": "nonpayable"
    },
    {
      "type": "function",
      "name": "cancelEjection",
      "inputs": [],
      "outputs": [],
      "stateMutability": "nonpayable"
    },
    {
      "type": "function",
      "name": "cancelEjectionByEjector",
      "inputs": [
        {
          "name": "operator",
          "type": "address",
          "internalType": "address"
        }
      ],
      "outputs": [],
      "stateMutability": "nonpayable"
    },
    {
      "type": "function",
      "name": "cancelEjectionWithSig",
      "inputs": [
        {
          "name": "operator",
          "type": "address",
          "internalType": "address"
        },
        {
          "name": "apkG2",
          "type": "tuple",
          "internalType": "struct BN254.G2Point",
          "components": [
            {
              "name": "X",
              "type": "uint256[2]",
              "internalType": "uint256[2]"
            },
            {
              "name": "Y",
              "type": "uint256[2]",
              "internalType": "uint256[2]"
            }
          ]
        },
        {
          "name": "sigma",
          "type": "tuple",
          "internalType": "struct BN254.G1Point",
          "components": [
            {
              "name": "X",
              "type": "uint256",
              "internalType": "uint256"
            },
            {
              "name": "Y",
              "type": "uint256",
              "internalType": "uint256"
            }
          ]
        },
        {
          "name": "recipient",
          "type": "address",
          "internalType": "address"
        }
      ],
      "outputs": [],
      "stateMutability": "nonpayable"
    },
    {
      "type": "function",
      "name": "completeEjection",
      "inputs": [
        {
          "name": "operator",
          "type": "address",
          "internalType": "address"
        },
        {
          "name": "quorums",
          "type": "bytes",
          "internalType": "bytes"
        }
      ],
      "outputs": [],
      "stateMutability": "nonpayable"
    },
    {
      "type": "function",
      "name": "ejectionCooldown",
      "inputs": [],
      "outputs": [
        {
          "name": "",
          "type": "uint64",
          "internalType": "uint64"
        }
      ],
      "stateMutability": "view"
    },
    {
      "type": "function",
      "name": "ejectionDelay",
      "inputs": [],
      "outputs": [
        {
          "name": "",
          "type": "uint64",
          "internalType": "uint64"
        }
      ],
      "stateMutability": "view"
    },
    {
      "type": "function",
      "name": "ejectionQuorums",
      "inputs": [
        {
          "name": "operator",
          "type": "address",
          "internalType": "address"
        }
      ],
      "outputs": [
        {
          "name": "",
          "type": "bytes",
          "internalType": "bytes"
        }
      ],
      "stateMutability": "view"
    },
    {
      "type": "function",
      "name": "ejectionTime",
      "inputs": [
        {
          "name": "operator",
          "type": "address",
          "internalType": "address"
        }
      ],
      "outputs": [
        {
          "name": "",
          "type": "uint64",
          "internalType": "uint64"
        }
      ],
      "stateMutability": "view"
    },
    {
      "type": "function",
      "name": "getDepositToken",
      "inputs": [],
      "outputs": [
        {
          "name": "",
          "type": "address",
          "internalType": "address"
        }
      ],
      "stateMutability": "view"
    },
    {
      "type": "function",
      "name": "getEjector",
      "inputs": [
        {
          "name": "operator",
          "type": "address",
          "internalType": "address"
        }
      ],
      "outputs": [
        {
          "name": "",
          "type": "address",
          "internalType": "address"
        }
      ],
      "stateMutability": "view"
    },
    {
      "type": "function",
      "name": "getEjectorBalance",
      "inputs": [
        {
          "name": "ejector",
          "type": "address",
          "internalType": "address"
        }
      ],
      "outputs": [
        {
          "name": "",
          "type": "uint256",
          "internalType": "uint256"
        }
      ],
      "stateMutability": "view"
    },
    {
      "type": "function",
      "name": "lastEjectionInitiated",
      "inputs": [
        {
          "name": "operator",
          "type": "address",
          "internalType": "address"
        }
      ],
      "outputs": [
        {
          "name": "",
          "type": "uint64",
          "internalType": "uint64"
        }
      ],
      "stateMutability": "view"
    },
    {
      "type": "function",
      "name": "semver",
      "inputs": [],
      "outputs": [
        {
          "name": "major",
          "type": "uint8",
          "internalType": "uint8"
        },
        {
          "name": "minor",
          "type": "uint8",
          "internalType": "uint8"
        },
        {
          "name": "patch",
          "type": "uint8",
          "internalType": "uint8"
        }
      ],
      "stateMutability": "pure"
    },
    {
      "type": "function",
      "name": "setCooldown",
      "inputs": [
        {
          "name": "cooldown",
          "type": "uint64",
          "internalType": "uint64"
        }
      ],
      "outputs": [],
      "stateMutability": "nonpayable"
    },
    {
      "type": "function",
      "name": "setDelay",
      "inputs": [
        {
          "name": "delay",
          "type": "uint64",
          "internalType": "uint64"
        }
      ],
      "outputs": [],
      "stateMutability": "nonpayable"
    },
    {
      "type": "function",
      "name": "startEjection",
      "inputs": [
        {
          "name": "operator",
          "type": "address",
          "internalType": "address"
        },
        {
          "name": "quorums",
          "type": "bytes",
          "internalType": "bytes"
        }
      ],
      "outputs": [],
      "stateMutability": "nonpayable"
    },
    {
      "type": "function",
      "name": "withdrawEjectorBalance",
      "inputs": [
        {
          "name": "amount",
          "type": "uint256",
          "internalType": "uint256"
        }
      ],
      "outputs": [],
      "stateMutability": "nonpayable"
    },
    {
      "type": "event",
      "name": "CooldownSet",
      "inputs": [
        {
          "name": "cooldown",
          "type": "uint64",
          "indexed": false,
          "internalType": "uint64"
        }
      ],
      "anonymous": false
    },
    {
      "type": "event",
      "name": "DelaySet",
      "inputs": [
        {
          "name": "delay",
          "type": "uint64",
          "indexed": false,
          "internalType": "uint64"
        }
      ],
      "anonymous": false
    },
    {
      "type": "event",
      "name": "EjectionCancelled",
      "inputs": [
        {
          "name": "operator",
          "type": "address",
          "indexed": false,
          "internalType": "address"
        }
      ],
      "anonymous": false
    },
    {
      "type": "event",
      "name": "EjectionCompleted",
      "inputs": [
        {
          "name": "operator",
          "type": "address",
          "indexed": false,
          "internalType": "address"
        },
        {
          "name": "quorums",
          "type": "bytes",
          "indexed": false,
          "internalType": "bytes"
        }
      ],
      "anonymous": false
    },
    {
      "type": "event",
      "name": "EjectionStarted",
      "inputs": [
        {
          "name": "operator",
          "type": "address",
          "indexed": false,
          "internalType": "address"
        },
        {
          "name": "ejector",
          "type": "address",
          "indexed": false,
          "internalType": "address"
        },
        {
          "name": "quorums",
          "type": "bytes",
          "indexed": false,
          "internalType": "bytes"
        },
        {
          "name": "timestampStarted",
          "type": "uint64",
          "indexed": false,
          "internalType": "uint64"
        },
        {
          "name": "ejectionTime",
          "type": "uint64",
          "indexed": false,
          "internalType": "uint64"
        },
        {
          "name": "depositAmount",
          "type": "uint256",
          "indexed": false,
          "internalType": "uint256"
        }
      ],
      "anonymous": false
    }
  ],
  "bytecode": {
    "object": "0x610120604052348015610010575f5ffd5b506040516122ef3803806122ef83398101604081905261002f91610072565b6001600160a01b0394851660805261010093909352921660a05260c09190915260e0526100be565b80516001600160a01b038116811461006d575f5ffd5b919050565b5f5f5f5f5f60a08688031215610086575f5ffd5b61008f86610057565b602087015190955093506100a560408701610057565b6060870151608090970151959894975095949392505050565b60805160a05160c05160e051610100516121bc6101335f395f61138901525f818161044701526113ae01525f6104fb01525f81816102df0152818161080801528181610b0101528181610f75015261110401525f8181610297015281816105440152818161067a0152610ad801526121bc5ff3fe608060405234801561000f575f5ffd5b5060043610610111575f3560e01c8063b0f0ba461161009e578063cda493c81161006e578063cda493c814610230578063d0ac9cdf1461024f578063e404900714610262578063e6f5141414610282578063fb1b5c7b14610295575f5ffd5b8063b0f0ba46146101cc578063b756c6fb146101df578063c1073302146101f2578063c412ef3b14610205575f5ffd5b80633b115362116100e45780633b115362146101755780634b11982e146101885780634f8c9a281461019b5780637c292e47146101a3578063a96f783e146101c4575f5ffd5b8063156570ff14610115578063222abf86146101455780632d716fbc1461015a57806339ff18681461016d575b5f5ffd5b610128610123366004611a80565b6102bb565b6040516001600160401b0390911681526020015b60405180910390f35b610158610153366004611b54565b6102dc565b005b610158610168366004611bf6565b610475565b6101586104dc565b610158610183366004611c9b565b610523565b610158610196366004611cb2565b610570565b610128610583565b6101b66101b1366004611a80565b610591565b60405190815260200161013c565b6101286105aa565b6101586101da366004611a80565b6105b3565b6101586101ed366004611bf6565b6105ff565b610158610200366004611cb2565b610633565b610218610213366004611a80565b610646565b6040516001600160a01b03909116815260200161013c565b60408051600381525f602082018190529181019190915260600161013c565b61015861025d366004611c9b565b610659565b610275610270366004611a80565b6106a1565b60405161013c9190611d06565b610128610290366004611a80565b61073d565b7f0000000000000000000000000000000000000000000000000000000000000000610218565b5f6102c582610750565b54600160a01b90046001600160401b031692915050565b5f7f00000000000000000000000000000000000000000000000000000000000000006001600160a01b03166321f8a72161033d6040518060400160405280601081526020016f424c535f41504b5f524547495354525960801b815250610776565b6040518263ffffffff1660e01b815260040161035b91815260200190565b602060405180830381865afa158015610376573d5f5f3e3d5ffd5b505050506040513d601f19601f8201168201806040525081019061039a9190611d18565b604051637ff81a8760e01b81526001600160a01b0387811660048301529192505f91831690637ff81a8790602401606060405180830381865afa1580156103e3573d5f5f3e3d5ffd5b505050506040513d601f19601f820116820180604052508101906104079190611d33565b50905061041f61041787856107a5565b828787610805565b5f61042987610750565b600101549050610441876001600160a01b03166109fa565b61046c847f000000000000000000000000000000000000000000000000000000000000000083610aae565b50505050505050565b3361047f81610aff565b5f610492846001600160a01b0316610caf565b90506104b9816104aa866001600160a01b0316610cd9565b6001600160a01b031690610d04565b6104cc6001600160a01b03851684610d48565b6104d68484610f72565b50505050565b5f6104e633610750565b6001015490506104f5336109fa565b610520337f000000000000000000000000000000000000000000000000000000000000000083610aae565b50565b3361052d81610aff565b6105373383610d04565b61056c6001600160a01b037f000000000000000000000000000000000000000000000000000000000000000016333085611097565b5050565b3361057a81611102565b61056c826112b1565b5f61058c61131f565b905090565b5f6105a4826001600160a01b031661133a565b92915050565b5f61058c611364565b336105bd81610aff565b5f6105d0836001600160a01b0316610caf565b90506105e8816104aa856001600160a01b0316610cd9565b6105fa836001600160a01b03166109fa565b505050565b3361060981610aff565b5f610612611386565b905061061e33826113dc565b6104d66001600160a01b038516338584611478565b3361063d81611102565b61056c8261164a565b5f6105a4826001600160a01b0316610cd9565b3361066381610aff565b61066d33836113dc565b61056c6001600160a01b037f00000000000000000000000000000000000000000000000000000000000000001633846116a3565b60606106ac82610750565b60020180546106ba90611d78565b80601f01602080910402602001604051908101604052809291908181526020018280546106e690611d78565b80156107315780601f1061070857610100808354040283529160200191610731565b820191905f5260205f20905b81548152906001019060200180831161071457829003601f168201915b50505050509050919050565b5f6105a4826001600160a01b03166116d3565b5f610759611706565b6001600160a01b039092165f908152602092909252506040902090565b5f816040516020016107889190611dc7565b604051602081830303815290604052805190602001209050919050565b5f7fbaf0318f4c40ab8e8b7bedb52ac7200eff9c70b7f5ad0bc2dae5e4e4dfdc36ce46306107d286610750565b856040516020016107e7959493929190611dd2565b60405160208183030381529060405280519060200120905092915050565b5f7f00000000000000000000000000000000000000000000000000000000000000006001600160a01b03166321f8a7216108656040518060400160405280600f81526020016e29a2a92b24a1a2afa6a0a720a3a2a960891b815250610776565b6040518263ffffffff1660e01b815260040161088391815260200190565b602060405180830381865afa15801561089e573d5f5f3e3d5ffd5b505050506040513d601f19601f820116820180604052508101906108c29190611d18565b90505f5f826001600160a01b031663171f1d5b888888886040518563ffffffff1660e01b81526004016108f89493929190611eea565b6040805180830381865afa158015610912573d5f5f3e3d5ffd5b505050506040513d601f19601f820116820180604052508101906109369190611f54565b915091508161099b5760405162461bcd60e51b815260206004820152602660248201527f456967656e4441456a656374696f6e4d616e616765723a2050616972696e672060448201526519985a5b195960d21b60648201526084015b60405180910390fd5b8061046c5760405162461bcd60e51b815260206004820152602960248201527f456967656e4441456a656374696f6e4d616e616765723a20496e76616c6964206044820152687369676e617475726560b81b6064820152608401610992565b5f610a0482610750565b8054909150600160a01b90046001600160401b0316610a655760405162461bcd60e51b815260206004820152601760248201527f4e6f20656a656374696f6e20696e2070726f67726573730000000000000000006044820152606401610992565b610a6e8261170f565b6040516001600160a01b03831681527f3123488031678febf5655aec782d1252ab6d922921498edd621d5ea339e292e19060200160405180910390a15050565b5f610ab94884611f99565b90506104d684838311610acc5782610ace565b835b6001600160a01b037f00000000000000000000000000000000000000000000000000000000000000001691906116a3565b7f00000000000000000000000000000000000000000000000000000000000000006001600160a01b03166321f8a721610b5d6040518060400160405280600e81526020016d1050d0d154d4d7d0d3d3951493d360921b815250610776565b6040518263ffffffff1660e01b8152600401610b7b91815260200190565b602060405180830381865afa158015610b96573d5f5f3e3d5ffd5b505050506040513d601f19601f82011682018060405250810190610bba9190611d18565b604051632474521560e21b81527f52fb486ecd218b6c964299788bc433c9d9cf4a6218dbf81751236a74d63faedd60048201526001600160a01b03838116602483015291909116906391d1485490604401602060405180830381865afa158015610c26573d5f5f3e3d5ffd5b505050506040513d601f19601f82011682018060405250810190610c4a9190611fb0565b6105205760405162461bcd60e51b815260206004820152603060248201527f456967656e4441456a656374696f6e4d616e616765723a2043616c6c6572206960448201526f39903737ba1030b71032b532b1ba37b960811b6064820152608401610992565b5f610cb8611706565b6001600160a01b039092165f90815260209290925250604090206001015490565b5f610ce2611706565b6001600160a01b039283165f9081526020919091526040902054909116919050565b80610d0d611706565b6001015f846001600160a01b03166001600160a01b031681526020019081526020015f205f828254610d3f9190611fc9565b90915550505050565b610e0c610d53611706565b6001600160a01b0384165f908152602091909152604090206002018054610d7990611d78565b80601f0160208091040260200160405190810160405280929190818152602001828054610da590611d78565b8015610df05780601f10610dc757610100808354040283529160200191610df0565b820191905f5260205f20905b815481529060010190602001808311610dd357829003601f168201915b5050505050828051602091820120825192909101919091201490565b610e4f5760405162461bcd60e51b81526020600482015260146024820152730a2eadee4eadae640c8de40dcdee840dac2e8c6d60631b6044820152606401610992565b5f610e58611706565b6001600160a01b0384165f908152602091909152604090208054909150600160a01b90046001600160401b0316610ed15760405162461bcd60e51b815260206004820152601960248201527f4e6f2070726f63656564696e6720696e2070726f6772657373000000000000006044820152606401610992565b8054600160a01b90046001600160401b0316421015610f2b5760405162461bcd60e51b815260206004820152601660248201527550726f63656564696e67206e6f74207965742064756560501b6044820152606401610992565b610f348361170f565b7f172c16b12b5cfa6a611b21c65ea2c32bcac50585932f62c4544db6fca0a9b9bd8383604051610f65929190611fdc565b60405180910390a1505050565b5f7f00000000000000000000000000000000000000000000000000000000000000006001600160a01b03166321f8a721610fd7604051806040016040528060148152602001732922a3a4a9aa292cafa1a7a7a92224a720aa27a960611b815250610776565b6040518263ffffffff1660e01b8152600401610ff591815260200190565b602060405180830381865afa158015611010573d5f5f3e3d5ffd5b505050506040513d601f19601f820116820180604052508101906110349190611d18565b604051636e3b17db60e01b81529091506001600160a01b03821690636e3b17db906110659086908690600401611fdc565b5f604051808303815f87803b15801561107c575f5ffd5b505af192505050801561108d575060015b156105fa57505050565b6040516001600160a01b03808516602483015283166044820152606481018290526104d69085906323b872dd60e01b906084015b60408051601f198184030181529190526020810180516001600160e01b03166001600160e01b031990931692909217909152611777565b7f00000000000000000000000000000000000000000000000000000000000000006001600160a01b03166321f8a7216111606040518060400160405280600e81526020016d1050d0d154d4d7d0d3d3951493d360921b815250610776565b6040518263ffffffff1660e01b815260040161117e91815260200190565b602060405180830381865afa158015611199573d5f5f3e3d5ffd5b505050506040513d601f19601f820116820180604052508101906111bd9190611d18565b604051632474521560e21b81527f6270edb7c868f86fda4adedba75108201087268ea345934db8bad688e1feb91b60048201526001600160a01b03838116602483015291909116906391d1485490604401602060405180830381865afa158015611229573d5f5f3e3d5ffd5b505050506040513d601f19601f8201168201806040525081019061124d9190611fb0565b6105205760405162461bcd60e51b815260206004820152602f60248201527f456967656e4441456a656374696f6e4d616e616765723a2043616c6c6572206960448201526e39903737ba103a34329037bbb732b960891b6064820152608401610992565b806112ba611706565b60020180546fffffffffffffffff00000000000000001916600160401b6001600160401b039384160217905560405190821681527fd3c86bd8150fcc5f376375097a2a9b313bf89addc501ee368c9eebe117328497906020015b60405180910390a150565b5f611328611706565b600201546001600160401b0316919050565b5f611343611706565b6001600160a01b039092165f90815260019290920160205250604090205490565b5f61136d611706565b60020154600160401b90046001600160401b0316919050565b5f7f00000000000000000000000000000000000000000000000000000000000000006113d2487f0000000000000000000000000000000000000000000000000000000000000000611f99565b61058c9190611f99565b806113e5611706565b6001600160a01b0384165f908152600191909101602052604090205410156114465760405162461bcd60e51b8152602060048201526014602482015273496e73756666696369656e742062616c616e636560601b6044820152606401610992565b8061144f611706565b6001600160a01b039093165f908152600193909301602052604090922080549290920390915550565b5f61148285610750565b8054909150600160a01b90046001600160401b0316156114e45760405162461bcd60e51b815260206004820152601c60248201527f456a656374696f6e20616c726561647920696e2070726f6772657373000000006044820152606401610992565b426114ed611706565b600201546003830154611513916001600160401b03600160401b90910481169116611fff565b6001600160401b0316111561156a5760405162461bcd60e51b815260206004820152601960248201527f456a656374696f6e20636f6f6c646f776e206e6f74206d6574000000000000006044820152606401610992565b80546001600160a01b0319166001600160a01b038516178155600281016115918482612069565b5061159a611706565b600201546115b1906001600160401b031642611fff565b815467ffffffffffffffff60a01b1916600160a01b6001600160401b039283168102919091178084556001840185905560038401805467ffffffffffffffff19164285169081179091556040517fdd6fafc3942358170386c495e4650fa7402e1a53f470e2b67b158eb3ec1f20c59461163b948b948b948b94909392909104909116908990612123565b60405180910390a15050505050565b80611653611706565b600201805467ffffffffffffffff19166001600160401b0392831617905560405190821681527fc03c652cce63e6a4eb932e2608f14d717836f14b42a735017b4fbbdc5b5da27e90602001611314565b6040516001600160a01b0383166024820152604481018290526105fa90849063a9059cbb60e01b906064016110cb565b5f6116dc611706565b6001600160a01b039092165f9081526020929092525060409020600301546001600160401b031690565b5f61058c611848565b5f611718611706565b6001600160a01b0383165f9081526020918252604080822080546001600160a01b031916815581519384019091529082529150600282019061175a9082612069565b50805467ffffffffffffffff60a01b191681555f60019091015550565b5f6117cb826040518060400160405280602081526020017f5361666545524332303a206c6f772d6c6576656c2063616c6c206661696c6564815250856001600160a01b03166118de9092919063ffffffff16565b8051909150156105fa57808060200190518101906117e99190611fb0565b6105fa5760405162461bcd60e51b815260206004820152602a60248201527f5361666545524332303a204552433230206f7065726174696f6e20646964206e6044820152691bdd081cdd58d8d9595960b21b6064820152608401610992565b5f5f60ff5f1b1960016040518060400160405280601181526020017032b4b3b2b71732309732b532b1ba34b7b760791b81525060405160200161188b9190611dc7565b604051602081830303815290604052805190602001205f1c6118ad9190612173565b6040516020016118bf91815260200190565b60408051601f1981840301815291905280516020909101201692915050565b60606118ec84845f856118f6565b90505b9392505050565b6060824710156119575760405162461bcd60e51b815260206004820152602660248201527f416464726573733a20696e73756666696369656e742062616c616e636520666f6044820152651c8818d85b1b60d21b6064820152608401610992565b6001600160a01b0385163b6119ae5760405162461bcd60e51b815260206004820152601d60248201527f416464726573733a2063616c6c20746f206e6f6e2d636f6e74726163740000006044820152606401610992565b5f5f866001600160a01b031685876040516119c99190611dc7565b5f6040518083038185875af1925050503d805f8114611a03576040519150601f19603f3d011682016040523d82523d5f602084013e611a08565b606091505b5091509150611a18828286611a23565b979650505050505050565b60608315611a325750816118ef565b825115611a425782518084602001fd5b8160405162461bcd60e51b81526004016109929190611d06565b6001600160a01b0381168114610520575f5ffd5b8035611a7b81611a5c565b919050565b5f60208284031215611a90575f5ffd5b81356118ef81611a5c565b634e487b7160e01b5f52604160045260245ffd5b604080519081016001600160401b0381118282101715611ad157611ad1611a9b565b60405290565b604051601f8201601f191681016001600160401b0381118282101715611aff57611aff611a9b565b604052919050565b5f82601f830112611b16575f5ffd5b611b1e611aaf565b806040840185811115611b2f575f5ffd5b845b81811015611b49578035845260209384019301611b31565b509095945050505050565b5f5f5f5f848603610100811215611b69575f5ffd5b8535611b7481611a5c565b94506080601f1982011215611b87575f5ffd5b611b8f611aaf565b611b9c8860208901611b07565b8152611bab8860608901611b07565b602082015293506040609f1982011215611bc3575f5ffd5b50611bcc611aaf565b60a0860135815260c086013560208201529150611beb60e08601611a70565b905092959194509250565b5f5f60408385031215611c07575f5ffd5b8235611c1281611a5c565b915060208301356001600160401b03811115611c2c575f5ffd5b8301601f81018513611c3c575f5ffd5b80356001600160401b03811115611c5557611c55611a9b565b611c68601f8201601f1916602001611ad7565b818152866020838501011115611c7c575f5ffd5b816020840160208301375f602083830101528093505050509250929050565b5f60208284031215611cab575f5ffd5b5035919050565b5f60208284031215611cc2575f5ffd5b81356001600160401b03811681146118ef575f5ffd5b5f81518084528060208401602086015e5f602082860101526020601f19601f83011685010191505092915050565b602081525f6118ef6020830184611cd8565b5f60208284031215611d28575f5ffd5b81516118ef81611a5c565b5f5f8284036060811215611d45575f5ffd5b6040811215611d52575f5ffd5b50611d5b611aaf565b835181526020808501519082015260409093015192949293505050565b600181811c90821680611d8c57607f821691505b602082108103611daa57634e487b7160e01b5f52602260045260245ffd5b50919050565b5f81518060208401855e5f93019283525090919050565b5f6118ef8284611db0565b858152602081018590526001600160a01b03848116604083015260a0606083018190528454918216818401521c6001600160401b031660c0820152600183015460e082015260806101008201526002830180545f91908290611e3381611d78565b80610120870152600182165f8114611e525760018114611e7057611ea3565b60ff19831661014088015261014082151560051b8801019350611ea3565b845f5260205f205f5b83811015611e995781548982016101400152600190910190602001611e79565b8801610140019450505b5050506001600160a01b03851660808501529150611ebe9050565b9695505050505050565b805f5b60028110156104d6578151845260209384019390910190600101611ecb565b8481526101208101611f09602083018680518252602090810151910152565b611f17606083018551611ec8565b6020840151611f2960a0840182611ec8565b50825160e0830152602083015161010083015295945050505050565b80518015158114611a7b575f5ffd5b5f5f60408385031215611f65575f5ffd5b611f6e83611f45565b9150611f7c60208401611f45565b90509250929050565b634e487b7160e01b5f52601160045260245ffd5b80820281158282048414176105a4576105a4611f85565b5f60208284031215611fc0575f5ffd5b6118ef82611f45565b808201808211156105a4576105a4611f85565b6001600160a01b03831681526040602082018190525f906118ec90830184611cd8565b6001600160401b0381811683821601908111156105a4576105a4611f85565b601f8211156105fa57805f5260205f20601f840160051c810160208510156120435750805b601f840160051c820191505b81811015612062575f815560010161204f565b5050505050565b81516001600160401b0381111561208257612082611a9b565b612096816120908454611d78565b8461201e565b6020601f8211600181146120c8575f83156120b15750848201515b5f19600385901b1c1916600184901b178455612062565b5f84815260208120601f198516915b828110156120f757878501518255602094850194600190920191016120d7565b508482101561211457868401515f19600387901b60f8161c191681555b50505050600190811b01905550565b6001600160a01b0387811682528616602082015260c0604082018190525f9061214e90830187611cd8565b6001600160401b03958616606084015293909416608082015260a00152949350505050565b818103818111156105a4576105a4611f8556fea2646970667358221220409e7fc9355e93357227bd4f14184da1704a53824632c1d03476e86e61e8abfb64736f6c634300081d0033",
    "linkReferences": {}
  },
  "methodIdentifiers": {
    "addEjectorBalance(uint256)": "3b115362",
    "cancelEjection()": "39ff1868",
    "cancelEjectionByEjector(address)": "b0f0ba46",
    "cancelEjectionWithSig(address,(uint256[2],uint256[2]),(uint256,uint256),address)": "222abf86",
    "completeEjection(address,bytes)": "2d716fbc",
    "ejectionCooldown()": "a96f783e",
    "ejectionDelay()": "4f8c9a28",
    "ejectionQuorums(address)": "e4049007",
    "ejectionTime(address)": "156570ff",
    "getDepositToken()": "fb1b5c7b",
    "getEjector(address)": "c412ef3b",
    "getEjectorBalance(address)": "7c292e47",
    "lastEjectionInitiated(address)": "e6f51414",
    "semver()": "cda493c8",
    "setCooldown(uint64)": "4b11982e",
    "setDelay(uint64)": "c1073302",
    "startEjection(address,bytes)": "b756c6fb",
    "withdrawEjectorBalance(uint256)": "d0ac9cdf"
  },
  "id": 176
}