{
  "abi": [
    {
      "type": "constructor",
      "inputs": [
        {
          "name": "_registryCoordinator",
          "type": "address",
          "internalType": "contract IRegistryCoordinator"
        }
      ],
      "stateMutability": "nonpayable"
    },
    {
      "type": "function",
      "name": "apkHistory",
      "inputs": [
        {
          "name": "",
          "type": "uint8",
          "internalType": "uint8"
        },
        {
          "name": "",
          "type": "uint256",
          "internalType": "uint256"
        }
      ],
      "outputs": [
        {
          "name": "apkHash",
          "type": "bytes24",
          "internalType": "bytes24"
        },
        {
          "name": "updateBlockNumber",
          "type": "uint32",
          "internalType": "uint32"
        },
        {
          "name": "nextUpdateBlockNumber",
          "type": "uint32",
          "internalType": "uint32"
        }
      ],
      "stateMutability": "view"
    },
    {
      "type": "function",
      "name": "currentApk",
      "inputs": [
        {
          "name": "",
          "type": "uint8",
          "internalType": "uint8"
        }
      ],
      "outputs": [
        {
          "name": "X",
          "type": "uint256",
          "internalType": "uint256"
        },
        {
          "name": "Y",
          "type": "uint256",
          "internalType": "uint256"
        }
      ],
      "stateMutability": "view"
    },
    {
      "type": "function",
      "name": "deregisterOperator",
      "inputs": [
        {
          "name": "operator",
          "type": "address",
          "internalType": "address"
        },
        {
          "name": "quorumNumbers",
          "type": "bytes",
          "internalType": "bytes"
        }
      ],
      "outputs": [],
      "stateMutability": "nonpayable"
    },
    {
      "type": "function",
      "name": "getApk",
      "inputs": [
        {
          "name": "quorumNumber",
          "type": "uint8",
          "internalType": "uint8"
        }
      ],
      "outputs": [
        {
          "name": "",
          "type": "tuple",
          "internalType": "struct BN254.G1Point",
          "components": [
            {
              "name": "X",
              "type": "uint256",
              "internalType": "uint256"
            },
            {
              "name": "Y",
              "type": "uint256",
              "internalType": "uint256"
            }
          ]
        }
      ],
      "stateMutability": "view"
    },
    {
      "type": "function",
      "name": "getApkHashAtBlockNumberAndIndex",
      "inputs": [
        {
          "name": "quorumNumber",
          "type": "uint8",
          "internalType": "uint8"
        },
        {
          "name": "blockNumber",
          "type": "uint32",
          "internalType": "uint32"
        },
        {
          "name": "index",
          "type": "uint256",
          "internalType": "uint256"
        }
      ],
      "outputs": [
        {
          "name": "",
          "type": "bytes24",
          "internalType": "bytes24"
        }
      ],
      "stateMutability": "view"
    },
    {
      "type": "function",
      "name": "getApkHistoryLength",
      "inputs": [
        {
          "name": "quorumNumber",
          "type": "uint8",
          "internalType": "uint8"
        }
      ],
      "outputs": [
        {
          "name": "",
          "type": "uint32",
          "internalType": "uint32"
        }
      ],
      "stateMutability": "view"
    },
    {
      "type": "function",
      "name": "getApkIndicesAtBlockNumber",
      "inputs": [
        {
          "name": "quorumNumbers",
          "type": "bytes",
          "internalType": "bytes"
        },
        {
          "name": "blockNumber",
          "type": "uint256",
          "internalType": "uint256"
        }
      ],
      "outputs": [
        {
          "name": "",
          "type": "uint32[]",
          "internalType": "uint32[]"
        }
      ],
      "stateMutability": "view"
    },
    {
      "type": "function",
      "name": "getApkUpdateAtIndex",
      "inputs": [
        {
          "name": "quorumNumber",
          "type": "uint8",
          "internalType": "uint8"
        },
        {
          "name": "index",
          "type": "uint256",
          "internalType": "uint256"
        }
      ],
      "outputs": [
        {
          "name": "",
          "type": "tuple",
          "internalType": "struct IBLSApkRegistry.ApkUpdate",
          "components": [
            {
              "name": "apkHash",
              "type": "bytes24",
              "internalType": "bytes24"
            },
            {
              "name": "updateBlockNumber",
              "type": "uint32",
              "internalType": "uint32"
            },
            {
              "name": "nextUpdateBlockNumber",
              "type": "uint32",
              "internalType": "uint32"
            }
          ]
        }
      ],
      "stateMutability": "view"
    },
    {
      "type": "function",
      "name": "getOperatorFromPubkeyHash",
      "inputs": [
        {
          "name": "pubkeyHash",
          "type": "bytes32",
          "internalType": "bytes32"
        }
      ],
      "outputs": [
        {
          "name": "",
          "type": "address",
          "internalType": "address"
        }
      ],
      "stateMutability": "view"
    },
    {
      "type": "function",
      "name": "getOperatorId",
      "inputs": [
        {
          "name": "operator",
          "type": "address",
          "internalType": "address"
        }
      ],
      "outputs": [
        {
          "name": "",
          "type": "bytes32",
          "internalType": "bytes32"
        }
      ],
      "stateMutability": "view"
    },
    {
      "type": "function",
      "name": "getRegisteredPubkey",
      "inputs": [
        {
          "name": "operator",
          "type": "address",
          "internalType": "address"
        }
      ],
      "outputs": [
        {
          "name": "",
          "type": "tuple",
          "internalType": "struct BN254.G1Point",
          "components": [
            {
              "name": "X",
              "type": "uint256",
              "internalType": "uint256"
            },
            {
              "name": "Y",
              "type": "uint256",
              "internalType": "uint256"
            }
          ]
        },
        {
          "name": "",
          "type": "bytes32",
          "internalType": "bytes32"
        }
      ],
      "stateMutability": "view"
    },
    {
      "type": "function",
      "name": "initializeQuorum",
      "inputs": [
        {
          "name": "quorumNumber",
          "type": "uint8",
          "internalType": "uint8"
        }
      ],
      "outputs": [],
      "stateMutability": "nonpayable"
    },
    {
      "type": "function",
      "name": "operatorToPubkey",
      "inputs": [
        {
          "name": "",
          "type": "address",
          "internalType": "address"
        }
      ],
      "outputs": [
        {
          "name": "X",
          "type": "uint256",
          "internalType": "uint256"
        },
        {
          "name": "Y",
          "type": "uint256",
          "internalType": "uint256"
        }
      ],
      "stateMutability": "view"
    },
    {
      "type": "function",
      "name": "operatorToPubkeyHash",
      "inputs": [
        {
          "name": "",
          "type": "address",
          "internalType": "address"
        }
      ],
      "outputs": [
        {
          "name": "",
          "type": "bytes32",
          "internalType": "bytes32"
        }
      ],
      "stateMutability": "view"
    },
    {
      "type": "function",
      "name": "pubkeyHashToOperator",
      "inputs": [
        {
          "name": "",
          "type": "bytes32",
          "internalType": "bytes32"
        }
      ],
      "outputs": [
        {
          "name": "",
          "type": "address",
          "internalType": "address"
        }
      ],
      "stateMutability": "view"
    },
    {
      "type": "function",
      "name": "registerBLSPublicKey",
      "inputs": [
        {
          "name": "operator",
          "type": "address",
          "internalType": "address"
        },
        {
          "name": "params",
          "type": "tuple",
          "internalType": "struct IBLSApkRegistry.PubkeyRegistrationParams",
          "components": [
            {
              "name": "pubkeyRegistrationSignature",
              "type": "tuple",
              "internalType": "struct BN254.G1Point",
              "components": [
                {
                  "name": "X",
                  "type": "uint256",
                  "internalType": "uint256"
                },
                {
                  "name": "Y",
                  "type": "uint256",
                  "internalType": "uint256"
                }
              ]
            },
            {
              "name": "pubkeyG1",
              "type": "tuple",
              "internalType": "struct BN254.G1Point",
              "components": [
                {
                  "name": "X",
                  "type": "uint256",
                  "internalType": "uint256"
                },
                {
                  "name": "Y",
                  "type": "uint256",
                  "internalType": "uint256"
                }
              ]
            },
            {
              "name": "pubkeyG2",
              "type": "tuple",
              "internalType": "struct BN254.G2Point",
              "components": [
                {
                  "name": "X",
                  "type": "uint256[2]",
                  "internalType": "uint256[2]"
                },
                {
                  "name": "Y",
                  "type": "uint256[2]",
                  "internalType": "uint256[2]"
                }
              ]
            }
          ]
        },
        {
          "name": "pubkeyRegistrationMessageHash",
          "type": "tuple",
          "internalType": "struct BN254.G1Point",
          "components": [
            {
              "name": "X",
              "type": "uint256",
              "internalType": "uint256"
            },
            {
              "name": "Y",
              "type": "uint256",
              "internalType": "uint256"
            }
          ]
        }
      ],
      "outputs": [
        {
          "name": "operatorId",
          "type": "bytes32",
          "internalType": "bytes32"
        }
      ],
      "stateMutability": "nonpayable"
    },
    {
      "type": "function",
      "name": "registerOperator",
      "inputs": [
        {
          "name": "operator",
          "type": "address",
          "internalType": "address"
        },
        {
          "name": "quorumNumbers",
          "type": "bytes",
          "internalType": "bytes"
        }
      ],
      "outputs": [],
      "stateMutability": "nonpayable"
    },
    {
      "type": "function",
      "name": "registryCoordinator",
      "inputs": [],
      "outputs": [
        {
          "name": "",
          "type": "address",
          "internalType": "address"
        }
      ],
      "stateMutability": "view"
    },
    {
      "type": "event",
      "name": "Initialized",
      "inputs": [
        {
          "name": "version",
          "type": "uint8",
          "indexed": false,
          "internalType": "uint8"
        }
      ],
      "anonymous": false
    },
    {
      "type": "event",
      "name": "NewPubkeyRegistration",
      "inputs": [
        {
          "name": "operator",
          "type": "address",
          "indexed": true,
          "internalType": "address"
        },
        {
          "name": "pubkeyG1",
          "type": "tuple",
          "indexed": false,
          "internalType": "struct BN254.G1Point",
          "components": [
            {
              "name": "X",
              "type": "uint256",
              "internalType": "uint256"
            },
            {
              "name": "Y",
              "type": "uint256",
              "internalType": "uint256"
            }
          ]
        },
        {
          "name": "pubkeyG2",
          "type": "tuple",
          "indexed": false,
          "internalType": "struct BN254.G2Point",
          "components": [
            {
              "name": "X",
              "type": "uint256[2]",
              "internalType": "uint256[2]"
            },
            {
              "name": "Y",
              "type": "uint256[2]",
              "internalType": "uint256[2]"
            }
          ]
        }
      ],
      "anonymous": false
    },
    {
      "type": "event",
      "name": "OperatorAddedToQuorums",
      "inputs": [
        {
          "name": "operator",
          "type": "address",
          "indexed": false,
          "internalType": "address"
        },
        {
          "name": "operatorId",
          "type": "bytes32",
          "indexed": false,
          "internalType": "bytes32"
        },
        {
          "name": "quorumNumbers",
          "type": "bytes",
          "indexed": false,
          "internalType": "bytes"
        }
      ],
      "anonymous": false
    },
    {
      "type": "event",
      "name": "OperatorRemovedFromQuorums",
      "inputs": [
        {
          "name": "operator",
          "type": "address",
          "indexed": false,
          "internalType": "address"
        },
        {
          "name": "operatorId",
          "type": "bytes32",
          "indexed": false,
          "internalType": "bytes32"
        },
        {
          "name": "quorumNumbers",
          "type": "bytes",
          "indexed": false,
          "internalType": "bytes"
        }
      ],
      "anonymous": false
    }
  ],
  "bytecode": {
    "object": "0x60a060405234801561000f575f5ffd5b50604051611f00380380611f0083398101604081905261002e91610108565b6001600160a01b0381166080528061004461004b565b5050610135565b5f54610100900460ff16156100b65760405162461bcd60e51b815260206004820152602760248201527f496e697469616c697a61626c653a20636f6e747261637420697320696e697469604482015266616c697a696e6760c81b606482015260840160405180910390fd5b5f5460ff9081161015610106575f805460ff191660ff9081179091556040519081527f7f26b83ff96e1f2b6a682f133852f6798a09c465da95921460cefb38474024989060200160405180910390a15b565b5f60208284031215610118575f5ffd5b81516001600160a01b038116811461012e575f5ffd5b9392505050565b608051611dac6101545f395f81816103030152610f960152611dac5ff3fe608060405234801561000f575f5ffd5b5060043610610110575f3560e01c80636d14a9871161009e578063bf79ce581161006e578063bf79ce58146103bf578063d5254a8c146103d2578063de29fac0146103f2578063e8bb9ae614610411578063f4e24fe514610439575f5ffd5b80636d14a987146102fe5780637916cea6146103255780637ff81a8714610366578063a3db80e214610399575f5ffd5b80633fb27952116100e45780633fb27952146101d657806347b314e8146101e95780635f61a88414610229578063605747d51461028357806368bccaac146102d1575f5ffd5b8062a1f4cb1461011457806313542a4e1461015457806326d941f21461018a578063377ed99d1461019f575b5f5ffd5b61013a61012236600461184c565b60036020525f90815260409020805460019091015482565b604080519283526020830191909152015b60405180910390f35b61017c61016236600461184c565b6001600160a01b03165f9081526001602052604090205490565b60405190815260200161014b565b61019d61019836600461187c565b61044c565b005b6101c16101ad36600461187c565b60ff165f9081526004602052604090205490565b60405163ffffffff909116815260200161014b565b61019d6101e4366004611903565b61055f565b6102116101f73660046119a8565b5f908152600260205260409020546001600160a01b031690565b6040516001600160a01b03909116815260200161014b565b61027661023736600461187c565b604080518082019091525f80825260208201525060ff165f90815260056020908152604091829020825180840190935280548352600101549082015290565b60405161014b91906119bf565b6102966102913660046119d6565b6105db565b60408051825167ffffffffffffffff1916815260208084015163ffffffff90811691830191909152928201519092169082015260600161014b565b6102e46102df3660046119fe565b61066c565b60405167ffffffffffffffff19909116815260200161014b565b6102117f000000000000000000000000000000000000000000000000000000000000000081565b6103386103333660046119d6565b610805565b6040805167ffffffffffffffff19909416845263ffffffff928316602085015291169082015260600161014b565b61037961037436600461184c565b61084c565b60408051835181526020938401519381019390935282015260600161014b565b61013a6103a736600461187c565b60056020525f90815260409020805460019091015482565b61017c6103cd366004611a42565b610917565b6103e56103e0366004611a9a565b610d1d565b60405161014b9190611b0c565b61017c61040036600461184c565b60016020525f908152604090205481565b61021161041f3660046119a8565b60026020525f90815260409020546001600160a01b031681565b61019d610447366004611903565b610f24565b610454610f8b565b60ff81165f90815260046020526040902054156104d75760405162461bcd60e51b815260206004820152603660248201527f424c5341706b52656769737472792e696e697469616c697a6551756f72756d3a6044820152752071756f72756d20616c72656164792065786973747360501b60648201526084015b60405180910390fd5b60ff165f908152600460209081526040808320815160608101835284815263ffffffff4381168286019081528285018781528454600181018655948852959096209151919092018054955194518316600160e01b026001600160e01b0395909316600160c01b026001600160e01b03199096169190931c179390931791909116919091179055565b610567610f8b565b5f6105718361084c565b50905061057e8282611042565b7f73a2b7fb844724b971802ae9b15db094d4b7192df9d7350e14eb466b9b22eb4e836105be856001600160a01b03165f9081526001602052604090205490565b846040516105ce93929190611b54565b60405180910390a1505050565b604080516060810182525f808252602080830182905282840182905260ff86168252600490529190912080548390811061061757610617611b9f565b5f91825260209182902060408051606081018252919092015467ffffffffffffffff1981841b16825263ffffffff600160c01b8204811694830194909452600160e01b90049092169082015290505b92915050565b60ff83165f90815260046020526040812080548291908490811061069257610692611b9f565b5f91825260209182902060408051606081018252919092015467ffffffffffffffff1981841b16825263ffffffff600160c01b82048116948301859052600160e01b9091048116928201929092529250851610156107585760405162461bcd60e51b815260206004820152603e60248201527f424c5341706b52656769737472792e5f76616c696461746541706b486173684160448201527f74426c6f636b4e756d6265723a20696e64657820746f6f20726563656e74000060648201526084016104ce565b604081015163ffffffff16158061077e5750806040015163ffffffff168463ffffffff16105b6107fc5760405162461bcd60e51b815260206004820152604360248201527f424c5341706b52656769737472792e5f76616c696461746541706b486173684160448201527f74426c6f636b4e756d6265723a206e6f74206c61746573742061706b2075706460648201526261746560e81b608482015260a4016104ce565b51949350505050565b6004602052815f5260405f20818154811061081e575f80fd5b5f91825260209091200154604081901b925063ffffffff600160c01b820481169250600160e01b9091041683565b604080518082019091525f80825260208201526001600160a01b0382165f8181526003602090815260408083208151808301835281548152600191820154818501529484529091528120549091908061090d5760405162461bcd60e51b815260206004820152603e60248201527f424c5341706b52656769737472792e676574526567697374657265645075626b60448201527f65793a206f70657261746f72206973206e6f742072656769737465726564000060648201526084016104ce565b9094909350915050565b5f610920610f8b565b5f61094c61093636869003860160408701611bb3565b80515f9081526020918201519091526040902090565b90507fad3228b676f7d3cd4284a5443f17f1962b36e491b30a40b2405849e597ba5fb581036109d2576040805162461bcd60e51b81526020600482015260248101919091525f516020611d575f395f51905f5260448201527f4b65793a2063616e6e6f74207265676973746572207a65726f207075626b657960648201526084016104ce565b6001600160a01b0385165f9081526001602052604090205415610a5a5760405162461bcd60e51b815260206004820152604760248201525f516020611d575f395f51905f5260448201527f4b65793a206f70657261746f7220616c72656164792072656769737465726564606482015266207075626b657960c81b608482015260a4016104ce565b5f818152600260205260409020546001600160a01b031615610adc5760405162461bcd60e51b815260206004820152604260248201525f516020611d575f395f51905f5260448201527f4b65793a207075626c6963206b657920616c7265616479207265676973746572606482015261195960f21b608482015260a4016104ce565b604080515f917f30644e72e131a029b85045b68181585d2833e84879b9709143e1f593f000000191610b34918835916020808b0135928b01359160608c01359160808d019160c08e01918d35918e8201359101611be4565b604051602081830303815290604052805190602001205f1c610b569190611c26565b9050610bef610b8f610b7a83610b74368a90038a0160408b01611bb3565b9061127e565b610b8936899003890189611bb3565b9061130d565b610b976113a0565b610bd8610bc985610b746040805180820182525f80825260209182015281518083019092526001825260029082015290565b610b89368a90038a018a611bb3565b610bea368a90038a0160808b01611c87565b611460565b610c895760405162461bcd60e51b815260206004820152606c60248201525f516020611d575f395f51905f5260448201527f4b65793a2065697468657220746865204731207369676e61747572652069732060648201527f77726f6e672c206f7220473120616e642047322070726976617465206b65792060848201526b0c8de40dcdee840dac2e8c6d60a31b60a482015260c4016104ce565b6001600160a01b0386165f8181526003602090815260408083208982018035825560608b013560019283015590835281842087905586845260029092529182902080546001600160a01b0319168417905590517fe3fb6613af2e8930cf85d47fcf6db10192224a64c6cbe8023e0eee1ba382804191610d0c9160808a0190611cc6565b60405180910390a250949350505050565b60605f8367ffffffffffffffff811115610d3957610d39611895565b604051908082528060200260200182016040528015610d62578160200160208202803683370190505b5090505f5b84811015610f1b575f868683818110610d8257610d82611b9f565b919091013560f81c5f818152600460205260409020549092509050801580610de2575060ff82165f9081526004602052604081208054909190610dc757610dc7611b9f565b5f91825260209091200154600160c01b900463ffffffff1686105b15610e6f5760405162461bcd60e51b815260206004820152605160248201527f424c5341706b52656769737472792e67657441706b496e64696365734174426c60448201527f6f636b4e756d6265723a20626c6f636b4e756d626572206973206265666f7265606482015270207468652066697273742075706461746560781b608482015260a4016104ce565b805b8015610f105760ff83165f9081526004602052604090208790610e95600184611d04565b81548110610ea557610ea5611b9f565b5f91825260209091200154600160c01b900463ffffffff1611610efe57610ecd600182611d04565b858581518110610edf57610edf611b9f565b602002602001019063ffffffff16908163ffffffff1681525050610f10565b80610f0881611d17565b915050610e71565b505050600101610d67565b50949350505050565b610f2c610f8b565b5f610f368361084c565b509050610f4b82610f46836116be565b611042565b7ff843ecd53a563675e62107be1494fdde4a3d49aeedaf8d88c616d85346e3500e836105be856001600160a01b03165f9081526001602052604090205490565b336001600160a01b037f000000000000000000000000000000000000000000000000000000000000000016146110405760405162461bcd60e51b815260206004820152604e60248201527f424c5341706b52656769737472792e6f6e6c795265676973747279436f6f726460448201527f696e61746f723a2063616c6c6572206973206e6f74207468652072656769737460648201526d393c9031b7b7b93234b730ba37b960911b608482015260a4016104ce565b565b604080518082019091525f80825260208201525f5b8351811015611278575f84828151811061107357611073611b9f565b0160209081015160f81c5f81815260049092526040822054909250908190036111045760405162461bcd60e51b815260206004820152603d60248201527f424c5341706b52656769737472792e5f70726f6365737351756f72756d41706b60448201527f5570646174653a2071756f72756d20646f6573206e6f7420657869737400000060648201526084016104ce565b60ff82165f908152600560209081526040918290208251808401909352805483526001015490820152611137908661130d565b60ff83165f81815260056020908152604080832085518082558684018051600193840155908552518352818420948452600490925282209397509192909161117f9085611d04565b8154811061118f5761118f611b9f565b5f918252602090912001805490915063ffffffff438116600160c01b90920416036111cd5780546001600160c01b031916604083901c178155611268565b805463ffffffff438116600160e01b8181026001600160e01b0394851617855560ff88165f908152600460209081526040808320815160608101835267ffffffffffffffff198b16815280840196875280830185815282546001810184559286529390942093519301805495519251871690940291909516600160c01b026001600160e01b0319949094169190941c17919091179092161790555b5050600190920191506110579050565b50505050565b604080518082019091525f808252602082015261129961177a565b835181526020808501519082015260408082018490525f908360608460076107d05a03fa905080806112c757fe5b50806113055760405162461bcd60e51b815260206004820152600d60248201526c1958cb5b5d5b0b59985a5b1959609a1b60448201526064016104ce565b505092915050565b604080518082019091525f8082526020820152611328611798565b835181526020808501518183015283516040808401919091529084015160608301525f908360808460066107d05a03fa9050808061136257fe5b50806113055760405162461bcd60e51b815260206004820152600d60248201526c1958cb5859190b59985a5b1959609a1b60448201526064016104ce565b6113a86117b6565b50604080516080810182527f198e9393920d483a7260bfb731fb5d25f1aa493335a9e71297e485b7aef312c28183019081527f1800deef121f1e76426a00665e5c4479674322d4f75edadd46debd5cd992f6ed6060830152815281518083019092527f275dc4a288d1afb3cbb1ac09187524c7db36395df7be3b99e673b13a075a65ec82527f1d9befcd05a5323e6da4d435f3b617cdb3af83285c2df711ef39c01571827f9d60208381019190915281019190915290565b6040805180820182528581526020808201859052825180840190935285835282018390525f9161148e6117db565b5f5b6002811015611645575f6114a5826006611d2c565b90508482600281106114b9576114b9611b9f565b602002015151836114ca835f611d43565b600c81106114da576114da611b9f565b60200201528482600281106114f1576114f1611b9f565b602002015160200151838260016115089190611d43565b600c811061151857611518611b9f565b602002015283826002811061152f5761152f611b9f565b6020020151515183611542836002611d43565b600c811061155257611552611b9f565b602002015283826002811061156957611569611b9f565b6020020151516001602002015183611582836003611d43565b600c811061159257611592611b9f565b60200201528382600281106115a9576115a9611b9f565b6020020151602001515f600281106115c3576115c3611b9f565b6020020151836115d4836004611d43565b600c81106115e4576115e4611b9f565b60200201528382600281106115fb576115fb611b9f565b60200201516020015160016002811061161657611616611b9f565b602002015183611627836005611d43565b600c811061163757611637611b9f565b602002015250600101611490565b5061164e6117fa565b5f6020826101808560086107d05a03fa9050808061166857fe5b50806116ae5760405162461bcd60e51b81526020600482015260156024820152741c185a5c9a5b99cb5bdc18dbd9194b59985a5b1959605a1b60448201526064016104ce565b5051151598975050505050505050565b604080518082019091525f808252602082015281511580156116e257506020820151155b156116ff575050604080518082019091525f808252602082015290565b6040518060400160405280835f015181526020017f30644e72e131a029b85045b68181585d97816a916871ca8d3c208c16d87cfd4784602001516117439190611c26565b61176d907f30644e72e131a029b85045b68181585d97816a916871ca8d3c208c16d87cfd47611d04565b905292915050565b919050565b60405180606001604052806003906020820280368337509192915050565b60405180608001604052806004906020820280368337509192915050565b60405180604001604052806117c9611818565b81526020016117d6611818565b905290565b604051806101800160405280600c906020820280368337509192915050565b60405180602001604052806001906020820280368337509192915050565b60405180604001604052806002906020820280368337509192915050565b80356001600160a01b0381168114611775575f5ffd5b5f6020828403121561185c575f5ffd5b61186582611836565b9392505050565b803560ff81168114611775575f5ffd5b5f6020828403121561188c575f5ffd5b6118658261186c565b634e487b7160e01b5f52604160045260245ffd5b6040805190810167ffffffffffffffff811182821017156118cc576118cc611895565b60405290565b604051601f8201601f1916810167ffffffffffffffff811182821017156118fb576118fb611895565b604052919050565b5f5f60408385031215611914575f5ffd5b61191d83611836565b9150602083013567ffffffffffffffff811115611938575f5ffd5b8301601f81018513611948575f5ffd5b803567ffffffffffffffff81111561196257611962611895565b611975601f8201601f19166020016118d2565b818152866020838501011115611989575f5ffd5b816020840160208301375f602083830101528093505050509250929050565b5f602082840312156119b8575f5ffd5b5035919050565b815181526020808301519082015260408101610666565b5f5f604083850312156119e7575f5ffd5b6119f08361186c565b946020939093013593505050565b5f5f5f60608486031215611a10575f5ffd5b611a198461186c565b9250602084013563ffffffff81168114611a31575f5ffd5b929592945050506040919091013590565b5f5f5f838503610160811215611a56575f5ffd5b611a5f85611836565b9350610100601f1982011215611a73575f5ffd5b602085019250604061011f1982011215611a8b575f5ffd5b50610120840190509250925092565b5f5f5f60408486031215611aac575f5ffd5b833567ffffffffffffffff811115611ac2575f5ffd5b8401601f81018613611ad2575f5ffd5b803567ffffffffffffffff811115611ae8575f5ffd5b866020828401011115611af9575f5ffd5b6020918201979096509401359392505050565b602080825282518282018190525f918401906040840190835b81811015611b4957835163ffffffff16835260209384019390920191600101611b25565b509095945050505050565b60018060a01b0384168152826020820152606060408201525f82518060608401528060208501608085015e5f608082850101526080601f19601f830116840101915050949350505050565b634e487b7160e01b5f52603260045260245ffd5b5f6040828403128015611bc4575f5ffd5b50611bcd6118a9565b823581526020928301359281019290925250919050565b888152876020820152866040820152856060820152604085608083013760408460c0830137610100810192909252610120820152610140019695505050505050565b5f82611c4057634e487b7160e01b5f52601260045260245ffd5b500690565b5f82601f830112611c54575f5ffd5b611c5c6118a9565b806040840185811115611c6d575f5ffd5b845b81811015611b49578035845260209384019301611c6f565b5f6080828403128015611c98575f5ffd5b50611ca16118a9565b611cab8484611c45565b8152611cba8460408501611c45565b60208201529392505050565b823581526020808401359082015260c0810160408381840137604080840160808401379392505050565b634e487b7160e01b5f52601160045260245ffd5b8181038181111561066657610666611cf0565b5f81611d2557611d25611cf0565b505f190190565b808202811582820484141761066657610666611cf0565b8082018082111561066657610666611cf056fe424c5341706b52656769737472792e7265676973746572424c535075626c6963a2646970667358221220457933d962b65686778823c0cbbcf859f837dde3c2bef303d33c7c848e11a46564736f6c634300081d0033",
    "linkReferences": {}
  },
  "methodIdentifiers": {
    "apkHistory(uint8,uint256)": "7916cea6",
    "currentApk(uint8)": "a3db80e2",
    "deregisterOperator(address,bytes)": "f4e24fe5",
    "getApk(uint8)": "5f61a884",
    "getApkHashAtBlockNumberAndIndex(uint8,uint32,uint256)": "68bccaac",
    "getApkHistoryLength(uint8)": "377ed99d",
    "getApkIndicesAtBlockNumber(bytes,uint256)": "d5254a8c",
    "getApkUpdateAtIndex(uint8,uint256)": "605747d5",
    "getOperatorFromPubkeyHash(bytes32)": "47b314e8",
    "getOperatorId(address)": "13542a4e",
    "getRegisteredPubkey(address)": "7ff81a87",
    "initializeQuorum(uint8)": "26d941f2",
    "operatorToPubkey(address)": "00a1f4cb",
    "operatorToPubkeyHash(address)": "de29fac0",
    "pubkeyHashToOperator(bytes32)": "e8bb9ae6",
    "registerBLSPublicKey(address,((uint256,uint256),(uint256,uint256),(uint256[2],uint256[2])),(uint256,uint256))": "bf79ce58",
    "registerOperator(address,bytes)": "3fb27952",
    "registryCoordinator()": "6d14a987"
  },
  "id": 44
}