{
  "abi": [
    {
      "type": "function",
      "name": "addAddress",
      "inputs": [
        {
          "name": "name",
          "type": "string",
          "internalType": "string"
        },
        {
          "name": "value",
          "type": "address",
          "internalType": "address"
        }
      ],
      "outputs": [],
      "stateMutability": "nonpayable"
    },
    {
      "type": "function",
      "name": "addConfigBlockNumber",
      "inputs": [
        {
          "name": "name",
          "type": "string",
          "internalType": "string"
        },
        {
          "name": "abn",
          "type": "uint256",
          "internalType": "uint256"
        },
        {
          "name": "value",
          "type": "bytes",
          "internalType": "bytes"
        }
      ],
      "outputs": [],
      "stateMutability": "nonpayable"
    },
    {
      "type": "function",
      "name": "addConfigTimeStamp",
      "inputs": [
        {
          "name": "name",
          "type": "string",
          "internalType": "string"
        },
        {
          "name": "activationTimeStamp",
          "type": "uint256",
          "internalType": "uint256"
        },
        {
          "name": "value",
          "type": "bytes",
          "internalType": "bytes"
        }
      ],
      "outputs": [],
      "stateMutability": "nonpayable"
    },
    {
      "type": "function",
      "name": "getActivationBlockNumber",
      "inputs": [
        {
          "name": "nameDigest",
          "type": "bytes32",
          "internalType": "bytes32"
        },
        {
          "name": "index",
          "type": "uint256",
          "internalType": "uint256"
        }
      ],
      "outputs": [
        {
          "name": "",
          "type": "uint256",
          "internalType": "uint256"
        }
      ],
      "stateMutability": "view"
    },
    {
      "type": "function",
      "name": "getActivationTimeStamp",
      "inputs": [
        {
          "name": "nameDigest",
          "type": "bytes32",
          "internalType": "bytes32"
        },
        {
          "name": "index",
          "type": "uint256",
          "internalType": "uint256"
        }
      ],
      "outputs": [
        {
          "name": "",
          "type": "uint256",
          "internalType": "uint256"
        }
      ],
      "stateMutability": "view"
    },
    {
      "type": "function",
      "name": "getAddress",
      "inputs": [
        {
          "name": "nameDigest",
          "type": "bytes32",
          "internalType": "bytes32"
        }
      ],
      "outputs": [
        {
          "name": "",
          "type": "address",
          "internalType": "address"
        }
      ],
      "stateMutability": "view"
    },
    {
      "type": "function",
      "name": "getAddress",
      "inputs": [
        {
          "name": "name",
          "type": "string",
          "internalType": "string"
        }
      ],
      "outputs": [
        {
          "name": "",
          "type": "address",
          "internalType": "address"
        }
      ],
      "stateMutability": "view"
    },
    {
      "type": "function",
      "name": "getAllConfigNamesBlockNumber",
      "inputs": [],
      "outputs": [
        {
          "name": "",
          "type": "string[]",
          "internalType": "string[]"
        }
      ],
      "stateMutability": "view"
    },
    {
      "type": "function",
      "name": "getAllConfigNamesTimeStamp",
      "inputs": [],
      "outputs": [
        {
          "name": "",
          "type": "string[]",
          "internalType": "string[]"
        }
      ],
      "stateMutability": "view"
    },
    {
      "type": "function",
      "name": "getAllNames",
      "inputs": [],
      "outputs": [
        {
          "name": "",
          "type": "string[]",
          "internalType": "string[]"
        }
      ],
      "stateMutability": "view"
    },
    {
      "type": "function",
      "name": "getCheckpointBlockNumber",
      "inputs": [
        {
          "name": "nameDigest",
          "type": "bytes32",
          "internalType": "bytes32"
        },
        {
          "name": "index",
          "type": "uint256",
          "internalType": "uint256"
        }
      ],
      "outputs": [
        {
          "name": "",
          "type": "tuple",
          "internalType": "struct ConfigRegistryTypes.BlockNumberCheckpoint",
          "components": [
            {
              "name": "activationBlock",
              "type": "uint256",
              "internalType": "uint256"
            },
            {
              "name": "value",
              "type": "bytes",
              "internalType": "bytes"
            }
          ]
        }
      ],
      "stateMutability": "view"
    },
    {
      "type": "function",
      "name": "getCheckpointTimeStamp",
      "inputs": [
        {
          "name": "nameDigest",
          "type": "bytes32",
          "internalType": "bytes32"
        },
        {
          "name": "index",
          "type": "uint256",
          "internalType": "uint256"
        }
      ],
      "outputs": [
        {
          "name": "",
          "type": "tuple",
          "internalType": "struct ConfigRegistryTypes.TimeStampCheckpoint",
          "components": [
            {
              "name": "activationTime",
              "type": "uint256",
              "internalType": "uint256"
            },
            {
              "name": "value",
              "type": "bytes",
              "internalType": "bytes"
            }
          ]
        }
      ],
      "stateMutability": "view"
    },
    {
      "type": "function",
      "name": "getConfigBlockNumber",
      "inputs": [
        {
          "name": "nameDigest",
          "type": "bytes32",
          "internalType": "bytes32"
        },
        {
          "name": "index",
          "type": "uint256",
          "internalType": "uint256"
        }
      ],
      "outputs": [
        {
          "name": "",
          "type": "bytes",
          "internalType": "bytes"
        }
      ],
      "stateMutability": "view"
    },
    {
      "type": "function",
      "name": "getConfigNameBlockNumber",
      "inputs": [
        {
          "name": "nameDigest",
          "type": "bytes32",
          "internalType": "bytes32"
        }
      ],
      "outputs": [
        {
          "name": "",
          "type": "string",
          "internalType": "string"
        }
      ],
      "stateMutability": "view"
    },
    {
      "type": "function",
      "name": "getConfigNameTimeStamp",
      "inputs": [
        {
          "name": "nameDigest",
          "type": "bytes32",
          "internalType": "bytes32"
        }
      ],
      "outputs": [
        {
          "name": "",
          "type": "string",
          "internalType": "string"
        }
      ],
      "stateMutability": "view"
    },
    {
      "type": "function",
      "name": "getConfigTimeStamp",
      "inputs": [
        {
          "name": "nameDigest",
          "type": "bytes32",
          "internalType": "bytes32"
        },
        {
          "name": "index",
          "type": "uint256",
          "internalType": "uint256"
        }
      ],
      "outputs": [
        {
          "name": "",
          "type": "bytes",
          "internalType": "bytes"
        }
      ],
      "stateMutability": "view"
    },
    {
      "type": "function",
      "name": "getName",
      "inputs": [
        {
          "name": "nameDigest",
          "type": "bytes32",
          "internalType": "bytes32"
        }
      ],
      "outputs": [
        {
          "name": "",
          "type": "string",
          "internalType": "string"
        }
      ],
      "stateMutability": "view"
    },
    {
      "type": "function",
      "name": "getNumCheckpointsBlockNumber",
      "inputs": [
        {
          "name": "nameDigest",
          "type": "bytes32",
          "internalType": "bytes32"
        }
      ],
      "outputs": [
        {
          "name": "",
          "type": "uint256",
          "internalType": "uint256"
        }
      ],
      "stateMutability": "view"
    },
    {
      "type": "function",
      "name": "getNumCheckpointsTimeStamp",
      "inputs": [
        {
          "name": "nameDigest",
          "type": "bytes32",
          "internalType": "bytes32"
        }
      ],
      "outputs": [
        {
          "name": "",
          "type": "uint256",
          "internalType": "uint256"
        }
      ],
      "stateMutability": "view"
    },
    {
      "type": "function",
      "name": "initialize",
      "inputs": [
        {
          "name": "accessControl",
          "type": "address",
          "internalType": "address"
        }
      ],
      "outputs": [],
      "stateMutability": "nonpayable"
    },
    {
      "type": "function",
      "name": "removeAddress",
      "inputs": [
        {
          "name": "name",
          "type": "string",
          "internalType": "string"
        }
      ],
      "outputs": [],
      "stateMutability": "nonpayable"
    },
    {
      "type": "function",
      "name": "replaceAddress",
      "inputs": [
        {
          "name": "name",
          "type": "string",
          "internalType": "string"
        },
        {
          "name": "value",
          "type": "address",
          "internalType": "address"
        }
      ],
      "outputs": [],
      "stateMutability": "nonpayable"
    },
    {
      "type": "function",
      "name": "semver",
      "inputs": [],
      "outputs": [
        {
          "name": "major",
          "type": "uint8",
          "internalType": "uint8"
        },
        {
          "name": "minor",
          "type": "uint8",
          "internalType": "uint8"
        },
        {
          "name": "patch",
          "type": "uint8",
          "internalType": "uint8"
        }
      ],
      "stateMutability": "pure"
    },
    {
      "type": "event",
      "name": "AddressAdded",
      "inputs": [
        {
          "name": "name",
          "type": "string",
          "indexed": false,
          "internalType": "string"
        },
        {
          "name": "key",
          "type": "bytes32",
          "indexed": true,
          "internalType": "bytes32"
        },
        {
          "name": "value",
          "type": "address",
          "indexed": true,
          "internalType": "address"
        }
      ],
      "anonymous": false
    },
    {
      "type": "event",
      "name": "AddressRemoved",
      "inputs": [
        {
          "name": "name",
          "type": "string",
          "indexed": false,
          "internalType": "string"
        },
        {
          "name": "key",
          "type": "bytes32",
          "indexed": true,
          "internalType": "bytes32"
        }
      ],
      "anonymous": false
    },
    {
      "type": "event",
      "name": "AddressReplaced",
      "inputs": [
        {
          "name": "name",
          "type": "string",
          "indexed": false,
          "internalType": "string"
        },
        {
          "name": "key",
          "type": "bytes32",
          "indexed": true,
          "internalType": "bytes32"
        },
        {
          "name": "oldValue",
          "type": "address",
          "indexed": true,
          "internalType": "address"
        },
        {
          "name": "newValue",
          "type": "address",
          "indexed": true,
          "internalType": "address"
        }
      ],
      "anonymous": false
    },
    {
      "type": "event",
      "name": "AddressSet",
      "inputs": [
        {
          "name": "key",
          "type": "bytes32",
          "indexed": false,
          "internalType": "bytes32"
        },
        {
          "name": "value",
          "type": "address",
          "indexed": true,
          "internalType": "address"
        }
      ],
      "anonymous": false
    },
    {
      "type": "event",
      "name": "BlockNumberConfigBytesSet",
      "inputs": [
        {
          "name": "nameDigest",
          "type": "bytes32",
          "indexed": false,
          "internalType": "bytes32"
        },
        {
          "name": "abn",
          "type": "uint256",
          "indexed": false,
          "internalType": "uint256"
        },
        {
          "name": "value",
          "type": "bytes",
          "indexed": false,
          "internalType": "bytes"
        }
      ],
      "anonymous": false
    },
    {
      "type": "event",
      "name": "Initialized",
      "inputs": [
        {
          "name": "version",
          "type": "uint8",
          "indexed": false,
          "internalType": "uint8"
        }
      ],
      "anonymous": false
    },
    {
      "type": "event",
      "name": "TimestampConfigBytesSet",
      "inputs": [
        {
          "name": "nameDigest",
          "type": "bytes32",
          "indexed": false,
          "internalType": "bytes32"
        },
        {
          "name": "activationTS",
          "type": "uint256",
          "indexed": false,
          "internalType": "uint256"
        },
        {
          "name": "value",
          "type": "bytes",
          "indexed": false,
          "internalType": "bytes"
        }
      ],
      "anonymous": false
    },
    {
      "type": "error",
      "name": "AddressAlreadyExists",
      "inputs": [
        {
          "name": "name",
          "type": "string",
          "internalType": "string"
        }
      ]
    },
    {
      "type": "error",
      "name": "AddressDoesNotExist",
      "inputs": [
        {
          "name": "name",
          "type": "string",
          "internalType": "string"
        }
      ]
    },
    {
      "type": "error",
      "name": "AlreadyInitialized",
      "inputs": []
    },
    {
      "type": "error",
      "name": "BlockNumberActivationInPast",
      "inputs": [
        {
          "name": "currBlock",
          "type": "uint256",
          "internalType": "uint256"
        },
        {
          "name": "abn",
          "type": "uint256",
          "internalType": "uint256"
        }
      ]
    },
    {
      "type": "error",
      "name": "NameDigestNotRegistered",
      "inputs": [
        {
          "name": "nameDigest",
          "type": "bytes32",
          "internalType": "bytes32"
        }
      ]
    },
    {
      "type": "error",
      "name": "NewValueIsOldValue",
      "inputs": [
        {
          "name": "value",
          "type": "address",
          "internalType": "address"
        }
      ]
    },
    {
      "type": "error",
      "name": "NotIncreasingBlockNumber",
      "inputs": [
        {
          "name": "prevABN",
          "type": "uint256",
          "internalType": "uint256"
        },
        {
          "name": "newABN",
          "type": "uint256",
          "internalType": "uint256"
        }
      ]
    },
    {
      "type": "error",
      "name": "NotIncreasingTimestamp",
      "inputs": [
        {
          "name": "prevTS",
          "type": "uint256",
          "internalType": "uint256"
        },
        {
          "name": "newTS",
          "type": "uint256",
          "internalType": "uint256"
        }
      ]
    },
    {
      "type": "error",
      "name": "TimeStampActivationInPast",
      "inputs": [
        {
          "name": "currTS",
          "type": "uint256",
          "internalType": "uint256"
        },
        {
          "name": "activationTS",
          "type": "uint256",
          "internalType": "uint256"
        }
      ]
    },
    {
      "type": "error",
      "name": "ZeroAddress",
      "inputs": []
    }
  ],
  "bytecode": {
    "object": "0x6080604052348015600e575f5ffd5b506121ab8061001c5f395ff3fe608060405234801561000f575f5ffd5b5060043610610148575f3560e01c8063b0465b5f116100bf578063d8e62afb11610079578063d8e62afb146102e4578063da1a8a0a146102f7578063e2c53d48146102ff578063f4a56be314610312578063f94d131214610325578063fb825e5f14610338575f5ffd5b8063b0465b5f14610266578063bf40fac114610279578063c4d66de81461028c578063c4fd42341461029f578063cda493c8146102b2578063ceb35b0f146102d1575f5ffd5b806354b8d5e31161011057806354b8d5e3146101da57806369393318146101fa578063723e08c81461020d578063a2e91eb91461022d578063a78735a214610240578063ac1cc0c014610253575f5ffd5b806316e343911461014c5780631d7762e71461017257806321f8a721146101875780633a45bc4f146101b25780634420027c146101c5575b5f5ffd5b61015f61015a366004611b7a565b610340565b6040519081526020015b60405180910390f35b610185610180366004611c5e565b610354565b005b61019a610195366004611ca9565b61052c565b6040516001600160a01b039091168152602001610169565b6101856101c0366004611cc0565b610536565b6101cd610625565b6040516101699190611d6e565b6101ed6101e8366004611ca9565b610634565b6040516101699190611dd1565b61015f610208366004611ca9565b61063f565b61022061021b366004611b7a565b610649565b6040516101699190611e09565b61018561023b366004611cc0565b610667565b61015f61024e366004611b7a565b610750565b61015f610261366004611ca9565b61075b565b6101ed610274366004611ca9565b610765565b61019a610287366004611e1b565b610770565b61018561029a366004611e4d565b61077d565b6102206102ad366004611b7a565b6108c4565b60408051600281525f6020820181905291810191909152606001610169565b6101856102df366004611c5e565b6108e2565b6101ed6102f2366004611b7a565b610a5e565b6101cd610a6a565b6101ed61030d366004611ca9565b610a74565b6101ed610320366004611b7a565b610a7f565b610185610333366004611e1b565b610a8b565b6101cd610be5565b5f61034b8383610bef565b90505b92915050565b61038b6103866040518060400160405280600e81526020016d1050d0d154d4d7d0d3d3951493d360921b815250610c32565b610c61565b604051632474521560e21b81525f5160206121565f395f51905f5260048201523360248201526001600160a01b0391909116906391d1485490604401602060405180830381865afa1580156103e2573d5f5f3e3d5ffd5b505050506040513d601f19601f820116820180604052508101906104069190611e66565b61042b5760405162461bcd60e51b815260040161042290611e8c565b60405180910390fd5b5f61043583610c32565b90505f61044182610c61565b90506001600160a01b03811661046c5783604051639d9aae3960e01b81526004016104229190611dd1565b6001600160a01b0383166104935760405163d92e233d60e01b815260040160405180910390fd5b826001600160a01b0316816001600160a01b0316036104d05760405163df4fb38160e01b81526001600160a01b0384166004820152602401610422565b6104da8284610c83565b826001600160a01b0316816001600160a01b0316837f236883d8e01cc81c0167947f15527771a12a5a51c0670674b60e2b9794a3647f8760405161051e9190611dd1565b60405180910390a450505050565b5f61034e82610c61565b6105686103866040518060400160405280600e81526020016d1050d0d154d4d7d0d3d3951493d360921b815250610c32565b604051632474521560e21b81525f5160206121565f395f51905f5260048201523360248201526001600160a01b0391909116906391d1485490604401602060405180830381865afa1580156105bf573d5f5f3e3d5ffd5b505050506040513d601f19601f820116820180604052508101906105e39190611e66565b6105ff5760405162461bcd60e51b815260040161042290611e8c565b5f61060984610c32565b9050610616818484610cec565b61061f84610e2c565b50505050565b606061062f610e43565b905090565b606061034e82610f1e565b5f61034e82610fc7565b604080518082019091525f81526060602082015261034b8383610fe3565b6106996103866040518060400160405280600e81526020016d1050d0d154d4d7d0d3d3951493d360921b815250610c32565b604051632474521560e21b81525f5160206121565f395f51905f5260048201523360248201526001600160a01b0391909116906391d1485490604401602060405180830381865afa1580156106f0573d5f5f3e3d5ffd5b505050506040513d601f19601f820116820180604052508101906107149190611e66565b6107305760405162461bcd60e51b815260040161042290611e8c565b5f61073a84610c32565b90506107478184846110d7565b61061f84611210565b5f61034b8383611224565b5f61034e8261124d565b606061034e82611266565b5f61034e61038683610c32565b60026107888161132e565b6001600160a01b0382166107ec5760405162461bcd60e51b815260206004820152602560248201527f41636365737320636f6e74726f6c20616464726573732063616e6e6f74206265604482015264207a65726f60d81b6064820152608401610422565b5f61081c6040518060400160405280600e81526020016d1050d0d154d4d7d0d3d3951493d360921b815250610c32565b9050610857836108516040518060400160405280600e81526020016d1050d0d154d4d7d0d3d3951493d360921b815250610c32565b90610c83565b826001600160a01b0316817f6db5569d223c840fb38a83e4a556cb60a251b9680de393e47777870cdbac26e66040518060400160405280600e81526020016d1050d0d154d4d7d0d3d3951493d360921b8152506040516108b79190611dd1565b60405180910390a3505050565b604080518082019091525f81526060602082015261034b8383611337565b6109146103866040518060400160405280600e81526020016d1050d0d154d4d7d0d3d3951493d360921b815250610c32565b604051632474521560e21b81525f5160206121565f395f51905f5260048201523360248201526001600160a01b0391909116906391d1485490604401602060405180830381865afa15801561096b573d5f5f3e3d5ffd5b505050506040513d601f19601f8201168201806040525081019061098f9190611e66565b6109ab5760405162461bcd60e51b815260040161042290611e8c565b5f6109b583610c32565b90506001600160a01b0382166109de5760405163d92e233d60e01b815260040160405180910390fd5b5f6109e882610c61565b6001600160a01b031614610a11578260405163df198a6960e01b81526004016104229190611dd1565b610a1b8183610c83565b610a2483611376565b816001600160a01b0316817f6db5569d223c840fb38a83e4a556cb60a251b9680de393e47777870cdbac26e6856040516108b79190611dd1565b606061034b8383611427565b606061062f6114f2565b606061034e826115c4565b606061034b83836115ea565b610abd6103866040518060400160405280600e81526020016d1050d0d154d4d7d0d3d3951493d360921b815250610c32565b604051632474521560e21b81525f5160206121565f395f51905f5260048201523360248201526001600160a01b0391909116906391d1485490604401602060405180830381865afa158015610b14573d5f5f3e3d5ffd5b505050506040513d601f19601f82011682018060405250810190610b389190611e66565b610b545760405162461bcd60e51b815260040161042290611e8c565b5f610b5e82610c32565b90505f610b6a82610c61565b90506001600160a01b038116610b955782604051639d9aae3960e01b81526004016104229190611dd1565b610b9f825f610c83565b610ba883611614565b817fabb104e9a16f893503445ca24334a10468322f797b67092c3f53021fc4ee502284604051610bd89190611dd1565b60405180910390a2505050565b606061062f6117f3565b5f610bf86118c7565b5f84815260039190910160205260409020805483908110610c1b57610c1b611ec3565b905f5260205f2090600202015f0154905092915050565b5f81604051602001610c449190611ed7565b604051602081830303815290604052805190602001209050919050565b5f610c6a611969565b5f9283526020525060409020546001600160a01b031690565b80610c8c611969565b5f848152602091825260409081902080546001600160a01b0319166001600160a01b0394851617905551848152918316917fb37614c7d254ea8d16eb81fa11dddaeb266aa8ba4917980859c7740aff30c691910160405180910390a25050565b5f610cf56118c7565b5f8581526020829052604090205490915015610d73575f8481526020829052604081208054610d2690600190611eed565b81548110610d3657610d36611ec3565b905f5260205f2090600202015f01549050808411610d71576040516372ea801d60e01b81526004810182905260248101859052604401610422565b505b43831015610d9d5760405163922b8ff760e01b815243600482015260248101849052604401610422565b5f84815260208281526040808320815180830190925286825281830186815281546001818101845592865293909420825160029094020192835592519092820190610de89082611f8f565b5050507ffd481e222be3d46d9cc80e6f0e4923b73b01492dd8a3dfcaf4f1bc6944b52714848484604051610e1e9392919061204d565b60405180910390a150505050565b610e40610e376118c7565b600101826119b8565b50565b6060610e4d6118c7565b6005018054604080516020808402820181019092528281529291905f9084015b82821015610f15578382905f5260205f20018054610e8a90611f0c565b80601f0160208091040260200160405190810160405280929190818152602001828054610eb690611f0c565b8015610f015780601f10610ed857610100808354040283529160200191610f01565b820191905f5260205f20905b815481529060010190602001808311610ee457829003601f168201915b505050505081526020019060010190610e6d565b50505050905090565b6060610f28611969565b5f838152600191909101602052604090208054610f4490611f0c565b80601f0160208091040260200160405190810160405280929190818152602001828054610f7090611f0c565b8015610fbb5780601f10610f9257610100808354040283529160200191610fbb565b820191905f5260205f20905b815481529060010190602001808311610f9e57829003601f168201915b50505050509050919050565b5f610fd06118c7565b5f92835260030160205250604090205490565b604080518082019091525f815260606020820152610fff6118c7565b5f8481526020919091526040902080548390811061101f5761101f611ec3565b905f5260205f2090600202016040518060400160405290815f820154815260200160018201805461104f90611f0c565b80601f016020809104026020016040519081016040528092919081815260200182805461107b90611f0c565b80156110c65780601f1061109d576101008083540402835291602001916110c6565b820191905f5260205f20905b8154815290600101906020018083116110a957829003601f168201915b505050505081525050905092915050565b5f6110e06118c7565b5f858152600391909101602081905260409091205490915015611165575f848152602082905260408120805461111890600190611eed565b8154811061112857611128611ec3565b905f5260205f2090600202015f0154905080841161116357604051633d7d977160e11b81526004810182905260248101859052604401610422565b505b4283101561118f576040516388e206e360e01b815242600482015260248101849052604401610422565b5f848152602082815260408083208151808301909252868252818301868152815460018181018455928652939094208251600290940201928355925190928201906111da9082611f8f565b5050507fb3b6ddb63f5f93d65d16ca9d05c90edfc4fe29263e092382b1fd4948e5d51c9a848484604051610e1e9392919061204d565b610e4061121b6118c7565b600401826119b8565b5f61122d6118c7565b5f84815260209190915260409020805483908110610c1b57610c1b611ec3565b5f6112566118c7565b5f92835260205250604090205490565b60605f6112716118c7565b5f848152600190910160205260409020805461128c90611f0c565b80601f01602080910402602001604051908101604052809291908181526020018280546112b890611f0c565b80156113035780601f106112da57610100808354040283529160200191611303565b820191905f5260205f20905b8154815290600101906020018083116112e657829003601f168201915b5050505050905080515f0361034e576040516346cc842960e11b815260048101849052602401610422565b610e4081611a69565b604080518082019091525f8152606060208201526113536118c7565b5f8481526003919091016020526040902080548390811061101f5761101f611ec3565b5f61137f611969565b90505f61138b83610c32565b5f81815260018401602052604090208054919250906113a990611f0c565b1590506113ed5760405162461bcd60e51b81526020600482015260126024820152714b657920616c72656164792065786973747360701b6044820152606401610422565b5f81815260018301602052604090206114068482611f8f565b506002820180546001810182555f91825260209091200161061f8482611f8f565b60606114316118c7565b5f8481526003919091016020526040902080548390811061145457611454611ec3565b905f5260205f209060020201600101805461146e90611f0c565b80601f016020809104026020016040519081016040528092919081815260200182805461149a90611f0c565b80156114e55780601f106114bc576101008083540402835291602001916114e5565b820191905f5260205f20905b8154815290600101906020018083116114c857829003601f168201915b5050505050905092915050565b60606114fc6118c7565b6002018054604080516020808402820181019092528281529291905f9084015b82821015610f15578382905f5260205f2001805461153990611f0c565b80601f016020809104026020016040519081016040528092919081815260200182805461156590611f0c565b80156115b05780601f10611587576101008083540402835291602001916115b0565b820191905f5260205f20905b81548152906001019060200180831161159357829003601f168201915b50505050508152602001906001019061151c565b60605f6115cf6118c7565b5f848152600490910160205260409020805461128c90611f0c565b60606115f46118c7565b5f8481526020919091526040902080548390811061145457611454611ec3565b5f61161d611969565b90505f61162983610c32565b5f81815260018401602052604081208054929350909161164890611f0c565b90501161168c5760405162461bcd60e51b815260206004820152601260248201527112d95e48191bd95cc81b9bdd08195e1a5cdd60721b6044820152606401610422565b5f81815260018301602052604081206116a491611b30565b5f5b600283015481101561061f578161175f8460020183815481106116cb576116cb611ec3565b905f5260205f200180546116de90611f0c565b80601f016020809104026020016040519081016040528092919081815260200182805461170a90611f0c565b80156117555780601f1061172c57610100808354040283529160200191611755565b820191905f5260205f20905b81548152906001019060200180831161173857829003601f168201915b5050505050610c32565b036117eb5760028301805461177690600190611eed565b8154811061178657611786611ec3565b905f5260205f20018360020182815481106117a3576117a3611ec3565b905f5260205f200190816117b79190612074565b50826002018054806117cb576117cb612141565b600190038181905f5260205f20015f6117e49190611b30565b905561061f565b6001016116a6565b60606117fd611969565b600201805480602002602001604051908101604052809291908181526020015f905b82821015610f15578382905f5260205f2001805461183c90611f0c565b80601f016020809104026020016040519081016040528092919081815260200182805461186890611f0c565b80156118b35780601f1061188a576101008083540402835291602001916118b3565b820191905f5260205f20905b81548152906001019060200180831161189657829003601f168201915b50505050508152602001906001019061181f565b5f5f60ff5f1b1960016040518060400160405280601a81526020017f636f6e6669672e72656769737472792e73746f726167652d76320000000000008152506040516020016119169190611ed7565b604051602081830303815290604052805190602001205f1c6119389190611eed565b60405160200161194a91815260200190565b60408051601f1981840301815291905280516020909101201692915050565b5f5f60ff5f1b1960016040518060400160405280601981526020017f616464726573732e6469726563746f72792e73746f72616765000000000000008152506040516020016119169190611ed7565b5f6119c282610c32565b5f8181526020859052604090208054919250906119de90611f0c565b90505f03611a64575f825111611a2d5760405162461bcd60e51b81526020600482015260146024820152734e616d652063616e6e6f7420626520656d70747960601b6044820152606401610422565b5f818152602084905260409020611a448382611f8f565b506001808401805491820181555f908152602090200161061f8382611f8f565b505050565b8060ff16611a75611ae5565b5460ff1610611a965760405162dc149f60e41b815260040160405180910390fd5b80611a9f611ae5565b805460ff191660ff92831617905560405190821681527f7f26b83ff96e1f2b6a682f133852f6798a09c465da95921460cefb38474024989060200160405180910390a150565b5f61062f5f5f60ff5f1b19600160405180604001604052806015815260200174696e697469616c697a61626c652e73746f7261676560581b8152506040516020016119169190611ed7565b508054611b3c90611f0c565b5f825580601f10611b4b575050565b601f0160209004905f5260205f2090810190610e4091905b80821115611b76575f8155600101611b63565b5090565b5f5f60408385031215611b8b575f5ffd5b50508035926020909101359150565b634e487b7160e01b5f52604160045260245ffd5b5f5f67ffffffffffffffff841115611bc857611bc8611b9a565b50604051601f19601f85018116603f0116810181811067ffffffffffffffff82111715611bf757611bf7611b9a565b604052838152905080828401851015611c0e575f5ffd5b838360208301375f60208583010152509392505050565b5f82601f830112611c34575f5ffd5b61034b83833560208501611bae565b80356001600160a01b0381168114611c59575f5ffd5b919050565b5f5f60408385031215611c6f575f5ffd5b823567ffffffffffffffff811115611c85575f5ffd5b611c9185828601611c25565b925050611ca060208401611c43565b90509250929050565b5f60208284031215611cb9575f5ffd5b5035919050565b5f5f5f60608486031215611cd2575f5ffd5b833567ffffffffffffffff811115611ce8575f5ffd5b611cf486828701611c25565b93505060208401359150604084013567ffffffffffffffff811115611d17575f5ffd5b8401601f81018613611d27575f5ffd5b611d3686823560208401611bae565b9150509250925092565b5f81518084528060208401602086015e5f602082860101526020601f19601f83011685010191505092915050565b5f602082016020835280845180835260408501915060408160051b8601019250602086015f5b82811015611dc557603f19878603018452611db0858351611d40565b94506020938401939190910190600101611d94565b50929695505050505050565b602081525f61034b6020830184611d40565b805182525f602082015160406020850152611e016040850182611d40565b949350505050565b602081525f61034b6020830184611de3565b5f60208284031215611e2b575f5ffd5b813567ffffffffffffffff811115611e41575f5ffd5b611e0184828501611c25565b5f60208284031215611e5d575f5ffd5b61034b82611c43565b5f60208284031215611e76575f5ffd5b81518015158114611e85575f5ffd5b9392505050565b60208082526017908201527f43616c6c6572206973206e6f7420746865206f776e6572000000000000000000604082015260600190565b634e487b7160e01b5f52603260045260245ffd5b5f82518060208501845e5f920191825250919050565b8181038181111561034e57634e487b7160e01b5f52601160045260245ffd5b600181811c90821680611f2057607f821691505b602082108103611f3e57634e487b7160e01b5f52602260045260245ffd5b50919050565b601f821115611a6457805f5260205f20601f840160051c81016020851015611f695750805b601f840160051c820191505b81811015611f88575f8155600101611f75565b5050505050565b815167ffffffffffffffff811115611fa957611fa9611b9a565b611fbd81611fb78454611f0c565b84611f44565b6020601f821160018114611ff2575f8315611fd85750848201515b600184901b5f19600386901b1c198216175b855550611f88565b5f84815260208120601f198516915b828110156120215787850151825560209485019460019092019101612001565b508482101561203e57868401515f19600387901b60f8161c191681555b50505050600190811b01905550565b838152826020820152606060408201525f61206b6060830184611d40565b95945050505050565b81810361207f575050565b6120898254611f0c565b67ffffffffffffffff8111156120a1576120a1611b9a565b6120af81611fb78454611f0c565b5f601f8211600181146120de575f8315611fd8575081850154600184901b5f19600386901b1c19821617611fea565b5f8581526020808220868352908220601f198616925b8381101561211457828601548255600195860195909101906020016120f4565b508583101561213157818501545f19600388901b60f8161c191681555b5050505050600190811b01905550565b634e487b7160e01b5f52603160045260245ffdfe6270edb7c868f86fda4adedba75108201087268ea345934db8bad688e1feb91ba2646970667358221220eef8929be36d6e2558fe492524b62cfbc59dc9b22ff50c1e14244f21564a095c64736f6c634300081d0033",
    "linkReferences": {}
  },
  "methodIdentifiers": {
    "addAddress(string,address)": "ceb35b0f",
    "addConfigBlockNumber(string,uint256,bytes)": "3a45bc4f",
    "addConfigTimeStamp(string,uint256,bytes)": "a2e91eb9",
    "getActivationBlockNumber(bytes32,uint256)": "a78735a2",
    "getActivationTimeStamp(bytes32,uint256)": "16e34391",
    "getAddress(bytes32)": "21f8a721",
    "getAddress(string)": "bf40fac1",
    "getAllConfigNamesBlockNumber()": "da1a8a0a",
    "getAllConfigNamesTimeStamp()": "4420027c",
    "getAllNames()": "fb825e5f",
    "getCheckpointBlockNumber(bytes32,uint256)": "723e08c8",
    "getCheckpointTimeStamp(bytes32,uint256)": "c4fd4234",
    "getConfigBlockNumber(bytes32,uint256)": "f4a56be3",
    "getConfigNameBlockNumber(bytes32)": "b0465b5f",
    "getConfigNameTimeStamp(bytes32)": "e2c53d48",
    "getConfigTimeStamp(bytes32,uint256)": "d8e62afb",
    "getName(bytes32)": "54b8d5e3",
    "getNumCheckpointsBlockNumber(bytes32)": "ac1cc0c0",
    "getNumCheckpointsTimeStamp(bytes32)": "69393318",
    "initialize(address)": "c4d66de8",
    "removeAddress(string)": "f94d1312",
    "replaceAddress(string,address)": "1d7762e7",
    "semver()": "cda493c8"
  },
  "id": 176
}