{
  "abi": [
    {
      "type": "constructor",
      "inputs": [
        {
          "name": "owner",
          "type": "address",
          "internalType": "address"
        }
      ],
      "stateMutability": "nonpayable"
    },
    {
      "type": "function",
      "name": "DEFAULT_ADMIN_ROLE",
      "inputs": [],
      "outputs": [
        {
          "name": "",
          "type": "bytes32",
          "internalType": "bytes32"
        }
      ],
      "stateMutability": "view"
    },
    {
      "type": "function",
      "name": "getRoleAdmin",
      "inputs": [
        {
          "name": "role",
          "type": "bytes32",
          "internalType": "bytes32"
        }
      ],
      "outputs": [
        {
          "name": "",
          "type": "bytes32",
          "internalType": "bytes32"
        }
      ],
      "stateMutability": "view"
    },
    {
      "type": "function",
      "name": "getRoleMember",
      "inputs": [
        {
          "name": "role",
          "type": "bytes32",
          "internalType": "bytes32"
        },
        {
          "name": "index",
          "type": "uint256",
          "internalType": "uint256"
        }
      ],
      "outputs": [
        {
          "name": "",
          "type": "address",
          "internalType": "address"
        }
      ],
      "stateMutability": "view"
    },
    {
      "type": "function",
      "name": "getRoleMemberCount",
      "inputs": [
        {
          "name": "role",
          "type": "bytes32",
          "internalType": "bytes32"
        }
      ],
      "outputs": [
        {
          "name": "",
          "type": "uint256",
          "internalType": "uint256"
        }
      ],
      "stateMutability": "view"
    },
    {
      "type": "function",
      "name": "grantRole",
      "inputs": [
        {
          "name": "role",
          "type": "bytes32",
          "internalType": "bytes32"
        },
        {
          "name": "account",
          "type": "address",
          "internalType": "address"
        }
      ],
      "outputs": [],
      "stateMutability": "nonpayable"
    },
    {
      "type": "function",
      "name": "hasRole",
      "inputs": [
        {
          "name": "role",
          "type": "bytes32",
          "internalType": "bytes32"
        },
        {
          "name": "account",
          "type": "address",
          "internalType": "address"
        }
      ],
      "outputs": [
        {
          "name": "",
          "type": "bool",
          "internalType": "bool"
        }
      ],
      "stateMutability": "view"
    },
    {
      "type": "function",
      "name": "renounceRole",
      "inputs": [
        {
          "name": "role",
          "type": "bytes32",
          "internalType": "bytes32"
        },
        {
          "name": "account",
          "type": "address",
          "internalType": "address"
        }
      ],
      "outputs": [],
      "stateMutability": "nonpayable"
    },
    {
      "type": "function",
      "name": "revokeRole",
      "inputs": [
        {
          "name": "role",
          "type": "bytes32",
          "internalType": "bytes32"
        },
        {
          "name": "account",
          "type": "address",
          "internalType": "address"
        }
      ],
      "outputs": [],
      "stateMutability": "nonpayable"
    },
    {
      "type": "function",
      "name": "supportsInterface",
      "inputs": [
        {
          "name": "interfaceId",
          "type": "bytes4",
          "internalType": "bytes4"
        }
      ],
      "outputs": [
        {
          "name": "",
          "type": "bool",
          "internalType": "bool"
        }
      ],
      "stateMutability": "view"
    },
    {
      "type": "event",
      "name": "RoleAdminChanged",
      "inputs": [
        {
          "name": "role",
          "type": "bytes32",
          "indexed": true,
          "internalType": "bytes32"
        },
        {
          "name": "previousAdminRole",
          "type": "bytes32",
          "indexed": true,
          "internalType": "bytes32"
        },
        {
          "name": "newAdminRole",
          "type": "bytes32",
          "indexed": true,
          "internalType": "bytes32"
        }
      ],
      "anonymous": false
    },
    {
      "type": "event",
      "name": "RoleGranted",
      "inputs": [
        {
          "name": "role",
          "type": "bytes32",
          "indexed": true,
          "internalType": "bytes32"
        },
        {
          "name": "account",
          "type": "address",
          "indexed": true,
          "internalType": "address"
        },
        {
          "name": "sender",
          "type": "address",
          "indexed": true,
          "internalType": "address"
        }
      ],
      "anonymous": false
    },
    {
      "type": "event",
      "name": "RoleRevoked",
      "inputs": [
        {
          "name": "role",
          "type": "bytes32",
          "indexed": true,
          "internalType": "bytes32"
        },
        {
          "name": "account",
          "type": "address",
          "indexed": true,
          "internalType": "address"
        },
        {
          "name": "sender",
          "type": "address",
          "indexed": true,
          "internalType": "address"
        }
      ],
      "anonymous": false
    }
  ],
  "bytecode": {
    "object": "0x608060405234801561000f575f5ffd5b50604051610bb1380380610bb183398101604081905261002e91610194565b6100385f82610068565b6100627f6270edb7c868f86fda4adedba75108201087268ea345934db8bad688e1feb91b82610068565b506101c1565b610072828261008e565b5f828152600160205260409020610089908261012b565b505050565b5f828152602081815260408083206001600160a01b038516845290915290205460ff16610127575f828152602081815260408083206001600160a01b03851684529091529020805460ff191660011790556100e63390565b6001600160a01b0316816001600160a01b0316837f2f8788117e7eff1d82e926ec794901d17c78024a50270940304540a733656f0d60405160405180910390a45b5050565b5f61013f836001600160a01b038416610148565b90505b92915050565b5f81815260018301602052604081205461018d57508154600181810184555f848152602080822090930184905584548482528286019093526040902091909155610142565b505f610142565b5f602082840312156101a4575f5ffd5b81516001600160a01b03811681146101ba575f5ffd5b9392505050565b6109e3806101ce5f395ff3fe608060405234801561000f575f5ffd5b5060043610610090575f3560e01c80639010d07c116100635780639010d07c1461011457806391d148541461013f578063a217fddf14610152578063ca15c87314610159578063d547741f1461016c575f5ffd5b806301ffc9a714610094578063248a9ca3146100bc5780632f2ff15d146100ec57806336568abe14610101575b5f5ffd5b6100a76100a23660046107ca565b61017f565b60405190151581526020015b60405180910390f35b6100de6100ca3660046107f1565b5f9081526020819052604090206001015490565b6040519081526020016100b3565b6100ff6100fa366004610808565b6101a9565b005b6100ff61010f366004610808565b6101d2565b610127610122366004610841565b610255565b6040516001600160a01b0390911681526020016100b3565b6100a761014d366004610808565b610273565b6100de5f81565b6100de6101673660046107f1565b61029b565b6100ff61017a366004610808565b6102b1565b5f6001600160e01b03198216635a05180f60e01b14806101a357506101a3826102d5565b92915050565b5f828152602081905260409020600101546101c381610309565b6101cd8383610316565b505050565b6001600160a01b03811633146102475760405162461bcd60e51b815260206004820152602f60248201527f416363657373436f6e74726f6c3a2063616e206f6e6c792072656e6f756e636560448201526e103937b632b9903337b91039b2b63360891b60648201526084015b60405180910390fd5b6102518282610337565b5050565b5f82815260016020526040812061026c9083610358565b9392505050565b5f918252602082815260408084206001600160a01b0393909316845291905290205460ff1690565b5f8181526001602052604081206101a390610363565b5f828152602081905260409020600101546102cb81610309565b6101cd8383610337565b5f6001600160e01b03198216637965db0b60e01b14806101a357506301ffc9a760e01b6001600160e01b03198316146101a3565b610313813361036c565b50565b61032082826103d0565b5f8281526001602052604090206101cd9082610453565b6103418282610467565b5f8281526001602052604090206101cd90826104cb565b5f61026c83836104df565b5f6101a3825490565b6103768282610273565b6102515761038e816001600160a01b03166014610505565b610399836020610505565b6040516020016103aa929190610878565b60408051601f198184030181529082905262461bcd60e51b825261023e916004016108d6565b6103da8282610273565b610251575f828152602081815260408083206001600160a01b03851684529091529020805460ff1916600117905561040f3390565b6001600160a01b0316816001600160a01b0316837f2f8788117e7eff1d82e926ec794901d17c78024a50270940304540a733656f0d60405160405180910390a45050565b5f61026c836001600160a01b03841661069b565b6104718282610273565b15610251575f828152602081815260408083206001600160a01b0385168085529252808320805460ff1916905551339285917ff6391f5c32d9c69d2a47ea670b442974b53935d1edc7fd64eb21e047a839171b9190a45050565b5f61026c836001600160a01b0384166106e7565b5f825f0182815481106104f4576104f461090b565b905f5260205f200154905092915050565b60605f610513836002610933565b61051e90600261094a565b67ffffffffffffffff8111156105365761053661095d565b6040519080825280601f01601f191660200182016040528015610560576020820181803683370190505b509050600360fc1b815f8151811061057a5761057a61090b565b60200101906001600160f81b03191690815f1a905350600f60fb1b816001815181106105a8576105a861090b565b60200101906001600160f81b03191690815f1a9053505f6105ca846002610933565b6105d590600161094a565b90505b600181111561064c576f181899199a1a9b1b9c1cb0b131b232b360811b85600f16601081106106095761060961090b565b1a60f81b82828151811061061f5761061f61090b565b60200101906001600160f81b03191690815f1a90535060049490941c9361064581610971565b90506105d8565b50831561026c5760405162461bcd60e51b815260206004820181905260248201527f537472696e67733a20686578206c656e67746820696e73756666696369656e74604482015260640161023e565b5f8181526001830160205260408120546106e057508154600181810184555f8481526020808220909301849055845484825282860190935260409020919091556101a3565b505f6101a3565b5f81815260018301602052604081205480156107c1575f610709600183610986565b85549091505f9061071c90600190610986565b905081811461077b575f865f01828154811061073a5761073a61090b565b905f5260205f200154905080875f01848154811061075a5761075a61090b565b5f918252602080832090910192909255918252600188019052604090208390555b855486908061078c5761078c610999565b600190038181905f5260205f20015f90559055856001015f8681526020019081526020015f205f9055600193505050506101a3565b5f9150506101a3565b5f602082840312156107da575f5ffd5b81356001600160e01b03198116811461026c575f5ffd5b5f60208284031215610801575f5ffd5b5035919050565b5f5f60408385031215610819575f5ffd5b8235915060208301356001600160a01b0381168114610836575f5ffd5b809150509250929050565b5f5f60408385031215610852575f5ffd5b50508035926020909101359150565b5f81518060208401855e5f93019283525090919050565b7f416363657373436f6e74726f6c3a206163636f756e742000000000000000000081525f6108a96017830185610861565b7001034b99036b4b9b9b4b733903937b6329607d1b81526108cd6011820185610861565b95945050505050565b602081525f82518060208401528060208501604085015e5f604082850101526040601f19601f83011684010191505092915050565b634e487b7160e01b5f52603260045260245ffd5b634e487b7160e01b5f52601160045260245ffd5b80820281158282048414176101a3576101a361091f565b808201808211156101a3576101a361091f565b634e487b7160e01b5f52604160045260245ffd5b5f8161097f5761097f61091f565b505f190190565b818103818111156101a3576101a361091f565b634e487b7160e01b5f52603160045260245ffdfea26469706673582212200ed5f46ff34819197d64604c149b7b758260f04ca8abe045eaeba204d4c87fc064736f6c634300081d0033",
    "linkReferences": {}
  },
  "methodIdentifiers": {
    "DEFAULT_ADMIN_ROLE()": "a217fddf",
    "getRoleAdmin(bytes32)": "248a9ca3",
    "getRoleMember(bytes32,uint256)": "9010d07c",
    "getRoleMemberCount(bytes32)": "ca15c873",
    "grantRole(bytes32,address)": "2f2ff15d",
    "hasRole(bytes32,address)": "91d14854",
    "renounceRole(bytes32,address)": "36568abe",
    "revokeRole(bytes32,address)": "d547741f",
    "supportsInterface(bytes4)": "01ffc9a7"
  },
  "id": 175
}