{
  "abi": [
    {
      "type": "constructor",
      "inputs": [],
      "stateMutability": "nonpayable"
    },
    {
      "type": "function",
      "name": "addRelayInfo",
      "inputs": [
        {
          "name": "relayInfo",
          "type": "tuple",
          "internalType": "struct EigenDATypesV2.RelayInfo",
          "components": [
            {
              "name": "relayAddress",
              "type": "address",
              "internalType": "address"
            },
            {
              "name": "relayURL",
              "type": "string",
              "internalType": "string"
            }
          ]
        }
      ],
      "outputs": [
        {
          "name": "",
          "type": "uint32",
          "internalType": "uint32"
        }
      ],
      "stateMutability": "nonpayable"
    },
    {
      "type": "function",
      "name": "initialize",
      "inputs": [
        {
          "name": "_initialOwner",
          "type": "address",
          "internalType": "address"
        }
      ],
      "outputs": [],
      "stateMutability": "nonpayable"
    },
    {
      "type": "function",
      "name": "nextRelayKey",
      "inputs": [],
      "outputs": [
        {
          "name": "",
          "type": "uint32",
          "internalType": "uint32"
        }
      ],
      "stateMutability": "view"
    },
    {
      "type": "function",
      "name": "owner",
      "inputs": [],
      "outputs": [
        {
          "name": "",
          "type": "address",
          "internalType": "address"
        }
      ],
      "stateMutability": "view"
    },
    {
      "type": "function",
      "name": "relayKeyToAddress",
      "inputs": [
        {
          "name": "key",
          "type": "uint32",
          "internalType": "uint32"
        }
      ],
      "outputs": [
        {
          "name": "",
          "type": "address",
          "internalType": "address"
        }
      ],
      "stateMutability": "view"
    },
    {
      "type": "function",
      "name": "relayKeyToInfo",
      "inputs": [
        {
          "name": "",
          "type": "uint32",
          "internalType": "uint32"
        }
      ],
      "outputs": [
        {
          "name": "relayAddress",
          "type": "address",
          "internalType": "address"
        },
        {
          "name": "relayURL",
          "type": "string",
          "internalType": "string"
        }
      ],
      "stateMutability": "view"
    },
    {
      "type": "function",
      "name": "relayKeyToUrl",
      "inputs": [
        {
          "name": "key",
          "type": "uint32",
          "internalType": "uint32"
        }
      ],
      "outputs": [
        {
          "name": "",
          "type": "string",
          "internalType": "string"
        }
      ],
      "stateMutability": "view"
    },
    {
      "type": "function",
      "name": "renounceOwnership",
      "inputs": [],
      "outputs": [],
      "stateMutability": "nonpayable"
    },
    {
      "type": "function",
      "name": "transferOwnership",
      "inputs": [
        {
          "name": "newOwner",
          "type": "address",
          "internalType": "address"
        }
      ],
      "outputs": [],
      "stateMutability": "nonpayable"
    },
    {
      "type": "event",
      "name": "Initialized",
      "inputs": [
        {
          "name": "version",
          "type": "uint8",
          "indexed": false,
          "internalType": "uint8"
        }
      ],
      "anonymous": false
    },
    {
      "type": "event",
      "name": "OwnershipTransferred",
      "inputs": [
        {
          "name": "previousOwner",
          "type": "address",
          "indexed": true,
          "internalType": "address"
        },
        {
          "name": "newOwner",
          "type": "address",
          "indexed": true,
          "internalType": "address"
        }
      ],
      "anonymous": false
    },
    {
      "type": "event",
      "name": "RelayAdded",
      "inputs": [
        {
          "name": "relay",
          "type": "address",
          "indexed": true,
          "internalType": "address"
        },
        {
          "name": "key",
          "type": "uint32",
          "indexed": true,
          "internalType": "uint32"
        },
        {
          "name": "relayURL",
          "type": "string",
          "indexed": false,
          "internalType": "string"
        }
      ],
      "anonymous": false
    }
  ],
  "bytecode": {
    "object": "0x6080604052348015600e575f5ffd5b5060156019565b60d4565b5f54610100900460ff161560835760405162461bcd60e51b815260206004820152602760248201527f496e697469616c697a61626c653a20636f6e747261637420697320696e697469604482015266616c697a696e6760c81b606482015260840160405180910390fd5b5f5460ff908116101560d2575f805460ff191660ff9081179091556040519081527f7f26b83ff96e1f2b6a682f133852f6798a09c465da95921460cefb38474024989060200160405180910390a15b565b61099e806100e15f395ff3fe608060405234801561000f575f5ffd5b5060043610610090575f3560e01c8063841f6a2e11610063578063841f6a2e146100fb5780638da5cb5b1461011c578063b5a872da14610141578063c4d66de81461016f578063f2fde38b14610182575f5ffd5b806315ddaa5d146100945780632fc35013146100be578063631eabb8146100d1578063715018a6146100f1575b5f5ffd5b6066546100a49063ffffffff1681565b60405163ffffffff90911681526020015b60405180910390f35b6100a46100cc366004610674565b610195565b6100e46100df36600461074b565b61027c565b6040516100b591906107a3565b6100f9610325565b005b61010e61010936600461074b565b610338565b6040516100b59291906107b5565b6033546001600160a01b03165b6040516001600160a01b0390911681526020016100b5565b61012961014f36600461074b565b63ffffffff165f908152606560205260409020546001600160a01b031690565b6100f961017d3660046107e0565b6103e4565b6100f96101903660046107e0565b6104cc565b5f61019e610545565b60665463ffffffff165f908152606560209081526040909120835181546001600160a01b0319166001600160a01b039091161781559083015183919060018201906101e9908261087d565b50506066548351602085015160405163ffffffff90931693506001600160a01b03909116917f01c289e409d41a712a615bf286126433da55c193bbe64fc8e77af5f1ff13db9991610239916107a3565b60405180910390a36066805463ffffffff16905f61025683610938565b91906101000a81548163ffffffff021916908363ffffffff16021790555090505b919050565b63ffffffff81165f9081526065602052604090206001018054606091906102a2906107f9565b80601f01602080910402602001604051908101604052809291908181526020018280546102ce906107f9565b80156103195780601f106102f057610100808354040283529160200191610319565b820191905f5260205f20905b8154815290600101906020018083116102fc57829003601f168201915b50505050509050919050565b61032d610545565b6103365f61059f565b565b60656020525f9081526040902080546001820180546001600160a01b039092169291610363906107f9565b80601f016020809104026020016040519081016040528092919081815260200182805461038f906107f9565b80156103da5780601f106103b1576101008083540402835291602001916103da565b820191905f5260205f20905b8154815290600101906020018083116103bd57829003601f168201915b5050505050905082565b5f54600290610100900460ff1615801561040457505f5460ff8083169116105b61046c5760405162461bcd60e51b815260206004820152602e60248201527f496e697469616c697a61626c653a20636f6e747261637420697320616c72656160448201526d191e481a5b9a5d1a585b1a5e995960921b60648201526084015b60405180910390fd5b5f805461ffff191660ff8316176101001790556104888261059f565b5f805461ff001916905560405160ff821681527f7f26b83ff96e1f2b6a682f133852f6798a09c465da95921460cefb38474024989060200160405180910390a15050565b6104d4610545565b6001600160a01b0381166105395760405162461bcd60e51b815260206004820152602660248201527f4f776e61626c653a206e6577206f776e657220697320746865207a65726f206160448201526564647265737360d01b6064820152608401610463565b6105428161059f565b50565b6033546001600160a01b031633146103365760405162461bcd60e51b815260206004820181905260248201527f4f776e61626c653a2063616c6c6572206973206e6f7420746865206f776e65726044820152606401610463565b603380546001600160a01b038381166001600160a01b0319831681179093556040519116919082907f8be0079c531659141344cd1fd0a4f28419497f9722a3daafe3b4186f6b6457e0905f90a35050565b634e487b7160e01b5f52604160045260245ffd5b6040805190810167ffffffffffffffff81118282101715610627576106276105f0565b60405290565b604051601f8201601f1916810167ffffffffffffffff81118282101715610656576106566105f0565b604052919050565b80356001600160a01b0381168114610277575f5ffd5b5f60208284031215610684575f5ffd5b813567ffffffffffffffff81111561069a575f5ffd5b8201604081850312156106ab575f5ffd5b6106b3610604565b6106bc8261065e565b8152602082013567ffffffffffffffff8111156106d7575f5ffd5b80830192505084601f8301126106eb575f5ffd5b813567ffffffffffffffff811115610705576107056105f0565b610718601f8201601f191660200161062d565b81815286602083860101111561072c575f5ffd5b816020850160208301375f602092820183015290820152949350505050565b5f6020828403121561075b575f5ffd5b813563ffffffff8116811461076e575f5ffd5b9392505050565b5f81518084528060208401602086015e5f602082860101526020601f19601f83011685010191505092915050565b602081525f61076e6020830184610775565b6001600160a01b03831681526040602082018190525f906107d890830184610775565b949350505050565b5f602082840312156107f0575f5ffd5b61076e8261065e565b600181811c9082168061080d57607f821691505b60208210810361082b57634e487b7160e01b5f52602260045260245ffd5b50919050565b601f82111561087857805f5260205f20601f840160051c810160208510156108565750805b601f840160051c820191505b81811015610875575f8155600101610862565b50505b505050565b815167ffffffffffffffff811115610897576108976105f0565b6108ab816108a584546107f9565b84610831565b6020601f8211600181146108dd575f83156108c65750848201515b5f19600385901b1c1916600184901b178455610875565b5f84815260208120601f198516915b8281101561090c57878501518255602094850194600190920191016108ec565b508482101561092957868401515f19600387901b60f8161c191681555b50505050600190811b01905550565b5f63ffffffff821663ffffffff810361095f57634e487b7160e01b5f52601160045260245ffd5b6001019291505056fea2646970667358221220b8837a976fc2fee8b888856a48e5452ec0dbd8bac0c05dfae5df1c43797476b364736f6c634300081d0033",
    "linkReferences": {}
  },
  "methodIdentifiers": {
    "addRelayInfo((address,string))": "2fc35013",
    "initialize(address)": "c4d66de8",
    "nextRelayKey()": "15ddaa5d",
    "owner()": "8da5cb5b",
    "relayKeyToAddress(uint32)": "b5a872da",
    "relayKeyToInfo(uint32)": "841f6a2e",
    "relayKeyToUrl(uint32)": "631eabb8",
    "renounceOwnership()": "715018a6",
    "transferOwnership(address)": "f2fde38b"
  },
  "id": 181
}