{
  "abi": [
    {
      "type": "constructor",
      "inputs": [
        {
          "name": "_directory",
          "type": "address",
          "internalType": "address"
        }
      ],
      "stateMutability": "nonpayable"
    },
    {
      "type": "function",
      "name": "OPERATOR_CHURN_APPROVAL_TYPEHASH",
      "inputs": [],
      "outputs": [
        {
          "name": "",
          "type": "bytes32",
          "internalType": "bytes32"
        }
      ],
      "stateMutability": "view"
    },
    {
      "type": "function",
      "name": "PUBKEY_REGISTRATION_TYPEHASH",
      "inputs": [],
      "outputs": [
        {
          "name": "",
          "type": "bytes32",
          "internalType": "bytes32"
        }
      ],
      "stateMutability": "view"
    },
    {
      "type": "function",
      "name": "blsApkRegistry",
      "inputs": [],
      "outputs": [
        {
          "name": "",
          "type": "address",
          "internalType": "contract IBLSApkRegistry"
        }
      ],
      "stateMutability": "view"
    },
    {
      "type": "function",
      "name": "calculateOperatorChurnApprovalDigestHash",
      "inputs": [
        {
          "name": "",
          "type": "address",
          "internalType": "address"
        },
        {
          "name": "",
          "type": "bytes32",
          "internalType": "bytes32"
        },
        {
          "name": "",
          "type": "tuple[]",
          "internalType": "struct IRegistryCoordinator.OperatorKickParam[]",
          "components": [
            {
              "name": "quorumNumber",
              "type": "uint8",
              "internalType": "uint8"
            },
            {
              "name": "operator",
              "type": "address",
              "internalType": "address"
            }
          ]
        },
        {
          "name": "",
          "type": "bytes32",
          "internalType": "bytes32"
        },
        {
          "name": "",
          "type": "uint256",
          "internalType": "uint256"
        }
      ],
      "outputs": [
        {
          "name": "",
          "type": "bytes32",
          "internalType": "bytes32"
        }
      ],
      "stateMutability": "pure"
    },
    {
      "type": "function",
      "name": "createQuorum",
      "inputs": [
        {
          "name": "operatorSetParams",
          "type": "tuple",
          "internalType": "struct IRegistryCoordinator.OperatorSetParam",
          "components": [
            {
              "name": "maxOperatorCount",
              "type": "uint32",
              "internalType": "uint32"
            },
            {
              "name": "kickBIPsOfOperatorStake",
              "type": "uint16",
              "internalType": "uint16"
            },
            {
              "name": "kickBIPsOfTotalStake",
              "type": "uint16",
              "internalType": "uint16"
            }
          ]
        },
        {
          "name": "minimumStake",
          "type": "uint96",
          "internalType": "uint96"
        },
        {
          "name": "strategyParams",
          "type": "tuple[]",
          "internalType": "struct IStakeRegistry.StrategyParams[]",
          "components": [
            {
              "name": "strategy",
              "type": "address",
              "internalType": "contract IStrategy"
            },
            {
              "name": "multiplier",
              "type": "uint96",
              "internalType": "uint96"
            }
          ]
        }
      ],
      "outputs": [],
      "stateMutability": "nonpayable"
    },
    {
      "type": "function",
      "name": "deregisterOperator",
      "inputs": [
        {
          "name": "quorumNumbers",
          "type": "bytes",
          "internalType": "bytes"
        }
      ],
      "outputs": [],
      "stateMutability": "nonpayable"
    },
    {
      "type": "function",
      "name": "directory",
      "inputs": [],
      "outputs": [
        {
          "name": "",
          "type": "address",
          "internalType": "contract IEigenDAAddressDirectory"
        }
      ],
      "stateMutability": "view"
    },
    {
      "type": "function",
      "name": "ejectOperator",
      "inputs": [
        {
          "name": "operator",
          "type": "address",
          "internalType": "address"
        },
        {
          "name": "quorumNumbers",
          "type": "bytes",
          "internalType": "bytes"
        }
      ],
      "outputs": [],
      "stateMutability": "nonpayable"
    },
    {
      "type": "function",
      "name": "ejectionCooldown",
      "inputs": [],
      "outputs": [
        {
          "name": "",
          "type": "uint256",
          "internalType": "uint256"
        }
      ],
      "stateMutability": "view"
    },
    {
      "type": "function",
      "name": "ejector",
      "inputs": [],
      "outputs": [
        {
          "name": "",
          "type": "address",
          "internalType": "address"
        }
      ],
      "stateMutability": "view"
    },
    {
      "type": "function",
      "name": "getCurrentQuorumBitmap",
      "inputs": [
        {
          "name": "operatorId",
          "type": "bytes32",
          "internalType": "bytes32"
        }
      ],
      "outputs": [
        {
          "name": "",
          "type": "uint192",
          "internalType": "uint192"
        }
      ],
      "stateMutability": "view"
    },
    {
      "type": "function",
      "name": "getOperator",
      "inputs": [
        {
          "name": "operator",
          "type": "address",
          "internalType": "address"
        }
      ],
      "outputs": [
        {
          "name": "",
          "type": "tuple",
          "internalType": "struct IRegistryCoordinator.OperatorInfo",
          "components": [
            {
              "name": "operatorId",
              "type": "bytes32",
              "internalType": "bytes32"
            },
            {
              "name": "status",
              "type": "uint8",
              "internalType": "enum IRegistryCoordinator.OperatorStatus"
            }
          ]
        }
      ],
      "stateMutability": "view"
    },
    {
      "type": "function",
      "name": "getOperatorFromId",
      "inputs": [
        {
          "name": "operatorId",
          "type": "bytes32",
          "internalType": "bytes32"
        }
      ],
      "outputs": [
        {
          "name": "",
          "type": "address",
          "internalType": "address"
        }
      ],
      "stateMutability": "view"
    },
    {
      "type": "function",
      "name": "getOperatorId",
      "inputs": [
        {
          "name": "operator",
          "type": "address",
          "internalType": "address"
        }
      ],
      "outputs": [
        {
          "name": "",
          "type": "bytes32",
          "internalType": "bytes32"
        }
      ],
      "stateMutability": "view"
    },
    {
      "type": "function",
      "name": "getOperatorSetParams",
      "inputs": [
        {
          "name": "quorumNumber",
          "type": "uint8",
          "internalType": "uint8"
        }
      ],
      "outputs": [
        {
          "name": "",
          "type": "tuple",
          "internalType": "struct IRegistryCoordinator.OperatorSetParam",
          "components": [
            {
              "name": "maxOperatorCount",
              "type": "uint32",
              "internalType": "uint32"
            },
            {
              "name": "kickBIPsOfOperatorStake",
              "type": "uint16",
              "internalType": "uint16"
            },
            {
              "name": "kickBIPsOfTotalStake",
              "type": "uint16",
              "internalType": "uint16"
            }
          ]
        }
      ],
      "stateMutability": "view"
    },
    {
      "type": "function",
      "name": "getOperatorStatus",
      "inputs": [
        {
          "name": "operator",
          "type": "address",
          "internalType": "address"
        }
      ],
      "outputs": [
        {
          "name": "",
          "type": "uint8",
          "internalType": "enum IRegistryCoordinator.OperatorStatus"
        }
      ],
      "stateMutability": "view"
    },
    {
      "type": "function",
      "name": "getQuorumBitmapAtBlockNumberByIndex",
      "inputs": [
        {
          "name": "operatorId",
          "type": "bytes32",
          "internalType": "bytes32"
        },
        {
          "name": "blockNumber",
          "type": "uint32",
          "internalType": "uint32"
        },
        {
          "name": "index",
          "type": "uint256",
          "internalType": "uint256"
        }
      ],
      "outputs": [
        {
          "name": "",
          "type": "uint192",
          "internalType": "uint192"
        }
      ],
      "stateMutability": "view"
    },
    {
      "type": "function",
      "name": "getQuorumBitmapHistoryLength",
      "inputs": [
        {
          "name": "operatorId",
          "type": "bytes32",
          "internalType": "bytes32"
        }
      ],
      "outputs": [
        {
          "name": "",
          "type": "uint256",
          "internalType": "uint256"
        }
      ],
      "stateMutability": "view"
    },
    {
      "type": "function",
      "name": "getQuorumBitmapIndicesAtBlockNumber",
      "inputs": [
        {
          "name": "blockNumber",
          "type": "uint32",
          "internalType": "uint32"
        },
        {
          "name": "operatorIds",
          "type": "bytes32[]",
          "internalType": "bytes32[]"
        }
      ],
      "outputs": [
        {
          "name": "",
          "type": "uint32[]",
          "internalType": "uint32[]"
        }
      ],
      "stateMutability": "view"
    },
    {
      "type": "function",
      "name": "getQuorumBitmapUpdateByIndex",
      "inputs": [
        {
          "name": "operatorId",
          "type": "bytes32",
          "internalType": "bytes32"
        },
        {
          "name": "index",
          "type": "uint256",
          "internalType": "uint256"
        }
      ],
      "outputs": [
        {
          "name": "",
          "type": "tuple",
          "internalType": "struct IRegistryCoordinator.QuorumBitmapUpdate",
          "components": [
            {
              "name": "updateBlockNumber",
              "type": "uint32",
              "internalType": "uint32"
            },
            {
              "name": "nextUpdateBlockNumber",
              "type": "uint32",
              "internalType": "uint32"
            },
            {
              "name": "quorumBitmap",
              "type": "uint192",
              "internalType": "uint192"
            }
          ]
        }
      ],
      "stateMutability": "view"
    },
    {
      "type": "function",
      "name": "indexRegistry",
      "inputs": [],
      "outputs": [
        {
          "name": "",
          "type": "address",
          "internalType": "contract IIndexRegistry"
        }
      ],
      "stateMutability": "view"
    },
    {
      "type": "function",
      "name": "initialize",
      "inputs": [
        {
          "name": "_initialOwner",
          "type": "address",
          "internalType": "address"
        },
        {
          "name": "_ejector",
          "type": "address",
          "internalType": "address"
        },
        {
          "name": "_pauserRegistry",
          "type": "address",
          "internalType": "contract IPauserRegistry"
        },
        {
          "name": "_initialPausedStatus",
          "type": "uint256",
          "internalType": "uint256"
        },
        {
          "name": "_operatorSetParams",
          "type": "tuple[]",
          "internalType": "struct IRegistryCoordinator.OperatorSetParam[]",
          "components": [
            {
              "name": "maxOperatorCount",
              "type": "uint32",
              "internalType": "uint32"
            },
            {
              "name": "kickBIPsOfOperatorStake",
              "type": "uint16",
              "internalType": "uint16"
            },
            {
              "name": "kickBIPsOfTotalStake",
              "type": "uint16",
              "internalType": "uint16"
            }
          ]
        },
        {
          "name": "_minimumStakes",
          "type": "uint96[]",
          "internalType": "uint96[]"
        },
        {
          "name": "_strategyParams",
          "type": "tuple[][]",
          "internalType": "struct IStakeRegistry.StrategyParams[][]",
          "components": [
            {
              "name": "strategy",
              "type": "address",
              "internalType": "contract IStrategy"
            },
            {
              "name": "multiplier",
              "type": "uint96",
              "internalType": "uint96"
            }
          ]
        }
      ],
      "outputs": [],
      "stateMutability": "nonpayable"
    },
    {
      "type": "function",
      "name": "lastEjectionTimestamp",
      "inputs": [
        {
          "name": "",
          "type": "address",
          "internalType": "address"
        }
      ],
      "outputs": [
        {
          "name": "",
          "type": "uint256",
          "internalType": "uint256"
        }
      ],
      "stateMutability": "view"
    },
    {
      "type": "function",
      "name": "numRegistries",
      "inputs": [],
      "outputs": [
        {
          "name": "",
          "type": "uint256",
          "internalType": "uint256"
        }
      ],
      "stateMutability": "pure"
    },
    {
      "type": "function",
      "name": "owner",
      "inputs": [],
      "outputs": [
        {
          "name": "",
          "type": "address",
          "internalType": "address"
        }
      ],
      "stateMutability": "view"
    },
    {
      "type": "function",
      "name": "pause",
      "inputs": [
        {
          "name": "newPausedStatus",
          "type": "uint256",
          "internalType": "uint256"
        }
      ],
      "outputs": [],
      "stateMutability": "nonpayable"
    },
    {
      "type": "function",
      "name": "pauseAll",
      "inputs": [],
      "outputs": [],
      "stateMutability": "nonpayable"
    },
    {
      "type": "function",
      "name": "paused",
      "inputs": [
        {
          "name": "index",
          "type": "uint8",
          "internalType": "uint8"
        }
      ],
      "outputs": [
        {
          "name": "",
          "type": "bool",
          "internalType": "bool"
        }
      ],
      "stateMutability": "view"
    },
    {
      "type": "function",
      "name": "paused",
      "inputs": [],
      "outputs": [
        {
          "name": "",
          "type": "uint256",
          "internalType": "uint256"
        }
      ],
      "stateMutability": "view"
    },
    {
      "type": "function",
      "name": "pauserRegistry",
      "inputs": [],
      "outputs": [
        {
          "name": "",
          "type": "address",
          "internalType": "contract IPauserRegistry"
        }
      ],
      "stateMutability": "view"
    },
    {
      "type": "function",
      "name": "pubkeyRegistrationMessageHash",
      "inputs": [
        {
          "name": "operator",
          "type": "address",
          "internalType": "address"
        }
      ],
      "outputs": [
        {
          "name": "",
          "type": "tuple",
          "internalType": "struct BN254.G1Point",
          "components": [
            {
              "name": "X",
              "type": "uint256",
              "internalType": "uint256"
            },
            {
              "name": "Y",
              "type": "uint256",
              "internalType": "uint256"
            }
          ]
        }
      ],
      "stateMutability": "view"
    },
    {
      "type": "function",
      "name": "quorumCount",
      "inputs": [],
      "outputs": [
        {
          "name": "",
          "type": "uint8",
          "internalType": "uint8"
        }
      ],
      "stateMutability": "view"
    },
    {
      "type": "function",
      "name": "quorumUpdateBlockNumber",
      "inputs": [
        {
          "name": "",
          "type": "uint8",
          "internalType": "uint8"
        }
      ],
      "outputs": [
        {
          "name": "",
          "type": "uint256",
          "internalType": "uint256"
        }
      ],
      "stateMutability": "view"
    },
    {
      "type": "function",
      "name": "registerOperator",
      "inputs": [
        {
          "name": "quorumNumbers",
          "type": "bytes",
          "internalType": "bytes"
        },
        {
          "name": "socket",
          "type": "string",
          "internalType": "string"
        },
        {
          "name": "params",
          "type": "tuple",
          "internalType": "struct IBLSApkRegistry.PubkeyRegistrationParams",
          "components": [
            {
              "name": "pubkeyRegistrationSignature",
              "type": "tuple",
              "internalType": "struct BN254.G1Point",
              "components": [
                {
                  "name": "X",
                  "type": "uint256",
                  "internalType": "uint256"
                },
                {
                  "name": "Y",
                  "type": "uint256",
                  "internalType": "uint256"
                }
              ]
            },
            {
              "name": "pubkeyG1",
              "type": "tuple",
              "internalType": "struct BN254.G1Point",
              "components": [
                {
                  "name": "X",
                  "type": "uint256",
                  "internalType": "uint256"
                },
                {
                  "name": "Y",
                  "type": "uint256",
                  "internalType": "uint256"
                }
              ]
            },
            {
              "name": "pubkeyG2",
              "type": "tuple",
              "internalType": "struct BN254.G2Point",
              "components": [
                {
                  "name": "X",
                  "type": "uint256[2]",
                  "internalType": "uint256[2]"
                },
                {
                  "name": "Y",
                  "type": "uint256[2]",
                  "internalType": "uint256[2]"
                }
              ]
            }
          ]
        },
        {
          "name": "operatorSignature",
          "type": "tuple",
          "internalType": "struct ISignatureUtils.SignatureWithSaltAndExpiry",
          "components": [
            {
              "name": "signature",
              "type": "bytes",
              "internalType": "bytes"
            },
            {
              "name": "salt",
              "type": "bytes32",
              "internalType": "bytes32"
            },
            {
              "name": "expiry",
              "type": "uint256",
              "internalType": "uint256"
            }
          ]
        }
      ],
      "outputs": [],
      "stateMutability": "nonpayable"
    },
    {
      "type": "function",
      "name": "registerOperatorWithChurn",
      "inputs": [
        {
          "name": "quorumNumbers",
          "type": "bytes",
          "internalType": "bytes"
        },
        {
          "name": "socket",
          "type": "string",
          "internalType": "string"
        },
        {
          "name": "params",
          "type": "tuple",
          "internalType": "struct IBLSApkRegistry.PubkeyRegistrationParams",
          "components": [
            {
              "name": "pubkeyRegistrationSignature",
              "type": "tuple",
              "internalType": "struct BN254.G1Point",
              "components": [
                {
                  "name": "X",
                  "type": "uint256",
                  "internalType": "uint256"
                },
                {
                  "name": "Y",
                  "type": "uint256",
                  "internalType": "uint256"
                }
              ]
            },
            {
              "name": "pubkeyG1",
              "type": "tuple",
              "internalType": "struct BN254.G1Point",
              "components": [
                {
                  "name": "X",
                  "type": "uint256",
                  "internalType": "uint256"
                },
                {
                  "name": "Y",
                  "type": "uint256",
                  "internalType": "uint256"
                }
              ]
            },
            {
              "name": "pubkeyG2",
              "type": "tuple",
              "internalType": "struct BN254.G2Point",
              "components": [
                {
                  "name": "X",
                  "type": "uint256[2]",
                  "internalType": "uint256[2]"
                },
                {
                  "name": "Y",
                  "type": "uint256[2]",
                  "internalType": "uint256[2]"
                }
              ]
            }
          ]
        },
        {
          "name": "",
          "type": "tuple[]",
          "internalType": "struct IRegistryCoordinator.OperatorKickParam[]",
          "components": [
            {
              "name": "quorumNumber",
              "type": "uint8",
              "internalType": "uint8"
            },
            {
              "name": "operator",
              "type": "address",
              "internalType": "address"
            }
          ]
        },
        {
          "name": "",
          "type": "tuple",
          "internalType": "struct ISignatureUtils.SignatureWithSaltAndExpiry",
          "components": [
            {
              "name": "signature",
              "type": "bytes",
              "internalType": "bytes"
            },
            {
              "name": "salt",
              "type": "bytes32",
              "internalType": "bytes32"
            },
            {
              "name": "expiry",
              "type": "uint256",
              "internalType": "uint256"
            }
          ]
        },
        {
          "name": "operatorSignature",
          "type": "tuple",
          "internalType": "struct ISignatureUtils.SignatureWithSaltAndExpiry",
          "components": [
            {
              "name": "signature",
              "type": "bytes",
              "internalType": "bytes"
            },
            {
              "name": "salt",
              "type": "bytes32",
              "internalType": "bytes32"
            },
            {
              "name": "expiry",
              "type": "uint256",
              "internalType": "uint256"
            }
          ]
        }
      ],
      "outputs": [],
      "stateMutability": "nonpayable"
    },
    {
      "type": "function",
      "name": "registries",
      "inputs": [
        {
          "name": "",
          "type": "uint256",
          "internalType": "uint256"
        }
      ],
      "outputs": [
        {
          "name": "",
          "type": "address",
          "internalType": "address"
        }
      ],
      "stateMutability": "pure"
    },
    {
      "type": "function",
      "name": "renounceOwnership",
      "inputs": [],
      "outputs": [],
      "stateMutability": "nonpayable"
    },
    {
      "type": "function",
      "name": "serviceManager",
      "inputs": [],
      "outputs": [
        {
          "name": "",
          "type": "address",
          "internalType": "contract IServiceManager"
        }
      ],
      "stateMutability": "view"
    },
    {
      "type": "function",
      "name": "setEjectionCooldown",
      "inputs": [
        {
          "name": "_ejectionCooldown",
          "type": "uint256",
          "internalType": "uint256"
        }
      ],
      "outputs": [],
      "stateMutability": "nonpayable"
    },
    {
      "type": "function",
      "name": "setEjector",
      "inputs": [
        {
          "name": "_ejector",
          "type": "address",
          "internalType": "address"
        }
      ],
      "outputs": [],
      "stateMutability": "nonpayable"
    },
    {
      "type": "function",
      "name": "setOperatorSetParams",
      "inputs": [
        {
          "name": "quorumNumber",
          "type": "uint8",
          "internalType": "uint8"
        },
        {
          "name": "operatorSetParams",
          "type": "tuple",
          "internalType": "struct IRegistryCoordinator.OperatorSetParam",
          "components": [
            {
              "name": "maxOperatorCount",
              "type": "uint32",
              "internalType": "uint32"
            },
            {
              "name": "kickBIPsOfOperatorStake",
              "type": "uint16",
              "internalType": "uint16"
            },
            {
              "name": "kickBIPsOfTotalStake",
              "type": "uint16",
              "internalType": "uint16"
            }
          ]
        }
      ],
      "outputs": [],
      "stateMutability": "nonpayable"
    },
    {
      "type": "function",
      "name": "setPauserRegistry",
      "inputs": [
        {
          "name": "newPauserRegistry",
          "type": "address",
          "internalType": "contract IPauserRegistry"
        }
      ],
      "outputs": [],
      "stateMutability": "nonpayable"
    },
    {
      "type": "function",
      "name": "socketRegistry",
      "inputs": [],
      "outputs": [
        {
          "name": "",
          "type": "address",
          "internalType": "contract ISocketRegistry"
        }
      ],
      "stateMutability": "view"
    },
    {
      "type": "function",
      "name": "stakeRegistry",
      "inputs": [],
      "outputs": [
        {
          "name": "",
          "type": "address",
          "internalType": "contract IStakeRegistry"
        }
      ],
      "stateMutability": "view"
    },
    {
      "type": "function",
      "name": "transferOwnership",
      "inputs": [
        {
          "name": "newOwner",
          "type": "address",
          "internalType": "address"
        }
      ],
      "outputs": [],
      "stateMutability": "nonpayable"
    },
    {
      "type": "function",
      "name": "unpause",
      "inputs": [
        {
          "name": "newPausedStatus",
          "type": "uint256",
          "internalType": "uint256"
        }
      ],
      "outputs": [],
      "stateMutability": "nonpayable"
    },
    {
      "type": "function",
      "name": "updateOperators",
      "inputs": [
        {
          "name": "operators",
          "type": "address[]",
          "internalType": "address[]"
        }
      ],
      "outputs": [],
      "stateMutability": "nonpayable"
    },
    {
      "type": "function",
      "name": "updateOperatorsForQuorum",
      "inputs": [
        {
          "name": "operatorsPerQuorum",
          "type": "address[][]",
          "internalType": "address[][]"
        },
        {
          "name": "quorumNumbers",
          "type": "bytes",
          "internalType": "bytes"
        }
      ],
      "outputs": [],
      "stateMutability": "nonpayable"
    },
    {
      "type": "function",
      "name": "updateSocket",
      "inputs": [
        {
          "name": "socket",
          "type": "string",
          "internalType": "string"
        }
      ],
      "outputs": [],
      "stateMutability": "nonpayable"
    },
    {
      "type": "event",
      "name": "ChurnApproverUpdated",
      "inputs": [
        {
          "name": "prevChurnApprover",
          "type": "address",
          "indexed": false,
          "internalType": "address"
        },
        {
          "name": "newChurnApprover",
          "type": "address",
          "indexed": false,
          "internalType": "address"
        }
      ],
      "anonymous": false
    },
    {
      "type": "event",
      "name": "EjectorUpdated",
      "inputs": [
        {
          "name": "prevEjector",
          "type": "address",
          "indexed": false,
          "internalType": "address"
        },
        {
          "name": "newEjector",
          "type": "address",
          "indexed": false,
          "internalType": "address"
        }
      ],
      "anonymous": false
    },
    {
      "type": "event",
      "name": "Initialized",
      "inputs": [
        {
          "name": "version",
          "type": "uint8",
          "indexed": false,
          "internalType": "uint8"
        }
      ],
      "anonymous": false
    },
    {
      "type": "event",
      "name": "OperatorDeregistered",
      "inputs": [
        {
          "name": "operator",
          "type": "address",
          "indexed": true,
          "internalType": "address"
        },
        {
          "name": "operatorId",
          "type": "bytes32",
          "indexed": true,
          "internalType": "bytes32"
        }
      ],
      "anonymous": false
    },
    {
      "type": "event",
      "name": "OperatorRegistered",
      "inputs": [
        {
          "name": "operator",
          "type": "address",
          "indexed": true,
          "internalType": "address"
        },
        {
          "name": "operatorId",
          "type": "bytes32",
          "indexed": true,
          "internalType": "bytes32"
        }
      ],
      "anonymous": false
    },
    {
      "type": "event",
      "name": "OperatorSetParamsUpdated",
      "inputs": [
        {
          "name": "quorumNumber",
          "type": "uint8",
          "indexed": true,
          "internalType": "uint8"
        },
        {
          "name": "operatorSetParams",
          "type": "tuple",
          "indexed": false,
          "internalType": "struct IRegistryCoordinator.OperatorSetParam",
          "components": [
            {
              "name": "maxOperatorCount",
              "type": "uint32",
              "internalType": "uint32"
            },
            {
              "name": "kickBIPsOfOperatorStake",
              "type": "uint16",
              "internalType": "uint16"
            },
            {
              "name": "kickBIPsOfTotalStake",
              "type": "uint16",
              "internalType": "uint16"
            }
          ]
        }
      ],
      "anonymous": false
    },
    {
      "type": "event",
      "name": "OperatorSocketUpdate",
      "inputs": [
        {
          "name": "operatorId",
          "type": "bytes32",
          "indexed": true,
          "internalType": "bytes32"
        },
        {
          "name": "socket",
          "type": "string",
          "indexed": false,
          "internalType": "string"
        }
      ],
      "anonymous": false
    },
    {
      "type": "event",
      "name": "OwnershipTransferred",
      "inputs": [
        {
          "name": "previousOwner",
          "type": "address",
          "indexed": true,
          "internalType": "address"
        },
        {
          "name": "newOwner",
          "type": "address",
          "indexed": true,
          "internalType": "address"
        }
      ],
      "anonymous": false
    },
    {
      "type": "event",
      "name": "Paused",
      "inputs": [
        {
          "name": "account",
          "type": "address",
          "indexed": true,
          "internalType": "address"
        },
        {
          "name": "newPausedStatus",
          "type": "uint256",
          "indexed": false,
          "internalType": "uint256"
        }
      ],
      "anonymous": false
    },
    {
      "type": "event",
      "name": "PauserRegistrySet",
      "inputs": [
        {
          "name": "pauserRegistry",
          "type": "address",
          "indexed": false,
          "internalType": "contract IPauserRegistry"
        },
        {
          "name": "newPauserRegistry",
          "type": "address",
          "indexed": false,
          "internalType": "contract IPauserRegistry"
        }
      ],
      "anonymous": false
    },
    {
      "type": "event",
      "name": "QuorumBlockNumberUpdated",
      "inputs": [
        {
          "name": "quorumNumber",
          "type": "uint8",
          "indexed": true,
          "internalType": "uint8"
        },
        {
          "name": "blocknumber",
          "type": "uint256",
          "indexed": false,
          "internalType": "uint256"
        }
      ],
      "anonymous": false
    },
    {
      "type": "event",
      "name": "Unpaused",
      "inputs": [
        {
          "name": "account",
          "type": "address",
          "indexed": true,
          "internalType": "address"
        },
        {
          "name": "newPausedStatus",
          "type": "uint256",
          "indexed": false,
          "internalType": "uint256"
        }
      ],
      "anonymous": false
    }
  ],
  "bytecode": {
    "object": "0x610160604052348015610010575f5ffd5b506040516151f43803806151f483398101604081905261002f916101f9565b604080518082018252601681527f4156535265676973747279436f6f7264696e61746f7200000000000000000000602080830191825283518085018552600681526576302e302e3160d01b908201529151902060e08190527f6bda7e3f385e48841048390444cced5cc795af87758af67622e5f4f0882c4a996101008190524660a081815285517f8b73c3c69bb8fe3d512ecc4cf759cc79239f7b179b0ffacaa9a75d522b39400f818701819052818801959095526060810193909352608080840192909252308382018190528651808503909201825260c09384019096528051940193909320909252919052610120526001600160a01b0381166101405261013661013c565b50610226565b5f54610100900460ff16156101a75760405162461bcd60e51b815260206004820152602760248201527f496e697469616c697a61626c653a20636f6e747261637420697320696e697469604482015266616c697a696e6760c81b606482015260840160405180910390fd5b5f5460ff90811610156101f7575f805460ff191660ff9081179091556040519081527f7f26b83ff96e1f2b6a682f133852f6798a09c465da95921460cefb38474024989060200160405180910390a15b565b5f60208284031215610209575f5ffd5b81516001600160a01b038116811461021f575f5ffd5b9392505050565b60805160a05160c05160e051610100516101205161014051614f5a61029a5f395f818161065d01528181610e7d015281816115b301528181611614015281816119ae0152611c3101525f61363b01525f61368a01525f61366501525f6135be01525f6135e801525f6136120152614f5a5ff3fe608060405234801561000f575f5ffd5b50600436106102b0575f3560e01c8063683048351161017b578063a50857bf116100e4578063d72d8dd61161009e578063ea32afae11610079578063ea32afae14610778578063f2fde38b14610780578063fabc1cbc14610793578063fd39105a146107a6575f5ffd5b8063d72d8dd6146106b9578063d75b4c88146106bf578063e65797ad146106d2575f5ffd5b8063a50857bf1461061c578063a96f783e1461062f578063c391425e14610638578063c41c2f2414610658578063ca0de8821461067f578063ca4f2d97146106a6575f5ffd5b8063886f119511610135578063886f11951461059b5780638da5cb5b146105b35780639aa1653d146105bb5780639b5d177b146105da5780639e9923c2146105ed5780639feab859146105f5575f5ffd5b8063683048351461053a5780636e3b17db146105425780636f88a50714610555578063715018a61461056857806384ca521314610570578063871ef04914610588575f5ffd5b8063296bb0641161021d578063595c6a67116101d7578063595c6a67146104cd5780635ac86ab7146104d55780635b0b829f146105045780635c975abb146105175780635df459461461051f5780636347c90014610527575f5ffd5b8063296bb0641461044c5780632cdd1e861461045f5780633998fdd3146104725780633c2a7f4c1461047a5780635140a5481461049a5780635865c60c146104ad575f5ffd5b8063125e05841161026e578063125e05841461035f57806313542a4e1461037e578063136439dd146103a65780631eb812da146103b9578063249a0c421461040257806328f61b3114610421575f5ffd5b8062cf2ab5146102b457806303fd3492146102c957806304ec6351146102fb5780630cf4b767146103265780630d3f21341461033957806310d67a2f1461034c575b5f5ffd5b6102c76102c2366004613bc0565b6107e1565b005b6102e86102d7366004613bfe565b5f9081526098602052604090205490565b6040519081526020015b60405180910390f35b61030e610309366004613c26565b6108ea565b6040516001600160c01b0390911681526020016102f2565b6102c7610334366004613d41565b610ac2565b6102c7610347366004613bfe565b610b6a565b6102c761035a366004613da9565b610b77565b6102e861036d366004613da9565b609f6020525f908152604090205481565b6102e861038c366004613da9565b6001600160a01b03165f9081526099602052604090205490565b6102c76103b4366004613bfe565b610c24565b6103cc6103c7366004613dc4565b610d65565b60408051825163ffffffff908116825260208085015190911690820152918101516001600160c01b0316908201526060016102f2565b6102e8610410366004613df4565b609b6020525f908152604090205481565b609e54610434906001600160a01b031681565b6040516001600160a01b0390911681526020016102f2565b61043461045a366004613bfe565b610df4565b6102c761046d366004613da9565b610e69565b610434610e7a565b61048d610488366004613da9565b610f3c565b6040516102f29190613e0d565b6102c76104a8366004613e61565b610fba565b6104c06104bb366004613da9565b611455565b6040516102f29190613eff565b6102c76114c7565b6104f46104e3366004613df4565b6001805460ff9092161b9081161490565b60405190151581526020016102f2565b6102c7610512366004613f7a565b61158f565b6001546102e8565b6104346115b0565b610434610535366004613bfe565b505f90565b610434611611565b6102c7610550366004613fac565b611670565b6102c761056336600461421e565b61178b565b6102c7611962565b6102e861057e3660046142e5565b5f95945050505050565b61030e610596366004613bfe565b611975565b5f54610434906201000090046001600160a01b031681565b61043461197f565b6096546105c89060ff1681565b60405160ff90911681526020016102f2565b6102c76105e836600461449e565b611992565b6104346119ab565b6102e87f2bd82124057f0913bc3b772ce7b83e8057c1ad1f3510fc83778be20f10ec5de681565b6102c761062a3660046145a0565b611a0a565b6102e860a05481565b61064b610646366004614649565b611b09565b6040516102f291906146ee565b6104347f000000000000000000000000000000000000000000000000000000000000000081565b6102e87f4d404e3276e7ac2163d8ee476afa6a41d1f68fb71f2d8b6546b24e55ce01b72a81565b6102c76106b4366004614736565b611bb6565b5f6102e8565b6102c76106cd366004614768565b611c1b565b6107446106e0366004613df4565b60408051606080820183525f808352602080840182905292840181905260ff9490941684526097825292829020825193840183525463ffffffff8116845261ffff640100000000820481169285019290925266010000000000009004169082015290565b60408051825163ffffffff16815260208084015161ffff9081169183019190915292820151909216908201526060016102f2565b610434611c2e565b6102c761078e366004613da9565b611c8e565b6102c76107a1366004613bfe565b611d04565b6107d46107b4366004613da9565b6001600160a01b03165f9081526099602052604090206001015460ff1690565b6040516102f291906147c4565b6001546002906004908116036108125760405162461bcd60e51b8152600401610809906147d2565b60405180910390fd5b5f5b828110156108e4575f84848381811061082f5761082f614809565b90506020020160208101906108449190613da9565b6001600160a01b0381165f9081526099602090815260408083208151808301909252805482526001810154949550929390929183019060ff16600281111561088e5761088e613ecb565b600281111561089f5761089f613ecb565b90525080519091505f6108b182611e5d565b90505f6108c6826001600160c01b0316611ec4565b90506108d3858583611f8d565b505060019093019250610814915050565b50505050565b5f83815260986020526040812080548291908490811061090c5761090c614809565b5f91825260209182902060408051606081018252929091015463ffffffff8082168085526401000000008304821695850195909552600160401b9091046001600160c01b031691830191909152909250851610156109f85760405162461bcd60e51b815260206004820152605a60248201527f526567436f6f72642e67657451756f72756d4269746d61704174426c6f636b4e60448201527f756d6265724279496e6465783a2071756f72756d4269746d617055706461746560648201527f2069732066726f6d20616674657220626c6f636b4e756d626572000000000000608482015260a401610809565b602081015163ffffffff161580610a1e5750806020015163ffffffff168463ffffffff16105b610ab65760405162461bcd60e51b815260206004820152605b60248201527f526567436f6f72642e67657451756f72756d4269746d61704174426c6f636b4e60448201527f756d6265724279496e6465783a2071756f72756d4269746d617055706461746560648201527f2069732066726f6d206265666f726520626c6f636b4e756d6265720000000000608482015260a401610809565b60400151949350505050565b6001335f9081526099602052604090206001015460ff166002811115610aea57610aea613ecb565b14610b4e5760405162461bcd60e51b815260206004820152602e60248201527f526567436f6f72642e757064617465536f636b65743a206f70657261746f722060448201526d1b9bdd081c9959da5cdd195c995960921b6064820152608401610809565b335f90815260996020526040902054610b67908261205c565b50565b610b726120fa565b60a055565b5f60029054906101000a90046001600160a01b03166001600160a01b031663eab66d7a6040518163ffffffff1660e01b8152600401602060405180830381865afa158015610bc7573d5f5f3e3d5ffd5b505050506040513d601f19601f82011682018060405250810190610beb919061481d565b6001600160a01b0316336001600160a01b031614610c1b5760405162461bcd60e51b815260040161080990614838565b610b6781612159565b5f5460405163237dfb4760e11b8152336004820152620100009091046001600160a01b0316906346fbf68e90602401602060405180830381865afa158015610c6e573d5f5f3e3d5ffd5b505050506040513d601f19601f82011682018060405250810190610c929190614882565b610cae5760405162461bcd60e51b8152600401610809906148a1565b60015481811614610d275760405162461bcd60e51b815260206004820152603860248201527f5061757361626c652e70617573653a20696e76616c696420617474656d70742060448201527f746f20756e70617573652066756e6374696f6e616c69747900000000000000006064820152608401610809565b600181905560405181815233907fab40a374bc51de372200a8bc981af8c9ecdc08dfdaef0bb6e09f88f3c616ef3d906020015b60405180910390a250565b604080516060810182525f80825260208201819052918101919091525f838152609860205260409020805483908110610da057610da0614809565b5f91825260209182902060408051606081018252919092015463ffffffff8082168352640100000000820416938201939093526001600160c01b03600160401b909304929092169082015290505b92915050565b5f610dfd6115b0565b6001600160a01b03166347b314e8836040518263ffffffff1660e01b8152600401610e2a91815260200190565b602060405180830381865afa158015610e45573d5f5f3e3d5ffd5b505050506040513d601f19601f82011682018060405250810190610dee919061481d565b610e716120fa565b610b678161225c565b5f7f00000000000000000000000000000000000000000000000000000000000000006001600160a01b03166321f8a721610eda6040518060400160405280600f81526020016e29a2a92b24a1a2afa6a0a720a3a2a960891b8152506122c5565b6040518263ffffffff1660e01b8152600401610ef891815260200190565b602060405180830381865afa158015610f13573d5f5f3e3d5ffd5b505050506040513d601f19601f82011682018060405250810190610f37919061481d565b905090565b604080518082019091525f8082526020820152610dee610fb57f2bd82124057f0913bc3b772ce7b83e8057c1ad1f3510fc83778be20f10ec5de684604051602001610f9a9291909182526001600160a01b0316602082015260400190565b604051602081830303815290604052805190602001206122f4565b612340565b600154600290600490811603610fe25760405162461bcd60e51b8152600401610809906147d2565b61102783838080601f0160208091040260200160405190810160405280939291908181526020018383808284375f920191909152505060965460ff1691506123ca9050565b5083821461108a5760405162461bcd60e51b815260206004820152603860248201525f516020614f055f395f51905f5260448201527f6d3a20696e707574206c656e677468206d69736d6174636800000000000000006064820152608401610809565b5f5b8281101561144d575f8484838181106110a7576110a7614809565b919091013560f81c91503690505f8888858181106110c7576110c7614809565b90506020028101906110d991906148e9565b915091506110e56119ab565b6040516379a0849160e11b815260ff851660048201526001600160a01b03919091169063f341092290602401602060405180830381865afa15801561112c573d5f5f3e3d5ffd5b505050506040513d601f19601f82011682018060405250810190611150919061492e565b63ffffffff1681146111dd5760405162461bcd60e51b815260206004820152605a60248201525f516020614f055f395f51905f5260448201527f6d3a206e756d626572206f662075706461746564206f70657261746f7273206460648201527f6f6573206e6f74206d617463682071756f72756d20746f74616c000000000000608482015260a401610809565b5f805b828110156113f3575f8484838181106111fb576111fb614809565b90506020020160208101906112109190613da9565b6001600160a01b0381165f9081526099602090815260408083208151808301909252805482526001810154949550929390929183019060ff16600281111561125a5761125a613ecb565b600281111561126b5761126b613ecb565b90525080519091505f61127d82611e5d565b905060016001600160c01b03821660ff8b161c8116146112f25760405162461bcd60e51b815260206004820152603960248201525f516020614f055f395f51905f5260448201527f6d3a206f70657261746f72206e6f7420696e2071756f72756d000000000000006064820152608401610809565b856001600160a01b0316846001600160a01b03161161138c5760405162461bcd60e51b815260206004820152605c60248201525f516020614f055f395f51905f5260448201527f6d3a206f70657261746f7273206172726179206d75737420626520736f72746560648201527f6420696e20617363656e64696e672061646472657373206f7264657200000000608482015260a401610809565b506113e683838e8c8f6113a082600161495d565b926113ad93929190614970565b8080601f0160208091040260200160405190810160405280939291908181526020018383808284375f92019190915250611f8d92505050565b50909250506001016111e0565b5060ff84165f818152609b6020908152604091829020439081905591519182527f46077d55330763f16269fd75e5761663f4192d2791747c0189b16ad31db07db4910160405180910390a25050505080600101905061108c565b505050505050565b604080518082019091525f80825260208201526001600160a01b0382165f908152609960209081526040918290208251808401909352805483526001810154909183019060ff1660028111156114ad576114ad613ecb565b60028111156114be576114be613ecb565b90525092915050565b5f5460405163237dfb4760e11b8152336004820152620100009091046001600160a01b0316906346fbf68e90602401602060405180830381865afa158015611511573d5f5f3e3d5ffd5b505050506040513d601f19601f820116820180604052508101906115359190614882565b6115515760405162461bcd60e51b8152600401610809906148a1565b5f19600181905560405190815233907fab40a374bc51de372200a8bc981af8c9ecdc08dfdaef0bb6e09f88f3c616ef3d9060200160405180910390a2565b6115976120fa565b816115a18161245a565b6115ab83836124c7565b505050565b5f7f00000000000000000000000000000000000000000000000000000000000000006001600160a01b03166321f8a721610eda6040518060400160405280601081526020016f424c535f41504b5f524547495354525960801b8152506122c5565b5f7f00000000000000000000000000000000000000000000000000000000000000006001600160a01b03166321f8a721610eda6040518060400160405280600e81526020016d5354414b455f524547495354525960901b8152506122c5565b611678612570565b6001600160a01b0383165f908152609f602090815260408083204290556099825280832080548251601f87018590048502810185019093528583529093909290916116e39187908790819084018382808284375f920191909152505060965460ff1691506123ca9050565b90505f6116ef83611e5d565b905060018085015460ff16600281111561170b5761170b613ecb565b14801561172057506001600160c01b03821615155b801561173e575061173e6001600160c01b0383811690831681161490565b15611782576117828787878080601f0160208091040260200160405190810160405280939291908181526020018383808284375f920191909152506125e292505050565b50505050505050565b5f54600290610100900460ff161580156117ab57505f5460ff8083169116105b61180e5760405162461bcd60e51b815260206004820152602e60248201527f496e697469616c697a61626c653a20636f6e747261637420697320616c72656160448201526d191e481a5b9a5d1a585b1a5e995960921b6064820152608401610809565b5f805461ffff191660ff83161761010017905582518451148015611833575081518351145b6118925760405162461bcd60e51b815260206004820152602a60248201527f526567436f6f72642e696e697469616c697a653a20696e707574206c656e67746044820152690d040dad2e6dac2e8c6d60b31b6064820152608401610809565b61189b886129aa565b6118a586866129fb565b6118ae8761225c565b5f5b84518110156119175761190f8582815181106118ce576118ce614809565b60200260200101518583815181106118e8576118e8614809565b602002602001015185848151811061190257611902614809565b6020026020010151612a42565b6001016118b0565b505f805461ff001916905560405160ff821681527f7f26b83ff96e1f2b6a682f133852f6798a09c465da95921460cefb38474024989060200160405180910390a15050505050505050565b61196a6120fa565b6119735f6129aa565b565b5f610dee82611e5d565b5f610f376064546001600160a01b031690565b6119a0898989898986611a0a565b505050505050505050565b5f7f00000000000000000000000000000000000000000000000000000000000000006001600160a01b03166321f8a721610eda6040518060400160405280600e81526020016d494e4445585f524547495354525960901b8152506122c5565b600180545f9190811603611a305760405162461bcd60e51b8152600401610809906147d2565b5f611a3b3385612bf7565b90505f611a8233838b8b8b8b8080601f0160208091040260200160405190810160405280939291908181526020018383808284375f920191909152508c9250612cf9915050565b5190505f5b88811015611afd575f8a8a83818110611aa257611aa2614809565b919091013560f81c5f81815260976020526040902054855191935063ffffffff169150849084908110611ad757611ad7614809565b602002602001015163ffffffff161115611af457611af4816131c7565b50600101611a87565b50505050505050505050565b60605f82516001600160401b03811115611b2557611b25613c5b565b604051908082528060200260200182016040528015611b4e578160200160208202803683370190505b5090505f5b8351811015611bae57611b7f85858381518110611b7257611b72614809565b602002602001015161346f565b828281518110611b9157611b91614809565b63ffffffff90921660209283029190910190910152600101611b53565b509392505050565b60018054600290811603611bdc5760405162461bcd60e51b8152600401610809906147d2565b6115ab3384848080601f0160208091040260200160405190810160405280939291908181526020018383808284375f920191909152506125e292505050565b611c236120fa565b6115ab838383612a42565b5f7f00000000000000000000000000000000000000000000000000000000000000006001600160a01b03166321f8a721610eda6040518060400160405280600f81526020016e534f434b45545f524547495354525960881b8152506122c5565b611c966120fa565b6001600160a01b038116611cfb5760405162461bcd60e51b815260206004820152602660248201527f4f776e61626c653a206e6577206f776e657220697320746865207a65726f206160448201526564647265737360d01b6064820152608401610809565b610b67816129aa565b5f60029054906101000a90046001600160a01b03166001600160a01b031663eab66d7a6040518163ffffffff1660e01b8152600401602060405180830381865afa158015611d54573d5f5f3e3d5ffd5b505050506040513d601f19601f82011682018060405250810190611d78919061481d565b6001600160a01b0316336001600160a01b031614611da85760405162461bcd60e51b815260040161080990614838565b600154198119600154191614611e265760405162461bcd60e51b815260206004820152603860248201527f5061757361626c652e756e70617573653a20696e76616c696420617474656d7060448201527f7420746f2070617573652066756e6374696f6e616c69747900000000000000006064820152608401610809565b600181905560405181815233907f3582d1828e26bf56bd801502bc021ac0bc8afb57c826e4986b45593c8fad389c90602001610d5a565b5f81815260986020526040812054808203611e7a57505f92915050565b5f838152609860205260409020611e92600183614997565b81548110611ea257611ea2614809565b5f91825260209091200154600160401b90046001600160c01b03169392505050565b60605f5f611ed184613588565b61ffff166001600160401b03811115611eec57611eec613c5b565b6040519080825280601f01601f191660200182016040528015611f16576020820181803683370190505b5090505f805b825182108015611f2d575061010081105b15611f83576001811b935085841615611f73578060f81b838381518110611f5657611f56614809565b60200101906001600160f81b03191690815f1a9053508160010191505b611f7c816149aa565b9050611f1c565b5090949350505050565b600182602001516002811115611fa557611fa5613ecb565b14611faf57505050565b81515f611fba611611565b6001600160a01b03166366acfefe8684866040518463ffffffff1660e01b8152600401611fe9939291906149f0565b6020604051808303815f875af1158015612005573d5f5f3e3d5ffd5b505050506040513d601f19601f820116820180604052508101906120299190614a1f565b90506001600160c01b038116156120555761205585612050836001600160c01b0316611ec4565b6125e2565b5050505050565b612064611c2e565b6001600160a01b031663f043367e83836040518363ffffffff1660e01b8152600401612091929190614a45565b5f604051808303815f87803b1580156120a8575f5ffd5b505af11580156120ba573d5f5f3e3d5ffd5b50505050817fec2963ab21c1e50e1e582aa542af2e4bf7bf38e6e1403c27b42e1c5d6e621eaa826040516120ee9190614a65565b60405180910390a25050565b3361210361197f565b6001600160a01b0316146119735760405162461bcd60e51b815260206004820181905260248201527f4f776e61626c653a2063616c6c6572206973206e6f7420746865206f776e65726044820152606401610809565b6001600160a01b0381166121e75760405162461bcd60e51b815260206004820152604960248201527f5061757361626c652e5f73657450617573657252656769737472793a206e657760448201527f50617573657252656769737472792063616e6e6f7420626520746865207a65726064820152686f206164647265737360b81b608482015260a401610809565b5f54604080516001600160a01b03620100009093048316815291831660208301527f6e9fcd539896fca60e8b0f01dd580233e48a6b0f7df013b89ba7f565869acdb6910160405180910390a15f80546001600160a01b03909216620100000262010000600160b01b0319909216919091179055565b609e54604080516001600160a01b03928316815291831660208301527f8f30ab09f43a6c157d7fce7e0a13c003042c1c95e8a72e7a146a21c0caa24dc9910160405180910390a1609e80546001600160a01b0319166001600160a01b0392909216919091179055565b5f816040516020016122d79190614a77565b604051602081830303815290604052805190602001209050919050565b5f610dee6123006135b2565b8360405161190160f01b602082015260228101839052604281018290525f9060620160405160208183030381529060405280519060200120905092915050565b604080518082019091525f80825260208201525f808061236d5f516020614ee55f395f51905f5286614a8d565b90505b612379816136d8565b90935091505f516020614ee55f395f51905f5282830983036123b1576040805180820190915290815260208101919091529392505050565b5f516020614ee55f395f51905f52600182089050612370565b5f5f6123d584613754565b9050808360ff166001901b116124535760405162461bcd60e51b815260206004820152603f60248201527f4269746d61705574696c732e6f72646572656442797465734172726179546f4260448201527f69746d61703a206269746d61702065786365656473206d61782076616c7565006064820152608401610809565b9392505050565b60965460ff90811690821610610b675760405162461bcd60e51b815260206004820152602c60248201527f526567436f6f72642e71756f72756d4578697374733a2071756f72756d20646f60448201526b195cc81b9bdd08195e1a5cdd60a21b6064820152608401610809565b60ff82165f81815260976020908152604091829020845181548684018051888701805163ffffffff90951665ffffffffffff19909416841764010000000061ffff938416021767ffff0000000000001916660100000000000095831695909502949094179094558551918252518316938101939093525116918101919091527f3ee6fe8d54610244c3e9d3c066ae4aee997884aa28f10616ae821925401318ac906060016120ee565b609e546001600160a01b031633146119735760405162461bcd60e51b815260206004820152602f60248201527f526567436f6f72642e6f6e6c79456a6563746f723a2063616c6c65722069732060448201526e3737ba103a34329032b532b1ba37b960891b6064820152608401610809565b6001600160a01b0382165f908152609960205260409020805460018083015460ff16600281111561261557612615613ecb565b146126885760405162461bcd60e51b815260206004820152603860248201527f526567436f6f72642e5f646572656769737465724f70657261746f723a206f7060448201527f657261746f72206973206e6f74207265676973746572656400000000000000006064820152608401610809565b6096545f9061269b90859060ff166123ca565b90505f6126a783611e5d565b90506001600160c01b0382166127185760405162461bcd60e51b815260206004820152603060248201527f526567436f6f72642e5f646572656769737465724f70657261746f723a20626960448201526f0746d61702063616e6e6f7420626520360841b6064820152608401610809565b61272f6001600160c01b0383811690831681161490565b6127af5760405162461bcd60e51b8152602060048201526044602482018190527f526567436f6f72642e5f646572656769737465724f70657261746f723a206f70908201527f657261746f72206973206e6f74207265676973746572656420666f722071756f60648201526372756d7360e01b608482015260a401610809565b6001600160c01b03828116198216166127c884826138d7565b6001600160c01b03811661287b5760018501805460ff191660021790556127ed610e7a565b6040516351b27a6d60e11b81526001600160a01b038981166004830152919091169063a364f4da906024015f604051808303815f87803b15801561282f575f5ffd5b505af1158015612841573d5f5f3e3d5ffd5b50506040518692506001600160a01b038a1691507f396fdcb180cb0fea26928113fb0fd1c3549863f9cd563e6a184f1d578116c8e4905f90a35b6128836115b0565b6001600160a01b031663f4e24fe588886040518363ffffffff1660e01b81526004016128b0929190614aac565b5f604051808303815f87803b1580156128c7575f5ffd5b505af11580156128d9573d5f5f3e3d5ffd5b505050506128e5611611565b6001600160a01b031663bd29b8cd85886040518363ffffffff1660e01b8152600401612912929190614a45565b5f604051808303815f87803b158015612929575f5ffd5b505af115801561293b573d5f5f3e3d5ffd5b505050506129476119ab565b6001600160a01b031663bd29b8cd85886040518363ffffffff1660e01b8152600401612974929190614a45565b5f604051808303815f87803b15801561298b575f5ffd5b505af115801561299d573d5f5f3e3d5ffd5b5050505050505050505050565b606480546001600160a01b038381166001600160a01b0319831681179093556040519116919082907f8be0079c531659141344cd1fd0a4f28419497f9722a3daafe3b4186f6b6457e0905f90a35050565b600181905560405181815233907fab40a374bc51de372200a8bc981af8c9ecdc08dfdaef0bb6e09f88f3c616ef3d9060200160405180910390a2612a3e82612159565b5050565b60965460ff1660c08110612aab5760405162461bcd60e51b815260206004820152602a60248201527f526567436f6f72642e63726561746551756f72756d3a206d61782071756f72756044820152691b5cc81c995858da195960b21b6064820152608401610809565b612ab6816001614acf565b6096805460ff191660ff9290921691909117905580612ad581866124c7565b612add611611565b6001600160a01b031663ff694a778286866040518463ffffffff1660e01b8152600401612b0c93929190614ae8565b5f604051808303815f87803b158015612b23575f5ffd5b505af1158015612b35573d5f5f3e3d5ffd5b50505050612b416119ab565b60405163136ca0f960e11b815260ff831660048201526001600160a01b0391909116906326d941f2906024015f604051808303815f87803b158015612b84575f5ffd5b505af1158015612b96573d5f5f3e3d5ffd5b50505050612ba26115b0565b60405163136ca0f960e11b815260ff831660048201526001600160a01b0391909116906326d941f2906024015f604051808303815f87803b158015612be5575f5ffd5b505af11580156119a0573d5f5f3e3d5ffd5b5f5f612c016115b0565b6040516309aa152760e11b81526001600160a01b038681166004830152919250908216906313542a4e90602401602060405180830381865afa158015612c49573d5f5f3e3d5ffd5b505050506040513d601f19601f82011682018060405250810190612c6d9190614b66565b91505f829003612cf257806001600160a01b031663bf79ce588585612c9188610f3c565b6040518463ffffffff1660e01b8152600401612caf93929190614b7d565b6020604051808303815f875af1158015612ccb573d5f5f3e3d5ffd5b505050506040513d601f19601f82011682018060405250810190612cef9190614b66565b91505b5092915050565b612d1d60405180606001604052806060815260200160608152602001606081525090565b5f612d6386868080601f0160208091040260200160405190810160405280939291908181526020018383808284375f920191909152505060965460ff1691506123ca9050565b90505f612d6f88611e5d565b90506001600160c01b038216612dde5760405162461bcd60e51b815260206004820152602e60248201527f526567436f6f72642e5f72656769737465724f70657261746f723a206269746d60448201526d061702063616e6e6f7420626520360941b6064820152608401610809565b8082166001600160c01b031615612e6e5760405162461bcd60e51b815260206004820152604860248201527f526567436f6f72642e5f72656769737465724f70657261746f723a206f70657260448201527f61746f7220616c7265616479207265676973746572656420666f7220736f6d656064820152672071756f72756d7360c01b608482015260a401610809565b60a0546001600160a01b038a165f908152609f60205260409020546001600160c01b0383811690851617914291612ea5919061495d565b10612f185760405162461bcd60e51b815260206004820152603a60248201527f526567436f6f72642e5f72656769737465724f70657261746f723a206f70657260448201527f61746f722063616e6e6f742072657265676973746572207965740000000000006064820152608401610809565b612f2289826138d7565b60016001600160a01b038b165f9081526099602052604090206001015460ff166002811115612f5357612f53613ecb565b14613057576040805180820182528a8152600160208083018281526001600160a01b038f165f908152609990925293902082518155925183820180549394939192909160ff191690836002811115612fad57612fad613ecb565b0217905550905050612fbd610e7a565b6001600160a01b0316639926ee7d8b876040518363ffffffff1660e01b8152600401612fea929190614bed565b5f604051808303815f87803b158015613001575f5ffd5b505af1158015613013573d5f5f3e3d5ffd5b50505050613021898761205c565b60405189906001600160a01b038c16907fe8e68cef1c3a761ed7be7e8463a375f27f7bc335e51824223cacce636ec5c3fe905f90a35b61305f6115b0565b6001600160a01b0316633fb279528b8a8a6040518463ffffffff1660e01b815260040161308e93929190614c5f565b5f604051808303815f87803b1580156130a5575f5ffd5b505af11580156130b7573d5f5f3e3d5ffd5b505050506130c3611611565b6001600160a01b031663255047778b8b8b8b6040518563ffffffff1660e01b81526004016130f49493929190614c83565b5f604051808303815f875af115801561310f573d5f5f3e3d5ffd5b505050506040513d5f823e601f3d908101601f191682016040526131369190810190614d18565b604086015260208501526131486119ab565b6001600160a01b031662bff04d8a8a8a6040518463ffffffff1660e01b815260040161317693929190614d7b565b5f604051808303815f875af1158015613191573d5f5f3e3d5ffd5b505050506040513d5f823e601f3d908101601f191682016040526131b89190810190614d94565b84525050509695505050505050565b5f6131d06119ab565b604051638902624560e01b815260ff8416600482015263ffffffff431660248201526001600160a01b0391909116906389026245906044015f60405180830381865afa158015613222573d5f5f3e3d5ffd5b505050506040513d5f823e601f3d908101601f191682016040526132499190810190614e23565b90505f8151116132b25760405162461bcd60e51b815260206004820152602e60248201527f526567436f6f72642e5f636875726e4f70657261746f723a206e6f206f70657260448201526d30ba37b939903a379031b43ab93760911b6064820152608401610809565b5f6001600160601b03815b83518110156133a5575f6132cf611611565b6001600160a01b0316635401ed278684815181106132ef576132ef614809565b6020026020010151886040518363ffffffff1660e01b815260040161332192919091825260ff16602082015260400190565b602060405180830381865afa15801561333c573d5f5f3e3d5ffd5b505050506040513d601f19601f820116820180604052508101906133609190614ea9565b9050826001600160601b0316816001600160601b0316101561339c5780925084828151811061339157613391614809565b602002602001015193505b506001016132bd565b506040805160018082528183019092525f916020820181803683370190505090508460f81b815f815181106133dc576133dc614809565b60200101906001600160f81b03191690815f1a9053506120556133fd6115b0565b6001600160a01b031663e8bb9ae6856040518263ffffffff1660e01b815260040161342a91815260200190565b602060405180830381865afa158015613445573d5f5f3e3d5ffd5b505050506040513d601f19601f82011682018060405250810190613469919061481d565b826125e2565b5f81815260986020526040812054815b818110156134f35760016134938284614997565b61349d9190614997565b92508463ffffffff1660985f8681526020019081526020015f208463ffffffff16815481106134ce576134ce614809565b5f9182526020909120015463ffffffff16116134eb575050610dee565b60010161347f565b5060405162461bcd60e51b815260206004820152605e60248201527f526567436f6f72642e67657451756f72756d4269746d6170496e64657841744260448201527f6c6f636b4e756d6265723a206e6f206269746d61702075706461746520666f7560648201527f6e6420666f72206f70657261746f7220617420626c6f636b4e756d6265720000608482015260a401610809565b5f805b8215610dee5761359c600184614997565b90921691806135aa81614ec4565b91505061358b565b5f306001600160a01b037f00000000000000000000000000000000000000000000000000000000000000001614801561360a57507f000000000000000000000000000000000000000000000000000000000000000046145b1561363457507f000000000000000000000000000000000000000000000000000000000000000090565b50604080517f00000000000000000000000000000000000000000000000000000000000000006020808301919091527f0000000000000000000000000000000000000000000000000000000000000000828401527f000000000000000000000000000000000000000000000000000000000000000060608301524660808301523060a0808401919091528351808403909101815260c0909201909252805191012090565b5f80805f516020614ee55f395f51905f5260035f516020614ee55f395f51905f52865f516020614ee55f395f51905f52888909090890505f613748827f0c19139cb84c680a6e14116da060561765e05aa45a1c72a34f082305b61f3f525f516020614ee55f395f51905f52613a95565b91959194509092505050565b5f610100825111156137dc5760405162461bcd60e51b8152602060048201526044602482018190527f4269746d61705574696c732e6f72646572656442797465734172726179546f42908201527f69746d61703a206f7264657265644279746573417272617920697320746f6f206064820152636c6f6e6760e01b608482015260a401610809565b81515f036137eb57505f919050565b5f5f835f815181106137ff576137ff614809565b0160200151600160f89190911c81901b92505b84518110156138ce5784818151811061382d5761382d614809565b0160200151600160f89190911c1b91508282116138c25760405162461bcd60e51b815260206004820152604760248201527f4269746d61705574696c732e6f72646572656442797465734172726179546f4260448201527f69746d61703a206f72646572656442797465734172726179206973206e6f74206064820152661bdc99195c995960ca1b608482015260a401610809565b91811791600101613812565b50909392505050565b5f828152609860205260408120549081900361397e575f838152609860209081526040808320815160608101835263ffffffff43811682528185018681526001600160c01b03808a16958401958652845460018101865594885295909620915191909201805495519351909416600160401b026001600160401b039383166401000000000267ffffffffffffffff1990961691909216179390931716919091179055505050565b5f838152609860205260408120613996600184614997565b815481106139a6576139a6614809565b5f918252602090912001805490915063ffffffff4381169116036139e75780546001600160401b0316600160401b6001600160c01b038516021781556108e4565b805463ffffffff43811664010000000081810267ffffffff00000000199094169390931784555f87815260986020908152604080832081516060810183529485528483018481526001600160c01b03808c1693870193845282546001810184559286529390942094519401805493519151909216600160401b026001600160401b0391861690960267ffffffffffffffff199093169390941692909217179190911691909117905550505050565b5f5f613a9f613b3d565b613aa7613b5b565b602080825281810181905260408201819052606082018890526080820187905260a082018690528260c08360056107d05a03fa92508280613ae457fe5b5082613b325760405162461bcd60e51b815260206004820152601a60248201527f424e3235342e6578704d6f643a2063616c6c206661696c7572650000000000006044820152606401610809565b505195945050505050565b60405180602001604052806001906020820280368337509192915050565b6040518060c001604052806006906020820280368337509192915050565b5f5f83601f840112613b89575f5ffd5b5081356001600160401b03811115613b9f575f5ffd5b6020830191508360208260051b8501011115613bb9575f5ffd5b9250929050565b5f5f60208385031215613bd1575f5ffd5b82356001600160401b03811115613be6575f5ffd5b613bf285828601613b79565b90969095509350505050565b5f60208284031215613c0e575f5ffd5b5035919050565b63ffffffff81168114610b67575f5ffd5b5f5f5f60608486031215613c38575f5ffd5b833592506020840135613c4a81613c15565b929592945050506040919091013590565b634e487b7160e01b5f52604160045260245ffd5b604051606081016001600160401b0381118282101715613c9157613c91613c5b565b60405290565b604080519081016001600160401b0381118282101715613c9157613c91613c5b565b604051601f8201601f191681016001600160401b0381118282101715613ce157613ce1613c5b565b604052919050565b5f5f6001600160401b03841115613d0257613d02613c5b565b50601f8301601f1916602001613d1781613cb9565b915050828152838383011115613d2b575f5ffd5b828260208301375f602084830101529392505050565b5f60208284031215613d51575f5ffd5b81356001600160401b03811115613d66575f5ffd5b8201601f81018413613d76575f5ffd5b612cef84823560208401613ce9565b6001600160a01b0381168114610b67575f5ffd5b8035613da481613d85565b919050565b5f60208284031215613db9575f5ffd5b813561245381613d85565b5f5f60408385031215613dd5575f5ffd5b50508035926020909101359150565b803560ff81168114613da4575f5ffd5b5f60208284031215613e04575f5ffd5b61245382613de4565b815181526020808301519082015260408101610dee565b5f5f83601f840112613e34575f5ffd5b5081356001600160401b03811115613e4a575f5ffd5b602083019150836020828501011115613bb9575f5ffd5b5f5f5f5f60408587031215613e74575f5ffd5b84356001600160401b03811115613e89575f5ffd5b613e9587828801613b79565b90955093505060208501356001600160401b03811115613eb3575f5ffd5b613ebf87828801613e24565b95989497509550505050565b634e487b7160e01b5f52602160045260245ffd5b60038110613efb57634e487b7160e01b5f52602160045260245ffd5b9052565b815181526020808301516040830191612cf290840182613edf565b803561ffff81168114613da4575f5ffd5b5f60608284031215613f3b575f5ffd5b613f43613c6f565b90508135613f5081613c15565b8152613f5e60208301613f1a565b6020820152613f6f60408301613f1a565b604082015292915050565b5f5f60808385031215613f8b575f5ffd5b613f9483613de4565b9150613fa38460208501613f2b565b90509250929050565b5f5f5f60408486031215613fbe575f5ffd5b8335613fc981613d85565b925060208401356001600160401b03811115613fe3575f5ffd5b613fef86828701613e24565b9497909650939450505050565b5f6001600160401b0382111561401457614014613c5b565b5060051b60200190565b5f82601f83011261402d575f5ffd5b813561404061403b82613ffc565b613cb9565b80828252602082019150602060608402860101925085831115614061575f5ffd5b602085015b83811015614088576140788782613f2b565b8352602090920191606001614066565b5095945050505050565b6001600160601b0381168114610b67575f5ffd5b5f82601f8301126140b5575f5ffd5b81356140c361403b82613ffc565b8082825260208201915060208360051b8601019250858311156140e4575f5ffd5b602085015b838110156140885780356140fc81614092565b8352602092830192016140e9565b5f82601f830112614119575f5ffd5b813561412761403b82613ffc565b8082825260208201915060208360061b860101925085831115614148575f5ffd5b602085015b838110156140885760408188031215614164575f5ffd5b61416c613c97565b813561417781613d85565b8152602082013561418781614092565b602082810191909152908452929092019160400161414d565b5f82601f8301126141af575f5ffd5b81356141bd61403b82613ffc565b8082825260208201915060208360051b8601019250858311156141de575f5ffd5b602085015b838110156140885780356001600160401b03811115614200575f5ffd5b61420f886020838a010161410a565b845250602092830192016141e3565b5f5f5f5f5f5f5f60e0888a031215614234575f5ffd5b873561423f81613d85565b965061424d60208901613d99565b955061425b60408901613d99565b94506060880135935060808801356001600160401b0381111561427c575f5ffd5b6142888a828b0161401e565b93505060a08801356001600160401b038111156142a3575f5ffd5b6142af8a828b016140a6565b92505060c08801356001600160401b038111156142ca575f5ffd5b6142d68a828b016141a0565b91505092959891949750929550565b5f5f5f5f5f60a086880312156142f9575f5ffd5b853561430481613d85565b94506020860135935060408601356001600160401b03811115614325575f5ffd5b8601601f81018813614335575f5ffd5b803561434361403b82613ffc565b8082825260208201915060208360061b85010192508a831115614364575f5ffd5b6020840193505b828410156143bf576040848c031215614382575f5ffd5b61438a613c97565b61439385613de4565b815260208501356143a381613d85565b806020830152508083525060208201915060408401935061436b565b979a9699509697606081013597506080013595945050505050565b5f61010082840312156143eb575f5ffd5b50919050565b5f5f83601f840112614401575f5ffd5b5081356001600160401b03811115614417575f5ffd5b6020830191508360208260061b8501011115613bb9575f5ffd5b5f60608284031215614441575f5ffd5b614449613c6f565b905081356001600160401b03811115614460575f5ffd5b8201601f81018413614470575f5ffd5b61447f84823560208401613ce9565b8252506020828101359082015260409182013591810191909152919050565b5f5f5f5f5f5f5f5f5f6101a08a8c0312156144b7575f5ffd5b89356001600160401b038111156144cc575f5ffd5b6144d88c828d01613e24565b909a5098505060208a01356001600160401b038111156144f6575f5ffd5b6145028c828d01613e24565b909850965061451690508b60408c016143da565b94506101408a01356001600160401b03811115614531575f5ffd5b61453d8c828d016143f1565b9095509350506101608a01356001600160401b0381111561455c575f5ffd5b6145688c828d01614431565b9250506101808a01356001600160401b03811115614584575f5ffd5b6145908c828d01614431565b9150509295985092959850929598565b5f5f5f5f5f5f61016087890312156145b6575f5ffd5b86356001600160401b038111156145cb575f5ffd5b6145d789828a01613e24565b90975095505060208701356001600160401b038111156145f5575f5ffd5b61460189828a01613e24565b9095509350614615905088604089016143da565b91506101408701356001600160401b03811115614630575f5ffd5b61463c89828a01614431565b9150509295509295509295565b5f5f6040838503121561465a575f5ffd5b823561466581613c15565b915060208301356001600160401b0381111561467f575f5ffd5b8301601f8101851361468f575f5ffd5b803561469d61403b82613ffc565b8082825260208201915060208360051b8501019250878311156146be575f5ffd5b6020840193505b828410156146e05783358252602093840193909101906146c5565b809450505050509250929050565b602080825282518282018190525f918401906040840190835b8181101561472b57835163ffffffff16835260209384019390920191600101614707565b509095945050505050565b5f5f60208385031215614747575f5ffd5b82356001600160401b0381111561475c575f5ffd5b613bf285828601613e24565b5f5f5f60a0848603121561477a575f5ffd5b6147848585613f2b565b9250606084013561479481614092565b915060808401356001600160401b038111156147ae575f5ffd5b6147ba8682870161410a565b9150509250925092565b60208101610dee8284613edf565b60208082526019908201527f5061757361626c653a20696e6465782069732070617573656400000000000000604082015260600190565b634e487b7160e01b5f52603260045260245ffd5b5f6020828403121561482d575f5ffd5b815161245381613d85565b6020808252602a908201527f6d73672e73656e646572206973206e6f74207065726d697373696f6e6564206160408201526939903ab73830bab9b2b960b11b606082015260800190565b5f60208284031215614892575f5ffd5b81518015158114612453575f5ffd5b60208082526028908201527f6d73672e73656e646572206973206e6f74207065726d697373696f6e6564206160408201526739903830bab9b2b960c11b606082015260800190565b5f5f8335601e198436030181126148fe575f5ffd5b8301803591506001600160401b03821115614917575f5ffd5b6020019150600581901b3603821315613bb9575f5ffd5b5f6020828403121561493e575f5ffd5b815161245381613c15565b634e487b7160e01b5f52601160045260245ffd5b80820180821115610dee57610dee614949565b5f5f8585111561497e575f5ffd5b8386111561498a575f5ffd5b5050820193919092039150565b81810381811115610dee57610dee614949565b5f600182016149bb576149bb614949565b5060010190565b5f81518084528060208401602086015e5f602082860101526020601f19601f83011685010191505092915050565b60018060a01b0384168152826020820152606060408201525f614a1660608301846149c2565b95945050505050565b5f60208284031215614a2f575f5ffd5b81516001600160c01b0381168114612453575f5ffd5b828152604060208201525f614a5d60408301846149c2565b949350505050565b602081525f61245360208301846149c2565b5f82518060208501845e5f920191825250919050565b5f82614aa757634e487b7160e01b5f52601260045260245ffd5b500690565b6001600160a01b03831681526040602082018190525f90614a5d908301846149c2565b60ff8181168382160190811115610dee57610dee614949565b5f6060820160ff861683526001600160601b0385166020840152606060408401528084518083526080850191506020860192505f5b81811015614b5957835180516001600160a01b031684526020908101516001600160601b03168185015290930192604090920191600101614b1d565b5090979650505050505050565b5f60208284031215614b76575f5ffd5b5051919050565b6001600160a01b03841681526101608101614ba5602083018580358252602090810135910152565b614bbf606083016040860180358252602090810135910152565b60406080850160a0840137604060c0850160e084013782516101208301526020830151610140830152614a5d565b60018060a01b0383168152604060208201525f825160606040840152614c1660a08401826149c2565b90506020840151606084015260408401516080840152809150509392505050565b81835281816020850137505f828201602090810191909152601f909101601f19169091010190565b6001600160a01b03841681526040602082018190525f90614a169083018486614c37565b60018060a01b0385168152836020820152606060408201525f614caa606083018486614c37565b9695505050505050565b5f82601f830112614cc3575f5ffd5b8151614cd161403b82613ffc565b8082825260208201915060208360051b860101925085831115614cf2575f5ffd5b602085015b83811015614088578051614d0a81614092565b835260209283019201614cf7565b5f5f60408385031215614d29575f5ffd5b82516001600160401b03811115614d3e575f5ffd5b614d4a85828601614cb4565b92505060208301516001600160401b03811115614d65575f5ffd5b614d7185828601614cb4565b9150509250929050565b838152604060208201525f614a16604083018486614c37565b5f60208284031215614da4575f5ffd5b81516001600160401b03811115614db9575f5ffd5b8201601f81018413614dc9575f5ffd5b8051614dd761403b82613ffc565b8082825260208201915060208360051b850101925086831115614df8575f5ffd5b6020840193505b82841015614caa578351614e1281613c15565b825260209384019390910190614dff565b5f60208284031215614e33575f5ffd5b81516001600160401b03811115614e48575f5ffd5b8201601f81018413614e58575f5ffd5b8051614e6661403b82613ffc565b8082825260208201915060208360051b850101925086831115614e87575f5ffd5b6020840193505b82841015614caa578351825260209384019390910190614e8e565b5f60208284031215614eb9575f5ffd5b815161245381614092565b5f61ffff821661ffff8103614edb57614edb614949565b6001019291505056fe30644e72e131a029b85045b68181585d97816a916871ca8d3c208c16d87cfd47526567436f6f72642e7570646174654f70657261746f7273466f7251756f7275a2646970667358221220411d91f94e3ca01e91bf36b01e6c8dbcd1b5348694ae32032be9c4410b53f1e164736f6c634300081d0033",
    "linkReferences": {}
  },
  "methodIdentifiers": {
    "OPERATOR_CHURN_APPROVAL_TYPEHASH()": "ca0de882",
    "PUBKEY_REGISTRATION_TYPEHASH()": "9feab859",
    "blsApkRegistry()": "5df45946",
    "calculateOperatorChurnApprovalDigestHash(address,bytes32,(uint8,address)[],bytes32,uint256)": "84ca5213",
    "createQuorum((uint32,uint16,uint16),uint96,(address,uint96)[])": "d75b4c88",
    "deregisterOperator(bytes)": "ca4f2d97",
    "directory()": "c41c2f24",
    "ejectOperator(address,bytes)": "6e3b17db",
    "ejectionCooldown()": "a96f783e",
    "ejector()": "28f61b31",
    "getCurrentQuorumBitmap(bytes32)": "871ef049",
    "getOperator(address)": "5865c60c",
    "getOperatorFromId(bytes32)": "296bb064",
    "getOperatorId(address)": "13542a4e",
    "getOperatorSetParams(uint8)": "e65797ad",
    "getOperatorStatus(address)": "fd39105a",
    "getQuorumBitmapAtBlockNumberByIndex(bytes32,uint32,uint256)": "04ec6351",
    "getQuorumBitmapHistoryLength(bytes32)": "03fd3492",
    "getQuorumBitmapIndicesAtBlockNumber(uint32,bytes32[])": "c391425e",
    "getQuorumBitmapUpdateByIndex(bytes32,uint256)": "1eb812da",
    "indexRegistry()": "9e9923c2",
    "initialize(address,address,address,uint256,(uint32,uint16,uint16)[],uint96[],(address,uint96)[][])": "6f88a507",
    "lastEjectionTimestamp(address)": "125e0584",
    "numRegistries()": "d72d8dd6",
    "owner()": "8da5cb5b",
    "pause(uint256)": "136439dd",
    "pauseAll()": "595c6a67",
    "paused()": "5c975abb",
    "paused(uint8)": "5ac86ab7",
    "pauserRegistry()": "886f1195",
    "pubkeyRegistrationMessageHash(address)": "3c2a7f4c",
    "quorumCount()": "9aa1653d",
    "quorumUpdateBlockNumber(uint8)": "249a0c42",
    "registerOperator(bytes,string,((uint256,uint256),(uint256,uint256),(uint256[2],uint256[2])),(bytes,bytes32,uint256))": "a50857bf",
    "registerOperatorWithChurn(bytes,string,((uint256,uint256),(uint256,uint256),(uint256[2],uint256[2])),(uint8,address)[],(bytes,bytes32,uint256),(bytes,bytes32,uint256))": "9b5d177b",
    "registries(uint256)": "6347c900",
    "renounceOwnership()": "715018a6",
    "serviceManager()": "3998fdd3",
    "setEjectionCooldown(uint256)": "0d3f2134",
    "setEjector(address)": "2cdd1e86",
    "setOperatorSetParams(uint8,(uint32,uint16,uint16))": "5b0b829f",
    "setPauserRegistry(address)": "10d67a2f",
    "socketRegistry()": "ea32afae",
    "stakeRegistry()": "68304835",
    "transferOwnership(address)": "f2fde38b",
    "unpause(uint256)": "fabc1cbc",
    "updateOperators(address[])": "00cf2ab5",
    "updateOperatorsForQuorum(address[][],bytes)": "5140a548",
    "updateSocket(string)": "0cf4b767"
  },
  "id": 179
}