{
  "abi": [
    {
      "type": "constructor",
      "inputs": [],
      "stateMutability": "nonpayable"
    },
    {
      "type": "function",
      "name": "disperserKeyToAddress",
      "inputs": [
        {
          "name": "_key",
          "type": "uint32",
          "internalType": "uint32"
        }
      ],
      "outputs": [
        {
          "name": "",
          "type": "address",
          "internalType": "address"
        }
      ],
      "stateMutability": "view"
    },
    {
      "type": "function",
      "name": "disperserKeyToInfo",
      "inputs": [
        {
          "name": "",
          "type": "uint32",
          "internalType": "uint32"
        }
      ],
      "outputs": [
        {
          "name": "disperserAddress",
          "type": "address",
          "internalType": "address"
        }
      ],
      "stateMutability": "view"
    },
    {
      "type": "function",
      "name": "initialize",
      "inputs": [
        {
          "name": "_initialOwner",
          "type": "address",
          "internalType": "address"
        }
      ],
      "outputs": [],
      "stateMutability": "nonpayable"
    },
    {
      "type": "function",
      "name": "owner",
      "inputs": [],
      "outputs": [
        {
          "name": "",
          "type": "address",
          "internalType": "address"
        }
      ],
      "stateMutability": "view"
    },
    {
      "type": "function",
      "name": "renounceOwnership",
      "inputs": [],
      "outputs": [],
      "stateMutability": "nonpayable"
    },
    {
      "type": "function",
      "name": "setDisperserInfo",
      "inputs": [
        {
          "name": "_disperserKey",
          "type": "uint32",
          "internalType": "uint32"
        },
        {
          "name": "_disperserInfo",
          "type": "tuple",
          "internalType": "struct EigenDATypesV2.DisperserInfo",
          "components": [
            {
              "name": "disperserAddress",
              "type": "address",
              "internalType": "address"
            }
          ]
        }
      ],
      "outputs": [],
      "stateMutability": "nonpayable"
    },
    {
      "type": "function",
      "name": "transferOwnership",
      "inputs": [
        {
          "name": "newOwner",
          "type": "address",
          "internalType": "address"
        }
      ],
      "outputs": [],
      "stateMutability": "nonpayable"
    },
    {
      "type": "event",
      "name": "DisperserAdded",
      "inputs": [
        {
          "name": "key",
          "type": "uint32",
          "indexed": true,
          "internalType": "uint32"
        },
        {
          "name": "disperser",
          "type": "address",
          "indexed": true,
          "internalType": "address"
        }
      ],
      "anonymous": false
    },
    {
      "type": "event",
      "name": "Initialized",
      "inputs": [
        {
          "name": "version",
          "type": "uint8",
          "indexed": false,
          "internalType": "uint8"
        }
      ],
      "anonymous": false
    },
    {
      "type": "event",
      "name": "OwnershipTransferred",
      "inputs": [
        {
          "name": "previousOwner",
          "type": "address",
          "indexed": true,
          "internalType": "address"
        },
        {
          "name": "newOwner",
          "type": "address",
          "indexed": true,
          "internalType": "address"
        }
      ],
      "anonymous": false
    }
  ],
  "bytecode": {
    "object": "0x6080604052348015600e575f5ffd5b5060156019565b60d4565b5f54610100900460ff161560835760405162461bcd60e51b815260206004820152602760248201527f496e697469616c697a61626c653a20636f6e747261637420697320696e697469604482015266616c697a696e6760c81b606482015260840160405180910390fd5b5f5460ff908116101560d2575f805460ff191660ff9081179091556040519081527f7f26b83ff96e1f2b6a682f133852f6798a09c465da95921460cefb38474024989060200160405180910390a15b565b6104e2806100e15f395ff3fe608060405234801561000f575f5ffd5b506004361061007a575f3560e01c80638da5cb5b116100585780638da5cb5b146100fa5780639a0f62a01461010b578063c4d66de81461011e578063f2fde38b14610131575f5ffd5b806307d69fad1461007e5780631e0bf73c146100c8578063715018a6146100f0575b5f5ffd5b6100ac61008c3660046103e3565b63ffffffff165f908152606560205260409020546001600160a01b031690565b6040516001600160a01b03909116815260200160405180910390f35b6100ac6100d63660046103e3565b60656020525f90815260409020546001600160a01b031681565b6100f8610144565b005b6033546001600160a01b03166100ac565b6100f8610119366004610419565b610157565b6100f861012c366004610493565b6101bf565b6100f861013f366004610493565b6102a7565b61014c610320565b6101555f61037a565b565b61015f610320565b63ffffffff82165f81815260656020526040808220845181546001600160a01b0319166001600160a01b0390911690811790915590519092917f97fb4432fef273711f9ccc876095cf8e22b00f159658bbd807a8ea80a4c3c85991a35050565b5f54600290610100900460ff161580156101df57505f5460ff8083169116105b6102475760405162461bcd60e51b815260206004820152602e60248201527f496e697469616c697a61626c653a20636f6e747261637420697320616c72656160448201526d191e481a5b9a5d1a585b1a5e995960921b60648201526084015b60405180910390fd5b5f805461ffff191660ff8316176101001790556102638261037a565b5f805461ff001916905560405160ff821681527f7f26b83ff96e1f2b6a682f133852f6798a09c465da95921460cefb38474024989060200160405180910390a15050565b6102af610320565b6001600160a01b0381166103145760405162461bcd60e51b815260206004820152602660248201527f4f776e61626c653a206e6577206f776e657220697320746865207a65726f206160448201526564647265737360d01b606482015260840161023e565b61031d8161037a565b50565b6033546001600160a01b031633146101555760405162461bcd60e51b815260206004820181905260248201527f4f776e61626c653a2063616c6c6572206973206e6f7420746865206f776e6572604482015260640161023e565b603380546001600160a01b038381166001600160a01b0319831681179093556040519116919082907f8be0079c531659141344cd1fd0a4f28419497f9722a3daafe3b4186f6b6457e0905f90a35050565b803563ffffffff811681146103de575f5ffd5b919050565b5f602082840312156103f3575f5ffd5b6103fc826103cb565b9392505050565b80356001600160a01b03811681146103de575f5ffd5b5f5f828403604081121561042b575f5ffd5b610434846103cb565b92506020601f1982011215610447575f5ffd5b506040516020810181811067ffffffffffffffff8211171561047757634e487b7160e01b5f52604160045260245ffd5b60405261048660208501610403565b8152809150509250929050565b5f602082840312156104a3575f5ffd5b6103fc8261040356fea2646970667358221220659ad1643914cda277936b156dd7157dbbb7ae4ecc141e6d17eda286f2b5963c64736f6c634300081d0033",
    "linkReferences": {}
  },
  "methodIdentifiers": {
    "disperserKeyToAddress(uint32)": "07d69fad",
    "disperserKeyToInfo(uint32)": "1e0bf73c",
    "initialize(address)": "c4d66de8",
    "owner()": "8da5cb5b",
    "renounceOwnership()": "715018a6",
    "setDisperserInfo(uint32,(address))": "9a0f62a0",
    "transferOwnership(address)": "f2fde38b"
  },
  "id": 177
}