{
  "abi": [
    {
      "type": "constructor",
      "inputs": [
        {
          "name": "_registryCoordinator",
          "type": "address",
          "internalType": "contract IRegistryCoordinator"
        }
      ],
      "stateMutability": "nonpayable"
    },
    {
      "type": "function",
      "name": "OPERATOR_DOES_NOT_EXIST_ID",
      "inputs": [],
      "outputs": [
        {
          "name": "",
          "type": "bytes32",
          "internalType": "bytes32"
        }
      ],
      "stateMutability": "view"
    },
    {
      "type": "function",
      "name": "currentOperatorIndex",
      "inputs": [
        {
          "name": "",
          "type": "uint8",
          "internalType": "uint8"
        },
        {
          "name": "",
          "type": "bytes32",
          "internalType": "bytes32"
        }
      ],
      "outputs": [
        {
          "name": "",
          "type": "uint32",
          "internalType": "uint32"
        }
      ],
      "stateMutability": "view"
    },
    {
      "type": "function",
      "name": "deregisterOperator",
      "inputs": [
        {
          "name": "operatorId",
          "type": "bytes32",
          "internalType": "bytes32"
        },
        {
          "name": "quorumNumbers",
          "type": "bytes",
          "internalType": "bytes"
        }
      ],
      "outputs": [],
      "stateMutability": "nonpayable"
    },
    {
      "type": "function",
      "name": "getLatestOperatorUpdate",
      "inputs": [
        {
          "name": "quorumNumber",
          "type": "uint8",
          "internalType": "uint8"
        },
        {
          "name": "operatorIndex",
          "type": "uint32",
          "internalType": "uint32"
        }
      ],
      "outputs": [
        {
          "name": "",
          "type": "tuple",
          "internalType": "struct IIndexRegistry.OperatorUpdate",
          "components": [
            {
              "name": "fromBlockNumber",
              "type": "uint32",
              "internalType": "uint32"
            },
            {
              "name": "operatorId",
              "type": "bytes32",
              "internalType": "bytes32"
            }
          ]
        }
      ],
      "stateMutability": "view"
    },
    {
      "type": "function",
      "name": "getLatestQuorumUpdate",
      "inputs": [
        {
          "name": "quorumNumber",
          "type": "uint8",
          "internalType": "uint8"
        }
      ],
      "outputs": [
        {
          "name": "",
          "type": "tuple",
          "internalType": "struct IIndexRegistry.QuorumUpdate",
          "components": [
            {
              "name": "fromBlockNumber",
              "type": "uint32",
              "internalType": "uint32"
            },
            {
              "name": "numOperators",
              "type": "uint32",
              "internalType": "uint32"
            }
          ]
        }
      ],
      "stateMutability": "view"
    },
    {
      "type": "function",
      "name": "getOperatorListAtBlockNumber",
      "inputs": [
        {
          "name": "quorumNumber",
          "type": "uint8",
          "internalType": "uint8"
        },
        {
          "name": "blockNumber",
          "type": "uint32",
          "internalType": "uint32"
        }
      ],
      "outputs": [
        {
          "name": "",
          "type": "bytes32[]",
          "internalType": "bytes32[]"
        }
      ],
      "stateMutability": "view"
    },
    {
      "type": "function",
      "name": "getOperatorUpdateAtIndex",
      "inputs": [
        {
          "name": "quorumNumber",
          "type": "uint8",
          "internalType": "uint8"
        },
        {
          "name": "operatorIndex",
          "type": "uint32",
          "internalType": "uint32"
        },
        {
          "name": "arrayIndex",
          "type": "uint32",
          "internalType": "uint32"
        }
      ],
      "outputs": [
        {
          "name": "",
          "type": "tuple",
          "internalType": "struct IIndexRegistry.OperatorUpdate",
          "components": [
            {
              "name": "fromBlockNumber",
              "type": "uint32",
              "internalType": "uint32"
            },
            {
              "name": "operatorId",
              "type": "bytes32",
              "internalType": "bytes32"
            }
          ]
        }
      ],
      "stateMutability": "view"
    },
    {
      "type": "function",
      "name": "getQuorumUpdateAtIndex",
      "inputs": [
        {
          "name": "quorumNumber",
          "type": "uint8",
          "internalType": "uint8"
        },
        {
          "name": "quorumIndex",
          "type": "uint32",
          "internalType": "uint32"
        }
      ],
      "outputs": [
        {
          "name": "",
          "type": "tuple",
          "internalType": "struct IIndexRegistry.QuorumUpdate",
          "components": [
            {
              "name": "fromBlockNumber",
              "type": "uint32",
              "internalType": "uint32"
            },
            {
              "name": "numOperators",
              "type": "uint32",
              "internalType": "uint32"
            }
          ]
        }
      ],
      "stateMutability": "view"
    },
    {
      "type": "function",
      "name": "initializeQuorum",
      "inputs": [
        {
          "name": "quorumNumber",
          "type": "uint8",
          "internalType": "uint8"
        }
      ],
      "outputs": [],
      "stateMutability": "nonpayable"
    },
    {
      "type": "function",
      "name": "registerOperator",
      "inputs": [
        {
          "name": "operatorId",
          "type": "bytes32",
          "internalType": "bytes32"
        },
        {
          "name": "quorumNumbers",
          "type": "bytes",
          "internalType": "bytes"
        }
      ],
      "outputs": [
        {
          "name": "",
          "type": "uint32[]",
          "internalType": "uint32[]"
        }
      ],
      "stateMutability": "nonpayable"
    },
    {
      "type": "function",
      "name": "registryCoordinator",
      "inputs": [],
      "outputs": [
        {
          "name": "",
          "type": "address",
          "internalType": "address"
        }
      ],
      "stateMutability": "view"
    },
    {
      "type": "function",
      "name": "totalOperatorsForQuorum",
      "inputs": [
        {
          "name": "quorumNumber",
          "type": "uint8",
          "internalType": "uint8"
        }
      ],
      "outputs": [
        {
          "name": "",
          "type": "uint32",
          "internalType": "uint32"
        }
      ],
      "stateMutability": "view"
    },
    {
      "type": "event",
      "name": "Initialized",
      "inputs": [
        {
          "name": "version",
          "type": "uint8",
          "indexed": false,
          "internalType": "uint8"
        }
      ],
      "anonymous": false
    },
    {
      "type": "event",
      "name": "QuorumIndexUpdate",
      "inputs": [
        {
          "name": "operatorId",
          "type": "bytes32",
          "indexed": true,
          "internalType": "bytes32"
        },
        {
          "name": "quorumNumber",
          "type": "uint8",
          "indexed": false,
          "internalType": "uint8"
        },
        {
          "name": "newOperatorIndex",
          "type": "uint32",
          "indexed": false,
          "internalType": "uint32"
        }
      ],
      "anonymous": false
    }
  ],
  "bytecode": {
    "object": "0x60a060405234801561000f575f5ffd5b506040516112b33803806112b383398101604081905261002e91610108565b6001600160a01b0381166080528061004461004b565b5050610135565b5f54610100900460ff16156100b65760405162461bcd60e51b815260206004820152602760248201527f496e697469616c697a61626c653a20636f6e747261637420697320696e697469604482015266616c697a696e6760c81b606482015260840160405180910390fd5b5f5460ff9081161015610106575f805460ff191660ff9081179091556040519081527f7f26b83ff96e1f2b6a682f133852f6798a09c465da95921460cefb38474024989060200160405180910390a15b565b5f60208284031215610118575f5ffd5b81516001600160a01b038116811461012e575f5ffd5b9392505050565b60805161115f6101545f395f818161013e0152610820015261115f5ff3fe608060405234801561000f575f5ffd5b50600436106100b0575f3560e01c8063890262451161006e57806389026245146101af578063a48bb0ac146101cf578063bd29b8cd146101e2578063caa3cd76146101f5578063e2e685801461020a578063f34109221461024f575f5ffd5b8062bff04d146100b457806312d1d74d146100dd57806326d941f2146101115780632ed583e5146101265780636d14a987146101395780638121906f14610178575b5f5ffd5b6100c76100c2366004610e68565b610262565b6040516100d49190610edf565b60405180910390f35b6100f06100eb366004610f4f565b610373565b60408051825163ffffffff16815260209283015192810192909252016100d4565b61012461011f366004610f80565b6103b8565b005b6100f0610134366004610f99565b61049a565b6101607f000000000000000000000000000000000000000000000000000000000000000081565b6040516001600160a01b0390911681526020016100d4565b61018b610186366004610f80565b61051d565b60408051825163ffffffff90811682526020938401511692810192909252016100d4565b6101c26101bd366004610f4f565b610563565b6040516100d49190610fd9565b61018b6101dd366004610f4f565b6106be565b6101246101f0366004610e68565b610732565b6101fc5f81565b6040519081526020016100d4565b61023a610218366004611010565b600160209081525f928352604080842090915290825290205463ffffffff1681565b60405163ffffffff90911681526020016100d4565b61023a61025d366004610f80565b6107f7565b606061026c610815565b5f8267ffffffffffffffff81111561028657610286611038565b6040519080825280602002602001820160405280156102af578160200160208202803683370190505b5090505f5b83811015610368575f8585838181106102cf576102cf61104c565b919091013560f81c5f818152600360205260408120549193509091508190036103135760405162461bcd60e51b815260040161030a90611060565b60405180910390fd5b5f61031d836108cb565b9050610334898461032f6001856110c9565b6109c2565b808585815181106103475761034761104c565b63ffffffff92909216602092830291909101909101525050506001016102b4565b5090505b9392505050565b604080518082019091525f80825260208201526103908383610a4a565b60408051808201909152815463ffffffff168152600190910154602082015290505b92915050565b6103c0610815565b60ff81165f90815260036020526040902054156104395760405162461bcd60e51b815260206004820152603160248201527f496e64657852656769737472792e63726561746551756f72756d3a2071756f72604482015270756d20616c72656164792065786973747360781b606482015260840161030a565b60ff165f908152600360209081526040808320815180830190925263ffffffff438116835282840185815282546001810184559286529390942091519101805492518416600160201b0267ffffffffffffffff199093169190931617179055565b604080518082019091525f808252602082015260ff84165f90815260026020908152604080832063ffffffff808816855292529091208054909184169081106104e5576104e561104c565b5f91825260209182902060408051808201909152600290920201805463ffffffff168252600101549181019190915290509392505050565b604080518082019091525f808252602082015261053982610a9f565b60408051808201909152905463ffffffff8082168352600160201b90910416602082015292915050565b60605f6105708484610ade565b90505f8163ffffffff1667ffffffffffffffff81111561059257610592611038565b6040519080825280602002602001820160405280156105bb578160200160208202803683370190505b5090505f5b8263ffffffff168110156106b5576105d9868287610c10565b8282815181106105eb576105eb61104c565b6020026020010181815250505f5f1b82828151811061060c5761060c61104c565b6020026020010151036106ad5760405162461bcd60e51b815260206004820152605d60248201527f496e64657852656769737472792e6765744f70657261746f724c69737441744260448201527f6c6f636b4e756d6265723a206f70657261746f7220646f6573206e6f7420657860648201527f6973742061742074686520676976656e20626c6f636b206e756d626572000000608482015260a40161030a565b6001016105c0565b50949350505050565b604080518082019091525f808252602082015260ff83165f908152600360205260409020805463ffffffff84169081106106fa576106fa61104c565b5f9182526020918290206040805180820190915291015463ffffffff8082168352600160201b90910416918101919091529392505050565b61073a610815565b5f5b818110156107f1575f8383838181106107575761075761104c565b919091013560f81c5f818152600360205260408120549193509091508190036107925760405162461bcd60e51b815260040161030a90611060565b60ff82165f90815260016020908152604080832089845290915281205463ffffffff16906107bf84610ce3565b90505f6107cc8583610d1b565b90508089146107e0576107e08186856109c2565b50506001909301925061073c915050565b50505050565b5f61080182610a9f565b54600160201b900463ffffffff1692915050565b336001600160a01b037f000000000000000000000000000000000000000000000000000000000000000016146108c95760405162461bcd60e51b815260206004820152604d60248201527f496e64657852656769737472792e6f6e6c795265676973747279436f6f72646960448201527f6e61746f723a2063616c6c6572206973206e6f7420746865207265676973747260648201526c3c9031b7b7b93234b730ba37b960991b608482015260a40161030a565b565b5f5f6108d683610a9f565b80549091505f906108f590600160201b900463ffffffff1660016110e5565b9050610902848383610d43565b60ff84165f9081526002602052604081209061091f6001846110c9565b63ffffffff16815260208101919091526040015f90812054900361036c5760ff84165f9081526002602052604081209061095a6001846110c9565b63ffffffff908116825260208083019390935260409182015f908120835180850190945243831684528385018281528154600180820184559284529590922093516002909502909301805463ffffffff19169490921693909317815591519101559392505050565b5f6109cd8383610a4a565b90506109db83838387610de0565b60ff83165f818152600160209081526040808320888452825291829020805463ffffffff191663ffffffff871690811790915582519384529083015285917f6ee1e4f4075f3d067176140d34e87874244dd273294c05b2218133e49a2ba6f6910160405180910390a250505050565b60ff82165f90815260026020908152604080832063ffffffff851684529091528120805490610a7a600183611101565b81548110610a8a57610a8a61104c565b905f5260205f20906002020191505092915050565b60ff81165f908152600360205260408120805490610abe600183611101565b81548110610ace57610ace61104c565b905f5260205f2001915050919050565b60ff82165f90815260036020526040812054805b8015610b835760ff85165f908152600360205260408120610b14600184611101565b81548110610b2457610b2461104c565b5f9182526020918290206040805180820190915291015463ffffffff808216808452600160201b90920481169383019390935290925090861610610b70576020015192506103b2915050565b5080610b7b81611114565b915050610af2565b5060405162461bcd60e51b815260206004820152605560248201527f496e64657852656769737472792e5f6f70657261746f72436f756e744174426c60448201527f6f636b4e756d6265723a2071756f72756d20646964206e6f742065786973742060648201527430ba1033b4bb32b710313637b1b590373ab6b132b960591b608482015260a40161030a565b60ff83165f90815260026020908152604080832063ffffffff86168452909152812054805b8015610cd85760ff86165f90815260026020908152604080832063ffffffff891684529091528120610c68600184611101565b81548110610c7857610c7861104c565b5f91825260209182902060408051808201909152600290920201805463ffffffff9081168084526001909201549383019390935290925090861610610cc55760200151925061036c915050565b5080610cd081611114565b915050610c35565b505f95945050505050565b5f5f610cee83610a9f565b80549091505f90610d0e90600190600160201b900463ffffffff166110c9565b905061036c848383610d43565b5f5f610d278484610a4a565b6001810154909150610d3b8585845f610de0565b949350505050565b815463ffffffff438116911603610d7857815463ffffffff8216600160201b0267ffffffff0000000019909116178255505050565b60ff83165f908152600360209081526040808320815180830190925263ffffffff438116835285811683850190815282546001810184559286529390942091519101805492518416600160201b0267ffffffffffffffff199093169190931617179055505050565b815463ffffffff438116911603610dfd57600182018190556107f1565b60ff939093165f90815260026020818152604080842063ffffffff968716855282528084208151808301909252438716825281830197885280546001808201835591865292909420905191909202909101805463ffffffff1916919094161783559251919092015550565b5f5f5f60408486031215610e7a575f5ffd5b83359250602084013567ffffffffffffffff811115610e97575f5ffd5b8401601f81018613610ea7575f5ffd5b803567ffffffffffffffff811115610ebd575f5ffd5b866020828401011115610ece575f5ffd5b939660209190910195509293505050565b602080825282518282018190525f918401906040840190835b81811015610f1c57835163ffffffff16835260209384019390920191600101610ef8565b509095945050505050565b803560ff81168114610f37575f5ffd5b919050565b803563ffffffff81168114610f37575f5ffd5b5f5f60408385031215610f60575f5ffd5b610f6983610f27565b9150610f7760208401610f3c565b90509250929050565b5f60208284031215610f90575f5ffd5b61036c82610f27565b5f5f5f60608486031215610fab575f5ffd5b610fb484610f27565b9250610fc260208501610f3c565b9150610fd060408501610f3c565b90509250925092565b602080825282518282018190525f918401906040840190835b81811015610f1c578351835260209384019390920191600101610ff2565b5f5f60408385031215611021575f5ffd5b61102a83610f27565b946020939093013593505050565b634e487b7160e01b5f52604160045260245ffd5b634e487b7160e01b5f52603260045260245ffd5b60208082526035908201527f496e64657852656769737472792e72656769737465724f70657261746f723a206040820152741c5d5bdc9d5b48191bd95cc81b9bdd08195e1a5cdd605a1b606082015260800190565b634e487b7160e01b5f52601160045260245ffd5b63ffffffff82811682821603908111156103b2576103b26110b5565b63ffffffff81811683821601908111156103b2576103b26110b5565b818103818111156103b2576103b26110b5565b5f81611122576111226110b5565b505f19019056fea26469706673582212205ef65929fd5b5e9c237feacc3e20c44516aa810dd1c81b59c7c3283a277adbbc64736f6c634300081d0033",
    "linkReferences": {}
  },
  "methodIdentifiers": {
    "OPERATOR_DOES_NOT_EXIST_ID()": "caa3cd76",
    "currentOperatorIndex(uint8,bytes32)": "e2e68580",
    "deregisterOperator(bytes32,bytes)": "bd29b8cd",
    "getLatestOperatorUpdate(uint8,uint32)": "12d1d74d",
    "getLatestQuorumUpdate(uint8)": "8121906f",
    "getOperatorListAtBlockNumber(uint8,uint32)": "89026245",
    "getOperatorUpdateAtIndex(uint8,uint32,uint32)": "2ed583e5",
    "getQuorumUpdateAtIndex(uint8,uint32)": "a48bb0ac",
    "initializeQuorum(uint8)": "26d941f2",
    "registerOperator(bytes32,bytes)": "00bff04d",
    "registryCoordinator()": "6d14a987",
    "totalOperatorsForQuorum(uint8)": "f3410922"
  },
  "id": 48
}