{
  "abi": [
    {
      "type": "function",
      "name": "getBatchOperatorFromId",
      "inputs": [
        {
          "name": "registryCoordinator",
          "type": "address",
          "internalType": "contract IRegistryCoordinator"
        },
        {
          "name": "operatorIds",
          "type": "bytes32[]",
          "internalType": "bytes32[]"
        }
      ],
      "outputs": [
        {
          "name": "operators",
          "type": "address[]",
          "internalType": "address[]"
        }
      ],
      "stateMutability": "view"
    },
    {
      "type": "function",
      "name": "getBatchOperatorId",
      "inputs": [
        {
          "name": "registryCoordinator",
          "type": "address",
          "internalType": "contract IRegistryCoordinator"
        },
        {
          "name": "operators",
          "type": "address[]",
          "internalType": "address[]"
        }
      ],
      "outputs": [
        {
          "name": "operatorIds",
          "type": "bytes32[]",
          "internalType": "bytes32[]"
        }
      ],
      "stateMutability": "view"
    },
    {
      "type": "function",
      "name": "getCheckSignaturesIndices",
      "inputs": [
        {
          "name": "registryCoordinator",
          "type": "address",
          "internalType": "contract IRegistryCoordinator"
        },
        {
          "name": "referenceBlockNumber",
          "type": "uint32",
          "internalType": "uint32"
        },
        {
          "name": "quorumNumbers",
          "type": "bytes",
          "internalType": "bytes"
        },
        {
          "name": "nonSignerOperatorIds",
          "type": "bytes32[]",
          "internalType": "bytes32[]"
        }
      ],
      "outputs": [
        {
          "name": "",
          "type": "tuple",
          "internalType": "struct OperatorStateRetriever.CheckSignaturesIndices",
          "components": [
            {
              "name": "nonSignerQuorumBitmapIndices",
              "type": "uint32[]",
              "internalType": "uint32[]"
            },
            {
              "name": "quorumApkIndices",
              "type": "uint32[]",
              "internalType": "uint32[]"
            },
            {
              "name": "totalStakeIndices",
              "type": "uint32[]",
              "internalType": "uint32[]"
            },
            {
              "name": "nonSignerStakeIndices",
              "type": "uint32[][]",
              "internalType": "uint32[][]"
            }
          ]
        }
      ],
      "stateMutability": "view"
    },
    {
      "type": "function",
      "name": "getOperatorState",
      "inputs": [
        {
          "name": "registryCoordinator",
          "type": "address",
          "internalType": "contract IRegistryCoordinator"
        },
        {
          "name": "quorumNumbers",
          "type": "bytes",
          "internalType": "bytes"
        },
        {
          "name": "blockNumber",
          "type": "uint32",
          "internalType": "uint32"
        }
      ],
      "outputs": [
        {
          "name": "",
          "type": "tuple[][]",
          "internalType": "struct OperatorStateRetriever.Operator[][]",
          "components": [
            {
              "name": "operator",
              "type": "address",
              "internalType": "address"
            },
            {
              "name": "operatorId",
              "type": "bytes32",
              "internalType": "bytes32"
            },
            {
              "name": "stake",
              "type": "uint96",
              "internalType": "uint96"
            }
          ]
        }
      ],
      "stateMutability": "view"
    },
    {
      "type": "function",
      "name": "getOperatorState",
      "inputs": [
        {
          "name": "registryCoordinator",
          "type": "address",
          "internalType": "contract IRegistryCoordinator"
        },
        {
          "name": "operatorId",
          "type": "bytes32",
          "internalType": "bytes32"
        },
        {
          "name": "blockNumber",
          "type": "uint32",
          "internalType": "uint32"
        }
      ],
      "outputs": [
        {
          "name": "",
          "type": "uint256",
          "internalType": "uint256"
        },
        {
          "name": "",
          "type": "tuple[][]",
          "internalType": "struct OperatorStateRetriever.Operator[][]",
          "components": [
            {
              "name": "operator",
              "type": "address",
              "internalType": "address"
            },
            {
              "name": "operatorId",
              "type": "bytes32",
              "internalType": "bytes32"
            },
            {
              "name": "stake",
              "type": "uint96",
              "internalType": "uint96"
            }
          ]
        }
      ],
      "stateMutability": "view"
    },
    {
      "type": "function",
      "name": "getOperatorStateWithSocket",
      "inputs": [
        {
          "name": "registryCoordinator",
          "type": "address",
          "internalType": "contract IRegistryCoordinator"
        },
        {
          "name": "quorumNumbers",
          "type": "bytes",
          "internalType": "bytes"
        },
        {
          "name": "blockNumber",
          "type": "uint32",
          "internalType": "uint32"
        }
      ],
      "outputs": [
        {
          "name": "operators",
          "type": "tuple[][]",
          "internalType": "struct OperatorStateRetriever.Operator[][]",
          "components": [
            {
              "name": "operator",
              "type": "address",
              "internalType": "address"
            },
            {
              "name": "operatorId",
              "type": "bytes32",
              "internalType": "bytes32"
            },
            {
              "name": "stake",
              "type": "uint96",
              "internalType": "uint96"
            }
          ]
        },
        {
          "name": "sockets",
          "type": "string[][]",
          "internalType": "string[][]"
        }
      ],
      "stateMutability": "view"
    },
    {
      "type": "function",
      "name": "getOperatorStateWithSocket",
      "inputs": [
        {
          "name": "registryCoordinator",
          "type": "address",
          "internalType": "contract IRegistryCoordinator"
        },
        {
          "name": "operatorId",
          "type": "bytes32",
          "internalType": "bytes32"
        },
        {
          "name": "blockNumber",
          "type": "uint32",
          "internalType": "uint32"
        }
      ],
      "outputs": [
        {
          "name": "quorumBitmap",
          "type": "uint256",
          "internalType": "uint256"
        },
        {
          "name": "operators",
          "type": "tuple[][]",
          "internalType": "struct OperatorStateRetriever.Operator[][]",
          "components": [
            {
              "name": "operator",
              "type": "address",
              "internalType": "address"
            },
            {
              "name": "operatorId",
              "type": "bytes32",
              "internalType": "bytes32"
            },
            {
              "name": "stake",
              "type": "uint96",
              "internalType": "uint96"
            }
          ]
        },
        {
          "name": "sockets",
          "type": "string[][]",
          "internalType": "string[][]"
        }
      ],
      "stateMutability": "view"
    },
    {
      "type": "function",
      "name": "getQuorumBitmapsAtBlockNumber",
      "inputs": [
        {
          "name": "registryCoordinator",
          "type": "address",
          "internalType": "contract IRegistryCoordinator"
        },
        {
          "name": "operatorIds",
          "type": "bytes32[]",
          "internalType": "bytes32[]"
        },
        {
          "name": "blockNumber",
          "type": "uint32",
          "internalType": "uint32"
        }
      ],
      "outputs": [
        {
          "name": "",
          "type": "uint256[]",
          "internalType": "uint256[]"
        }
      ],
      "stateMutability": "view"
    }
  ],
  "bytecode": {
    "object": "0x6080604052348015600e575f5ffd5b506126f98061001c5f395ff3fe608060405234801561000f575f5ffd5b5060043610610085575f3560e01c80635c155662116100585780635c155662146101125780639d5a0a4f14610132578063cefdc1d414610153578063d45a643e14610174575f5ffd5b806331b36bd9146100895780633563b0d1146100b25780634d2b57fe146100d25780634f739f74146100f2575b5f5ffd5b61009c610097366004611bd6565b610196565b6040516100a99190611cc3565b60405180910390f35b6100c56100c0366004611d13565b6102a7565b6040516100a99190611e5a565b6100e56100e0366004611ec7565b61070f565b6040516100a99190611f13565b610105610100366004611fa5565b610819565b6040516100a9919061209b565b610125610120366004612151565b610f13565b6040516100a991906121a5565b610145610140366004611d13565b6110c8565b6040516100a9929190612291565b6101666101613660046122be565b611752565b6040516100a99291906122f2565b6101876101823660046122be565b6118d8565b6040516100a993929190612312565b606081516001600160401b038111156101b1576101b1611b70565b6040519080825280602002602001820160405280156101da578160200160208202803683370190505b5090505f5b82518110156102a057836001600160a01b03166313542a4e84838151811061020957610209612346565b60200260200101516040518263ffffffff1660e01b815260040161023c91906001600160a01b0391909116815260200190565b602060405180830381865afa158015610257573d5f5f3e3d5ffd5b505050506040513d601f19601f8201168201806040525081019061027b919061235a565b82828151811061028d5761028d612346565b60209081029190910101526001016101df565b5092915050565b60605f846001600160a01b031663683048356040518163ffffffff1660e01b8152600401602060405180830381865afa1580156102e6573d5f5f3e3d5ffd5b505050506040513d601f19601f8201168201806040525081019061030a9190612371565b90505f856001600160a01b0316639e9923c26040518163ffffffff1660e01b8152600401602060405180830381865afa158015610349573d5f5f3e3d5ffd5b505050506040513d601f19601f8201168201806040525081019061036d9190612371565b90505f866001600160a01b0316635df459466040518163ffffffff1660e01b8152600401602060405180830381865afa1580156103ac573d5f5f3e3d5ffd5b505050506040513d601f19601f820116820180604052508101906103d09190612371565b90505f86516001600160401b038111156103ec576103ec611b70565b60405190808252806020026020018201604052801561041f57816020015b606081526020019060019003908161040a5790505b5090505f5b8751811015610703575f88828151811061044057610440612346565b0160200151604051638902624560e01b815260f89190911c6004820181905263ffffffff8a16602483015291505f906001600160a01b038716906389026245906044015f60405180830381865afa15801561049d573d5f5f3e3d5ffd5b505050506040513d5f823e601f3d908101601f191682016040526104c4919081019061238c565b905080516001600160401b038111156104df576104df611b70565b60405190808252806020026020018201604052801561052857816020015b604080516060810182525f80825260208083018290529282015282525f199092019101816104fd5790505b5084848151811061053b5761053b612346565b60209081029190910101525f5b81518110156106f8576040518060600160405280876001600160a01b03166347b314e885858151811061057d5761057d612346565b60200260200101516040518263ffffffff1660e01b81526004016105a391815260200190565b602060405180830381865afa1580156105be573d5f5f3e3d5ffd5b505050506040513d601f19601f820116820180604052508101906105e29190612371565b6001600160a01b0316815260200183838151811061060257610602612346565b60200260200101518152602001896001600160a01b031663fa28c62785858151811061063057610630612346565b60209081029190910101516040516001600160e01b031960e084901b168152600481019190915260ff8816602482015263ffffffff8f166044820152606401602060405180830381865afa15801561068a573d5f5f3e3d5ffd5b505050506040513d601f19601f820116820180604052508101906106ae9190612412565b6001600160601b03168152508585815181106106cc576106cc612346565b602002602001015182815181106106e5576106e5612346565b6020908102919091010152600101610548565b505050600101610424565b50979650505050505050565b606081516001600160401b0381111561072a5761072a611b70565b604051908082528060200260200182016040528015610753578160200160208202803683370190505b5090505f5b82518110156102a057836001600160a01b031663296bb06484838151811061078257610782612346565b60200260200101516040518263ffffffff1660e01b81526004016107a891815260200190565b602060405180830381865afa1580156107c3573d5f5f3e3d5ffd5b505050506040513d601f19601f820116820180604052508101906107e79190612371565b8282815181106107f9576107f9612346565b6001600160a01b0390921660209283029190910190910152600101610758565b6108446040518060800160405280606081526020016060815260200160608152602001606081525090565b5f876001600160a01b031663683048356040518163ffffffff1660e01b8152600401602060405180830381865afa158015610881573d5f5f3e3d5ffd5b505050506040513d601f19601f820116820180604052508101906108a59190612371565b90506108d26040518060800160405280606081526020016060815260200160608152602001606081525090565b6040516361c8a12f60e11b81526001600160a01b038a169063c391425e90610902908b9089908990600401612438565b5f60405180830381865afa15801561091c573d5f5f3e3d5ffd5b505050506040513d5f823e601f3d908101601f19168201604052610943919081019061247d565b81526040516340e03a8160e11b81526001600160a01b038316906381c0750290610975908b908b908b90600401612534565b5f60405180830381865afa15801561098f573d5f5f3e3d5ffd5b505050506040513d5f823e601f3d908101601f191682016040526109b6919081019061247d565b6040820152856001600160401b038111156109d3576109d3611b70565b604051908082528060200260200182016040528015610a0657816020015b60608152602001906001900390816109f15790505b5060608201525f5b60ff8116871115610e2b575f856001600160401b03811115610a3257610a32611b70565b604051908082528060200260200182016040528015610a5b578160200160208202803683370190505b5083606001518360ff1681518110610a7557610a75612346565b60209081029190910101525f5b86811015610d37575f8c6001600160a01b03166304ec63518a8a85818110610aac57610aac612346565b905060200201358e885f01518681518110610ac957610ac9612346565b60200260200101516040518463ffffffff1660e01b8152600401610b069392919092835263ffffffff918216602084015216604082015260600190565b602060405180830381865afa158015610b21573d5f5f3e3d5ffd5b505050506040513d601f19601f82011682018060405250810190610b459190612553565b9050806001600160c01b03165f03610bef5760405162461bcd60e51b815260206004820152605c60248201527f4f70657261746f7253746174655265747269657665722e676574436865636b5360448201527f69676e617475726573496e64696365733a206f70657261746f72206d7573742060648201527f6265207265676973746572656420617420626c6f636b6e756d62657200000000608482015260a40160405180910390fd5b8a8a8560ff16818110610c0457610c04612346565b60016001600160c01b038516919093013560f81c1c82169091039050610d2e57856001600160a01b031663dd9846b98a8a85818110610c4557610c45612346565b905060200201358d8d8860ff16818110610c6157610c61612346565b6040516001600160e01b031960e087901b1681526004810194909452919091013560f81c60248301525063ffffffff8f166044820152606401602060405180830381865afa158015610cb5573d5f5f3e3d5ffd5b505050506040513d601f19601f82011682018060405250810190610cd99190612579565b85606001518560ff1681518110610cf257610cf2612346565b60200260200101518481518110610d0b57610d0b612346565b63ffffffff9092166020928302919091019091015282610d2a816125a8565b9350505b50600101610a82565b505f816001600160401b03811115610d5157610d51611b70565b604051908082528060200260200182016040528015610d7a578160200160208202803683370190505b5090505f5b82811015610df05784606001518460ff1681518110610da057610da0612346565b60200260200101518181518110610db957610db9612346565b6020026020010151828281518110610dd357610dd3612346565b63ffffffff90921660209283029190910190910152600101610d7f565b508084606001518460ff1681518110610e0b57610e0b612346565b602002602001018190525050508080610e23906125c0565b915050610a0e565b505f896001600160a01b0316635df459466040518163ffffffff1660e01b8152600401602060405180830381865afa158015610e69573d5f5f3e3d5ffd5b505050506040513d601f19601f82011682018060405250810190610e8d9190612371565b60405163354952a360e21b81529091506001600160a01b0382169063d5254a8c90610ec0908b908b908e906004016125de565b5f60405180830381865afa158015610eda573d5f5f3e3d5ffd5b505050506040513d5f823e601f3d908101601f19168201604052610f01919081019061247d565b60208301525098975050505050505050565b60605f846001600160a01b031663c391425e84866040518363ffffffff1660e01b8152600401610f44929190612607565b5f60405180830381865afa158015610f5e573d5f5f3e3d5ffd5b505050506040513d5f823e601f3d908101601f19168201604052610f85919081019061247d565b90505f84516001600160401b03811115610fa157610fa1611b70565b604051908082528060200260200182016040528015610fca578160200160208202803683370190505b5090505f5b85518110156110be57866001600160a01b03166304ec6351878381518110610ff957610ff9612346565b60200260200101518786858151811061101457611014612346565b60200260200101516040518463ffffffff1660e01b81526004016110519392919092835263ffffffff918216602084015216604082015260600190565b602060405180830381865afa15801561106c573d5f5f3e3d5ffd5b505050506040513d601f19601f820116820180604052508101906110909190612553565b6001600160c01b03168282815181106110ab576110ab612346565b6020908102919091010152600101610fcf565b5095945050505050565b6060805f6040518060800160405280876001600160a01b031663683048356040518163ffffffff1660e01b8152600401602060405180830381865afa158015611113573d5f5f3e3d5ffd5b505050506040513d601f19601f820116820180604052508101906111379190612371565b6001600160a01b03168152602001876001600160a01b0316639e9923c26040518163ffffffff1660e01b8152600401602060405180830381865afa158015611181573d5f5f3e3d5ffd5b505050506040513d601f19601f820116820180604052508101906111a59190612371565b6001600160a01b03168152602001876001600160a01b0316635df459466040518163ffffffff1660e01b8152600401602060405180830381865afa1580156111ef573d5f5f3e3d5ffd5b505050506040513d601f19601f820116820180604052508101906112139190612371565b6001600160a01b03168152602001876001600160a01b031663ea32afae6040518163ffffffff1660e01b8152600401602060405180830381865afa15801561125d573d5f5f3e3d5ffd5b505050506040513d601f19601f820116820180604052508101906112819190612371565b6001600160a01b0316815250905084516001600160401b038111156112a8576112a8611b70565b6040519080825280602002602001820160405280156112db57816020015b60608152602001906001900390816112c65790505b50925084516001600160401b038111156112f7576112f7611b70565b60405190808252806020026020018201604052801561132a57816020015b60608152602001906001900390816113155790505b5091505f5b8551811015611748575f86828151811061134b5761134b612346565b0160209081015190840151604051638902624560e01b815260f89290921c6004830181905263ffffffff8916602484015292505f916001600160a01b03909116906389026245906044015f60405180830381865afa1580156113af573d5f5f3e3d5ffd5b505050506040513d5f823e601f3d908101601f191682016040526113d6919081019061238c565b905080516001600160401b038111156113f1576113f1611b70565b60405190808252806020026020018201604052801561143a57816020015b604080516060810182525f80825260208083018290529282015282525f1990920191018161140f5790505b5086848151811061144d5761144d612346565b602002602001018190525080516001600160401b0381111561147157611471611b70565b6040519080825280602002602001820160405280156114a457816020015b606081526020019060019003908161148f5790505b508584815181106114b7576114b7612346565b60209081029190910101525f5b815181101561173d57604051806060016040528086604001516001600160a01b03166347b314e88585815181106114fd576114fd612346565b60200260200101516040518263ffffffff1660e01b815260040161152391815260200190565b602060405180830381865afa15801561153e573d5f5f3e3d5ffd5b505050506040513d601f19601f820116820180604052508101906115629190612371565b6001600160a01b0316815260200183838151811061158257611582612346565b60200260200101518152602001865f01516001600160a01b031663fa28c6278585815181106115b3576115b3612346565b60209081029190910101516040516001600160e01b031960e084901b168152600481019190915260ff8816602482015263ffffffff8d166044820152606401602060405180830381865afa15801561160d573d5f5f3e3d5ffd5b505050506040513d601f19601f820116820180604052508101906116319190612412565b6001600160601b031681525087858151811061164f5761164f612346565b6020026020010151828151811061166857611668612346565b602002602001018190525084606001516001600160a01b03166310bea0d783838151811061169857611698612346565b60200260200101516040518263ffffffff1660e01b81526004016116be91815260200190565b5f60405180830381865afa1580156116d8573d5f5f3e3d5ffd5b505050506040513d5f823e601f3d908101601f191682016040526116ff9190810190612625565b86858151811061171157611711612346565b6020026020010151828151811061172a5761172a612346565b60209081029190910101526001016114c4565b50505060010161132f565b5050935093915050565b6040805160018082528183019092525f9160609183916020808301908036833701905050905084815f8151811061178b5761178b612346565b60209081029190910101526040516361c8a12f60e11b81525f906001600160a01b0388169063c391425e906117c69088908690600401612607565b5f60405180830381865afa1580156117e0573d5f5f3e3d5ffd5b505050506040513d5f823e601f3d908101601f19168201604052611807919081019061247d565b5f8151811061181857611818612346565b60209081029190910101516040516304ec635160e01b81526004810188905263ffffffff87811660248301529091166044820181905291505f906001600160a01b038916906304ec635190606401602060405180830381865afa158015611881573d5f5f3e3d5ffd5b505050506040513d601f19601f820116820180604052508101906118a59190612553565b6001600160c01b031690505f6118ba82611a60565b9050816118c88a838a6102a7565b9550955050505050935093915050565b6040805160018082528183019092525f9160609182918491906020808301908036833701905050905085815f8151811061191457611914612346565b60209081029190910101526040516361c8a12f60e11b81525f906001600160a01b0389169063c391425e9061194f9089908690600401612607565b5f60405180830381865afa158015611969573d5f5f3e3d5ffd5b505050506040513d5f823e601f3d908101601f19168201604052611990919081019061247d565b5f815181106119a1576119a1612346565b60209081029190910101516040516304ec635160e01b81526004810189905263ffffffff88811660248301529091166044820181905291506001600160a01b038916906304ec635190606401602060405180830381865afa158015611a08573d5f5f3e3d5ffd5b505050506040513d601f19601f82011682018060405250810190611a2c9190612553565b6001600160c01b031694505f611a4186611a60565b9050611a4e8982896110c8565b969a9099509597509495505050505050565b60605f5f611a6d84611b29565b61ffff166001600160401b03811115611a8857611a88611b70565b6040519080825280601f01601f191660200182016040528015611ab2576020820181803683370190505b5090505f805b825182108015611ac9575061010081105b15611b1f576001811b935085841615611b0f578060f81b838381518110611af257611af2612346565b60200101906001600160f81b03191690815f1a9053508160010191505b611b18816125a8565b9050611ab8565b5090949350505050565b5f805b8215611b5357611b3d600184612699565b9092169180611b4b816126ac565b915050611b2c565b92915050565b6001600160a01b0381168114611b6d575f5ffd5b50565b634e487b7160e01b5f52604160045260245ffd5b604051601f8201601f191681016001600160401b0381118282101715611bac57611bac611b70565b604052919050565b5f6001600160401b03821115611bcc57611bcc611b70565b5060051b60200190565b5f5f60408385031215611be7575f5ffd5b8235611bf281611b59565b915060208301356001600160401b03811115611c0c575f5ffd5b8301601f81018513611c1c575f5ffd5b8035611c2f611c2a82611bb4565b611b84565b8082825260208201915060208360051b850101925087831115611c50575f5ffd5b6020840193505b82841015611c7b578335611c6a81611b59565b825260209384019390910190611c57565b809450505050509250929050565b5f8151808452602084019350602083015f5b82811015611cb9578151865260209586019590910190600101611c9b565b5093949350505050565b602081525f611cd56020830184611c89565b9392505050565b5f6001600160401b03821115611cf457611cf4611b70565b50601f01601f191660200190565b63ffffffff81168114611b6d575f5ffd5b5f5f5f60608486031215611d25575f5ffd5b8335611d3081611b59565b925060208401356001600160401b03811115611d4a575f5ffd5b8401601f81018613611d5a575f5ffd5b8035611d68611c2a82611cdc565b818152876020838501011115611d7c575f5ffd5b816020840160208301375f602083830101528094505050506040840135611da281611d02565b809150509250925092565b5f82825180855260208501945060208160051b830101602085015f5b83811015611e4e57848303601f19018852815180518085526020918201918501905f5b81811015611e3557835180516001600160a01b03168452602080820151818601526040918201516001600160601b03169185019190915290930192606090920191600101611dec565b50506020998a0199909450929092019150600101611dc9565b50909695505050505050565b602081525f611cd56020830184611dad565b5f82601f830112611e7b575f5ffd5b8135611e89611c2a82611bb4565b8082825260208201915060208360051b860101925085831115611eaa575f5ffd5b602085015b838110156110be578035835260209283019201611eaf565b5f5f60408385031215611ed8575f5ffd5b8235611ee381611b59565b915060208301356001600160401b03811115611efd575f5ffd5b611f0985828601611e6c565b9150509250929050565b602080825282518282018190525f918401906040840190835b81811015611f535783516001600160a01b0316835260209384019390920191600101611f2c565b509095945050505050565b5f5f83601f840112611f6e575f5ffd5b5081356001600160401b03811115611f84575f5ffd5b6020830191508360208260051b8501011115611f9e575f5ffd5b9250929050565b5f5f5f5f5f5f60808789031215611fba575f5ffd5b8635611fc581611b59565b95506020870135611fd581611d02565b945060408701356001600160401b03811115611fef575f5ffd5b8701601f81018913611fff575f5ffd5b80356001600160401b03811115612014575f5ffd5b896020828401011115612025575f5ffd5b6020919091019450925060608701356001600160401b03811115612047575f5ffd5b61205389828a01611f5e565b979a9699509497509295939492505050565b5f8151808452602084019350602083015f5b82811015611cb957815163ffffffff16865260209586019590910190600101612077565b602081525f8251608060208401526120b660a0840182612065565b90506020840151601f198483030160408501526120d38282612065565b9150506040840151601f198483030160608501526120f18282612065565b6060860151858203601f190160808701528051808352919350602090810192508084019190600582901b8501015f5b8281101561070357601f1986830301845261213c828651612065565b60209586019594909401939150600101612120565b5f5f5f60608486031215612163575f5ffd5b833561216e81611b59565b925060208401356001600160401b03811115612188575f5ffd5b61219486828701611e6c565b9250506040840135611da281611d02565b602080825282518282018190525f918401906040840190835b81811015611f535783518352602093840193909201916001016121be565b5f82825180855260208501945060208160051b830101602085015f5b83811015611e4e57848303601f19018852815180518085526020918201918086019190600582901b8701015f5b8281101561227757601f19888303018452845180518084528060208301602086015e5f602082860101526020601f19601f83011685010193505050602085019450602084019350600181019050612225565b5060209b8c019b90965094909401935050506001016121f8565b604081525f6122a36040830185611dad565b82810360208401526122b581856121dc565b95945050505050565b5f5f5f606084860312156122d0575f5ffd5b83356122db81611b59565b9250602084013591506040840135611da281611d02565b828152604060208201525f61230a6040830184611dad565b949350505050565b838152606060208201525f61232a6060830185611dad565b828103604084015261233c81856121dc565b9695505050505050565b634e487b7160e01b5f52603260045260245ffd5b5f6020828403121561236a575f5ffd5b5051919050565b5f60208284031215612381575f5ffd5b8151611cd581611b59565b5f6020828403121561239c575f5ffd5b81516001600160401b038111156123b1575f5ffd5b8201601f810184136123c1575f5ffd5b80516123cf611c2a82611bb4565b8082825260208201915060208360051b8501019250868311156123f0575f5ffd5b6020840193505b8284101561233c5783518252602093840193909101906123f7565b5f60208284031215612422575f5ffd5b81516001600160601b0381168114611cd5575f5ffd5b63ffffffff8416815260406020820181905281018290525f6001600160fb1b03831115612463575f5ffd5b8260051b8085606085013791909101606001949350505050565b5f6020828403121561248d575f5ffd5b81516001600160401b038111156124a2575f5ffd5b8201601f810184136124b2575f5ffd5b80516124c0611c2a82611bb4565b8082825260208201915060208360051b8501019250868311156124e1575f5ffd5b6020840193505b8284101561233c5783516124fb81611d02565b8252602093840193909101906124e8565b81835281816020850137505f828201602090810191909152601f909101601f19169091010190565b63ffffffff84168152604060208201525f6122b560408301848661250c565b5f60208284031215612563575f5ffd5b81516001600160c01b0381168114611cd5575f5ffd5b5f60208284031215612589575f5ffd5b8151611cd581611d02565b634e487b7160e01b5f52601160045260245ffd5b5f600182016125b9576125b9612594565b5060010190565b5f60ff821660ff81036125d5576125d5612594565b60010192915050565b604081525f6125f160408301858761250c565b905063ffffffff83166020830152949350505050565b63ffffffff83168152604060208201525f61230a6040830184611c89565b5f60208284031215612635575f5ffd5b81516001600160401b0381111561264a575f5ffd5b8201601f8101841361265a575f5ffd5b8051612668611c2a82611cdc565b81815285602083850101111561267c575f5ffd5b8160208401602083015e5f91810160200191909152949350505050565b81810381811115611b5357611b53612594565b5f61ffff821661ffff81036125d5576125d561259456fea2646970667358221220a8566c34edac08a88c33ca09c8cb4e00e7f1051e9336b81b79b70c82cd1c4c8964736f6c634300081d0033",
    "linkReferences": {}
  },
  "methodIdentifiers": {
    "getBatchOperatorFromId(address,bytes32[])": "4d2b57fe",
    "getBatchOperatorId(address,address[])": "31b36bd9",
    "getCheckSignaturesIndices(address,uint32,bytes,bytes32[])": "4f739f74",
    "getOperatorState(address,bytes,uint32)": "3563b0d1",
    "getOperatorState(address,bytes32,uint32)": "cefdc1d4",
    "getOperatorStateWithSocket(address,bytes,uint32)": "9d5a0a4f",
    "getOperatorStateWithSocket(address,bytes32,uint32)": "d45a643e",
    "getQuorumBitmapsAtBlockNumber(address,bytes32[],uint32)": "5c155662"
  },
  "id": 50
}