{
  "abi": [
    {
      "type": "constructor",
      "inputs": [
        {
          "name": "_pausers",
          "type": "address[]",
          "internalType": "address[]"
        },
        {
          "name": "_unpauser",
          "type": "address",
          "internalType": "address"
        }
      ],
      "stateMutability": "nonpayable"
    },
    {
      "type": "function",
      "name": "isPauser",
      "inputs": [
        {
          "name": "",
          "type": "address",
          "internalType": "address"
        }
      ],
      "outputs": [
        {
          "name": "",
          "type": "bool",
          "internalType": "bool"
        }
      ],
      "stateMutability": "view"
    },
    {
      "type": "function",
      "name": "setIsPauser",
      "inputs": [
        {
          "name": "newPauser",
          "type": "address",
          "internalType": "address"
        },
        {
          "name": "canPause",
          "type": "bool",
          "internalType": "bool"
        }
      ],
      "outputs": [],
      "stateMutability": "nonpayable"
    },
    {
      "type": "function",
      "name": "setUnpauser",
      "inputs": [
        {
          "name": "newUnpauser",
          "type": "address",
          "internalType": "address"
        }
      ],
      "outputs": [],
      "stateMutability": "nonpayable"
    },
    {
      "type": "function",
      "name": "unpauser",
      "inputs": [],
      "outputs": [
        {
          "name": "",
          "type": "address",
          "internalType": "address"
        }
      ],
      "stateMutability": "view"
    },
    {
      "type": "event",
      "name": "PauserStatusChanged",
      "inputs": [
        {
          "name": "pauser",
          "type": "address",
          "indexed": false,
          "internalType": "address"
        },
        {
          "name": "canPause",
          "type": "bool",
          "indexed": false,
          "internalType": "bool"
        }
      ],
      "anonymous": false
    },
    {
      "type": "event",
      "name": "UnpauserChanged",
      "inputs": [
        {
          "name": "previousUnpauser",
          "type": "address",
          "indexed": false,
          "internalType": "address"
        },
        {
          "name": "newUnpauser",
          "type": "address",
          "indexed": false,
          "internalType": "address"
        }
      ],
      "anonymous": false
    }
  ],
  "bytecode": {
    "object": "0x608060405234801561000f575f5ffd5b5060405161073638038061073683398101604081905261002e91610253565b5f5b825181101561006b5761006383828151811061004e5761004e61032f565b6020026020010151600161007c60201b60201c565b600101610030565b506100758161014d565b5050610343565b6001600160a01b0382166100ed5760405162461bcd60e51b815260206004820152602d60248201527f50617573657252656769737472792e5f7365745061757365723a207a65726f2060448201526c1859191c995cdcc81a5b9c1d5d609a1b60648201526084015b60405180910390fd5b6001600160a01b0382165f8181526020818152604091829020805460ff19168515159081179091558251938452908301527f65d3a1fd4c13f05cba164f80d03ce90fb4b5e21946bfc3ab7dbd434c2d0b9152910160405180910390a15050565b6001600160a01b0381166101bb5760405162461bcd60e51b815260206004820152602f60248201527f50617573657252656769737472792e5f736574556e7061757365723a207a657260448201526e1bc81859191c995cdcc81a5b9c1d5d608a1b60648201526084016100e4565b600154604080516001600160a01b03928316815291831660208301527f06b4167a2528887a1e97a366eefe8549bfbf1ea3e6ac81cb2564a934d20e8892910160405180910390a1600180546001600160a01b0319166001600160a01b0392909216919091179055565b634e487b7160e01b5f52604160045260245ffd5b80516001600160a01b038116811461024e575f5ffd5b919050565b5f5f60408385031215610264575f5ffd5b82516001600160401b03811115610279575f5ffd5b8301601f81018513610289575f5ffd5b80516001600160401b038111156102a2576102a2610224565b604051600582901b90603f8201601f191681016001600160401b03811182821017156102d0576102d0610224565b6040529182526020818401810192908101888411156102ed575f5ffd5b6020850194505b838510156103135761030585610238565b8152602094850194016102f4565b5094506103269250505060208401610238565b90509250929050565b634e487b7160e01b5f52603260045260245ffd5b6103e6806103505f395ff3fe608060405234801561000f575f5ffd5b506004361061004a575f3560e01c806346fbf68e1461004e5780638568520614610085578063ce5484281461009a578063eab66d7a146100ad575b5f5ffd5b61007061005c36600461030d565b5f6020819052908152604090205460ff1681565b60405190151581526020015b60405180910390f35b61009861009336600461032d565b6100d8565b005b6100986100a836600461030d565b610119565b6001546100c0906001600160a01b031681565b6040516001600160a01b03909116815260200161007c565b6001546001600160a01b0316331461010b5760405162461bcd60e51b815260040161010290610366565b60405180910390fd5b610115828261014f565b5050565b6001546001600160a01b031633146101435760405162461bcd60e51b815260040161010290610366565b61014c8161021b565b50565b6001600160a01b0382166101bb5760405162461bcd60e51b815260206004820152602d60248201527f50617573657252656769737472792e5f7365745061757365723a207a65726f2060448201526c1859191c995cdcc81a5b9c1d5d609a1b6064820152608401610102565b6001600160a01b0382165f8181526020818152604091829020805460ff19168515159081179091558251938452908301527f65d3a1fd4c13f05cba164f80d03ce90fb4b5e21946bfc3ab7dbd434c2d0b9152910160405180910390a15050565b6001600160a01b0381166102895760405162461bcd60e51b815260206004820152602f60248201527f50617573657252656769737472792e5f736574556e7061757365723a207a657260448201526e1bc81859191c995cdcc81a5b9c1d5d608a1b6064820152608401610102565b600154604080516001600160a01b03928316815291831660208301527f06b4167a2528887a1e97a366eefe8549bfbf1ea3e6ac81cb2564a934d20e8892910160405180910390a1600180546001600160a01b0319166001600160a01b0392909216919091179055565b80356001600160a01b0381168114610308575f5ffd5b919050565b5f6020828403121561031d575f5ffd5b610326826102f2565b9392505050565b5f5f6040838503121561033e575f5ffd5b610347836102f2565b91506020830135801515811461035b575f5ffd5b809150509250929050565b6020808252602a908201527f6d73672e73656e646572206973206e6f74207065726d697373696f6e6564206160408201526939903ab73830bab9b2b960b11b60608201526080019056fea26469706673582212201394fb95628b3b80f80d4fd48d8f23d7e74764be809fdde7ad63ac28c376378564736f6c634300081d0033",
    "linkReferences": {}
  },
  "methodIdentifiers": {
    "isPauser(address)": "46fbf68e",
    "setIsPauser(address,bool)": "85685206",
    "setUnpauser(address)": "ce548428",
    "unpauser()": "eab66d7a"
  },
  "id": 27
}