{
  "abi": [
    {
      "type": "constructor",
      "inputs": [],
      "stateMutability": "nonpayable"
    },
    {
      "type": "fallback",
      "stateMutability": "payable"
    },
    {
      "type": "receive",
      "stateMutability": "payable"
    },
    {
      "type": "function",
      "name": "depositOnDemand",
      "inputs": [
        {
          "name": "_account",
          "type": "address",
          "internalType": "address"
        }
      ],
      "outputs": [],
      "stateMutability": "payable"
    },
    {
      "type": "function",
      "name": "getOnDemandTotalDeposit",
      "inputs": [
        {
          "name": "_account",
          "type": "address",
          "internalType": "address"
        }
      ],
      "outputs": [
        {
          "name": "",
          "type": "uint80",
          "internalType": "uint80"
        }
      ],
      "stateMutability": "view"
    },
    {
      "type": "function",
      "name": "getOnDemandTotalDeposits",
      "inputs": [
        {
          "name": "_accounts",
          "type": "address[]",
          "internalType": "address[]"
        }
      ],
      "outputs": [
        {
          "name": "_payments",
          "type": "uint80[]",
          "internalType": "uint80[]"
        }
      ],
      "stateMutability": "view"
    },
    {
      "type": "function",
      "name": "getReservation",
      "inputs": [
        {
          "name": "_account",
          "type": "address",
          "internalType": "address"
        }
      ],
      "outputs": [
        {
          "name": "",
          "type": "tuple",
          "internalType": "struct IPaymentVault.Reservation",
          "components": [
            {
              "name": "symbolsPerSecond",
              "type": "uint64",
              "internalType": "uint64"
            },
            {
              "name": "startTimestamp",
              "type": "uint64",
              "internalType": "uint64"
            },
            {
              "name": "endTimestamp",
              "type": "uint64",
              "internalType": "uint64"
            },
            {
              "name": "quorumNumbers",
              "type": "bytes",
              "internalType": "bytes"
            },
            {
              "name": "quorumSplits",
              "type": "bytes",
              "internalType": "bytes"
            }
          ]
        }
      ],
      "stateMutability": "view"
    },
    {
      "type": "function",
      "name": "getReservations",
      "inputs": [
        {
          "name": "_accounts",
          "type": "address[]",
          "internalType": "address[]"
        }
      ],
      "outputs": [
        {
          "name": "_reservations",
          "type": "tuple[]",
          "internalType": "struct IPaymentVault.Reservation[]",
          "components": [
            {
              "name": "symbolsPerSecond",
              "type": "uint64",
              "internalType": "uint64"
            },
            {
              "name": "startTimestamp",
              "type": "uint64",
              "internalType": "uint64"
            },
            {
              "name": "endTimestamp",
              "type": "uint64",
              "internalType": "uint64"
            },
            {
              "name": "quorumNumbers",
              "type": "bytes",
              "internalType": "bytes"
            },
            {
              "name": "quorumSplits",
              "type": "bytes",
              "internalType": "bytes"
            }
          ]
        }
      ],
      "stateMutability": "view"
    },
    {
      "type": "function",
      "name": "globalRatePeriodInterval",
      "inputs": [],
      "outputs": [
        {
          "name": "",
          "type": "uint64",
          "internalType": "uint64"
        }
      ],
      "stateMutability": "view"
    },
    {
      "type": "function",
      "name": "globalSymbolsPerPeriod",
      "inputs": [],
      "outputs": [
        {
          "name": "",
          "type": "uint64",
          "internalType": "uint64"
        }
      ],
      "stateMutability": "view"
    },
    {
      "type": "function",
      "name": "initialize",
      "inputs": [
        {
          "name": "_initialOwner",
          "type": "address",
          "internalType": "address"
        },
        {
          "name": "_minNumSymbols",
          "type": "uint64",
          "internalType": "uint64"
        },
        {
          "name": "_pricePerSymbol",
          "type": "uint64",
          "internalType": "uint64"
        },
        {
          "name": "_priceUpdateCooldown",
          "type": "uint64",
          "internalType": "uint64"
        },
        {
          "name": "_globalSymbolsPerPeriod",
          "type": "uint64",
          "internalType": "uint64"
        },
        {
          "name": "_reservationPeriodInterval",
          "type": "uint64",
          "internalType": "uint64"
        },
        {
          "name": "_globalRatePeriodInterval",
          "type": "uint64",
          "internalType": "uint64"
        }
      ],
      "outputs": [],
      "stateMutability": "nonpayable"
    },
    {
      "type": "function",
      "name": "lastPriceUpdateTime",
      "inputs": [],
      "outputs": [
        {
          "name": "",
          "type": "uint64",
          "internalType": "uint64"
        }
      ],
      "stateMutability": "view"
    },
    {
      "type": "function",
      "name": "minNumSymbols",
      "inputs": [],
      "outputs": [
        {
          "name": "",
          "type": "uint64",
          "internalType": "uint64"
        }
      ],
      "stateMutability": "view"
    },
    {
      "type": "function",
      "name": "onDemandPayments",
      "inputs": [
        {
          "name": "",
          "type": "address",
          "internalType": "address"
        }
      ],
      "outputs": [
        {
          "name": "totalDeposit",
          "type": "uint80",
          "internalType": "uint80"
        }
      ],
      "stateMutability": "view"
    },
    {
      "type": "function",
      "name": "owner",
      "inputs": [],
      "outputs": [
        {
          "name": "",
          "type": "address",
          "internalType": "address"
        }
      ],
      "stateMutability": "view"
    },
    {
      "type": "function",
      "name": "pricePerSymbol",
      "inputs": [],
      "outputs": [
        {
          "name": "",
          "type": "uint64",
          "internalType": "uint64"
        }
      ],
      "stateMutability": "view"
    },
    {
      "type": "function",
      "name": "priceUpdateCooldown",
      "inputs": [],
      "outputs": [
        {
          "name": "",
          "type": "uint64",
          "internalType": "uint64"
        }
      ],
      "stateMutability": "view"
    },
    {
      "type": "function",
      "name": "renounceOwnership",
      "inputs": [],
      "outputs": [],
      "stateMutability": "nonpayable"
    },
    {
      "type": "function",
      "name": "reservationPeriodInterval",
      "inputs": [],
      "outputs": [
        {
          "name": "",
          "type": "uint64",
          "internalType": "uint64"
        }
      ],
      "stateMutability": "view"
    },
    {
      "type": "function",
      "name": "reservations",
      "inputs": [
        {
          "name": "",
          "type": "address",
          "internalType": "address"
        }
      ],
      "outputs": [
        {
          "name": "symbolsPerSecond",
          "type": "uint64",
          "internalType": "uint64"
        },
        {
          "name": "startTimestamp",
          "type": "uint64",
          "internalType": "uint64"
        },
        {
          "name": "endTimestamp",
          "type": "uint64",
          "internalType": "uint64"
        },
        {
          "name": "quorumNumbers",
          "type": "bytes",
          "internalType": "bytes"
        },
        {
          "name": "quorumSplits",
          "type": "bytes",
          "internalType": "bytes"
        }
      ],
      "stateMutability": "view"
    },
    {
      "type": "function",
      "name": "setGlobalRatePeriodInterval",
      "inputs": [
        {
          "name": "_globalRatePeriodInterval",
          "type": "uint64",
          "internalType": "uint64"
        }
      ],
      "outputs": [],
      "stateMutability": "nonpayable"
    },
    {
      "type": "function",
      "name": "setGlobalSymbolsPerPeriod",
      "inputs": [
        {
          "name": "_globalSymbolsPerPeriod",
          "type": "uint64",
          "internalType": "uint64"
        }
      ],
      "outputs": [],
      "stateMutability": "nonpayable"
    },
    {
      "type": "function",
      "name": "setPriceParams",
      "inputs": [
        {
          "name": "_minNumSymbols",
          "type": "uint64",
          "internalType": "uint64"
        },
        {
          "name": "_pricePerSymbol",
          "type": "uint64",
          "internalType": "uint64"
        },
        {
          "name": "_priceUpdateCooldown",
          "type": "uint64",
          "internalType": "uint64"
        }
      ],
      "outputs": [],
      "stateMutability": "nonpayable"
    },
    {
      "type": "function",
      "name": "setReservation",
      "inputs": [
        {
          "name": "_account",
          "type": "address",
          "internalType": "address"
        },
        {
          "name": "_reservation",
          "type": "tuple",
          "internalType": "struct IPaymentVault.Reservation",
          "components": [
            {
              "name": "symbolsPerSecond",
              "type": "uint64",
              "internalType": "uint64"
            },
            {
              "name": "startTimestamp",
              "type": "uint64",
              "internalType": "uint64"
            },
            {
              "name": "endTimestamp",
              "type": "uint64",
              "internalType": "uint64"
            },
            {
              "name": "quorumNumbers",
              "type": "bytes",
              "internalType": "bytes"
            },
            {
              "name": "quorumSplits",
              "type": "bytes",
              "internalType": "bytes"
            }
          ]
        }
      ],
      "outputs": [],
      "stateMutability": "nonpayable"
    },
    {
      "type": "function",
      "name": "setReservationPeriodInterval",
      "inputs": [
        {
          "name": "_reservationPeriodInterval",
          "type": "uint64",
          "internalType": "uint64"
        }
      ],
      "outputs": [],
      "stateMutability": "nonpayable"
    },
    {
      "type": "function",
      "name": "transferOwnership",
      "inputs": [
        {
          "name": "newOwner",
          "type": "address",
          "internalType": "address"
        }
      ],
      "outputs": [],
      "stateMutability": "nonpayable"
    },
    {
      "type": "function",
      "name": "withdraw",
      "inputs": [
        {
          "name": "_amount",
          "type": "uint256",
          "internalType": "uint256"
        }
      ],
      "outputs": [],
      "stateMutability": "nonpayable"
    },
    {
      "type": "function",
      "name": "withdrawERC20",
      "inputs": [
        {
          "name": "_token",
          "type": "address",
          "internalType": "contract IERC20"
        },
        {
          "name": "_amount",
          "type": "uint256",
          "internalType": "uint256"
        }
      ],
      "outputs": [],
      "stateMutability": "nonpayable"
    },
    {
      "type": "event",
      "name": "GlobalRatePeriodIntervalUpdated",
      "inputs": [
        {
          "name": "previousValue",
          "type": "uint64",
          "indexed": false,
          "internalType": "uint64"
        },
        {
          "name": "newValue",
          "type": "uint64",
          "indexed": false,
          "internalType": "uint64"
        }
      ],
      "anonymous": false
    },
    {
      "type": "event",
      "name": "GlobalSymbolsPerPeriodUpdated",
      "inputs": [
        {
          "name": "previousValue",
          "type": "uint64",
          "indexed": false,
          "internalType": "uint64"
        },
        {
          "name": "newValue",
          "type": "uint64",
          "indexed": false,
          "internalType": "uint64"
        }
      ],
      "anonymous": false
    },
    {
      "type": "event",
      "name": "Initialized",
      "inputs": [
        {
          "name": "version",
          "type": "uint8",
          "indexed": false,
          "internalType": "uint8"
        }
      ],
      "anonymous": false
    },
    {
      "type": "event",
      "name": "OnDemandPaymentUpdated",
      "inputs": [
        {
          "name": "account",
          "type": "address",
          "indexed": true,
          "internalType": "address"
        },
        {
          "name": "onDemandPayment",
          "type": "uint80",
          "indexed": false,
          "internalType": "uint80"
        },
        {
          "name": "totalDeposit",
          "type": "uint80",
          "indexed": false,
          "internalType": "uint80"
        }
      ],
      "anonymous": false
    },
    {
      "type": "event",
      "name": "OwnershipTransferred",
      "inputs": [
        {
          "name": "previousOwner",
          "type": "address",
          "indexed": true,
          "internalType": "address"
        },
        {
          "name": "newOwner",
          "type": "address",
          "indexed": true,
          "internalType": "address"
        }
      ],
      "anonymous": false
    },
    {
      "type": "event",
      "name": "PriceParamsUpdated",
      "inputs": [
        {
          "name": "previousMinNumSymbols",
          "type": "uint64",
          "indexed": false,
          "internalType": "uint64"
        },
        {
          "name": "newMinNumSymbols",
          "type": "uint64",
          "indexed": false,
          "internalType": "uint64"
        },
        {
          "name": "previousPricePerSymbol",
          "type": "uint64",
          "indexed": false,
          "internalType": "uint64"
        },
        {
          "name": "newPricePerSymbol",
          "type": "uint64",
          "indexed": false,
          "internalType": "uint64"
        },
        {
          "name": "previousPriceUpdateCooldown",
          "type": "uint64",
          "indexed": false,
          "internalType": "uint64"
        },
        {
          "name": "newPriceUpdateCooldown",
          "type": "uint64",
          "indexed": false,
          "internalType": "uint64"
        }
      ],
      "anonymous": false
    },
    {
      "type": "event",
      "name": "ReservationPeriodIntervalUpdated",
      "inputs": [
        {
          "name": "previousValue",
          "type": "uint64",
          "indexed": false,
          "internalType": "uint64"
        },
        {
          "name": "newValue",
          "type": "uint64",
          "indexed": false,
          "internalType": "uint64"
        }
      ],
      "anonymous": false
    },
    {
      "type": "event",
      "name": "ReservationUpdated",
      "inputs": [
        {
          "name": "account",
          "type": "address",
          "indexed": true,
          "internalType": "address"
        },
        {
          "name": "reservation",
          "type": "tuple",
          "indexed": false,
          "internalType": "struct IPaymentVault.Reservation",
          "components": [
            {
              "name": "symbolsPerSecond",
              "type": "uint64",
              "internalType": "uint64"
            },
            {
              "name": "startTimestamp",
              "type": "uint64",
              "internalType": "uint64"
            },
            {
              "name": "endTimestamp",
              "type": "uint64",
              "internalType": "uint64"
            },
            {
              "name": "quorumNumbers",
              "type": "bytes",
              "internalType": "bytes"
            },
            {
              "name": "quorumSplits",
              "type": "bytes",
              "internalType": "bytes"
            }
          ]
        }
      ],
      "anonymous": false
    }
  ],
  "bytecode": {
    "object": "0x6080604052348015600e575f5ffd5b5060156019565b60d4565b5f54610100900460ff161560835760405162461bcd60e51b815260206004820152602760248201527f496e697469616c697a61626c653a20636f6e747261637420697320696e697469604482015266616c697a696e6760c81b606482015260840160405180910390fd5b5f5460ff908116101560d2575f805460ff191660ff9081179091556040519081527f7f26b83ff96e1f2b6a682f133852f6798a09c465da95921460cefb38474024989060200160405180910390a15b565b611db5806100e15f395ff3fe608060405260043610610169575f3560e01c80639aec8640116100d0578063c98d97dd11610089578063f2fde38b11610063578063f2fde38b146104ab578063f323726a146104ca578063fba2b1d1146104f0578063fd3dc53a1461050f5761017a565b8063c98d97dd14610403578063d1c1fdcd14610422578063d996dc99146104775761017a565b80639aec864014610335578063a16cf88414610354578063a1db978214610373578063aa788bd714610392578063b2066f80146103b1578063bff8a3d4146103dd5761017a565b806372228ab21161012257806372228ab214610278578063761dab891461029e578063897218fc146102bd5780638bec7d02146102dc5780638da5cb5b146102ef5780639a1bbf37146103165761017a565b8063039f091c14610184578063109f8fe5146101c75780632e1a7d4d146101f35780634184a6741461021257806349b9a7af1461023e578063715018a6146102645761017a565b3661017a57610178333461053f565b005b610178333461053f565b34801561018f575f5ffd5b506065546101aa90600160801b90046001600160401b031681565b6040516001600160401b0390911681526020015b60405180910390f35b3480156101d2575f5ffd5b506101e66101e1366004611697565b61065c565b6040516101be91906117e6565b3480156101fe575f5ffd5b5061017861020d366004611849565b61089d565b34801561021d575f5ffd5b5061023161022c366004611697565b610915565b6040516101be9190611860565b348015610249575f5ffd5b506065546101aa90600160c01b90046001600160401b031681565b34801561026f575f5ffd5b506101786109ea565b348015610283575f5ffd5b506066546101aa90600160401b90046001600160401b031681565b3480156102a9575f5ffd5b506065546101aa906001600160401b031681565b3480156102c8575f5ffd5b506101786102d73660046118c6565b6109fd565b6101786102ea3660046118e6565b610a85565b3480156102fa575f5ffd5b506033546040516001600160a01b0390911681526020016101be565b348015610321575f5ffd5b50610178610330366004611901565b610a92565b348015610340575f5ffd5b5061017861034f3660046119ef565b610ca3565b34801561035f575f5ffd5b5061017861036e3660046118c6565b610e1d565b34801561037e575f5ffd5b5061017861038d366004611acb565b610e8f565b34801561039d575f5ffd5b506101786103ac3660046118c6565b610f2b565b3480156103bc575f5ffd5b506103d06103cb3660046118e6565b610fae565b6040516101be9190611af5565b3480156103e8575f5ffd5b506066546101aa90600160801b90046001600160401b031681565b34801561040e575f5ffd5b506066546101aa906001600160401b031681565b34801561042d575f5ffd5b5061045f61043c3660046118e6565b6001600160a01b03165f908152606860205260409020546001600160501b031690565b6040516001600160501b0390911681526020016101be565b348015610482575f5ffd5b5061045f6104913660046118e6565b60686020525f90815260409020546001600160501b031681565b3480156104b6575f5ffd5b506101786104c53660046118e6565b611153565b3480156104d5575f5ffd5b506065546101aa90600160401b90046001600160401b031681565b3480156104fb575f5ffd5b5061017861050a366004611b07565b6111c9565b34801561051a575f5ffd5b5061052e6105293660046118e6565b61133f565b6040516101be959493929190611b47565b6001600160501b038111156105b05760405162461bcd60e51b815260206004820152602c60248201527f616d6f756e74206d757374206265206c657373207468616e206f72206571756160448201526b6c20746f203830206269747360a01b60648201526084015b60405180910390fd5b6001600160a01b0382165f90815260686020526040812080548392906105e09084906001600160501b0316611bb8565b82546101009290920a6001600160501b038181021990931691831602179091556001600160a01b0384165f8181526068602090815260409182902054825187861681529416908401529092507f6fbb447a2c09b8901d70b0d5b9fbce159ee8fda4460e5af2570cab3fe0adf26891015b60405180910390a25050565b606081516001600160401b0381111561067757610677611617565b6040519080825280602002602001820160405280156106cd57816020015b6040805160a0810182525f8082526020808301829052928201526060808201819052608082015282525f199092019101816106955790505b5090505f5b82518110156108975760675f8483815181106106f0576106f0611bdd565b6020908102919091018101516001600160a01b031682528181019290925260409081015f20815160a08101835281546001600160401b038082168352600160401b8204811695830195909552600160801b90049093169183019190915260018101805460608401919061076290611bf1565b80601f016020809104026020016040519081016040528092919081815260200182805461078e90611bf1565b80156107d95780601f106107b0576101008083540402835291602001916107d9565b820191905f5260205f20905b8154815290600101906020018083116107bc57829003601f168201915b505050505081526020016002820180546107f290611bf1565b80601f016020809104026020016040519081016040528092919081815260200182805461081e90611bf1565b80156108695780601f1061084057610100808354040283529160200191610869565b820191905f5260205f20905b81548152906001019060200180831161084c57829003601f168201915b50505050508152505082828151811061088457610884611bdd565b60209081029190910101526001016106d2565b50919050565b6108a561148d565b5f6108b86033546001600160a01b031690565b6001600160a01b0316826040515f6040518083038185875af1925050503d805f81146108ff576040519150601f19603f3d011682016040523d82523d5f602084013e610904565b606091505b5050905080610911575f5ffd5b5050565b606081516001600160401b0381111561093057610930611617565b604051908082528060200260200182016040528015610959578160200160208202803683370190505b5090505f5b82518110156108975760685f84838151811061097c5761097c611bdd565b60200260200101516001600160a01b03166001600160a01b031681526020019081526020015f205f015f9054906101000a90046001600160501b03168282815181106109ca576109ca611bdd565b6001600160501b039092166020928302919091019091015260010161095e565b6109f261148d565b6109fb5f6114e7565b565b610a0561148d565b606654604080516001600160401b03600160401b9093048316815291831660208301527f1ef4a1ce7d8e50959d15578b346bb20a5b049e5ee1978014a4ba66476265c957910160405180910390a1606680546001600160401b03909216600160401b026fffffffffffffffff000000000000000019909216919091179055565b610a8f813461053f565b50565b5f54600290610100900460ff16158015610ab257505f5460ff8083169116105b610b155760405162461bcd60e51b815260206004820152602e60248201527f496e697469616c697a61626c653a20636f6e747261637420697320616c72656160448201526d191e481a5b9a5d1a585b1a5e995960921b60648201526084016105a7565b5f805461ffff191660ff831617610100179055610b31886114e7565b8660655f6101000a8154816001600160401b0302191690836001600160401b0316021790555085606560086101000a8154816001600160401b0302191690836001600160401b0316021790555084606560106101000a8154816001600160401b0302191690836001600160401b0316021790555042606560186101000a8154816001600160401b0302191690836001600160401b031602179055508360665f6101000a8154816001600160401b0302191690836001600160401b0316021790555082606660086101000a8154816001600160401b0302191690836001600160401b0316021790555081606660106101000a8154816001600160401b0302191690836001600160401b031602179055505f5f60016101000a81548160ff0219169083151502179055507f7f26b83ff96e1f2b6a682f133852f6798a09c465da95921460cefb384740249881604051610c91919060ff91909116815260200190565b60405180910390a15050505050505050565b610cab61148d565b610cbd81606001518260800151611538565b80602001516001600160401b031681604001516001600160401b031611610d415760405162461bcd60e51b815260206004820152603260248201527f656e642074696d657374616d70206d75737420626520677265617465722074686044820152710616e2073746172742074696d657374616d760741b60648201526084016105a7565b6001600160a01b0382165f908152606760209081526040918290208351815492850151938501516001600160401b03908116600160801b0267ffffffffffffffff60801b19958216600160401b026fffffffffffffffffffffffffffffffff199095169190921617929092179290921617815560608201518291906001820190610dcb9082611c6e565b5060808201516002820190610de09082611c6e565b50905050816001600160a01b03167fff3054d138559c39b4c0826c43e94b2b2c6bc9a33ea1d0b74f16c916c7b73ec1826040516106509190611af5565b610e2561148d565b606654604080516001600160401b03928316815291831660208301527f3edf3b79e74d9e583ff51df95fbabefe15f504d33475b2cc77cffba292268aae910160405180910390a16066805467ffffffffffffffff19166001600160401b0392909216919091179055565b610e9761148d565b816001600160a01b031663a9059cbb610eb86033546001600160a01b031690565b6040516001600160e01b031960e084901b1681526001600160a01b039091166004820152602481018490526044016020604051808303815f875af1158015610f02573d5f5f3e3d5ffd5b505050506040513d601f19601f82011682018060405250810190610f269190611d28565b505050565b610f3361148d565b606654604080516001600160401b03600160801b9093048316815291831660208301527f833819c38214ef9f462f88b5c27a21bf201f394572a14da3e63c77ee15f0e93a910160405180910390a1606680546001600160401b03909216600160801b0267ffffffffffffffff60801b19909216919091179055565b6040805160a080820183525f80835260208084018290528385018290526060808501819052608085018190526001600160a01b038716835260678252918590208551938401865280546001600160401b038082168652600160401b8204811693860193909352600160801b900490911694830194909452600184018054939492939184019161103c90611bf1565b80601f016020809104026020016040519081016040528092919081815260200182805461106890611bf1565b80156110b35780601f1061108a576101008083540402835291602001916110b3565b820191905f5260205f20905b81548152906001019060200180831161109657829003601f168201915b505050505081526020016002820180546110cc90611bf1565b80601f01602080910402602001604051908101604052809291908181526020018280546110f890611bf1565b80156111435780601f1061111a57610100808354040283529160200191611143565b820191905f5260205f20905b81548152906001019060200180831161112657829003601f168201915b5050505050815250509050919050565b61115b61148d565b6001600160a01b0381166111c05760405162461bcd60e51b815260206004820152602660248201527f4f776e61626c653a206e6577206f776e657220697320746865207a65726f206160448201526564647265737360d01b60648201526084016105a7565b610a8f816114e7565b6111d161148d565b6065546111f7906001600160401b03600160801b8204811691600160c01b900416611d47565b6001600160401b031642101561125b5760405162461bcd60e51b815260206004820152602360248201527f70726963652075706461746520636f6f6c646f776e206e6f74207375727061736044820152621cd95960ea1b60648201526084016105a7565b606554604080516001600160401b0380841682528681166020830152600160401b84048116828401528581166060830152600160801b9093048316608082015291831660a0830152517f9b97ed982ea5820e21bfc9578505e78068a5333487583460ad56ff72defef77a9181900360c00190a160658054426001600160401b03908116600160c01b026001600160c01b03948216600160801b0277ffffffffffffffff0000000000000000ffffffffffffffff19968316600160401b02969096166001600160c01b0319909316929092179516949094179290921716919091179055565b60676020525f9081526040902080546001820180546001600160401b0380841694600160401b8504821694600160801b900490911692909161138090611bf1565b80601f01602080910402602001604051908101604052809291908181526020018280546113ac90611bf1565b80156113f75780601f106113ce576101008083540402835291602001916113f7565b820191905f5260205f20905b8154815290600101906020018083116113da57829003601f168201915b50505050509080600201805461140c90611bf1565b80601f016020809104026020016040519081016040528092919081815260200182805461143890611bf1565b80156114835780601f1061145a57610100808354040283529160200191611483565b820191905f5260205f20905b81548152906001019060200180831161146657829003601f168201915b5050505050905085565b6033546001600160a01b031633146109fb5760405162461bcd60e51b815260206004820181905260248201527f4f776e61626c653a2063616c6c6572206973206e6f7420746865206f776e657260448201526064016105a7565b603380546001600160a01b038381166001600160a01b0319831681179093556040519116919082907f8be0079c531659141344cd1fd0a4f28419497f9722a3daafe3b4186f6b6457e0905f90a35050565b80518251146115895760405162461bcd60e51b815260206004820181905260248201527f617272617973206d7573742068617665207468652073616d65206c656e67746860448201526064016105a7565b5f5f5b82518110156115c3578281815181106115a7576115a7611bdd565b01602001516115b99060f81c83611d66565b915060010161158c565b508060ff16606414610f265760405162461bcd60e51b815260206004820152601f60248201527f73756d206f662071756f72756d53706c697473206d757374206265203130300060448201526064016105a7565b634e487b7160e01b5f52604160045260245ffd5b60405160a081016001600160401b038111828210171561164d5761164d611617565b60405290565b604051601f8201601f191681016001600160401b038111828210171561167b5761167b611617565b604052919050565b6001600160a01b0381168114610a8f575f5ffd5b5f602082840312156116a7575f5ffd5b81356001600160401b038111156116bc575f5ffd5b8201601f810184136116cc575f5ffd5b80356001600160401b038111156116e5576116e5611617565b8060051b6116f560208201611653565b91825260208184018101929081019087841115611710575f5ffd5b6020850194505b8385101561173e578435925061172c83611683565b82825260209485019490910190611717565b979650505050505050565b5f81518084528060208401602086015e5f602082860101526020601f19601f83011685010191505092915050565b6001600160401b0381511682526001600160401b0360208201511660208301526001600160401b0360408201511660408301525f606082015160a060608501526117c460a0850182611749565b9050608083015184820360808601526117dd8282611749565b95945050505050565b5f602082016020835280845180835260408501915060408160051b8601019250602086015f5b8281101561183d57603f19878603018452611828858351611777565b9450602093840193919091019060010161180c565b50929695505050505050565b5f60208284031215611859575f5ffd5b5035919050565b602080825282518282018190525f918401906040840190835b818110156118a05783516001600160501b0316835260209384019390920191600101611879565b509095945050505050565b80356001600160401b03811681146118c1575f5ffd5b919050565b5f602082840312156118d6575f5ffd5b6118df826118ab565b9392505050565b5f602082840312156118f6575f5ffd5b81356118df81611683565b5f5f5f5f5f5f5f60e0888a031215611917575f5ffd5b873561192281611683565b9650611930602089016118ab565b955061193e604089016118ab565b945061194c606089016118ab565b935061195a608089016118ab565b925061196860a089016118ab565b915061197660c089016118ab565b905092959891949750929550565b5f82601f830112611993575f5ffd5b81356001600160401b038111156119ac576119ac611617565b6119bf601f8201601f1916602001611653565b8181528460208386010111156119d3575f5ffd5b816020850160208301375f918101602001919091529392505050565b5f5f60408385031215611a00575f5ffd5b8235611a0b81611683565b915060208301356001600160401b03811115611a25575f5ffd5b830160a08186031215611a36575f5ffd5b611a3e61162b565b611a47826118ab565b8152611a55602083016118ab565b6020820152611a66604083016118ab565b604082015260608201356001600160401b03811115611a83575f5ffd5b611a8f87828501611984565b60608301525060808201356001600160401b03811115611aad575f5ffd5b611ab987828501611984565b60808301525080925050509250929050565b5f5f60408385031215611adc575f5ffd5b8235611ae781611683565b946020939093013593505050565b602081525f6118df6020830184611777565b5f5f5f60608486031215611b19575f5ffd5b611b22846118ab565b9250611b30602085016118ab565b9150611b3e604085016118ab565b90509250925092565b6001600160401b03861681526001600160401b03851660208201526001600160401b038416604082015260a060608201525f611b8660a0830185611749565b8281036080840152611b988185611749565b98975050505050505050565b634e487b7160e01b5f52601160045260245ffd5b6001600160501b038181168382160190811115611bd757611bd7611ba4565b92915050565b634e487b7160e01b5f52603260045260245ffd5b600181811c90821680611c0557607f821691505b60208210810361089757634e487b7160e01b5f52602260045260245ffd5b601f821115610f2657805f5260205f20601f840160051c81016020851015611c485750805b601f840160051c820191505b81811015611c67575f8155600101611c54565b5050505050565b81516001600160401b03811115611c8757611c87611617565b611c9b81611c958454611bf1565b84611c23565b6020601f821160018114611ccd575f8315611cb65750848201515b5f19600385901b1c1916600184901b178455611c67565b5f84815260208120601f198516915b82811015611cfc5787850151825560209485019460019092019101611cdc565b5084821015611d1957868401515f19600387901b60f8161c191681555b50505050600190811b01905550565b5f60208284031215611d38575f5ffd5b815180151581146118df575f5ffd5b6001600160401b038181168382160190811115611bd757611bd7611ba4565b60ff8181168382160190811115611bd757611bd7611ba456fea26469706673582212209583147f6a234ed8ce1e8a01e2688dd2ed1fab8f6bd2e806cb95c3d492bf127e64736f6c634300081d0033",
    "linkReferences": {}
  },
  "methodIdentifiers": {
    "depositOnDemand(address)": "8bec7d02",
    "getOnDemandTotalDeposit(address)": "d1c1fdcd",
    "getOnDemandTotalDeposits(address[])": "4184a674",
    "getReservation(address)": "b2066f80",
    "getReservations(address[])": "109f8fe5",
    "globalRatePeriodInterval()": "bff8a3d4",
    "globalSymbolsPerPeriod()": "c98d97dd",
    "initialize(address,uint64,uint64,uint64,uint64,uint64,uint64)": "9a1bbf37",
    "lastPriceUpdateTime()": "49b9a7af",
    "minNumSymbols()": "761dab89",
    "onDemandPayments(address)": "d996dc99",
    "owner()": "8da5cb5b",
    "pricePerSymbol()": "f323726a",
    "priceUpdateCooldown()": "039f091c",
    "renounceOwnership()": "715018a6",
    "reservationPeriodInterval()": "72228ab2",
    "reservations(address)": "fd3dc53a",
    "setGlobalRatePeriodInterval(uint64)": "aa788bd7",
    "setGlobalSymbolsPerPeriod(uint64)": "a16cf884",
    "setPriceParams(uint64,uint64,uint64)": "fba2b1d1",
    "setReservation(address,(uint64,uint64,uint64,bytes,bytes))": "9aec8640",
    "setReservationPeriodInterval(uint64)": "897218fc",
    "transferOwnership(address)": "f2fde38b",
    "withdraw(uint256)": "2e1a7d4d",
    "withdrawERC20(address,uint256)": "a1db9782"
  },
  "id": 188
}