{
  "abi": [
    {
      "type": "constructor",
      "inputs": [
        {
          "name": "_registryCoordinator",
          "type": "address",
          "internalType": "contract IRegistryCoordinator"
        },
        {
          "name": "_delegationManager",
          "type": "address",
          "internalType": "contract IDelegationManager"
        }
      ],
      "stateMutability": "nonpayable"
    },
    {
      "type": "function",
      "name": "MAX_WEIGHING_FUNCTION_LENGTH",
      "inputs": [],
      "outputs": [
        {
          "name": "",
          "type": "uint8",
          "internalType": "uint8"
        }
      ],
      "stateMutability": "view"
    },
    {
      "type": "function",
      "name": "WEIGHTING_DIVISOR",
      "inputs": [],
      "outputs": [
        {
          "name": "",
          "type": "uint256",
          "internalType": "uint256"
        }
      ],
      "stateMutability": "view"
    },
    {
      "type": "function",
      "name": "addStrategies",
      "inputs": [
        {
          "name": "quorumNumber",
          "type": "uint8",
          "internalType": "uint8"
        },
        {
          "name": "_strategyParams",
          "type": "tuple[]",
          "internalType": "struct IStakeRegistry.StrategyParams[]",
          "components": [
            {
              "name": "strategy",
              "type": "address",
              "internalType": "contract IStrategy"
            },
            {
              "name": "multiplier",
              "type": "uint96",
              "internalType": "uint96"
            }
          ]
        }
      ],
      "outputs": [],
      "stateMutability": "nonpayable"
    },
    {
      "type": "function",
      "name": "delegation",
      "inputs": [],
      "outputs": [
        {
          "name": "",
          "type": "address",
          "internalType": "contract IDelegationManager"
        }
      ],
      "stateMutability": "view"
    },
    {
      "type": "function",
      "name": "deregisterOperator",
      "inputs": [
        {
          "name": "operatorId",
          "type": "bytes32",
          "internalType": "bytes32"
        },
        {
          "name": "quorumNumbers",
          "type": "bytes",
          "internalType": "bytes"
        }
      ],
      "outputs": [],
      "stateMutability": "nonpayable"
    },
    {
      "type": "function",
      "name": "getCurrentStake",
      "inputs": [
        {
          "name": "operatorId",
          "type": "bytes32",
          "internalType": "bytes32"
        },
        {
          "name": "quorumNumber",
          "type": "uint8",
          "internalType": "uint8"
        }
      ],
      "outputs": [
        {
          "name": "",
          "type": "uint96",
          "internalType": "uint96"
        }
      ],
      "stateMutability": "view"
    },
    {
      "type": "function",
      "name": "getCurrentTotalStake",
      "inputs": [
        {
          "name": "quorumNumber",
          "type": "uint8",
          "internalType": "uint8"
        }
      ],
      "outputs": [
        {
          "name": "",
          "type": "uint96",
          "internalType": "uint96"
        }
      ],
      "stateMutability": "view"
    },
    {
      "type": "function",
      "name": "getLatestStakeUpdate",
      "inputs": [
        {
          "name": "operatorId",
          "type": "bytes32",
          "internalType": "bytes32"
        },
        {
          "name": "quorumNumber",
          "type": "uint8",
          "internalType": "uint8"
        }
      ],
      "outputs": [
        {
          "name": "",
          "type": "tuple",
          "internalType": "struct IStakeRegistry.StakeUpdate",
          "components": [
            {
              "name": "updateBlockNumber",
              "type": "uint32",
              "internalType": "uint32"
            },
            {
              "name": "nextUpdateBlockNumber",
              "type": "uint32",
              "internalType": "uint32"
            },
            {
              "name": "stake",
              "type": "uint96",
              "internalType": "uint96"
            }
          ]
        }
      ],
      "stateMutability": "view"
    },
    {
      "type": "function",
      "name": "getStakeAtBlockNumber",
      "inputs": [
        {
          "name": "operatorId",
          "type": "bytes32",
          "internalType": "bytes32"
        },
        {
          "name": "quorumNumber",
          "type": "uint8",
          "internalType": "uint8"
        },
        {
          "name": "blockNumber",
          "type": "uint32",
          "internalType": "uint32"
        }
      ],
      "outputs": [
        {
          "name": "",
          "type": "uint96",
          "internalType": "uint96"
        }
      ],
      "stateMutability": "view"
    },
    {
      "type": "function",
      "name": "getStakeAtBlockNumberAndIndex",
      "inputs": [
        {
          "name": "quorumNumber",
          "type": "uint8",
          "internalType": "uint8"
        },
        {
          "name": "blockNumber",
          "type": "uint32",
          "internalType": "uint32"
        },
        {
          "name": "operatorId",
          "type": "bytes32",
          "internalType": "bytes32"
        },
        {
          "name": "index",
          "type": "uint256",
          "internalType": "uint256"
        }
      ],
      "outputs": [
        {
          "name": "",
          "type": "uint96",
          "internalType": "uint96"
        }
      ],
      "stateMutability": "view"
    },
    {
      "type": "function",
      "name": "getStakeHistory",
      "inputs": [
        {
          "name": "operatorId",
          "type": "bytes32",
          "internalType": "bytes32"
        },
        {
          "name": "quorumNumber",
          "type": "uint8",
          "internalType": "uint8"
        }
      ],
      "outputs": [
        {
          "name": "",
          "type": "tuple[]",
          "internalType": "struct IStakeRegistry.StakeUpdate[]",
          "components": [
            {
              "name": "updateBlockNumber",
              "type": "uint32",
              "internalType": "uint32"
            },
            {
              "name": "nextUpdateBlockNumber",
              "type": "uint32",
              "internalType": "uint32"
            },
            {
              "name": "stake",
              "type": "uint96",
              "internalType": "uint96"
            }
          ]
        }
      ],
      "stateMutability": "view"
    },
    {
      "type": "function",
      "name": "getStakeHistoryLength",
      "inputs": [
        {
          "name": "operatorId",
          "type": "bytes32",
          "internalType": "bytes32"
        },
        {
          "name": "quorumNumber",
          "type": "uint8",
          "internalType": "uint8"
        }
      ],
      "outputs": [
        {
          "name": "",
          "type": "uint256",
          "internalType": "uint256"
        }
      ],
      "stateMutability": "view"
    },
    {
      "type": "function",
      "name": "getStakeUpdateAtIndex",
      "inputs": [
        {
          "name": "quorumNumber",
          "type": "uint8",
          "internalType": "uint8"
        },
        {
          "name": "operatorId",
          "type": "bytes32",
          "internalType": "bytes32"
        },
        {
          "name": "index",
          "type": "uint256",
          "internalType": "uint256"
        }
      ],
      "outputs": [
        {
          "name": "",
          "type": "tuple",
          "internalType": "struct IStakeRegistry.StakeUpdate",
          "components": [
            {
              "name": "updateBlockNumber",
              "type": "uint32",
              "internalType": "uint32"
            },
            {
              "name": "nextUpdateBlockNumber",
              "type": "uint32",
              "internalType": "uint32"
            },
            {
              "name": "stake",
              "type": "uint96",
              "internalType": "uint96"
            }
          ]
        }
      ],
      "stateMutability": "view"
    },
    {
      "type": "function",
      "name": "getStakeUpdateIndexAtBlockNumber",
      "inputs": [
        {
          "name": "operatorId",
          "type": "bytes32",
          "internalType": "bytes32"
        },
        {
          "name": "quorumNumber",
          "type": "uint8",
          "internalType": "uint8"
        },
        {
          "name": "blockNumber",
          "type": "uint32",
          "internalType": "uint32"
        }
      ],
      "outputs": [
        {
          "name": "",
          "type": "uint32",
          "internalType": "uint32"
        }
      ],
      "stateMutability": "view"
    },
    {
      "type": "function",
      "name": "getTotalStakeAtBlockNumberFromIndex",
      "inputs": [
        {
          "name": "quorumNumber",
          "type": "uint8",
          "internalType": "uint8"
        },
        {
          "name": "blockNumber",
          "type": "uint32",
          "internalType": "uint32"
        },
        {
          "name": "index",
          "type": "uint256",
          "internalType": "uint256"
        }
      ],
      "outputs": [
        {
          "name": "",
          "type": "uint96",
          "internalType": "uint96"
        }
      ],
      "stateMutability": "view"
    },
    {
      "type": "function",
      "name": "getTotalStakeHistoryLength",
      "inputs": [
        {
          "name": "quorumNumber",
          "type": "uint8",
          "internalType": "uint8"
        }
      ],
      "outputs": [
        {
          "name": "",
          "type": "uint256",
          "internalType": "uint256"
        }
      ],
      "stateMutability": "view"
    },
    {
      "type": "function",
      "name": "getTotalStakeIndicesAtBlockNumber",
      "inputs": [
        {
          "name": "blockNumber",
          "type": "uint32",
          "internalType": "uint32"
        },
        {
          "name": "quorumNumbers",
          "type": "bytes",
          "internalType": "bytes"
        }
      ],
      "outputs": [
        {
          "name": "",
          "type": "uint32[]",
          "internalType": "uint32[]"
        }
      ],
      "stateMutability": "view"
    },
    {
      "type": "function",
      "name": "getTotalStakeUpdateAtIndex",
      "inputs": [
        {
          "name": "quorumNumber",
          "type": "uint8",
          "internalType": "uint8"
        },
        {
          "name": "index",
          "type": "uint256",
          "internalType": "uint256"
        }
      ],
      "outputs": [
        {
          "name": "",
          "type": "tuple",
          "internalType": "struct IStakeRegistry.StakeUpdate",
          "components": [
            {
              "name": "updateBlockNumber",
              "type": "uint32",
              "internalType": "uint32"
            },
            {
              "name": "nextUpdateBlockNumber",
              "type": "uint32",
              "internalType": "uint32"
            },
            {
              "name": "stake",
              "type": "uint96",
              "internalType": "uint96"
            }
          ]
        }
      ],
      "stateMutability": "view"
    },
    {
      "type": "function",
      "name": "initializeQuorum",
      "inputs": [
        {
          "name": "quorumNumber",
          "type": "uint8",
          "internalType": "uint8"
        },
        {
          "name": "minimumStake",
          "type": "uint96",
          "internalType": "uint96"
        },
        {
          "name": "_strategyParams",
          "type": "tuple[]",
          "internalType": "struct IStakeRegistry.StrategyParams[]",
          "components": [
            {
              "name": "strategy",
              "type": "address",
              "internalType": "contract IStrategy"
            },
            {
              "name": "multiplier",
              "type": "uint96",
              "internalType": "uint96"
            }
          ]
        }
      ],
      "outputs": [],
      "stateMutability": "nonpayable"
    },
    {
      "type": "function",
      "name": "minimumStakeForQuorum",
      "inputs": [
        {
          "name": "",
          "type": "uint8",
          "internalType": "uint8"
        }
      ],
      "outputs": [
        {
          "name": "",
          "type": "uint96",
          "internalType": "uint96"
        }
      ],
      "stateMutability": "view"
    },
    {
      "type": "function",
      "name": "modifyStrategyParams",
      "inputs": [
        {
          "name": "quorumNumber",
          "type": "uint8",
          "internalType": "uint8"
        },
        {
          "name": "strategyIndices",
          "type": "uint256[]",
          "internalType": "uint256[]"
        },
        {
          "name": "newMultipliers",
          "type": "uint96[]",
          "internalType": "uint96[]"
        }
      ],
      "outputs": [],
      "stateMutability": "nonpayable"
    },
    {
      "type": "function",
      "name": "registerOperator",
      "inputs": [
        {
          "name": "operator",
          "type": "address",
          "internalType": "address"
        },
        {
          "name": "operatorId",
          "type": "bytes32",
          "internalType": "bytes32"
        },
        {
          "name": "quorumNumbers",
          "type": "bytes",
          "internalType": "bytes"
        }
      ],
      "outputs": [
        {
          "name": "",
          "type": "uint96[]",
          "internalType": "uint96[]"
        },
        {
          "name": "",
          "type": "uint96[]",
          "internalType": "uint96[]"
        }
      ],
      "stateMutability": "nonpayable"
    },
    {
      "type": "function",
      "name": "registryCoordinator",
      "inputs": [],
      "outputs": [
        {
          "name": "",
          "type": "address",
          "internalType": "address"
        }
      ],
      "stateMutability": "view"
    },
    {
      "type": "function",
      "name": "removeStrategies",
      "inputs": [
        {
          "name": "quorumNumber",
          "type": "uint8",
          "internalType": "uint8"
        },
        {
          "name": "indicesToRemove",
          "type": "uint256[]",
          "internalType": "uint256[]"
        }
      ],
      "outputs": [],
      "stateMutability": "nonpayable"
    },
    {
      "type": "function",
      "name": "setMinimumStakeForQuorum",
      "inputs": [
        {
          "name": "quorumNumber",
          "type": "uint8",
          "internalType": "uint8"
        },
        {
          "name": "minimumStake",
          "type": "uint96",
          "internalType": "uint96"
        }
      ],
      "outputs": [],
      "stateMutability": "nonpayable"
    },
    {
      "type": "function",
      "name": "strategiesPerQuorum",
      "inputs": [
        {
          "name": "",
          "type": "uint8",
          "internalType": "uint8"
        },
        {
          "name": "",
          "type": "uint256",
          "internalType": "uint256"
        }
      ],
      "outputs": [
        {
          "name": "",
          "type": "address",
          "internalType": "contract IStrategy"
        }
      ],
      "stateMutability": "view"
    },
    {
      "type": "function",
      "name": "strategyParams",
      "inputs": [
        {
          "name": "",
          "type": "uint8",
          "internalType": "uint8"
        },
        {
          "name": "",
          "type": "uint256",
          "internalType": "uint256"
        }
      ],
      "outputs": [
        {
          "name": "strategy",
          "type": "address",
          "internalType": "contract IStrategy"
        },
        {
          "name": "multiplier",
          "type": "uint96",
          "internalType": "uint96"
        }
      ],
      "stateMutability": "view"
    },
    {
      "type": "function",
      "name": "strategyParamsByIndex",
      "inputs": [
        {
          "name": "quorumNumber",
          "type": "uint8",
          "internalType": "uint8"
        },
        {
          "name": "index",
          "type": "uint256",
          "internalType": "uint256"
        }
      ],
      "outputs": [
        {
          "name": "",
          "type": "tuple",
          "internalType": "struct IStakeRegistry.StrategyParams",
          "components": [
            {
              "name": "strategy",
              "type": "address",
              "internalType": "contract IStrategy"
            },
            {
              "name": "multiplier",
              "type": "uint96",
              "internalType": "uint96"
            }
          ]
        }
      ],
      "stateMutability": "view"
    },
    {
      "type": "function",
      "name": "strategyParamsLength",
      "inputs": [
        {
          "name": "quorumNumber",
          "type": "uint8",
          "internalType": "uint8"
        }
      ],
      "outputs": [
        {
          "name": "",
          "type": "uint256",
          "internalType": "uint256"
        }
      ],
      "stateMutability": "view"
    },
    {
      "type": "function",
      "name": "updateOperatorStake",
      "inputs": [
        {
          "name": "operator",
          "type": "address",
          "internalType": "address"
        },
        {
          "name": "operatorId",
          "type": "bytes32",
          "internalType": "bytes32"
        },
        {
          "name": "quorumNumbers",
          "type": "bytes",
          "internalType": "bytes"
        }
      ],
      "outputs": [
        {
          "name": "",
          "type": "uint192",
          "internalType": "uint192"
        }
      ],
      "stateMutability": "nonpayable"
    },
    {
      "type": "function",
      "name": "weightOfOperatorForQuorum",
      "inputs": [
        {
          "name": "quorumNumber",
          "type": "uint8",
          "internalType": "uint8"
        },
        {
          "name": "operator",
          "type": "address",
          "internalType": "address"
        }
      ],
      "outputs": [
        {
          "name": "",
          "type": "uint96",
          "internalType": "uint96"
        }
      ],
      "stateMutability": "view"
    },
    {
      "type": "event",
      "name": "MinimumStakeForQuorumUpdated",
      "inputs": [
        {
          "name": "quorumNumber",
          "type": "uint8",
          "indexed": true,
          "internalType": "uint8"
        },
        {
          "name": "minimumStake",
          "type": "uint96",
          "indexed": false,
          "internalType": "uint96"
        }
      ],
      "anonymous": false
    },
    {
      "type": "event",
      "name": "OperatorStakeUpdate",
      "inputs": [
        {
          "name": "operatorId",
          "type": "bytes32",
          "indexed": true,
          "internalType": "bytes32"
        },
        {
          "name": "quorumNumber",
          "type": "uint8",
          "indexed": false,
          "internalType": "uint8"
        },
        {
          "name": "stake",
          "type": "uint96",
          "indexed": false,
          "internalType": "uint96"
        }
      ],
      "anonymous": false
    },
    {
      "type": "event",
      "name": "QuorumCreated",
      "inputs": [
        {
          "name": "quorumNumber",
          "type": "uint8",
          "indexed": true,
          "internalType": "uint8"
        }
      ],
      "anonymous": false
    },
    {
      "type": "event",
      "name": "StrategyAddedToQuorum",
      "inputs": [
        {
          "name": "quorumNumber",
          "type": "uint8",
          "indexed": true,
          "internalType": "uint8"
        },
        {
          "name": "strategy",
          "type": "address",
          "indexed": false,
          "internalType": "contract IStrategy"
        }
      ],
      "anonymous": false
    },
    {
      "type": "event",
      "name": "StrategyMultiplierUpdated",
      "inputs": [
        {
          "name": "quorumNumber",
          "type": "uint8",
          "indexed": true,
          "internalType": "uint8"
        },
        {
          "name": "strategy",
          "type": "address",
          "indexed": false,
          "internalType": "contract IStrategy"
        },
        {
          "name": "multiplier",
          "type": "uint256",
          "indexed": false,
          "internalType": "uint256"
        }
      ],
      "anonymous": false
    },
    {
      "type": "event",
      "name": "StrategyRemovedFromQuorum",
      "inputs": [
        {
          "name": "quorumNumber",
          "type": "uint8",
          "indexed": true,
          "internalType": "uint8"
        },
        {
          "name": "strategy",
          "type": "address",
          "indexed": false,
          "internalType": "contract IStrategy"
        }
      ],
      "anonymous": false
    }
  ],
  "bytecode": {
    "object": "0x60c060405234801561000f575f5ffd5b5060405161320f38038061320f83398101604081905261002e9161005c565b6001600160a01b0391821660a05216608052610094565b6001600160a01b0381168114610059575f5ffd5b50565b5f5f6040838503121561006d575f5ffd5b825161007881610045565b602084015190925061008981610045565b809150509250929050565b60805160a0516131456100ca5f395f818161036d015281816119980152611ac801525f818161051b015261180b01526131455ff3fe608060405234801561000f575f5ffd5b50600436106101dc575f3560e01c80639f3ccf6511610109578063c8294c561161009e578063f2be94ae1161006e578063f2be94ae1461053d578063f851e19814610550578063fa28c62714610563578063ff694a7714610576575f5ffd5b8063c8294c56146104c8578063d5eccc05146104db578063dd9846b9146104ee578063df5cf72314610516575f5ffd5b8063bc9a40c3116100d9578063bc9a40c314610467578063bd29b8cd1461047a578063c46778a51461048d578063c601527d146104b5575f5ffd5b80639f3ccf65146103e1578063ac6bfb03146103f4578063adc804da14610414578063b6904b7814610454575f5ffd5b80634bd26e091161017f57806366acfefe1161014f57806366acfefe1461033d5780636d14a987146103685780637c172347146103a757806381c07502146103c1575f5ffd5b80634bd26e09146102d95780635401ed27146103085780635e5a67751461031b5780635f1f2d771461032a575f5ffd5b806320b66298116101ba57806320b662981461026157806325504777146102765780632cd95940146102975780633ca5a5f5146102b7575f5ffd5b80630491b41c146101e057806308732461146102155780631f9b74e014610236575b5f5ffd5b6102026101ee366004612714565b60ff165f9081526001602052604090205490565b6040519081526020015b60405180910390f35b61022861022336600461272d565b610589565b60405161020c929190612755565b61024961024436600461278b565b6105ce565b6040516001600160601b03909116815260200161020c565b61027461026f366004612800565b6105f0565b005b6102896102843660046128bb565b61083f565b60405161020c929190612955565b6102aa6102a5366004612979565b610a42565b60405161020c91906129a3565b6102026102c5366004612714565b60ff165f9081526003602052604090205490565b6102026102e7366004612979565b5f91825260026020908152604080842060ff93909316845291905290205490565b610249610316366004612979565b610adf565b610202670de0b6b3a764000081565b610274610338366004612aaa565b610af7565b61035061034b3660046128bb565b610e25565b6040516001600160c01b03909116815260200161020c565b61038f7f000000000000000000000000000000000000000000000000000000000000000081565b6040516001600160a01b03909116815260200161020c565b6103af602081565b60405160ff909116815260200161020c565b6103d46103cf366004612b65565b610ec1565b60405161020c9190612bb3565b61038f6103ef36600461272d565b6110e4565b610407610402366004612bf0565b611118565b60405161020c9190612c20565b61042761042236600461272d565b6111ae565b6040805182516001600160a01b031681526020928301516001600160601b0316928101929092520161020c565b61040761046236600461272d565b611225565b610274610475366004612c70565b6112b2565b610274610488366004612c98565b6112d3565b61024961049b366004612714565b5f602081905290815260409020546001600160601b031681565b6102746104c3366004612d5b565b611336565b6102496104d6366004612da5565b611352565b6102496104e9366004612714565b6113ce565b6105016104fc366004612ddf565b61141f565b60405163ffffffff909116815260200161020c565b61038f7f000000000000000000000000000000000000000000000000000000000000000081565b61024961054b366004612e18565b611433565b61040761055e366004612979565b6114c6565b610249610571366004612ddf565b6115ac565b610274610584366004612e57565b61160b565b6003602052815f5260405f2081815481106105a2575f80fd5b5f918252602090912001546001600160a01b0381169250600160a01b90046001600160601b0316905082565b5f826105d981611734565b5f6105e485856117af565b509250505b5092915050565b6105f8611996565b8461060281611734565b838061067d576040805162461bcd60e51b81526020600482015260248101919091527f5374616b6552656769737472792e6d6f6469667953747261746567795061726160448201527f6d733a206e6f20737472617465677920696e64696365732070726f766964656460648201526084015b60405180910390fd5b8281146106f25760405162461bcd60e51b815260206004820152603960248201527f5374616b6552656769737472792e6d6f6469667953747261746567795061726160448201527f6d733a20696e707574206c656e677468206d69736d61746368000000000000006064820152608401610674565b60ff87165f908152600360205260408120905b828110156108345785858281811061071f5761071f612eb0565b90506020020160208101906107349190612ec4565b8289898481811061074757610747612eb0565b905060200201358154811061075e5761075e612eb0565b905f5260205f20015f0160146101000a8154816001600160601b0302191690836001600160601b031602179055508860ff167f11a5641322da1dff56a4b66eaac31ffa465295ece907cd163437793b4d009a75838a8a858181106107c4576107c4612eb0565b90506020020135815481106107db576107db612eb0565b5f918252602090912001546001600160a01b031688888581811061080157610801612eb0565b90506020020160208101906108169190612ec4565b604051610824929190612755565b60405180910390a2600101610705565b505050505050505050565b60608061084a611abd565b5f836001600160401b0381111561086357610863612a1c565b60405190808252806020026020018201604052801561088c578160200160208202803683370190505b5090505f846001600160401b038111156108a8576108a8612a1c565b6040519080825280602002602001820160405280156108d1578160200160208202803683370190505b5090505f5b85811015610a34575f8787838181106108f1576108f1612eb0565b919091013560f81c9150610906905081611734565b5f5f610912838d6117af565b91509150806109af5760405162461bcd60e51b815260206004820152605b60248201527f5374616b6552656769737472792e72656769737465724f70657261746f723a2060448201527f4f70657261746f7220646f6573206e6f74206d656574206d696e696d756d207360648201527f74616b6520726571756972656d656e7420666f722071756f72756d0000000000608482015260a401610674565b5f6109bb8c8585611b70565b9050828786815181106109d0576109d0612eb0565b60200260200101906001600160601b031690816001600160601b0316815250506109fa8482611de9565b868681518110610a0c57610a0c612eb0565b6001600160601b03909216602092830291909101909101525050600190920191506108d69050565b509097909650945050505050565b5f82815260026020908152604080832060ff851684528252808320805482518185028101850190935280835260609492939192909184015b82821015610ad2575f848152602090819020604080516060810182529185015463ffffffff8082168452600160201b82041683850152600160401b90046001600160601b031690820152825260019092019101610a7a565b5050505090505b92915050565b5f5f610aeb84846114c6565b60400151949350505050565b610aff611996565b81610b0981611734565b815180610b7e5760405162461bcd60e51b815260206004820152603d60248201527f5374616b6552656769737472792e72656d6f7665537472617465676965733a2060448201527f6e6f20696e646963657320746f2072656d6f76652070726f76696465640000006064820152608401610674565b60ff84165f9081526003602090815260408083206004909252822090915b83811015610e1c578660ff167f31fa2e2cd280c9375e13ffcf3d81e2378100186e4058f8d3ddb690b82dcd31f784888481518110610bdc57610bdc612eb0565b602002602001015181548110610bf457610bf4612eb0565b5f91825260209182902001546040516001600160a01b0390911681520160405180910390a28660ff167f11a5641322da1dff56a4b66eaac31ffa465295ece907cd163437793b4d009a7584888481518110610c5157610c51612eb0565b602002602001015181548110610c6957610c69612eb0565b5f91825260208083209190910154604080516001600160a01b039092168252918101929092520160405180910390a282548390610ca890600190612ef1565b81548110610cb857610cb8612eb0565b905f5260205f200183878381518110610cd357610cd3612eb0565b602002602001015181548110610ceb57610ceb612eb0565b5f91825260209091208254910180546001600160a01b0319166001600160a01b03909216918217815591546001600160601b03600160a01b9182900416021790558254839080610d3d57610d3d612f04565b5f8281526020812082015f199081019190915501905581548290610d6390600190612ef1565b81548110610d7357610d73612eb0565b905f5260205f20015f9054906101000a90046001600160a01b031682878381518110610da157610da1612eb0565b602002602001015181548110610db957610db9612eb0565b905f5260205f20015f6101000a8154816001600160a01b0302191690836001600160a01b0316021790555081805480610df457610df4612f04565b5f8281526020902081015f1990810180546001600160a01b0319169055019055600101610b9c565b50505050505050565b5f610e2e611abd565b5f805b83811015610eb7575f858583818110610e4c57610e4c612eb0565b919091013560f81c9150610e61905081611734565b5f5f610e6d838b6117af565b9150915080610e8e575f9150600160ff84161b6001600160c01b0386161794505b5f610e9a8a8585611b70565b9050610ea68482611de9565b505060019093019250610e31915050565b5095945050505050565b60605f826001600160401b03811115610edc57610edc612a1c565b604051908082528060200260200182016040528015610f05578160200160208202803683370190505b5090505f5b838110156110d9575f858583818110610f2557610f25612eb0565b919091013560f81c9150610f3a905081611734565b60ff81165f908152600160205260408120805463ffffffff8a169290610f6257610f62612eb0565b5f9182526020909120015463ffffffff16111561100d5760405162461bcd60e51b815260206004820152605b60248201527f5374616b6552656769737472792e676574546f74616c5374616b65496e64696360448201527f65734174426c6f636b4e756d6265723a2071756f72756d20686173206e6f207360648201527f74616b6520686973746f727920617420626c6f636b4e756d6265720000000000608482015260a401610674565b60ff81165f90815260016020526040812054905b818110156110ce5760ff83165f90815260016020819052604090912063ffffffff8b169161104f8486612ef1565b6110599190612ef1565b8154811061106957611069612eb0565b5f9182526020909120015463ffffffff16116110c657600161108b8284612ef1565b6110959190612ef1565b8585815181106110a7576110a7612eb0565b602002602001019063ffffffff16908163ffffffff16815250506110ce565b600101611021565b505050600101610f0a565b5090505b9392505050565b6004602052815f5260405f2081815481106110fd575f80fd5b5f918252602090912001546001600160a01b03169150829050565b604080516060810182525f80825260208083018290528284018290528582526002815283822060ff8816835290529190912080548390811061115c5761115c612eb0565b5f91825260209182902060408051606081018252929091015463ffffffff8082168452600160201b82041693830193909352600160401b9092046001600160601b031691810191909152949350505050565b604080518082019091525f808252602082015260ff83165f9081526003602052604090208054839081106111e4576111e4612eb0565b5f918252602091829020604080518082019091529101546001600160a01b0381168252600160a01b90046001600160601b0316918101919091529392505050565b604080516060810182525f808252602080830182905282840182905260ff86168252600190529190912080548390811061126157611261612eb0565b5f91825260209182902060408051606081018252929091015463ffffffff8082168452600160201b82041693830193909352600160401b9092046001600160601b0316918101919091529392505050565b6112ba611996565b816112c481611734565b6112ce8383611f5a565b505050565b6112db611abd565b5f5b81811015611330575f8383838181106112f8576112f8612eb0565b919091013560f81c915061130d905081611734565b5f61131986835f611b70565b90506113258282611de9565b5050506001016112dd565b50505050565b61133e611996565b8161134881611734565b6112ce8383611fc2565b60ff83165f90815260016020526040812080548291908490811061137857611378612eb0565b5f91825260209182902060408051606081018252919092015463ffffffff8082168352600160201b820416938201939093526001600160601b03600160401b90930492909216908201529050610aeb81856123df565b60ff81165f9081526001602081905260408220805490916113ee91612ef1565b815481106113fe576113fe612eb0565b5f91825260209091200154600160401b90046001600160601b031692915050565b5f61142b848484612558565b949350505050565b5f82815260026020908152604080832060ff88168452909152812080548291908490811061146357611463612eb0565b5f91825260209182902060408051606081018252919092015463ffffffff8082168352600160201b820416938201939093526001600160601b03600160401b909304929092169082015290506114b981866123df565b6040015195945050505050565b60408051606080820183525f80835260208084018290528385018290528682526002815284822060ff8716835281528482205485519384018652828452908301829052938201819052919291829003611522579150610ad99050565b5f85815260026020908152604080832060ff881684529091529020611548600184612ef1565b8154811061155857611558612eb0565b5f91825260209182902060408051606081018252919092015463ffffffff8082168352600160201b820416938201939093526001600160601b03600160401b90930492909216908201529250610ad9915050565b5f83815260026020908152604080832060ff8616845290915281206115d2858585612558565b63ffffffff16815481106115e8576115e8612eb0565b5f91825260209091200154600160401b90046001600160601b0316949350505050565b611613611abd565b60ff83165f90815260016020526040902054156116905760405162461bcd60e51b815260206004820152603560248201527f5374616b6552656769737472792e696e697469616c697a6551756f72756d3a2060448201527471756f72756d20616c72656164792065786973747360581b6064820152608401610674565b61169a8382611fc2565b6116a48383611f5a565b505060ff165f908152600160208181526040808420815160608101835263ffffffff438116825281850187815293820187815283549687018455928752939095209451949093018054915193516001600160601b0316600160401b02600160401b600160a01b0319948416600160201b0267ffffffffffffffff1990931695909316949094171791909116179055565b60ff81165f908152600160205260409020546117ac5760405162461bcd60e51b815260206004820152603160248201527f5374616b6552656769737472792e71756f72756d4578697374733a2071756f726044820152701d5b48191bd95cc81b9bdd08195e1a5cdd607a1b6064820152608401610674565b50565b5f5f5f5f6117cb8660ff165f9081526003602052604090205490565b604080518082019091525f808252602082015290915060ff87165f9081526004602081905260408083209051639004134760e01b81526001600160a01b037f0000000000000000000000000000000000000000000000000000000000000000169263900413479261183e928c9201612f18565b5f60405180830381865afa158015611858573d5f5f3e3d5ffd5b505050506040513d5f823e601f3d908101601f1916820160405261187f9190810190612f79565b90505f5b838110156119635760ff89165f9081526003602052604090208054829081106118ae576118ae612eb0565b5f9182526020808320604080518082019091529201546001600160a01b0381168352600160a01b90046001600160601b03169082015283519094508390839081106118fb576118fb612eb0565b6020026020010151111561195b57670de0b6b3a764000083602001516001600160601b031683838151811061193257611932612eb0565b60200260200101516119449190612fff565b61194e9190613016565b6119589086613035565b94505b600101611883565b50505060ff86165f90815260208190526040902054919350506001600160601b03908116908316101590505b9250929050565b7f00000000000000000000000000000000000000000000000000000000000000006001600160a01b0316638da5cb5b6040518163ffffffff1660e01b8152600401602060405180830381865afa1580156119f2573d5f5f3e3d5ffd5b505050506040513d601f19601f82011682018060405250810190611a169190613054565b6001600160a01b0316336001600160a01b031614611abb5760405162461bcd60e51b815260206004820152605660248201527f5374616b6552656769737472792e6f6e6c79436f6f7264696e61746f724f776e60448201527f65723a2063616c6c6572206973206e6f7420746865206f776e6572206f6620746064820152753432903932b3b4b9ba393ca1b7b7b93234b730ba37b960511b608482015260a401610674565b565b336001600160a01b037f00000000000000000000000000000000000000000000000000000000000000001614611abb5760405162461bcd60e51b815260206004820152604c60248201527f5374616b6552656769737472792e6f6e6c795265676973747279436f6f72646960448201527f6e61746f723a2063616c6c6572206973206e6f7420746865205265676973747260648201526b3ca1b7b7b93234b730ba37b960a11b608482015260a401610674565b5f83815260026020908152604080832060ff861684529091528120548190808203611c34575f86815260026020908152604080832060ff891684528252808320815160608101835263ffffffff43811682528185018681526001600160601b03808c16958401958652845460018101865594885295909620915191909201805495519351909416600160401b02600160401b600160a01b0319938316600160201b0267ffffffffffffffff1990961691909216179390931716919091179055611d8f565b5f86815260026020908152604080832060ff891684529091528120611c5a600184612ef1565b81548110611c6a57611c6a612eb0565b5f91825260209091200180546001600160601b03600160401b9091048116945090915085168303611ca0575f93505050506110dd565b805463ffffffff438116911603611cd8578054600160401b600160a01b031916600160401b6001600160601b03871602178155611d8d565b805467ffffffff000000001916600160201b4363ffffffff9081168281029390931784555f8a815260026020908152604080832060ff8d168452825280832081516060810183529687528683018481526001600160601b038d81169389019384528254600181018455928652939094209651960180549351915196851667ffffffffffffffff1990941693909317931690930291909117600160401b600160a01b031916600160401b93909216929092021790555b505b6040805160ff871681526001600160601b038616602082015287917f2f527d527e95d8fe40aec55377743bb779087da3f6d0d08f12e36444da62327d910160405180910390a2611ddf82856126bb565b9695505050505050565b60ff82165f9081526001602081905260408220805491839190611e0c9084612ef1565b81548110611e1c57611e1c612eb0565b905f5260205f20019050835f03611e475754600160401b90046001600160601b03169150610ad99050565b80545f90611e6590600160401b90046001600160601b0316866126d2565b825490915063ffffffff438116911603611ea0578154600160401b600160a01b031916600160401b6001600160601b03831602178255611f51565b815463ffffffff438116600160201b81810267ffffffff000000001990941693909317855560ff89165f90815260016020818152604080842081516060810183529586528583018581526001600160601b03808b169388019384528254958601835591865292909420945194909201805491519251909316600160401b02600160401b600160a01b031992861690960267ffffffffffffffff19909116939094169290921792909217169190911790555b95945050505050565b60ff82165f818152602081815260409182902080546bffffffffffffffffffffffff19166001600160601b03861690811790915591519182527f26eecff2b70b0a71104ff4d940ba7162d23a95c248771fc487a7be17a596b3cf910160405180910390a25050565b5f8151116120255760405162461bcd60e51b815260206004820152603860248201525f5160206130f05f395f51905f5260448201527f3a206e6f20737472617465676965732070726f766964656400000000000000006064820152608401610674565b805160ff83165f9081526003602090815260409091205490612047838361306f565b11156120b65760405162461bcd60e51b815260206004820152604560248201525f5160206130f05f395f51905f5260448201527f3a20657863656564204d41585f5745494748494e475f46554e4354494f4e5f4c60648201526408a9c8ea8960db1b608482015260a401610674565b5f5b828110156123d8575f5b6120cc828461306f565b81101561219d578482815181106120e5576120e5612eb0565b60200260200101515f01516001600160a01b031660035f8860ff1660ff1681526020019081526020015f20828154811061212157612121612eb0565b5f918252602090912001546001600160a01b0316036121955760405162461bcd60e51b815260206004820152603d60248201525f5160206130f05f395f51905f5260448201527f3a2063616e6e6f74206164642073616d652073747261746567792032780000006064820152608401610674565b6001016120c2565b505f8482815181106121b1576121b1612eb0565b6020026020010151602001516001600160601b0316116122355760405162461bcd60e51b815260206004820152604660248201525f5160206130f05f395f51905f5260448201527f3a2063616e6e6f74206164642073747261746567792077697468207a65726f206064820152651dd95a59da1d60d21b608482015260a401610674565b60ff85165f908152600360205260409020845185908390811061225a5761225a612eb0565b60209081029190910181015182546001810184555f9384528284208251928401516001600160601b0316600160a01b026001600160a01b039093169290921791015560ff87168252600490526040902084518590839081106122be576122be612eb0565b6020908102919091018101515182546001810184555f938452919092200180546001600160a01b0319166001600160a01b03909216919091179055835160ff8616907f10565e56cacbf32eca267945f054fec02e59750032d113d3302182ad967f54049086908490811061233457612334612eb0565b602090810291909101810151516040516001600160a01b0390911681520160405180910390a28460ff167f11a5641322da1dff56a4b66eaac31ffa465295ece907cd163437793b4d009a7585838151811061239157612391612eb0565b60200260200101515f01518684815181106123ae576123ae612eb0565b6020026020010151602001516040516123c8929190612755565b60405180910390a26001016120b8565b5050505050565b815f015163ffffffff168163ffffffff1610156124835760405162461bcd60e51b815260206004820152605660248201527f5374616b6552656769737472792e5f76616c69646174655374616b655570646160448201527f74654174426c6f636b4e756d6265723a207374616b6555706461746520697320606482015275333937b69030b33a32b910313637b1b5a73ab6b132b960511b608482015260a401610674565b602082015163ffffffff1615806124a95750816020015163ffffffff168163ffffffff16105b6125545760405162461bcd60e51b815260206004820152606a60248201527f5374616b6552656769737472792e5f76616c69646174655374616b655570646160448201527f74654174426c6f636b4e756d6265723a2074686572652069732061206e65776560648201527f72207374616b6555706461746520617661696c61626c65206265666f726520626084820152693637b1b5a73ab6b132b960b11b60a482015260c401610674565b5050565b5f83815260026020908152604080832060ff86168452909152812054805b80156125f6575f86815260026020908152604080832060ff89168452909152902063ffffffff8516906125aa600184612ef1565b815481106125ba576125ba612eb0565b5f9182526020909120015463ffffffff16116125e4576125db600182612ef1565b925050506110dd565b806125ee81613082565b915050612576565b5060405162461bcd60e51b815260206004820152608160248201527f5374616b6552656769737472792e5f6765745374616b65557064617465496e6460448201527f6578466f724f70657261746f724174426c6f636b4e756d6265723a206e6f207360648201527f74616b652075706461746520666f756e6420666f72206f70657261746f72496460848201527f20616e642071756f72756d4e756d62657220617420626c6f636b206e756d626560a4820152603960f91b60c482015260e401610674565b5f6110dd6001600160601b03808516908416613097565b5f5f8212156126f5576126e4826130b6565b6126ee90846130d0565b9050610ad9565b6126ee8284613035565b803560ff8116811461270f575f5ffd5b919050565b5f60208284031215612724575f5ffd5b6110dd826126ff565b5f5f6040838503121561273e575f5ffd5b612747836126ff565b946020939093013593505050565b6001600160a01b039290921682526001600160601b0316602082015260400190565b6001600160a01b03811681146117ac575f5ffd5b5f5f6040838503121561279c575f5ffd5b6127a5836126ff565b915060208301356127b581612777565b809150509250929050565b5f5f83601f8401126127d0575f5ffd5b5081356001600160401b038111156127e6575f5ffd5b6020830191508360208260051b850101111561198f575f5ffd5b5f5f5f5f5f60608688031215612814575f5ffd5b61281d866126ff565b945060208601356001600160401b03811115612837575f5ffd5b612843888289016127c0565b90955093505060408601356001600160401b03811115612861575f5ffd5b61286d888289016127c0565b969995985093965092949392505050565b5f5f83601f84011261288e575f5ffd5b5081356001600160401b038111156128a4575f5ffd5b60208301915083602082850101111561198f575f5ffd5b5f5f5f5f606085870312156128ce575f5ffd5b84356128d981612777565b93506020850135925060408501356001600160401b038111156128fa575f5ffd5b6129068782880161287e565b95989497509550505050565b5f8151808452602084019350602083015f5b8281101561294b5781516001600160601b0316865260209586019590910190600101612924565b5093949350505050565b604081525f6129676040830185612912565b8281036020840152611f518185612912565b5f5f6040838503121561298a575f5ffd5b8235915061299a602084016126ff565b90509250929050565b602080825282518282018190525f918401906040840190835b81811015612a11576129fb83855163ffffffff815116825263ffffffff60208201511660208301526001600160601b0360408201511660408301525050565b60209390930192606092909201916001016129bc565b509095945050505050565b634e487b7160e01b5f52604160045260245ffd5b604080519081016001600160401b0381118282101715612a5257612a52612a1c565b60405290565b604051601f8201601f191681016001600160401b0381118282101715612a8057612a80612a1c565b604052919050565b5f6001600160401b03821115612aa057612aa0612a1c565b5060051b60200190565b5f5f60408385031215612abb575f5ffd5b612ac4836126ff565b915060208301356001600160401b03811115612ade575f5ffd5b8301601f81018513612aee575f5ffd5b8035612b01612afc82612a88565b612a58565b8082825260208201915060208360051b850101925087831115612b22575f5ffd5b6020840193505b82841015612b44578335825260209384019390910190612b29565b809450505050509250929050565b803563ffffffff8116811461270f575f5ffd5b5f5f5f60408486031215612b77575f5ffd5b612b8084612b52565b925060208401356001600160401b03811115612b9a575f5ffd5b612ba68682870161287e565b9497909650939450505050565b602080825282518282018190525f918401906040840190835b81811015612a1157835163ffffffff16835260209384019390920191600101612bcc565b5f5f5f60608486031215612c02575f5ffd5b612c0b846126ff565b95602085013595506040909401359392505050565b60608101610ad9828463ffffffff815116825263ffffffff60208201511660208301526001600160601b0360408201511660408301525050565b80356001600160601b038116811461270f575f5ffd5b5f5f60408385031215612c81575f5ffd5b612c8a836126ff565b915061299a60208401612c5a565b5f5f5f60408486031215612caa575f5ffd5b8335925060208401356001600160401b03811115612b9a575f5ffd5b5f82601f830112612cd5575f5ffd5b8135612ce3612afc82612a88565b8082825260208201915060208360061b860101925085831115612d04575f5ffd5b602085015b83811015610eb75760408188031215612d20575f5ffd5b612d28612a30565b8135612d3381612777565b8152612d4160208301612c5a565b602082015280845250602083019250604081019050612d09565b5f5f60408385031215612d6c575f5ffd5b612d75836126ff565b915060208301356001600160401b03811115612d8f575f5ffd5b612d9b85828601612cc6565b9150509250929050565b5f5f5f60608486031215612db7575f5ffd5b612dc0846126ff565b9250612dce60208501612b52565b929592945050506040919091013590565b5f5f5f60608486031215612df1575f5ffd5b83359250612e01602085016126ff565b9150612e0f60408501612b52565b90509250925092565b5f5f5f5f60808587031215612e2b575f5ffd5b612e34856126ff565b9350612e4260208601612b52565b93969395505050506040820135916060013590565b5f5f5f60608486031215612e69575f5ffd5b612e72846126ff565b9250612e8060208501612c5a565b915060408401356001600160401b03811115612e9a575f5ffd5b612ea686828701612cc6565b9150509250925092565b634e487b7160e01b5f52603260045260245ffd5b5f60208284031215612ed4575f5ffd5b6110dd82612c5a565b634e487b7160e01b5f52601160045260245ffd5b81810381811115610ad957610ad9612edd565b634e487b7160e01b5f52603160045260245ffd5b6001600160a01b03831681526040602080830182905283549183018290525f84815290812090916060840190835b81811015612f6d5783546001600160a01b0316835260019384019360209093019201612f46565b50909695505050505050565b5f60208284031215612f89575f5ffd5b81516001600160401b03811115612f9e575f5ffd5b8201601f81018413612fae575f5ffd5b8051612fbc612afc82612a88565b8082825260208201915060208360051b850101925086831115612fdd575f5ffd5b6020840193505b82841015611ddf578351825260209384019390910190612fe4565b8082028115828204841417610ad957610ad9612edd565b5f8261303057634e487b7160e01b5f52601260045260245ffd5b500490565b6001600160601b038181168382160190811115610ad957610ad9612edd565b5f60208284031215613064575f5ffd5b81516110dd81612777565b80820180821115610ad957610ad9612edd565b5f8161309057613090612edd565b505f190190565b8181035f8312801583831316838312821617156105e9576105e9612edd565b5f600160ff1b82016130ca576130ca612edd565b505f0390565b6001600160601b038281168282160390811115610ad957610ad9612edd56fe5374616b6552656769737472792e5f6164645374726174656779506172616d73a2646970667358221220d1ff4dd09cb1cafa28be0d1c0d7df7021c3707f58f7114c85bb85fb10e03503a64736f6c634300081d0033",
    "linkReferences": {}
  },
  "methodIdentifiers": {
    "MAX_WEIGHING_FUNCTION_LENGTH()": "7c172347",
    "WEIGHTING_DIVISOR()": "5e5a6775",
    "addStrategies(uint8,(address,uint96)[])": "c601527d",
    "delegation()": "df5cf723",
    "deregisterOperator(bytes32,bytes)": "bd29b8cd",
    "getCurrentStake(bytes32,uint8)": "5401ed27",
    "getCurrentTotalStake(uint8)": "d5eccc05",
    "getLatestStakeUpdate(bytes32,uint8)": "f851e198",
    "getStakeAtBlockNumber(bytes32,uint8,uint32)": "fa28c627",
    "getStakeAtBlockNumberAndIndex(uint8,uint32,bytes32,uint256)": "f2be94ae",
    "getStakeHistory(bytes32,uint8)": "2cd95940",
    "getStakeHistoryLength(bytes32,uint8)": "4bd26e09",
    "getStakeUpdateAtIndex(uint8,bytes32,uint256)": "ac6bfb03",
    "getStakeUpdateIndexAtBlockNumber(bytes32,uint8,uint32)": "dd9846b9",
    "getTotalStakeAtBlockNumberFromIndex(uint8,uint32,uint256)": "c8294c56",
    "getTotalStakeHistoryLength(uint8)": "0491b41c",
    "getTotalStakeIndicesAtBlockNumber(uint32,bytes)": "81c07502",
    "getTotalStakeUpdateAtIndex(uint8,uint256)": "b6904b78",
    "initializeQuorum(uint8,uint96,(address,uint96)[])": "ff694a77",
    "minimumStakeForQuorum(uint8)": "c46778a5",
    "modifyStrategyParams(uint8,uint256[],uint96[])": "20b66298",
    "registerOperator(address,bytes32,bytes)": "25504777",
    "registryCoordinator()": "6d14a987",
    "removeStrategies(uint8,uint256[])": "5f1f2d77",
    "setMinimumStakeForQuorum(uint8,uint96)": "bc9a40c3",
    "strategiesPerQuorum(uint8,uint256)": "9f3ccf65",
    "strategyParams(uint8,uint256)": "08732461",
    "strategyParamsByIndex(uint8,uint256)": "adc804da",
    "strategyParamsLength(uint8)": "3ca5a5f5",
    "updateOperatorStake(address,bytes32,bytes)": "66acfefe",
    "weightOfOperatorForQuorum(uint8,address)": "1f9b74e0"
  },
  "id": 56
}