{
  "abi": [
    {
      "type": "constructor",
      "inputs": [],
      "stateMutability": "nonpayable"
    },
    {
      "type": "function",
      "name": "addVersionedBlobParams",
      "inputs": [
        {
          "name": "_versionedBlobParams",
          "type": "tuple",
          "internalType": "struct EigenDATypesV1.VersionedBlobParams",
          "components": [
            {
              "name": "maxNumOperators",
              "type": "uint32",
              "internalType": "uint32"
            },
            {
              "name": "numChunks",
              "type": "uint32",
              "internalType": "uint32"
            },
            {
              "name": "codingRate",
              "type": "uint8",
              "internalType": "uint8"
            }
          ]
        }
      ],
      "outputs": [
        {
          "name": "",
          "type": "uint16",
          "internalType": "uint16"
        }
      ],
      "stateMutability": "nonpayable"
    },
    {
      "type": "function",
      "name": "getBlobParams",
      "inputs": [
        {
          "name": "version",
          "type": "uint16",
          "internalType": "uint16"
        }
      ],
      "outputs": [
        {
          "name": "",
          "type": "tuple",
          "internalType": "struct EigenDATypesV1.VersionedBlobParams",
          "components": [
            {
              "name": "maxNumOperators",
              "type": "uint32",
              "internalType": "uint32"
            },
            {
              "name": "numChunks",
              "type": "uint32",
              "internalType": "uint32"
            },
            {
              "name": "codingRate",
              "type": "uint8",
              "internalType": "uint8"
            }
          ]
        }
      ],
      "stateMutability": "view"
    },
    {
      "type": "function",
      "name": "getIsQuorumRequired",
      "inputs": [
        {
          "name": "quorumNumber",
          "type": "uint8",
          "internalType": "uint8"
        }
      ],
      "outputs": [
        {
          "name": "",
          "type": "bool",
          "internalType": "bool"
        }
      ],
      "stateMutability": "view"
    },
    {
      "type": "function",
      "name": "getQuorumAdversaryThresholdPercentage",
      "inputs": [
        {
          "name": "quorumNumber",
          "type": "uint8",
          "internalType": "uint8"
        }
      ],
      "outputs": [
        {
          "name": "adversaryThresholdPercentage",
          "type": "uint8",
          "internalType": "uint8"
        }
      ],
      "stateMutability": "view"
    },
    {
      "type": "function",
      "name": "getQuorumConfirmationThresholdPercentage",
      "inputs": [
        {
          "name": "quorumNumber",
          "type": "uint8",
          "internalType": "uint8"
        }
      ],
      "outputs": [
        {
          "name": "confirmationThresholdPercentage",
          "type": "uint8",
          "internalType": "uint8"
        }
      ],
      "stateMutability": "view"
    },
    {
      "type": "function",
      "name": "initialize",
      "inputs": [
        {
          "name": "_initialOwner",
          "type": "address",
          "internalType": "address"
        },
        {
          "name": "_quorumAdversaryThresholdPercentages",
          "type": "bytes",
          "internalType": "bytes"
        },
        {
          "name": "_quorumConfirmationThresholdPercentages",
          "type": "bytes",
          "internalType": "bytes"
        },
        {
          "name": "_quorumNumbersRequired",
          "type": "bytes",
          "internalType": "bytes"
        },
        {
          "name": "_versionedBlobParams",
          "type": "tuple[]",
          "internalType": "struct EigenDATypesV1.VersionedBlobParams[]",
          "components": [
            {
              "name": "maxNumOperators",
              "type": "uint32",
              "internalType": "uint32"
            },
            {
              "name": "numChunks",
              "type": "uint32",
              "internalType": "uint32"
            },
            {
              "name": "codingRate",
              "type": "uint8",
              "internalType": "uint8"
            }
          ]
        }
      ],
      "outputs": [],
      "stateMutability": "nonpayable"
    },
    {
      "type": "function",
      "name": "nextBlobVersion",
      "inputs": [],
      "outputs": [
        {
          "name": "",
          "type": "uint16",
          "internalType": "uint16"
        }
      ],
      "stateMutability": "view"
    },
    {
      "type": "function",
      "name": "owner",
      "inputs": [],
      "outputs": [
        {
          "name": "",
          "type": "address",
          "internalType": "address"
        }
      ],
      "stateMutability": "view"
    },
    {
      "type": "function",
      "name": "quorumAdversaryThresholdPercentages",
      "inputs": [],
      "outputs": [
        {
          "name": "",
          "type": "bytes",
          "internalType": "bytes"
        }
      ],
      "stateMutability": "view"
    },
    {
      "type": "function",
      "name": "quorumConfirmationThresholdPercentages",
      "inputs": [],
      "outputs": [
        {
          "name": "",
          "type": "bytes",
          "internalType": "bytes"
        }
      ],
      "stateMutability": "view"
    },
    {
      "type": "function",
      "name": "quorumNumbersRequired",
      "inputs": [],
      "outputs": [
        {
          "name": "",
          "type": "bytes",
          "internalType": "bytes"
        }
      ],
      "stateMutability": "view"
    },
    {
      "type": "function",
      "name": "renounceOwnership",
      "inputs": [],
      "outputs": [],
      "stateMutability": "nonpayable"
    },
    {
      "type": "function",
      "name": "transferOwnership",
      "inputs": [
        {
          "name": "newOwner",
          "type": "address",
          "internalType": "address"
        }
      ],
      "outputs": [],
      "stateMutability": "nonpayable"
    },
    {
      "type": "function",
      "name": "versionedBlobParams",
      "inputs": [
        {
          "name": "",
          "type": "uint16",
          "internalType": "uint16"
        }
      ],
      "outputs": [
        {
          "name": "maxNumOperators",
          "type": "uint32",
          "internalType": "uint32"
        },
        {
          "name": "numChunks",
          "type": "uint32",
          "internalType": "uint32"
        },
        {
          "name": "codingRate",
          "type": "uint8",
          "internalType": "uint8"
        }
      ],
      "stateMutability": "view"
    },
    {
      "type": "event",
      "name": "DefaultSecurityThresholdsV2Updated",
      "inputs": [
        {
          "name": "previousDefaultSecurityThresholdsV2",
          "type": "tuple",
          "indexed": false,
          "internalType": "struct EigenDATypesV1.SecurityThresholds",
          "components": [
            {
              "name": "confirmationThreshold",
              "type": "uint8",
              "internalType": "uint8"
            },
            {
              "name": "adversaryThreshold",
              "type": "uint8",
              "internalType": "uint8"
            }
          ]
        },
        {
          "name": "newDefaultSecurityThresholdsV2",
          "type": "tuple",
          "indexed": false,
          "internalType": "struct EigenDATypesV1.SecurityThresholds",
          "components": [
            {
              "name": "confirmationThreshold",
              "type": "uint8",
              "internalType": "uint8"
            },
            {
              "name": "adversaryThreshold",
              "type": "uint8",
              "internalType": "uint8"
            }
          ]
        }
      ],
      "anonymous": false
    },
    {
      "type": "event",
      "name": "Initialized",
      "inputs": [
        {
          "name": "version",
          "type": "uint8",
          "indexed": false,
          "internalType": "uint8"
        }
      ],
      "anonymous": false
    },
    {
      "type": "event",
      "name": "OwnershipTransferred",
      "inputs": [
        {
          "name": "previousOwner",
          "type": "address",
          "indexed": true,
          "internalType": "address"
        },
        {
          "name": "newOwner",
          "type": "address",
          "indexed": true,
          "internalType": "address"
        }
      ],
      "anonymous": false
    },
    {
      "type": "event",
      "name": "QuorumAdversaryThresholdPercentagesUpdated",
      "inputs": [
        {
          "name": "previousQuorumAdversaryThresholdPercentages",
          "type": "bytes",
          "indexed": false,
          "internalType": "bytes"
        },
        {
          "name": "newQuorumAdversaryThresholdPercentages",
          "type": "bytes",
          "indexed": false,
          "internalType": "bytes"
        }
      ],
      "anonymous": false
    },
    {
      "type": "event",
      "name": "QuorumConfirmationThresholdPercentagesUpdated",
      "inputs": [
        {
          "name": "previousQuorumConfirmationThresholdPercentages",
          "type": "bytes",
          "indexed": false,
          "internalType": "bytes"
        },
        {
          "name": "newQuorumConfirmationThresholdPercentages",
          "type": "bytes",
          "indexed": false,
          "internalType": "bytes"
        }
      ],
      "anonymous": false
    },
    {
      "type": "event",
      "name": "QuorumNumbersRequiredUpdated",
      "inputs": [
        {
          "name": "previousQuorumNumbersRequired",
          "type": "bytes",
          "indexed": false,
          "internalType": "bytes"
        },
        {
          "name": "newQuorumNumbersRequired",
          "type": "bytes",
          "indexed": false,
          "internalType": "bytes"
        }
      ],
      "anonymous": false
    },
    {
      "type": "event",
      "name": "VersionedBlobParamsAdded",
      "inputs": [
        {
          "name": "version",
          "type": "uint16",
          "indexed": true,
          "internalType": "uint16"
        },
        {
          "name": "versionedBlobParams",
          "type": "tuple",
          "indexed": false,
          "internalType": "struct EigenDATypesV1.VersionedBlobParams",
          "components": [
            {
              "name": "maxNumOperators",
              "type": "uint32",
              "internalType": "uint32"
            },
            {
              "name": "numChunks",
              "type": "uint32",
              "internalType": "uint32"
            },
            {
              "name": "codingRate",
              "type": "uint8",
              "internalType": "uint8"
            }
          ]
        }
      ],
      "anonymous": false
    }
  ],
  "bytecode": {
    "object": "0x6080604052348015600e575f5ffd5b5060156019565b60d7565b603254610100900460ff161560845760405162461bcd60e51b815260206004820152602760248201527f496e697469616c697a61626c653a20636f6e747261637420697320696e697469604482015266616c697a696e6760c81b606482015260840160405180910390fd5b60325460ff908116101560d5576032805460ff191660ff9081179091556040519081527f7f26b83ff96e1f2b6a682f133852f6798a09c465da95921460cefb38474024989060200160405180910390a15b565b610ed9806100e45f395ff3fe608060405234801561000f575f5ffd5b50600436106100e5575f3560e01c80638a47698211610088578063e15234ff11610063578063e15234ff1461025e578063ee6c3bcf14610266578063f2fde38b14610279578063f74e363c1461028c575f5ffd5b80638a476982146102285780638da5cb5b1461023b578063bafa910714610256575f5ffd5b806332430f14116100c357806332430f14146101d5578063715018a6146101f65780638491bad6146102005780638687feae14610213575f5ffd5b8063048886d2146100e95780631429c7c2146101115780632ecfe72b14610136575b5f5ffd5b6100fc6100f73660046109ed565b6102f0565b60405190151581526020015b60405180910390f35b61012461011f3660046109ed565b610397565b60405160ff9091168152602001610108565b6101a5610144366004610a0d565b60408051606080820183525f808352602080840182905292840181905261ffff9490941684526004825292829020825193840183525463ffffffff808216855264010000000082041691840191909152600160401b900460ff169082015290565b60408051825163ffffffff9081168252602080850151909116908201529181015160ff1690820152606001610108565b6003546101e39061ffff1681565b60405161ffff9091168152602001610108565b6101fe610402565b005b6101fe61020e366004610b75565b610415565b61021b610562565b6040516101089190610cbc565b6101e3610236366004610cf1565b6105ed565b6065546040516001600160a01b039091168152602001610108565b61021b610605565b61021b610612565b6101246102743660046109ed565b61061f565b6101fe610287366004610d0b565b610648565b6102ca61029a366004610a0d565b60046020525f908152604090205463ffffffff80821691640100000000810490911690600160401b900460ff1683565b6040805163ffffffff948516815293909216602084015260ff1690820152606001610108565b5f80600160ff84161b90508061038d6002805461030c90610d24565b80601f016020809104026020016040519081016040528092919081815260200182805461033890610d24565b80156103835780601f1061035a57610100808354040283529160200191610383565b820191905f5260205f20905b81548152906001019060200180831161036657829003601f168201915b50505050506106c1565b9091161492915050565b5f8160ff16600180546103a990610d24565b905011156103fd5760018260ff1681546103c290610d24565b81106103d0576103d0610d5c565b8154600116156103ed57905f5260205f2090602091828204019190065b9054901a600160f81b0260f81c90505b919050565b61040a610844565b6104135f61089e565b565b603254600290610100900460ff16158015610437575060325460ff8083169116105b61049f5760405162461bcd60e51b815260206004820152602e60248201527f496e697469616c697a61626c653a20636f6e747261637420697320616c72656160448201526d191e481a5b9a5d1a585b1a5e995960921b60648201526084015b60405180910390fd5b6032805461ffff191660ff8316176101001790556104bc8661089e565b5f6104c78682610dbc565b5060016104d48582610dbc565b5060026104e18482610dbc565b505f5b82518110156105185761050f83828151811061050257610502610d5c565b60200260200101516108ef565b506001016104e4565b506032805461ff001916905560405160ff821681527f7f26b83ff96e1f2b6a682f133852f6798a09c465da95921460cefb38474024989060200160405180910390a1505050505050565b5f805461056e90610d24565b80601f016020809104026020016040519081016040528092919081815260200182805461059a90610d24565b80156105e55780601f106105bc576101008083540402835291602001916105e5565b820191905f5260205f20905b8154815290600101906020018083116105c857829003601f168201915b505050505081565b5f6105f6610844565b6105ff826108ef565b92915050565b6001805461056e90610d24565b6002805461056e90610d24565b5f8160ff165f805461063090610d24565b905011156103fd575f8260ff1681546103c290610d24565b610650610844565b6001600160a01b0381166106b55760405162461bcd60e51b815260206004820152602660248201527f4f776e61626c653a206e6577206f776e657220697320746865207a65726f206160448201526564647265737360d01b6064820152608401610496565b6106be8161089e565b50565b5f610100825111156107495760405162461bcd60e51b8152602060048201526044602482018190527f4269746d61705574696c732e6f72646572656442797465734172726179546f42908201527f69746d61703a206f7264657265644279746573417272617920697320746f6f206064820152636c6f6e6760e01b608482015260a401610496565b81515f0361075857505f919050565b5f5f835f8151811061076c5761076c610d5c565b0160200151600160f89190911c81901b92505b845181101561083b5784818151811061079a5761079a610d5c565b0160200151600160f89190911c1b915082821161082f5760405162461bcd60e51b815260206004820152604760248201527f4269746d61705574696c732e6f72646572656442797465734172726179546f4260448201527f69746d61703a206f72646572656442797465734172726179206973206e6f74206064820152661bdc99195c995960ca1b608482015260a401610496565b9181179160010161077f565b50909392505050565b6065546001600160a01b031633146104135760405162461bcd60e51b815260206004820181905260248201527f4f776e61626c653a2063616c6c6572206973206e6f7420746865206f776e65726044820152606401610496565b606580546001600160a01b038381166001600160a01b0319831681179093556040519116919082907f8be0079c531659141344cd1fd0a4f28419497f9722a3daafe3b4186f6b6457e0905f90a35050565b6003805461ffff9081165f9081526004602090815260408083208651815488850180518a8601805163ffffffff95861667ffffffffffffffff199095168517640100000000938716939093029290921768ff00000000000000001916600160401b60ff9384160217909555985485519283529051909216948101949094529051909516908201529092909116907fdbee9d337a6e5fde30966e157673aaeeb6a0134afaf774a4b6979b7c79d07da49060600160405180910390a26003805461ffff16905f6109bc83610e77565b91906101000a81548161ffff021916908361ffff1602179055509050919050565b803560ff811681146103fd575f5ffd5b5f602082840312156109fd575f5ffd5b610a06826109dd565b9392505050565b5f60208284031215610a1d575f5ffd5b813561ffff81168114610a06575f5ffd5b80356001600160a01b03811681146103fd575f5ffd5b634e487b7160e01b5f52604160045260245ffd5b604051601f8201601f1916810167ffffffffffffffff81118282101715610a8157610a81610a44565b604052919050565b5f82601f830112610a98575f5ffd5b813567ffffffffffffffff811115610ab257610ab2610a44565b610ac5601f8201601f1916602001610a58565b818152846020838601011115610ad9575f5ffd5b816020850160208301375f918101602001919091529392505050565b803563ffffffff811681146103fd575f5ffd5b5f60608284031215610b18575f5ffd5b6040516060810167ffffffffffffffff81118282101715610b3b57610b3b610a44565b604052905080610b4a83610af5565b8152610b5860208401610af5565b6020820152610b69604084016109dd565b60408201525092915050565b5f5f5f5f5f60a08688031215610b89575f5ffd5b610b9286610a2e565b9450602086013567ffffffffffffffff811115610bad575f5ffd5b610bb988828901610a89565b945050604086013567ffffffffffffffff811115610bd5575f5ffd5b610be188828901610a89565b935050606086013567ffffffffffffffff811115610bfd575f5ffd5b610c0988828901610a89565b925050608086013567ffffffffffffffff811115610c25575f5ffd5b8601601f81018813610c35575f5ffd5b803567ffffffffffffffff811115610c4f57610c4f610a44565b610c5e60208260051b01610a58565b8082825260208201915060206060840285010192508a831115610c7f575f5ffd5b6020840193505b82841015610cab57610c988b85610b08565b8252602082019150606084019350610c86565b809450505050509295509295909350565b602081525f82518060208401528060208501604085015e5f604082850101526040601f19601f83011684010191505092915050565b5f60608284031215610d01575f5ffd5b610a068383610b08565b5f60208284031215610d1b575f5ffd5b610a0682610a2e565b600181811c90821680610d3857607f821691505b602082108103610d5657634e487b7160e01b5f52602260045260245ffd5b50919050565b634e487b7160e01b5f52603260045260245ffd5b601f821115610db757805f5260205f20601f840160051c81016020851015610d955750805b601f840160051c820191505b81811015610db4575f8155600101610da1565b50505b505050565b815167ffffffffffffffff811115610dd657610dd6610a44565b610dea81610de48454610d24565b84610d70565b6020601f821160018114610e1c575f8315610e055750848201515b5f19600385901b1c1916600184901b178455610db4565b5f84815260208120601f198516915b82811015610e4b5787850151825560209485019460019092019101610e2b565b5084821015610e6857868401515f19600387901b60f8161c191681555b50505050600190811b01905550565b5f61ffff821661ffff8103610e9a57634e487b7160e01b5f52601160045260245ffd5b6001019291505056fea2646970667358221220b5e498482088c60785641a5513cf4fe2f6129fb26b882e8411605bdb75143ce564736f6c634300081d0033",
    "linkReferences": {}
  },
  "methodIdentifiers": {
    "addVersionedBlobParams((uint32,uint32,uint8))": "8a476982",
    "getBlobParams(uint16)": "2ecfe72b",
    "getIsQuorumRequired(uint8)": "048886d2",
    "getQuorumAdversaryThresholdPercentage(uint8)": "ee6c3bcf",
    "getQuorumConfirmationThresholdPercentage(uint8)": "1429c7c2",
    "initialize(address,bytes,bytes,bytes,(uint32,uint32,uint8)[])": "8491bad6",
    "nextBlobVersion()": "32430f14",
    "owner()": "8da5cb5b",
    "quorumAdversaryThresholdPercentages()": "8687feae",
    "quorumConfirmationThresholdPercentages()": "bafa9107",
    "quorumNumbersRequired()": "e15234ff",
    "renounceOwnership()": "715018a6",
    "transferOwnership(address)": "f2fde38b",
    "versionedBlobParams(uint16)": "f74e363c"
  },
  "id": 185
}