{
  "abi": [
    {
      "type": "function",
      "name": "addCertVerifier",
      "inputs": [
        {
          "name": "activationBlockNumber",
          "type": "uint32",
          "internalType": "uint32"
        },
        {
          "name": "certVerifier",
          "type": "address",
          "internalType": "address"
        }
      ],
      "outputs": [],
      "stateMutability": "nonpayable"
    },
    {
      "type": "function",
      "name": "certVerifierABNs",
      "inputs": [
        {
          "name": "",
          "type": "uint256",
          "internalType": "uint256"
        }
      ],
      "outputs": [
        {
          "name": "",
          "type": "uint32",
          "internalType": "uint32"
        }
      ],
      "stateMutability": "view"
    },
    {
      "type": "function",
      "name": "certVerifiers",
      "inputs": [
        {
          "name": "",
          "type": "uint32",
          "internalType": "uint32"
        }
      ],
      "outputs": [
        {
          "name": "",
          "type": "address",
          "internalType": "address"
        }
      ],
      "stateMutability": "view"
    },
    {
      "type": "function",
      "name": "checkDACert",
      "inputs": [
        {
          "name": "abiEncodedCert",
          "type": "bytes",
          "internalType": "bytes"
        }
      ],
      "outputs": [
        {
          "name": "",
          "type": "uint8",
          "internalType": "uint8"
        }
      ],
      "stateMutability": "view"
    },
    {
      "type": "function",
      "name": "getCertVerifierAt",
      "inputs": [
        {
          "name": "referenceBlockNumber",
          "type": "uint32",
          "internalType": "uint32"
        }
      ],
      "outputs": [
        {
          "name": "",
          "type": "address",
          "internalType": "address"
        }
      ],
      "stateMutability": "view"
    },
    {
      "type": "function",
      "name": "initialize",
      "inputs": [
        {
          "name": "initialOwner",
          "type": "address",
          "internalType": "address"
        },
        {
          "name": "initABNs",
          "type": "uint32[]",
          "internalType": "uint32[]"
        },
        {
          "name": "initCertVerifiers",
          "type": "address[]",
          "internalType": "address[]"
        }
      ],
      "outputs": [],
      "stateMutability": "nonpayable"
    },
    {
      "type": "function",
      "name": "owner",
      "inputs": [],
      "outputs": [
        {
          "name": "",
          "type": "address",
          "internalType": "address"
        }
      ],
      "stateMutability": "view"
    },
    {
      "type": "function",
      "name": "renounceOwnership",
      "inputs": [],
      "outputs": [],
      "stateMutability": "nonpayable"
    },
    {
      "type": "function",
      "name": "transferOwnership",
      "inputs": [
        {
          "name": "newOwner",
          "type": "address",
          "internalType": "address"
        }
      ],
      "outputs": [],
      "stateMutability": "nonpayable"
    },
    {
      "type": "event",
      "name": "CertVerifierAdded",
      "inputs": [
        {
          "name": "activationBlockNumber",
          "type": "uint32",
          "indexed": true,
          "internalType": "uint32"
        },
        {
          "name": "certVerifier",
          "type": "address",
          "indexed": true,
          "internalType": "address"
        }
      ],
      "anonymous": false
    },
    {
      "type": "event",
      "name": "Initialized",
      "inputs": [
        {
          "name": "version",
          "type": "uint8",
          "indexed": false,
          "internalType": "uint8"
        }
      ],
      "anonymous": false
    },
    {
      "type": "event",
      "name": "OwnershipTransferred",
      "inputs": [
        {
          "name": "previousOwner",
          "type": "address",
          "indexed": true,
          "internalType": "address"
        },
        {
          "name": "newOwner",
          "type": "address",
          "indexed": true,
          "internalType": "address"
        }
      ],
      "anonymous": false
    },
    {
      "type": "error",
      "name": "ABNNotGreaterThanLast",
      "inputs": [
        {
          "name": "activationBlockNumber",
          "type": "uint32",
          "internalType": "uint32"
        }
      ]
    },
    {
      "type": "error",
      "name": "ABNNotInFuture",
      "inputs": [
        {
          "name": "activationBlockNumber",
          "type": "uint32",
          "internalType": "uint32"
        }
      ]
    },
    {
      "type": "error",
      "name": "InvalidCertLength",
      "inputs": []
    },
    {
      "type": "error",
      "name": "LengthMismatch",
      "inputs": []
    },
    {
      "type": "error",
      "name": "RBNInFuture",
      "inputs": [
        {
          "name": "referenceBlockNumber",
          "type": "uint32",
          "internalType": "uint32"
        }
      ]
    }
  ],
  "bytecode": {
    "object": "0x6080604052348015600e575f5ffd5b50610ba28061001c5f395ff3fe608060405234801561000f575f5ffd5b5060043610610090575f3560e01c80639077193b116100635780639077193b146101075780639d8ecd851461012c578063bfda00de1461013f578063f0df66df14610152578063f2fde38b1461017a575f5ffd5b80634a4ae0e2146100945780634c046566146100c4578063715018a6146100ec5780638da5cb5b146100f6575b5f5ffd5b6100a76100a2366004610814565b61018d565b6040516001600160a01b0390911681526020015b60405180910390f35b6100a76100d2366004610814565b60656020525f90815260409020546001600160a01b031681565b6100f46101bf565b005b6033546001600160a01b03166100a7565b61011a61011536600461082d565b6101d2565b60405160ff90911681526020016100bb565b6100f461013a36600461098a565b610255565b6100f461014d366004610a5c565b61044b565b610165610160366004610a8d565b610506565b60405163ffffffff90911681526020016100bb565b6100f4610188366004610aa4565b61053d565b5f60655f61019a846105b6565b63ffffffff16815260208101919091526040015f20546001600160a01b031692915050565b6101c7610666565b6101d05f6106c0565b565b5f6101e06100a28484610711565b6001600160a01b0316639077193b84846040518363ffffffff1660e01b815260040161020d929190610abd565b602060405180830381865afa158015610228573d5f5f3e3d5ffd5b505050506040513d601f19601f8201168201806040525081019061024c9190610aeb565b90505b92915050565b5f54600290610100900460ff1615801561027557505f5460ff8083169116105b6102dd5760405162461bcd60e51b815260206004820152602e60248201527f496e697469616c697a61626c653a20636f6e747261637420697320616c72656160448201526d191e481a5b9a5d1a585b1a5e995960921b60648201526084015b60405180910390fd5b5f805461ffff191660ff8316176101001790556102f9846106c0565b815183511461031e576040516001621398b960e31b0319815260040160405180910390fd5b5f5f5b8451811015610403578185828151811061033d5761033d610b12565b602002602001015163ffffffff161115801561035857505f81115b1561039d5784818151811061036f5761036f610b12565b602002602001015160405163faf9cb6960e01b81526004016102d4919063ffffffff91909116815260200190565b8481815181106103af576103af610b12565b602002602001015163ffffffff1691506103fb8582815181106103d4576103d4610b12565b60200260200101518583815181106103ee576103ee610b12565b602002602001015161074f565b600101610321565b50505f805461ff001916905560405160ff821681527f7f26b83ff96e1f2b6a682f133852f6798a09c465da95921460cefb38474024989060200160405180910390a150505050565b610453610666565b438263ffffffff161161048157604051631549aaf560e21b815263ffffffff831660048201526024016102d4565b6066805461049190600190610b26565b815481106104a1576104a1610b12565b905f5260205f2090600891828204019190066004029054906101000a900463ffffffff1663ffffffff168263ffffffff16116104f85760405163faf9cb6960e01b815263ffffffff831660048201526024016102d4565b610502828261074f565b5050565b60668181548110610515575f80fd5b905f5260205f209060089182820401919006600402915054906101000a900463ffffffff1681565b610545610666565b6001600160a01b0381166105aa5760405162461bcd60e51b815260206004820152602660248201527f4f776e61626c653a206e6577206f776e657220697320746865207a65726f206160448201526564647265737360d01b60648201526084016102d4565b6105b3816106c0565b50565b5f438263ffffffff1611156105e6576040516311fea51560e21b815263ffffffff831660048201526024016102d4565b6066545f906105f790600190610b26565b90505f5b60665481101561065f5760666106118284610b26565b8154811061062157610621610b12565b5f918252602090912060088204015460079091166004026101000a900463ffffffff908116935084168311610657575050919050565b6001016105fb565b5050919050565b6033546001600160a01b031633146101d05760405162461bcd60e51b815260206004820181905260248201527f4f776e61626c653a2063616c6c6572206973206e6f7420746865206f776e657260448201526064016102d4565b603380546001600160a01b038381166001600160a01b0319831681179093556040519116919082907f8be0079c531659141344cd1fd0a4f28419497f9722a3daafe3b4186f6b6457e0905f90a35050565b5f6060821015610734576040516303af3ba560e51b815260040160405180910390fd5b610742606060408486610b45565b81019061024c9190610814565b63ffffffff8281165f8181526065602052604080822080546001600160a01b0319166001600160a01b038716908117909155606680546001810182559084527f46501879b8ca8525e8c2fd519e2fbfcfa2ebea26501294aa02cbfcfb12e943546008820401805460079092166004026101000a9687021990911695850295909517909455517f3c87ded09f10478b3e4c40df4329a85dc74ce5f77d000d69a438e6af6096b0e29190a35050565b803563ffffffff8116811461080f575f5ffd5b919050565b5f60208284031215610824575f5ffd5b61024c826107fc565b5f5f6020838503121561083e575f5ffd5b823567ffffffffffffffff811115610854575f5ffd5b8301601f81018513610864575f5ffd5b803567ffffffffffffffff81111561087a575f5ffd5b85602082840101111561088b575f5ffd5b6020919091019590945092505050565b80356001600160a01b038116811461080f575f5ffd5b634e487b7160e01b5f52604160045260245ffd5b604051601f8201601f1916810167ffffffffffffffff811182821017156108ee576108ee6108b1565b604052919050565b5f67ffffffffffffffff82111561090f5761090f6108b1565b5060051b60200190565b5f82601f830112610928575f5ffd5b813561093b610936826108f6565b6108c5565b8082825260208201915060208360051b86010192508583111561095c575f5ffd5b602085015b83811015610980576109728161089b565b835260209283019201610961565b5095945050505050565b5f5f5f6060848603121561099c575f5ffd5b6109a58461089b565b9250602084013567ffffffffffffffff8111156109c0575f5ffd5b8401601f810186136109d0575f5ffd5b80356109de610936826108f6565b8082825260208201915060208360051b8501019250888311156109ff575f5ffd5b6020840193505b82841015610a2857610a17846107fc565b825260209384019390910190610a06565b9450505050604084013567ffffffffffffffff811115610a46575f5ffd5b610a5286828701610919565b9150509250925092565b5f5f60408385031215610a6d575f5ffd5b610a76836107fc565b9150610a846020840161089b565b90509250929050565b5f60208284031215610a9d575f5ffd5b5035919050565b5f60208284031215610ab4575f5ffd5b61024c8261089b565b60208152816020820152818360408301375f818301604090810191909152601f909201601f19160101919050565b5f60208284031215610afb575f5ffd5b815160ff81168114610b0b575f5ffd5b9392505050565b634e487b7160e01b5f52603260045260245ffd5b8181038181111561024f57634e487b7160e01b5f52601160045260245ffd5b5f5f85851115610b53575f5ffd5b83861115610b5f575f5ffd5b505082019391909203915056fea2646970667358221220593b756ef2fa73af2e9398b4da7557ad3a1ffd854f71ce87bb2eddaddce567a464736f6c634300081d0033",
    "linkReferences": {}
  },
  "methodIdentifiers": {
    "addCertVerifier(uint32,address)": "bfda00de",
    "certVerifierABNs(uint256)": "f0df66df",
    "certVerifiers(uint32)": "4c046566",
    "checkDACert(bytes)": "9077193b",
    "getCertVerifierAt(uint32)": "4a4ae0e2",
    "initialize(address,uint32[],address[])": "9d8ecd85",
    "owner()": "8da5cb5b",
    "renounceOwnership()": "715018a6",
    "transferOwnership(address)": "f2fde38b"
  },
  "id": 225
}