{
  "abi": [
    {
      "type": "constructor",
      "inputs": [
        {
          "name": "__avsDirectory",
          "type": "address",
          "internalType": "contract IAVSDirectory"
        },
        {
          "name": "__rewardsCoordinator",
          "type": "address",
          "internalType": "contract IRewardsCoordinator"
        },
        {
          "name": "__registryCoordinator",
          "type": "address",
          "internalType": "contract IRegistryCoordinator"
        },
        {
          "name": "__stakeRegistry",
          "type": "address",
          "internalType": "contract IStakeRegistry"
        },
        {
          "name": "__eigenDAThresholdRegistry",
          "type": "address",
          "internalType": "contract IEigenDAThresholdRegistry"
        },
        {
          "name": "__eigenDARelayRegistry",
          "type": "address",
          "internalType": "contract IEigenDARelayRegistry"
        },
        {
          "name": "__paymentVault",
          "type": "address",
          "internalType": "contract IPaymentVault"
        },
        {
          "name": "__eigenDADisperserRegistry",
          "type": "address",
          "internalType": "contract IEigenDADisperserRegistry"
        }
      ],
      "stateMutability": "nonpayable"
    },
    {
      "type": "function",
      "name": "BLOCK_STALE_MEASURE",
      "inputs": [],
      "outputs": [
        {
          "name": "",
          "type": "uint32",
          "internalType": "uint32"
        }
      ],
      "stateMutability": "view"
    },
    {
      "type": "function",
      "name": "STORE_DURATION_BLOCKS",
      "inputs": [],
      "outputs": [
        {
          "name": "",
          "type": "uint32",
          "internalType": "uint32"
        }
      ],
      "stateMutability": "view"
    },
    {
      "type": "function",
      "name": "THRESHOLD_DENOMINATOR",
      "inputs": [],
      "outputs": [
        {
          "name": "",
          "type": "uint256",
          "internalType": "uint256"
        }
      ],
      "stateMutability": "view"
    },
    {
      "type": "function",
      "name": "avsDirectory",
      "inputs": [],
      "outputs": [
        {
          "name": "",
          "type": "address",
          "internalType": "address"
        }
      ],
      "stateMutability": "view"
    },
    {
      "type": "function",
      "name": "batchId",
      "inputs": [],
      "outputs": [
        {
          "name": "",
          "type": "uint32",
          "internalType": "uint32"
        }
      ],
      "stateMutability": "view"
    },
    {
      "type": "function",
      "name": "batchIdToBatchMetadataHash",
      "inputs": [
        {
          "name": "",
          "type": "uint32",
          "internalType": "uint32"
        }
      ],
      "outputs": [
        {
          "name": "",
          "type": "bytes32",
          "internalType": "bytes32"
        }
      ],
      "stateMutability": "view"
    },
    {
      "type": "function",
      "name": "blsApkRegistry",
      "inputs": [],
      "outputs": [
        {
          "name": "",
          "type": "address",
          "internalType": "contract IBLSApkRegistry"
        }
      ],
      "stateMutability": "view"
    },
    {
      "type": "function",
      "name": "checkSignatures",
      "inputs": [
        {
          "name": "msgHash",
          "type": "bytes32",
          "internalType": "bytes32"
        },
        {
          "name": "quorumNumbers",
          "type": "bytes",
          "internalType": "bytes"
        },
        {
          "name": "referenceBlockNumber",
          "type": "uint32",
          "internalType": "uint32"
        },
        {
          "name": "params",
          "type": "tuple",
          "internalType": "struct IBLSSignatureChecker.NonSignerStakesAndSignature",
          "components": [
            {
              "name": "nonSignerQuorumBitmapIndices",
              "type": "uint32[]",
              "internalType": "uint32[]"
            },
            {
              "name": "nonSignerPubkeys",
              "type": "tuple[]",
              "internalType": "struct BN254.G1Point[]",
              "components": [
                {
                  "name": "X",
                  "type": "uint256",
                  "internalType": "uint256"
                },
                {
                  "name": "Y",
                  "type": "uint256",
                  "internalType": "uint256"
                }
              ]
            },
            {
              "name": "quorumApks",
              "type": "tuple[]",
              "internalType": "struct BN254.G1Point[]",
              "components": [
                {
                  "name": "X",
                  "type": "uint256",
                  "internalType": "uint256"
                },
                {
                  "name": "Y",
                  "type": "uint256",
                  "internalType": "uint256"
                }
              ]
            },
            {
              "name": "apkG2",
              "type": "tuple",
              "internalType": "struct BN254.G2Point",
              "components": [
                {
                  "name": "X",
                  "type": "uint256[2]",
                  "internalType": "uint256[2]"
                },
                {
                  "name": "Y",
                  "type": "uint256[2]",
                  "internalType": "uint256[2]"
                }
              ]
            },
            {
              "name": "sigma",
              "type": "tuple",
              "internalType": "struct BN254.G1Point",
              "components": [
                {
                  "name": "X",
                  "type": "uint256",
                  "internalType": "uint256"
                },
                {
                  "name": "Y",
                  "type": "uint256",
                  "internalType": "uint256"
                }
              ]
            },
            {
              "name": "quorumApkIndices",
              "type": "uint32[]",
              "internalType": "uint32[]"
            },
            {
              "name": "totalStakeIndices",
              "type": "uint32[]",
              "internalType": "uint32[]"
            },
            {
              "name": "nonSignerStakeIndices",
              "type": "uint32[][]",
              "internalType": "uint32[][]"
            }
          ]
        }
      ],
      "outputs": [
        {
          "name": "",
          "type": "tuple",
          "internalType": "struct IBLSSignatureChecker.QuorumStakeTotals",
          "components": [
            {
              "name": "signedStakeForQuorum",
              "type": "uint96[]",
              "internalType": "uint96[]"
            },
            {
              "name": "totalStakeForQuorum",
              "type": "uint96[]",
              "internalType": "uint96[]"
            }
          ]
        },
        {
          "name": "",
          "type": "bytes32",
          "internalType": "bytes32"
        }
      ],
      "stateMutability": "view"
    },
    {
      "type": "function",
      "name": "confirmBatch",
      "inputs": [
        {
          "name": "batchHeader",
          "type": "tuple",
          "internalType": "struct EigenDATypesV1.BatchHeader",
          "components": [
            {
              "name": "blobHeadersRoot",
              "type": "bytes32",
              "internalType": "bytes32"
            },
            {
              "name": "quorumNumbers",
              "type": "bytes",
              "internalType": "bytes"
            },
            {
              "name": "signedStakeForQuorums",
              "type": "bytes",
              "internalType": "bytes"
            },
            {
              "name": "referenceBlockNumber",
              "type": "uint32",
              "internalType": "uint32"
            }
          ]
        },
        {
          "name": "nonSignerStakesAndSignature",
          "type": "tuple",
          "internalType": "struct IBLSSignatureChecker.NonSignerStakesAndSignature",
          "components": [
            {
              "name": "nonSignerQuorumBitmapIndices",
              "type": "uint32[]",
              "internalType": "uint32[]"
            },
            {
              "name": "nonSignerPubkeys",
              "type": "tuple[]",
              "internalType": "struct BN254.G1Point[]",
              "components": [
                {
                  "name": "X",
                  "type": "uint256",
                  "internalType": "uint256"
                },
                {
                  "name": "Y",
                  "type": "uint256",
                  "internalType": "uint256"
                }
              ]
            },
            {
              "name": "quorumApks",
              "type": "tuple[]",
              "internalType": "struct BN254.G1Point[]",
              "components": [
                {
                  "name": "X",
                  "type": "uint256",
                  "internalType": "uint256"
                },
                {
                  "name": "Y",
                  "type": "uint256",
                  "internalType": "uint256"
                }
              ]
            },
            {
              "name": "apkG2",
              "type": "tuple",
              "internalType": "struct BN254.G2Point",
              "components": [
                {
                  "name": "X",
                  "type": "uint256[2]",
                  "internalType": "uint256[2]"
                },
                {
                  "name": "Y",
                  "type": "uint256[2]",
                  "internalType": "uint256[2]"
                }
              ]
            },
            {
              "name": "sigma",
              "type": "tuple",
              "internalType": "struct BN254.G1Point",
              "components": [
                {
                  "name": "X",
                  "type": "uint256",
                  "internalType": "uint256"
                },
                {
                  "name": "Y",
                  "type": "uint256",
                  "internalType": "uint256"
                }
              ]
            },
            {
              "name": "quorumApkIndices",
              "type": "uint32[]",
              "internalType": "uint32[]"
            },
            {
              "name": "totalStakeIndices",
              "type": "uint32[]",
              "internalType": "uint32[]"
            },
            {
              "name": "nonSignerStakeIndices",
              "type": "uint32[][]",
              "internalType": "uint32[][]"
            }
          ]
        }
      ],
      "outputs": [],
      "stateMutability": "nonpayable"
    },
    {
      "type": "function",
      "name": "createAVSRewardsSubmission",
      "inputs": [
        {
          "name": "rewardsSubmissions",
          "type": "tuple[]",
          "internalType": "struct IRewardsCoordinator.RewardsSubmission[]",
          "components": [
            {
              "name": "strategiesAndMultipliers",
              "type": "tuple[]",
              "internalType": "struct IRewardsCoordinator.StrategyAndMultiplier[]",
              "components": [
                {
                  "name": "strategy",
                  "type": "address",
                  "internalType": "contract IStrategy"
                },
                {
                  "name": "multiplier",
                  "type": "uint96",
                  "internalType": "uint96"
                }
              ]
            },
            {
              "name": "token",
              "type": "address",
              "internalType": "contract IERC20"
            },
            {
              "name": "amount",
              "type": "uint256",
              "internalType": "uint256"
            },
            {
              "name": "startTimestamp",
              "type": "uint32",
              "internalType": "uint32"
            },
            {
              "name": "duration",
              "type": "uint32",
              "internalType": "uint32"
            }
          ]
        }
      ],
      "outputs": [],
      "stateMutability": "nonpayable"
    },
    {
      "type": "function",
      "name": "createOperatorDirectedAVSRewardsSubmission",
      "inputs": [
        {
          "name": "operatorDirectedRewardsSubmissions",
          "type": "tuple[]",
          "internalType": "struct IRewardsCoordinator.OperatorDirectedRewardsSubmission[]",
          "components": [
            {
              "name": "strategiesAndMultipliers",
              "type": "tuple[]",
              "internalType": "struct IRewardsCoordinator.StrategyAndMultiplier[]",
              "components": [
                {
                  "name": "strategy",
                  "type": "address",
                  "internalType": "contract IStrategy"
                },
                {
                  "name": "multiplier",
                  "type": "uint96",
                  "internalType": "uint96"
                }
              ]
            },
            {
              "name": "token",
              "type": "address",
              "internalType": "contract IERC20"
            },
            {
              "name": "operatorRewards",
              "type": "tuple[]",
              "internalType": "struct IRewardsCoordinator.OperatorReward[]",
              "components": [
                {
                  "name": "operator",
                  "type": "address",
                  "internalType": "address"
                },
                {
                  "name": "amount",
                  "type": "uint256",
                  "internalType": "uint256"
                }
              ]
            },
            {
              "name": "startTimestamp",
              "type": "uint32",
              "internalType": "uint32"
            },
            {
              "name": "duration",
              "type": "uint32",
              "internalType": "uint32"
            },
            {
              "name": "description",
              "type": "string",
              "internalType": "string"
            }
          ]
        }
      ],
      "outputs": [],
      "stateMutability": "nonpayable"
    },
    {
      "type": "function",
      "name": "delegation",
      "inputs": [],
      "outputs": [
        {
          "name": "",
          "type": "address",
          "internalType": "contract IDelegationManager"
        }
      ],
      "stateMutability": "view"
    },
    {
      "type": "function",
      "name": "deregisterOperatorFromAVS",
      "inputs": [
        {
          "name": "operator",
          "type": "address",
          "internalType": "address"
        }
      ],
      "outputs": [],
      "stateMutability": "nonpayable"
    },
    {
      "type": "function",
      "name": "eigenDADisperserRegistry",
      "inputs": [],
      "outputs": [
        {
          "name": "",
          "type": "address",
          "internalType": "contract IEigenDADisperserRegistry"
        }
      ],
      "stateMutability": "view"
    },
    {
      "type": "function",
      "name": "eigenDARelayRegistry",
      "inputs": [],
      "outputs": [
        {
          "name": "",
          "type": "address",
          "internalType": "contract IEigenDARelayRegistry"
        }
      ],
      "stateMutability": "view"
    },
    {
      "type": "function",
      "name": "eigenDAThresholdRegistry",
      "inputs": [],
      "outputs": [
        {
          "name": "",
          "type": "address",
          "internalType": "contract IEigenDAThresholdRegistry"
        }
      ],
      "stateMutability": "view"
    },
    {
      "type": "function",
      "name": "getBlobParams",
      "inputs": [
        {
          "name": "version",
          "type": "uint16",
          "internalType": "uint16"
        }
      ],
      "outputs": [
        {
          "name": "",
          "type": "tuple",
          "internalType": "struct EigenDATypesV1.VersionedBlobParams",
          "components": [
            {
              "name": "maxNumOperators",
              "type": "uint32",
              "internalType": "uint32"
            },
            {
              "name": "numChunks",
              "type": "uint32",
              "internalType": "uint32"
            },
            {
              "name": "codingRate",
              "type": "uint8",
              "internalType": "uint8"
            }
          ]
        }
      ],
      "stateMutability": "view"
    },
    {
      "type": "function",
      "name": "getIsQuorumRequired",
      "inputs": [
        {
          "name": "quorumNumber",
          "type": "uint8",
          "internalType": "uint8"
        }
      ],
      "outputs": [
        {
          "name": "",
          "type": "bool",
          "internalType": "bool"
        }
      ],
      "stateMutability": "view"
    },
    {
      "type": "function",
      "name": "getOperatorRestakedStrategies",
      "inputs": [
        {
          "name": "operator",
          "type": "address",
          "internalType": "address"
        }
      ],
      "outputs": [
        {
          "name": "",
          "type": "address[]",
          "internalType": "address[]"
        }
      ],
      "stateMutability": "view"
    },
    {
      "type": "function",
      "name": "getQuorumAdversaryThresholdPercentage",
      "inputs": [
        {
          "name": "quorumNumber",
          "type": "uint8",
          "internalType": "uint8"
        }
      ],
      "outputs": [
        {
          "name": "",
          "type": "uint8",
          "internalType": "uint8"
        }
      ],
      "stateMutability": "view"
    },
    {
      "type": "function",
      "name": "getQuorumConfirmationThresholdPercentage",
      "inputs": [
        {
          "name": "quorumNumber",
          "type": "uint8",
          "internalType": "uint8"
        }
      ],
      "outputs": [
        {
          "name": "",
          "type": "uint8",
          "internalType": "uint8"
        }
      ],
      "stateMutability": "view"
    },
    {
      "type": "function",
      "name": "getRestakeableStrategies",
      "inputs": [],
      "outputs": [
        {
          "name": "",
          "type": "address[]",
          "internalType": "address[]"
        }
      ],
      "stateMutability": "view"
    },
    {
      "type": "function",
      "name": "initialize",
      "inputs": [
        {
          "name": "_pauserRegistry",
          "type": "address",
          "internalType": "contract IPauserRegistry"
        },
        {
          "name": "_initialPausedStatus",
          "type": "uint256",
          "internalType": "uint256"
        },
        {
          "name": "_initialOwner",
          "type": "address",
          "internalType": "address"
        },
        {
          "name": "_batchConfirmers",
          "type": "address[]",
          "internalType": "address[]"
        },
        {
          "name": "_rewardsInitiator",
          "type": "address",
          "internalType": "address"
        }
      ],
      "outputs": [],
      "stateMutability": "nonpayable"
    },
    {
      "type": "function",
      "name": "isBatchConfirmer",
      "inputs": [
        {
          "name": "",
          "type": "address",
          "internalType": "address"
        }
      ],
      "outputs": [
        {
          "name": "",
          "type": "bool",
          "internalType": "bool"
        }
      ],
      "stateMutability": "view"
    },
    {
      "type": "function",
      "name": "latestServeUntilBlock",
      "inputs": [
        {
          "name": "referenceBlockNumber",
          "type": "uint32",
          "internalType": "uint32"
        }
      ],
      "outputs": [
        {
          "name": "",
          "type": "uint32",
          "internalType": "uint32"
        }
      ],
      "stateMutability": "pure"
    },
    {
      "type": "function",
      "name": "nextBlobVersion",
      "inputs": [],
      "outputs": [
        {
          "name": "",
          "type": "uint16",
          "internalType": "uint16"
        }
      ],
      "stateMutability": "view"
    },
    {
      "type": "function",
      "name": "owner",
      "inputs": [],
      "outputs": [
        {
          "name": "",
          "type": "address",
          "internalType": "address"
        }
      ],
      "stateMutability": "view"
    },
    {
      "type": "function",
      "name": "pause",
      "inputs": [
        {
          "name": "newPausedStatus",
          "type": "uint256",
          "internalType": "uint256"
        }
      ],
      "outputs": [],
      "stateMutability": "nonpayable"
    },
    {
      "type": "function",
      "name": "pauseAll",
      "inputs": [],
      "outputs": [],
      "stateMutability": "nonpayable"
    },
    {
      "type": "function",
      "name": "paused",
      "inputs": [
        {
          "name": "index",
          "type": "uint8",
          "internalType": "uint8"
        }
      ],
      "outputs": [
        {
          "name": "",
          "type": "bool",
          "internalType": "bool"
        }
      ],
      "stateMutability": "view"
    },
    {
      "type": "function",
      "name": "paused",
      "inputs": [],
      "outputs": [
        {
          "name": "",
          "type": "uint256",
          "internalType": "uint256"
        }
      ],
      "stateMutability": "view"
    },
    {
      "type": "function",
      "name": "pauserRegistry",
      "inputs": [],
      "outputs": [
        {
          "name": "",
          "type": "address",
          "internalType": "contract IPauserRegistry"
        }
      ],
      "stateMutability": "view"
    },
    {
      "type": "function",
      "name": "paymentVault",
      "inputs": [],
      "outputs": [
        {
          "name": "",
          "type": "address",
          "internalType": "contract IPaymentVault"
        }
      ],
      "stateMutability": "view"
    },
    {
      "type": "function",
      "name": "quorumAdversaryThresholdPercentages",
      "inputs": [],
      "outputs": [
        {
          "name": "",
          "type": "bytes",
          "internalType": "bytes"
        }
      ],
      "stateMutability": "view"
    },
    {
      "type": "function",
      "name": "quorumConfirmationThresholdPercentages",
      "inputs": [],
      "outputs": [
        {
          "name": "",
          "type": "bytes",
          "internalType": "bytes"
        }
      ],
      "stateMutability": "view"
    },
    {
      "type": "function",
      "name": "quorumNumbersRequired",
      "inputs": [],
      "outputs": [
        {
          "name": "",
          "type": "bytes",
          "internalType": "bytes"
        }
      ],
      "stateMutability": "view"
    },
    {
      "type": "function",
      "name": "registerOperatorToAVS",
      "inputs": [
        {
          "name": "operator",
          "type": "address",
          "internalType": "address"
        },
        {
          "name": "operatorSignature",
          "type": "tuple",
          "internalType": "struct ISignatureUtils.SignatureWithSaltAndExpiry",
          "components": [
            {
              "name": "signature",
              "type": "bytes",
              "internalType": "bytes"
            },
            {
              "name": "salt",
              "type": "bytes32",
              "internalType": "bytes32"
            },
            {
              "name": "expiry",
              "type": "uint256",
              "internalType": "uint256"
            }
          ]
        }
      ],
      "outputs": [],
      "stateMutability": "nonpayable"
    },
    {
      "type": "function",
      "name": "registryCoordinator",
      "inputs": [],
      "outputs": [
        {
          "name": "",
          "type": "address",
          "internalType": "contract IRegistryCoordinator"
        }
      ],
      "stateMutability": "view"
    },
    {
      "type": "function",
      "name": "renounceOwnership",
      "inputs": [],
      "outputs": [],
      "stateMutability": "nonpayable"
    },
    {
      "type": "function",
      "name": "rewardsInitiator",
      "inputs": [],
      "outputs": [
        {
          "name": "",
          "type": "address",
          "internalType": "address"
        }
      ],
      "stateMutability": "view"
    },
    {
      "type": "function",
      "name": "setBatchConfirmer",
      "inputs": [
        {
          "name": "_batchConfirmer",
          "type": "address",
          "internalType": "address"
        }
      ],
      "outputs": [],
      "stateMutability": "nonpayable"
    },
    {
      "type": "function",
      "name": "setClaimerFor",
      "inputs": [
        {
          "name": "claimer",
          "type": "address",
          "internalType": "address"
        }
      ],
      "outputs": [],
      "stateMutability": "nonpayable"
    },
    {
      "type": "function",
      "name": "setPauserRegistry",
      "inputs": [
        {
          "name": "newPauserRegistry",
          "type": "address",
          "internalType": "contract IPauserRegistry"
        }
      ],
      "outputs": [],
      "stateMutability": "nonpayable"
    },
    {
      "type": "function",
      "name": "setRewardsInitiator",
      "inputs": [
        {
          "name": "newRewardsInitiator",
          "type": "address",
          "internalType": "address"
        }
      ],
      "outputs": [],
      "stateMutability": "nonpayable"
    },
    {
      "type": "function",
      "name": "setStaleStakesForbidden",
      "inputs": [
        {
          "name": "value",
          "type": "bool",
          "internalType": "bool"
        }
      ],
      "outputs": [],
      "stateMutability": "nonpayable"
    },
    {
      "type": "function",
      "name": "stakeRegistry",
      "inputs": [],
      "outputs": [
        {
          "name": "",
          "type": "address",
          "internalType": "contract IStakeRegistry"
        }
      ],
      "stateMutability": "view"
    },
    {
      "type": "function",
      "name": "staleStakesForbidden",
      "inputs": [],
      "outputs": [
        {
          "name": "",
          "type": "bool",
          "internalType": "bool"
        }
      ],
      "stateMutability": "view"
    },
    {
      "type": "function",
      "name": "taskNumber",
      "inputs": [],
      "outputs": [
        {
          "name": "",
          "type": "uint32",
          "internalType": "uint32"
        }
      ],
      "stateMutability": "view"
    },
    {
      "type": "function",
      "name": "transferOwnership",
      "inputs": [
        {
          "name": "newOwner",
          "type": "address",
          "internalType": "address"
        }
      ],
      "outputs": [],
      "stateMutability": "nonpayable"
    },
    {
      "type": "function",
      "name": "trySignatureAndApkVerification",
      "inputs": [
        {
          "name": "msgHash",
          "type": "bytes32",
          "internalType": "bytes32"
        },
        {
          "name": "apk",
          "type": "tuple",
          "internalType": "struct BN254.G1Point",
          "components": [
            {
              "name": "X",
              "type": "uint256",
              "internalType": "uint256"
            },
            {
              "name": "Y",
              "type": "uint256",
              "internalType": "uint256"
            }
          ]
        },
        {
          "name": "apkG2",
          "type": "tuple",
          "internalType": "struct BN254.G2Point",
          "components": [
            {
              "name": "X",
              "type": "uint256[2]",
              "internalType": "uint256[2]"
            },
            {
              "name": "Y",
              "type": "uint256[2]",
              "internalType": "uint256[2]"
            }
          ]
        },
        {
          "name": "sigma",
          "type": "tuple",
          "internalType": "struct BN254.G1Point",
          "components": [
            {
              "name": "X",
              "type": "uint256",
              "internalType": "uint256"
            },
            {
              "name": "Y",
              "type": "uint256",
              "internalType": "uint256"
            }
          ]
        }
      ],
      "outputs": [
        {
          "name": "pairingSuccessful",
          "type": "bool",
          "internalType": "bool"
        },
        {
          "name": "siganatureIsValid",
          "type": "bool",
          "internalType": "bool"
        }
      ],
      "stateMutability": "view"
    },
    {
      "type": "function",
      "name": "unpause",
      "inputs": [
        {
          "name": "newPausedStatus",
          "type": "uint256",
          "internalType": "uint256"
        }
      ],
      "outputs": [],
      "stateMutability": "nonpayable"
    },
    {
      "type": "function",
      "name": "updateAVSMetadataURI",
      "inputs": [
        {
          "name": "_metadataURI",
          "type": "string",
          "internalType": "string"
        }
      ],
      "outputs": [],
      "stateMutability": "nonpayable"
    },
    {
      "type": "event",
      "name": "BatchConfirmed",
      "inputs": [
        {
          "name": "batchHeaderHash",
          "type": "bytes32",
          "indexed": true,
          "internalType": "bytes32"
        },
        {
          "name": "batchId",
          "type": "uint32",
          "indexed": false,
          "internalType": "uint32"
        }
      ],
      "anonymous": false
    },
    {
      "type": "event",
      "name": "BatchConfirmerStatusChanged",
      "inputs": [
        {
          "name": "batchConfirmer",
          "type": "address",
          "indexed": false,
          "internalType": "address"
        },
        {
          "name": "status",
          "type": "bool",
          "indexed": false,
          "internalType": "bool"
        }
      ],
      "anonymous": false
    },
    {
      "type": "event",
      "name": "DefaultSecurityThresholdsV2Updated",
      "inputs": [
        {
          "name": "previousDefaultSecurityThresholdsV2",
          "type": "tuple",
          "indexed": false,
          "internalType": "struct EigenDATypesV1.SecurityThresholds",
          "components": [
            {
              "name": "confirmationThreshold",
              "type": "uint8",
              "internalType": "uint8"
            },
            {
              "name": "adversaryThreshold",
              "type": "uint8",
              "internalType": "uint8"
            }
          ]
        },
        {
          "name": "newDefaultSecurityThresholdsV2",
          "type": "tuple",
          "indexed": false,
          "internalType": "struct EigenDATypesV1.SecurityThresholds",
          "components": [
            {
              "name": "confirmationThreshold",
              "type": "uint8",
              "internalType": "uint8"
            },
            {
              "name": "adversaryThreshold",
              "type": "uint8",
              "internalType": "uint8"
            }
          ]
        }
      ],
      "anonymous": false
    },
    {
      "type": "event",
      "name": "Initialized",
      "inputs": [
        {
          "name": "version",
          "type": "uint8",
          "indexed": false,
          "internalType": "uint8"
        }
      ],
      "anonymous": false
    },
    {
      "type": "event",
      "name": "OwnershipTransferred",
      "inputs": [
        {
          "name": "previousOwner",
          "type": "address",
          "indexed": true,
          "internalType": "address"
        },
        {
          "name": "newOwner",
          "type": "address",
          "indexed": true,
          "internalType": "address"
        }
      ],
      "anonymous": false
    },
    {
      "type": "event",
      "name": "Paused",
      "inputs": [
        {
          "name": "account",
          "type": "address",
          "indexed": true,
          "internalType": "address"
        },
        {
          "name": "newPausedStatus",
          "type": "uint256",
          "indexed": false,
          "internalType": "uint256"
        }
      ],
      "anonymous": false
    },
    {
      "type": "event",
      "name": "PauserRegistrySet",
      "inputs": [
        {
          "name": "pauserRegistry",
          "type": "address",
          "indexed": false,
          "internalType": "contract IPauserRegistry"
        },
        {
          "name": "newPauserRegistry",
          "type": "address",
          "indexed": false,
          "internalType": "contract IPauserRegistry"
        }
      ],
      "anonymous": false
    },
    {
      "type": "event",
      "name": "QuorumAdversaryThresholdPercentagesUpdated",
      "inputs": [
        {
          "name": "previousQuorumAdversaryThresholdPercentages",
          "type": "bytes",
          "indexed": false,
          "internalType": "bytes"
        },
        {
          "name": "newQuorumAdversaryThresholdPercentages",
          "type": "bytes",
          "indexed": false,
          "internalType": "bytes"
        }
      ],
      "anonymous": false
    },
    {
      "type": "event",
      "name": "QuorumConfirmationThresholdPercentagesUpdated",
      "inputs": [
        {
          "name": "previousQuorumConfirmationThresholdPercentages",
          "type": "bytes",
          "indexed": false,
          "internalType": "bytes"
        },
        {
          "name": "newQuorumConfirmationThresholdPercentages",
          "type": "bytes",
          "indexed": false,
          "internalType": "bytes"
        }
      ],
      "anonymous": false
    },
    {
      "type": "event",
      "name": "QuorumNumbersRequiredUpdated",
      "inputs": [
        {
          "name": "previousQuorumNumbersRequired",
          "type": "bytes",
          "indexed": false,
          "internalType": "bytes"
        },
        {
          "name": "newQuorumNumbersRequired",
          "type": "bytes",
          "indexed": false,
          "internalType": "bytes"
        }
      ],
      "anonymous": false
    },
    {
      "type": "event",
      "name": "RewardsInitiatorUpdated",
      "inputs": [
        {
          "name": "prevRewardsInitiator",
          "type": "address",
          "indexed": false,
          "internalType": "address"
        },
        {
          "name": "newRewardsInitiator",
          "type": "address",
          "indexed": false,
          "internalType": "address"
        }
      ],
      "anonymous": false
    },
    {
      "type": "event",
      "name": "StaleStakesForbiddenUpdate",
      "inputs": [
        {
          "name": "value",
          "type": "bool",
          "indexed": false,
          "internalType": "bool"
        }
      ],
      "anonymous": false
    },
    {
      "type": "event",
      "name": "Unpaused",
      "inputs": [
        {
          "name": "account",
          "type": "address",
          "indexed": true,
          "internalType": "address"
        },
        {
          "name": "newPausedStatus",
          "type": "uint256",
          "indexed": false,
          "internalType": "uint256"
        }
      ],
      "anonymous": false
    },
    {
      "type": "event",
      "name": "VersionedBlobParamsAdded",
      "inputs": [
        {
          "name": "version",
          "type": "uint16",
          "indexed": true,
          "internalType": "uint16"
        },
        {
          "name": "versionedBlobParams",
          "type": "tuple",
          "indexed": false,
          "internalType": "struct EigenDATypesV1.VersionedBlobParams",
          "components": [
            {
              "name": "maxNumOperators",
              "type": "uint32",
              "internalType": "uint32"
            },
            {
              "name": "numChunks",
              "type": "uint32",
              "internalType": "uint32"
            },
            {
              "name": "codingRate",
              "type": "uint8",
              "internalType": "uint8"
            }
          ]
        }
      ],
      "anonymous": false
    }
  ],
  "bytecode": {
    "object": "0x610200604052348015610010575f5ffd5b5060405161611238038061611283398101604081905261002f916102e7565b6001600160a01b0380851660805280841660a05280831660c05280821660e0528089166101005280881661012052808716610140528516610160528588888288610077610210565b50505050806001600160a01b0316610180816001600160a01b031681525050806001600160a01b031663683048356040518163ffffffff1660e01b8152600401602060405180830381865afa1580156100d2573d5f5f3e3d5ffd5b505050506040513d601f19601f820116820180604052508101906100f69190610392565b6001600160a01b03166101a0816001600160a01b031681525050806001600160a01b0316635df459466040518163ffffffff1660e01b8152600401602060405180830381865afa15801561014c573d5f5f3e3d5ffd5b505050506040513d601f19601f820116820180604052508101906101709190610392565b6001600160a01b03166101c0816001600160a01b0316815250506101a0516001600160a01b031663df5cf7236040518163ffffffff1660e01b8152600401602060405180830381865afa1580156101c9573d5f5f3e3d5ffd5b505050506040513d601f19601f820116820180604052508101906101ed9190610392565b6001600160a01b03166101e05250610203610210565b50505050505050506103b4565b603254610100900460ff161561027c5760405162461bcd60e51b815260206004820152602760248201527f496e697469616c697a61626c653a20636f6e747261637420697320696e697469604482015266616c697a696e6760c81b606482015260840160405180910390fd5b60325460ff90811610156102ce576032805460ff191660ff9081179091556040519081527f7f26b83ff96e1f2b6a682f133852f6798a09c465da95921460cefb38474024989060200160405180910390a15b565b6001600160a01b03811681146102e4575f5ffd5b50565b5f5f5f5f5f5f5f5f610100898b0312156102ff575f5ffd5b885161030a816102d0565b60208a015190985061031b816102d0565b60408a015190975061032c816102d0565b60608a015190965061033d816102d0565b60808a015190955061034e816102d0565b60a08a015190945061035f816102d0565b60c08a0151909350610370816102d0565b60e08a0151909250610381816102d0565b809150509295985092959890939650565b5f602082840312156103a2575f5ffd5b81516103ad816102d0565b9392505050565b60805160a05160c05160e05161010051610120516101405161016051610180516101a0516101c0516101e051615bed6105255f395f81816106c40152611b4001525f81816104ac0152611d1c01525f81816104fe01528181611eef01526120a401525f818161054b0152818161127f01528181611823015281816119b40152611bda01525f8181610fc30152818161110e015281816111a201528181612f940152818161310601526131a201525f8181610df801528181610e8401528181610f0201528181612a2b01528181612d3601528181612ed4015261306401525f8181612b0e01528181612c6c01528181612cf20152818161351c01526135a701525f818161052201528181612a7f01528181612d920152612de001525f61076701525f61072d01525f61059b01525f81816107bc0152818161083101528181610ab801528181610ce501528181610d51015281816129a001528181612e1901528181612e76015261329d0152615bed5ff3fe608060405234801561000f575f5ffd5b50600436106102ff575f3560e01c80638687feae11610195578063e481af9d116100e4578063ef0244581161009e578063f8c6681411610079578063f8c66814146107b7578063fabc1cbc146107de578063fc299dee146107f1578063fce36c7d14610804575f5ffd5b8063ef02445814610789578063f122098314610791578063f2fde38b146107a4575f5ffd5b8063e481af9d146106ee578063eaefd27d146106f6578063eccbbfc914610709578063ed3916f714610728578063ee6c3bcf1461074f578063eeae17f614610762575f5ffd5b8063a364f4da1161014f578063b98d09081161012a578063b98d0908146106aa578063bafa9107146106b7578063df5cf723146106bf578063e15234ff146106e6575f5ffd5b8063a364f4da14610662578063a5b7890a14610675578063a98fb35514610697575f5ffd5b80638687feae146105f0578063886f1195146106055780638da5cb5b146106185780639926ee7d14610629578063a0169ddd1461063c578063a20b99bf1461064f575f5ffd5b80635c975abb116102515780636d14a9871161020b57806372276443116101e6578063722764431461059657806372d18e8d146105bd578063775bbcb5146105ca5780637794965a146105dd575f5ffd5b80636d14a987146105465780636efb46361461056d578063715018a61461058e575f5ffd5b80635c975abb146104955780635df45946146104a75780635e033476146104e65780635e8b3f2d146104f057806368304835146104f95780636b3aa72e14610520575f5ffd5b806332430f14116102bc578063416c7e5e11610297578063416c7e5e146104335780634972134a14610446578063595c6a671461046a5780635ac86ab714610472575f5ffd5b806332430f14146103e557806333cfb7b7146104005780633bc28c8c14610420575f5ffd5b8063048886d21461030357806310d67a2f1461032b578063136439dd146103405780631429c7c214610353578063171f1d5b146103785780632ecfe72b146103a2575b5f5ffd5b6103166103113660046147e0565b610817565b60405190151581526020015b60405180910390f35b61033e61033936600461480f565b6108a8565b005b61033e61034e36600461482a565b610961565b6103666103613660046147e0565b610a9e565b60405160ff9091168152602001610322565b61038b6103863660046149ac565b610b2a565b604080519215158352901515602083015201610322565b6103b56103b0366004614a09565b610cac565b60408051825163ffffffff9081168252602080850151909116908201529181015160ff1690820152606001610322565b6103ed610d4e565b60405161ffff9091168152602001610322565b61041361040e36600461480f565b610dd4565b6040516103229190614a2f565b61033e61042e36600461480f565b61126c565b61033e610441366004614a7c565b61127d565b5f546104559063ffffffff1681565b60405163ffffffff9091168152602001610322565b61033e6113b2565b6103166104803660046147e0565b60fc54600160ff9092169190911b9081161490565b60fc545b604051908152602001610322565b6104ce7f000000000000000000000000000000000000000000000000000000000000000081565b6040516001600160a01b039091168152602001610322565b610455620189c081565b61045561012c81565b6104ce7f000000000000000000000000000000000000000000000000000000000000000081565b7f00000000000000000000000000000000000000000000000000000000000000006104ce565b6104ce7f000000000000000000000000000000000000000000000000000000000000000081565b61058061057b366004614d69565b611476565b604051610322929190614e5b565b61033e61233e565b6104ce7f000000000000000000000000000000000000000000000000000000000000000081565b5f5463ffffffff16610455565b61033e6105d8366004614ea3565b612351565b61033e6105eb366004614f7b565b612485565b6105f861299c565b6040516103229190615010565b60fb546104ce906001600160a01b031681565b6065546001600160a01b03166104ce565b61033e61063736600461507e565b612a20565b61033e61064a36600461480f565b612ae7565b61033e61065d36600461516d565b612b69565b61033e61067036600461480f565b612d2b565b61031661068336600461480f565b60026020525f908152604090205460ff1681565b61033e6106a53660046151ab565b612dc1565b60c9546103169060ff1681565b6105f8612e15565b6104ce7f000000000000000000000000000000000000000000000000000000000000000081565b6105f8612e72565b610413612ecf565b6104556107043660046151ef565b613268565b6104996107173660046151ef565b60016020525f908152604090205481565b6104ce7f000000000000000000000000000000000000000000000000000000000000000081565b61036661075d3660046147e0565b613283565b6104ce7f000000000000000000000000000000000000000000000000000000000000000081565b610499606481565b61033e61079f36600461480f565b6132d4565b61033e6107b236600461480f565b6132e5565b6104ce7f000000000000000000000000000000000000000000000000000000000000000081565b61033e6107ec36600461482a565b61335b565b6097546104ce906001600160a01b031681565b61033e61081236600461516d565b6134b4565b604051630244436960e11b815260ff821660048201525f907f00000000000000000000000000000000000000000000000000000000000000006001600160a01b03169063048886d290602401602060405180830381865afa15801561087e573d5f5f3e3d5ffd5b505050506040513d601f19601f820116820180604052508101906108a2919061520a565b92915050565b60fb5f9054906101000a90046001600160a01b03166001600160a01b031663eab66d7a6040518163ffffffff1660e01b8152600401602060405180830381865afa1580156108f8573d5f5f3e3d5ffd5b505050506040513d601f19601f8201168201806040525081019061091c9190615225565b6001600160a01b0316336001600160a01b0316146109555760405162461bcd60e51b815260040161094c90615240565b60405180910390fd5b61095e816135de565b50565b60fb5460405163237dfb4760e11b81523360048201526001600160a01b03909116906346fbf68e90602401602060405180830381865afa1580156109a7573d5f5f3e3d5ffd5b505050506040513d601f19601f820116820180604052508101906109cb919061520a565b6109e75760405162461bcd60e51b815260040161094c9061528a565b60fc5481811614610a605760405162461bcd60e51b815260206004820152603860248201527f5061757361626c652e70617573653a20696e76616c696420617474656d70742060448201527f746f20756e70617573652066756e6374696f6e616c6974790000000000000000606482015260840161094c565b60fc81905560405181815233907fab40a374bc51de372200a8bc981af8c9ecdc08dfdaef0bb6e09f88f3c616ef3d906020015b60405180910390a250565b604051630a14e3e160e11b815260ff821660048201525f907f00000000000000000000000000000000000000000000000000000000000000006001600160a01b031690631429c7c2906024015b602060405180830381865afa158015610b06573d5f5f3e3d5ffd5b505050506040513d601f19601f820116820180604052508101906108a291906152d2565b5f5f5f7f30644e72e131a029b85045b68181585d2833e84879b9709143e1f593f000000187875f01518860200151885f01515f60028110610b6d57610b6d6152ed565b60200201518951600160200201518a602001515f60028110610b9157610b916152ed565b60200201518b60200151600160028110610bad57610bad6152ed565b602090810291909101518c518d830151604051610c0a9a99989796959401988952602089019790975260408801959095526060870193909352608086019190915260a085015260c084015260e08301526101008201526101200190565b604051602081830303815290604052805190602001205f1c610c2c9190615301565b9050610c9e610c45610c3e88846136d5565b8690613764565b610c4d6137f7565b610c94610c8585610c7f6040805180820182525f80825260209182015281518083019092526001825260029082015290565b906136d5565b610c8e8c6138b7565b90613764565b886201d4c0613941565b909890975095505050505050565b604080516060810182525f80825260208201819052818301529051632ecfe72b60e01b815261ffff831660048201526001600160a01b037f00000000000000000000000000000000000000000000000000000000000000001690632ecfe72b90602401606060405180830381865afa158015610d2a573d5f5f3e3d5ffd5b505050506040513d601f19601f820116820180604052508101906108a29190615320565b5f7f00000000000000000000000000000000000000000000000000000000000000006001600160a01b03166332430f146040518163ffffffff1660e01b8152600401602060405180830381865afa158015610dab573d5f5f3e3d5ffd5b505050506040513d601f19601f82011682018060405250810190610dcf9190615374565b905090565b6040516309aa152760e11b81526001600160a01b0382811660048301526060915f917f000000000000000000000000000000000000000000000000000000000000000016906313542a4e90602401602060405180830381865afa158015610e3d573d5f5f3e3d5ffd5b505050506040513d601f19601f82011682018060405250810190610e61919061538f565b60405163871ef04960e01b8152600481018290529091505f906001600160a01b037f0000000000000000000000000000000000000000000000000000000000000000169063871ef04990602401602060405180830381865afa158015610ec9573d5f5f3e3d5ffd5b505050506040513d601f19601f82011682018060405250810190610eed91906153a6565b90506001600160c01b0381161580610f8557507f00000000000000000000000000000000000000000000000000000000000000006001600160a01b0316639aa1653d6040518163ffffffff1660e01b8152600401602060405180830381865afa158015610f5c573d5f5f3e3d5ffd5b505050506040513d601f19601f82011682018060405250810190610f8091906152d2565b60ff16155b15610fa0575050604080515f81526020810190915292915050565b5f610fb3826001600160c01b0316613b55565b90505f805b825181101561107c577f00000000000000000000000000000000000000000000000000000000000000006001600160a01b0316633ca5a5f5848381518110611002576110026152ed565b01602001516040516001600160e01b031960e084901b16815260f89190911c6004820152602401602060405180830381865afa158015611044573d5f5f3e3d5ffd5b505050506040513d601f19601f82011682018060405250810190611068919061538f565b61107290836153e0565b9150600101610fb8565b505f816001600160401b0381111561109657611096614841565b6040519080825280602002602001820160405280156110bf578160200160208202803683370190505b5090505f805b845181101561125f575f8582815181106110e1576110e16152ed565b0160200151604051633ca5a5f560e01b815260f89190911c6004820181905291505f906001600160a01b037f00000000000000000000000000000000000000000000000000000000000000001690633ca5a5f590602401602060405180830381865afa158015611153573d5f5f3e3d5ffd5b505050506040513d601f19601f82011682018060405250810190611177919061538f565b90505f5b81811015611254576040516356e4026d60e11b815260ff84166004820152602481018290527f00000000000000000000000000000000000000000000000000000000000000006001600160a01b03169063adc804da906044016040805180830381865afa1580156111ee573d5f5f3e3d5ffd5b505050506040513d601f19601f820116820180604052508101906112129190615407565b5f0151868681518110611227576112276152ed565b6001600160a01b03909216602092830291909101909101528461124981615448565b95505060010161117b565b5050506001016110c5565b5090979650505050505050565b611274613c14565b61095e81613c6e565b7f00000000000000000000000000000000000000000000000000000000000000006001600160a01b0316638da5cb5b6040518163ffffffff1660e01b8152600401602060405180830381865afa1580156112d9573d5f5f3e3d5ffd5b505050506040513d601f19601f820116820180604052508101906112fd9190615225565b6001600160a01b0316336001600160a01b0316146113a95760405162461bcd60e51b815260206004820152605c60248201527f424c535369676e6174757265436865636b65722e6f6e6c79436f6f7264696e6160448201527f746f724f776e65723a2063616c6c6572206973206e6f7420746865206f776e6560648201527f72206f6620746865207265676973747279436f6f7264696e61746f7200000000608482015260a40161094c565b61095e81613cd7565b60fb5460405163237dfb4760e11b81523360048201526001600160a01b03909116906346fbf68e90602401602060405180830381865afa1580156113f8573d5f5f3e3d5ffd5b505050506040513d601f19601f8201168201806040525081019061141c919061520a565b6114385760405162461bcd60e51b815260040161094c9061528a565b5f1960fc81905560405190815233907fab40a374bc51de372200a8bc981af8c9ecdc08dfdaef0bb6e09f88f3c616ef3d9060200160405180910390a2565b60408051808201909152606080825260208201525f8481036114ed5760405162461bcd60e51b815260206004820152603760248201525f516020615b985f395f51905f5260448201527f7265733a20656d7074792071756f72756d20696e707574000000000000000000606482015260840161094c565b60408301515185148015611505575060a08301515185145b8015611515575060c08301515185145b8015611525575060e08301515185145b61158e5760405162461bcd60e51b815260206004820152604160248201525f516020615b985f395f51905f5260448201527f7265733a20696e7075742071756f72756d206c656e677468206d69736d6174636064820152600d60fb1b608482015260a40161094c565b825151602084015151146116055760405162461bcd60e51b8152602060048201526044602482018190525f516020615b985f395f51905f52908201527f7265733a20696e707574206e6f6e7369676e6572206c656e677468206d69736d6064820152630c2e8c6d60e31b608482015260a40161094c565b4363ffffffff168463ffffffff16106116735760405162461bcd60e51b815260206004820152603c60248201525f516020615b985f395f51905f5260448201527f7265733a20696e76616c6964207265666572656e636520626c6f636b00000000606482015260840161094c565b6040805180820182525f808252602080830191909152825180840190935260608084529083015290866001600160401b038111156116b3576116b3614841565b6040519080825280602002602001820160405280156116dc578160200160208202803683370190505b506020820152866001600160401b038111156116fa576116fa614841565b604051908082528060200260200182016040528015611723578160200160208202803683370190505b50815260408051808201909152606080825260208201528560200151516001600160401b0381111561175757611757614841565b604051908082528060200260200182016040528015611780578160200160208202803683370190505b5081526020860151516001600160401b038111156117a0576117a0614841565b6040519080825280602002602001820160405280156117c9578160200160208202803683370190505b5081602001819052505f6118978a8a8080601f0160208091040260200160405190810160405280939291908181526020018383808284375f920191909152505060408051639aa1653d60e01b815290516001600160a01b037f0000000000000000000000000000000000000000000000000000000000000000169350639aa1653d925060048083019260209291908290030181865afa15801561186e573d5f5f3e3d5ffd5b505050506040513d601f19601f8201168201806040525081019061189291906152d2565b613d1f565b90505f5b876020015151811015611b1e576118df886020015182815181106118c1576118c16152ed565b602002602001015180515f9081526020918201519091526040902090565b836020015182815181106118f5576118f56152ed565b602090810291909101015280156119b2576020830151611916600183615460565b81518110611926576119266152ed565b60200260200101515f1c83602001518281518110611946576119466152ed565b60200260200101515f1c116119b2576040805162461bcd60e51b81526020600482015260248101919091525f516020615b985f395f51905f5260448201527f7265733a206e6f6e5369676e65725075626b657973206e6f7420736f72746564606482015260840161094c565b7f00000000000000000000000000000000000000000000000000000000000000006001600160a01b03166304ec6351846020015183815181106119f7576119f76152ed565b60200260200101518b8b5f01518581518110611a1557611a156152ed565b60200260200101516040518463ffffffff1660e01b8152600401611a529392919092835263ffffffff918216602084015216604082015260600190565b602060405180830381865afa158015611a6d573d5f5f3e3d5ffd5b505050506040513d601f19601f82011682018060405250810190611a9191906153a6565b6001600160c01b0316835f01518281518110611aaf57611aaf6152ed565b602002602001018181525050611b14610c3e611ae884865f01518581518110611ada57611ada6152ed565b602002602001015116613daf565b8a602001518481518110611afe57611afe6152ed565b6020026020010151613dd990919063ffffffff16565b945060010161189b565b5050611b2983613eba565b60c95490935060ff165f81611b3e575f611bbe565b7f00000000000000000000000000000000000000000000000000000000000000006001600160a01b031663c448feb86040518163ffffffff1660e01b8152600401602060405180830381865afa158015611b9a573d5f5f3e3d5ffd5b505050506040513d601f19601f82011682018060405250810190611bbe919061538f565b90505f5b8a811015612211578215611d1a578963ffffffff16827f00000000000000000000000000000000000000000000000000000000000000006001600160a01b031663249a0c428f8f86818110611c1957611c196152ed565b60405160e085901b6001600160e01b031916815292013560f81c600483015250602401602060405180830381865afa158015611c57573d5f5f3e3d5ffd5b505050506040513d601f19601f82011682018060405250810190611c7b919061538f565b611c8591906153e0565b11611d1a5760405162461bcd60e51b815260206004820152606660248201525f516020615b985f395f51905f5260448201527f7265733a205374616b6552656769737472792075706461746573206d7573742060648201527f62652077697468696e207769746864726177616c44656c6179426c6f636b732060848201526577696e646f7760d01b60a482015260c40161094c565b7f00000000000000000000000000000000000000000000000000000000000000006001600160a01b03166368bccaac8d8d84818110611d5b57611d5b6152ed565b9050013560f81c60f81b60f81c8c8c60a001518581518110611d7f57611d7f6152ed565b60209081029190910101516040516001600160e01b031960e086901b16815260ff909316600484015263ffffffff9182166024840152166044820152606401602060405180830381865afa158015611dd9573d5f5f3e3d5ffd5b505050506040513d601f19601f82011682018060405250810190611dfd9190615473565b6001600160401b031916611e208a6040015183815181106118c1576118c16152ed565b67ffffffffffffffff191614611ebb5760405162461bcd60e51b815260206004820152606160248201525f516020615b985f395f51905f5260448201527f7265733a2071756f72756d41706b206861736820696e2073746f72616765206460648201527f6f6573206e6f74206d617463682070726f76696465642071756f72756d2061706084820152606b60f81b60a482015260c40161094c565b611eeb89604001518281518110611ed457611ed46152ed565b60200260200101518761376490919063ffffffff16565b95507f00000000000000000000000000000000000000000000000000000000000000006001600160a01b031663c8294c568d8d84818110611f2e57611f2e6152ed565b9050013560f81c60f81b60f81c8c8c60c001518581518110611f5257611f526152ed565b60209081029190910101516040516001600160e01b031960e086901b16815260ff909316600484015263ffffffff9182166024840152166044820152606401602060405180830381865afa158015611fac573d5f5f3e3d5ffd5b505050506040513d601f19601f82011682018060405250810190611fd0919061549b565b85602001518281518110611fe657611fe66152ed565b6001600160601b03909216602092830291909101820152850151805182908110612012576120126152ed565b6020026020010151855f0151828151811061202f5761202f6152ed565b6001600160601b03909216602092830291909101909101525f805b8a60200151518110156122075761209d865f0151828151811061206f5761206f6152ed565b60200260200101518f8f86818110612089576120896152ed565b600192013560f81c9290921c811614919050565b156121ff577f00000000000000000000000000000000000000000000000000000000000000006001600160a01b031663f2be94ae8f8f868181106120e3576120e36152ed565b9050013560f81c60f81b60f81c8e89602001518581518110612107576121076152ed565b60200260200101518f60e001518881518110612125576121256152ed565b6020026020010151878151811061213e5761213e6152ed565b60209081029190910101516040516001600160e01b031960e087901b16815260ff909416600485015263ffffffff92831660248501526044840191909152166064820152608401602060405180830381865afa1580156121a0573d5f5f3e3d5ffd5b505050506040513d601f19601f820116820180604052508101906121c4919061549b565b87518051859081106121d8576121d86152ed565b602002602001018181516121ec91906154b6565b6001600160601b03169052506001909101905b60010161204a565b5050600101611bc2565b5050505f5f61222a8c868a606001518b60800151610b2a565b915091508161229a5760405162461bcd60e51b815260206004820152604360248201525f516020615b985f395f51905f5260448201527f7265733a2070616972696e6720707265636f6d70696c652063616c6c206661696064820152621b195960ea1b608482015260a40161094c565b806122fa5760405162461bcd60e51b815260206004820152603960248201525f516020615b985f395f51905f5260448201527f7265733a207369676e617475726520697320696e76616c696400000000000000606482015260840161094c565b50505f8782602001516040516020016123149291906154d5565b60408051808303601f190181529190528051602090910120929b929a509198505050505050505050565b612346613c14565b61234f5f613f50565b565b603254600290610100900460ff16158015612373575060325460ff8083169116105b6123d65760405162461bcd60e51b815260206004820152602e60248201527f496e697469616c697a61626c653a20636f6e747261637420697320616c72656160448201526d191e481a5b9a5d1a585b1a5e995960921b606482015260840161094c565b6032805461ffff191660ff8316176101001790556123f48686613fa1565b6123fd84613f50565b61240682613c6e565b5f5b835181101561243b57612433848281518110612426576124266152ed565b6020026020010151613fe8565b600101612408565b506032805461ff001916905560405160ff821681527f7f26b83ff96e1f2b6a682f133852f6798a09c465da95921460cefb38474024989060200160405180910390a1505050505050565b60fc545f906001908116036124dc5760405162461bcd60e51b815260206004820152601960248201527f5061757361626c653a20696e6465782069732070617573656400000000000000604482015260640161094c565b335f9081526002602052604090205460ff166124f6575f5ffd5b32331461255b5760405162461bcd60e51b815260206004820152602d60248201527f68656164657220616e64206e6f6e7369676e65722064617461206d757374206260448201526c6520696e2063616c6c6461746160981b606482015260840161094c565b4361256c60808501606086016151ef565b63ffffffff16106125d35760405162461bcd60e51b815260206004820152602b60248201527f737065636966696564207265666572656e6365426c6f636b4e756d626572206960448201526a7320696e2066757475726560a81b606482015260840161094c565b63ffffffff431661012c6125ed60808601606087016151ef565b6125f7919061551b565b63ffffffff1610156126655760405162461bcd60e51b815260206004820152603160248201527f737065636966696564207265666572656e6365426c6f636b4e756d62657220696044820152701cc81d1bdbc819985c881a5b881c185cdd607a1b606482015260840161094c565b6126726040840184615537565b90506126816020850185615537565b9050146126f65760405162461bcd60e51b815260206004820152603b60248201527f71756f72756d4e756d6265727320616e64207369676e65645374616b65466f7260448201527f51756f72756d73206d7573742062652073616d65206c656e6774680000000000606482015260840161094c565b60408051808201909152833581525f906020810161271a60808701606088016151ef565b63ffffffff16905260405161274a91906020018151815260209182015163ffffffff169181019190915260400190565b6040516020818303038152906040528051906020012090505f5f61278e838780602001906127789190615537565b61278860808b0160608c016151ef565b89611476565b90925090505f5b6127a26040880188615537565b90508110156128b7576127b86040880188615537565b828181106127c8576127c86152ed565b9050013560f81c60f81b60f81c60ff16836020015182815181106127ee576127ee6152ed565b60200260200101516128009190615579565b6001600160601b03166064845f01518381518110612820576128206152ed565b60200260200101516001600160601b031661283b91906155a2565b10156128af5760405162461bcd60e51b815260206004820152603760248201527f7369676e61746f7269657320646f206e6f74206f776e207468726573686f6c6460448201527f2070657263656e74616765206f6620612071756f72756d000000000000000000606482015260840161094c565b600101612795565b505f805460405163ffffffff90911691906128d6908990602001615622565b60408051601f1981840301815282825280516020918201209083018190529082018590526001600160e01b03194360e01b166060830152915060640160408051808303601f19018152828252805160209182012063ffffffff86165f81815260018452939093205590825286917fc75557c4ad49697e231449688be13ef11cb6be8ed0d18819d8dde074a5a16f8a910160405180910390a261297982600161551b565b5f805463ffffffff191663ffffffff929092169190911790555050505050505050565b60607f00000000000000000000000000000000000000000000000000000000000000006001600160a01b0316638687feae6040518163ffffffff1660e01b81526004015f60405180830381865afa1580156129f9573d5f5f3e3d5ffd5b505050506040513d5f823e601f3d908101601f19168201604052610dcf919081019061569f565b336001600160a01b037f00000000000000000000000000000000000000000000000000000000000000001614612a685760405162461bcd60e51b815260040161094c90615713565b604051639926ee7d60e01b81526001600160a01b037f00000000000000000000000000000000000000000000000000000000000000001690639926ee7d90612ab6908590859060040161578b565b5f604051808303815f87803b158015612acd575f5ffd5b505af1158015612adf573d5f5f3e3d5ffd5b505050505050565b612aef613c14565b60405163a0169ddd60e01b81526001600160a01b0382811660048301527f0000000000000000000000000000000000000000000000000000000000000000169063a0169ddd906024015b5f604051808303815f87803b158015612b50575f5ffd5b505af1158015612b62573d5f5f3e3d5ffd5b5050505050565b612b7161404a565b5f5b81811015612cda575f805b848484818110612b9057612b906152ed565b9050602002810190612ba291906157d5565b612bb09060408101906157f3565b9050811015612c1a57848484818110612bcb57612bcb6152ed565b9050602002810190612bdd91906157d5565b612beb9060408101906157f3565b82818110612bfb57612bfb6152ed565b9050604002016020013582612c1091906153e0565b9150600101612b7e565b50612c67333083878787818110612c3357612c336152ed565b9050602002810190612c4591906157d5565b612c5690604081019060200161480f565b6001600160a01b03169291906140df565b612cd17f000000000000000000000000000000000000000000000000000000000000000082868686818110612c9e57612c9e6152ed565b9050602002810190612cb091906157d5565b612cc190604081019060200161480f565b6001600160a01b03169190614150565b50600101612b73565b50604051634e5cd2fd60e11b81526001600160a01b037f00000000000000000000000000000000000000000000000000000000000000001690639cb9a5fa90612ab6903090869086906004016158d6565b336001600160a01b037f00000000000000000000000000000000000000000000000000000000000000001614612d735760405162461bcd60e51b815260040161094c90615713565b6040516351b27a6d60e11b81526001600160a01b0382811660048301527f0000000000000000000000000000000000000000000000000000000000000000169063a364f4da90602401612b39565b612dc9613c14565b60405163a98fb35560e01b81526001600160a01b037f0000000000000000000000000000000000000000000000000000000000000000169063a98fb35590612b39908490600401615010565b60607f00000000000000000000000000000000000000000000000000000000000000006001600160a01b031663bafa91076040518163ffffffff1660e01b81526004015f60405180830381865afa1580156129f9573d5f5f3e3d5ffd5b60607f00000000000000000000000000000000000000000000000000000000000000006001600160a01b031663e15234ff6040518163ffffffff1660e01b81526004015f60405180830381865afa1580156129f9573d5f5f3e3d5ffd5b60605f7f00000000000000000000000000000000000000000000000000000000000000006001600160a01b0316639aa1653d6040518163ffffffff1660e01b8152600401602060405180830381865afa158015612f2e573d5f5f3e3d5ffd5b505050506040513d601f19601f82011682018060405250810190612f5291906152d2565b60ff169050805f03612f71575050604080515f81526020810190915290565b5f805b8281101561301957604051633ca5a5f560e01b815260ff821660048201527f00000000000000000000000000000000000000000000000000000000000000006001600160a01b031690633ca5a5f590602401602060405180830381865afa158015612fe1573d5f5f3e3d5ffd5b505050506040513d601f19601f82011682018060405250810190613005919061538f565b61300f90836153e0565b9150600101612f74565b505f816001600160401b0381111561303357613033614841565b60405190808252806020026020018201604052801561305c578160200160208202803683370190505b5090505f805b7f00000000000000000000000000000000000000000000000000000000000000006001600160a01b0316639aa1653d6040518163ffffffff1660e01b8152600401602060405180830381865afa1580156130be573d5f5f3e3d5ffd5b505050506040513d601f19601f820116820180604052508101906130e291906152d2565b60ff1681101561325e57604051633ca5a5f560e01b815260ff821660048201525f907f00000000000000000000000000000000000000000000000000000000000000006001600160a01b031690633ca5a5f590602401602060405180830381865afa158015613153573d5f5f3e3d5ffd5b505050506040513d601f19601f82011682018060405250810190613177919061538f565b90505f5b81811015613254576040516356e4026d60e11b815260ff84166004820152602481018290527f00000000000000000000000000000000000000000000000000000000000000006001600160a01b03169063adc804da906044016040805180830381865afa1580156131ee573d5f5f3e3d5ffd5b505050506040513d601f19601f820116820180604052508101906132129190615407565b5f0151858581518110613227576132276152ed565b6001600160a01b03909216602092830291909101909101528361324981615448565b94505060010161317b565b5050600101613062565b5090949350505050565b5f61012c613279620189c08461551b565b6108a2919061551b565b60405163ee6c3bcf60e01b815260ff821660048201525f907f00000000000000000000000000000000000000000000000000000000000000006001600160a01b03169063ee6c3bcf90602401610aeb565b6132dc613c14565b61095e81613fe8565b6132ed613c14565b6001600160a01b0381166133525760405162461bcd60e51b815260206004820152602660248201527f4f776e61626c653a206e6577206f776e657220697320746865207a65726f206160448201526564647265737360d01b606482015260840161094c565b61095e81613f50565b60fb5f9054906101000a90046001600160a01b03166001600160a01b031663eab66d7a6040518163ffffffff1660e01b8152600401602060405180830381865afa1580156133ab573d5f5f3e3d5ffd5b505050506040513d601f19601f820116820180604052508101906133cf9190615225565b6001600160a01b0316336001600160a01b0316146133ff5760405162461bcd60e51b815260040161094c90615240565b60fc5419811960fc5419161461347d5760405162461bcd60e51b815260206004820152603860248201527f5061757361626c652e756e70617573653a20696e76616c696420617474656d7060448201527f7420746f2070617573652066756e6374696f6e616c6974790000000000000000606482015260840161094c565b60fc81905560405181815233907f3582d1828e26bf56bd801502bc021ac0bc8afb57c826e4986b45593c8fad389c90602001610a93565b6134bc61404a565b5f5b8181101561358f5761351733308585858181106134dd576134dd6152ed565b90506020028101906134ef9190615a45565b60400135868686818110613505576135056152ed565b9050602002810190612c459190615a45565b6135877f000000000000000000000000000000000000000000000000000000000000000084848481811061354d5761354d6152ed565b905060200281019061355f9190615a45565b60400135858585818110613575576135756152ed565b9050602002810190612cb09190615a45565b6001016134be565b5060405163fce36c7d60e01b81526001600160a01b037f0000000000000000000000000000000000000000000000000000000000000000169063fce36c7d90612ab69085908590600401615a59565b6001600160a01b03811661366c5760405162461bcd60e51b815260206004820152604960248201527f5061757361626c652e5f73657450617573657252656769737472793a206e657760448201527f50617573657252656769737472792063616e6e6f7420626520746865207a65726064820152686f206164647265737360b81b608482015260a40161094c565b60fb54604080516001600160a01b03928316815291831660208301527f6e9fcd539896fca60e8b0f01dd580233e48a6b0f7df013b89ba7f565869acdb6910160405180910390a160fb80546001600160a01b0319166001600160a01b0392909216919091179055565b604080518082019091525f80825260208201526136f06146f8565b835181526020808501519082015260408082018490525f908360608460076107d05a03fa9050808061371e57fe5b508061375c5760405162461bcd60e51b815260206004820152600d60248201526c1958cb5b5d5b0b59985a5b1959609a1b604482015260640161094c565b505092915050565b604080518082019091525f808252602082015261377f614716565b835181526020808501518183015283516040808401919091529084015160608301525f908360808460066107d05a03fa905080806137b957fe5b508061375c5760405162461bcd60e51b815260206004820152600d60248201526c1958cb5859190b59985a5b1959609a1b604482015260640161094c565b6137ff614734565b50604080516080810182527f198e9393920d483a7260bfb731fb5d25f1aa493335a9e71297e485b7aef312c28183019081527f1800deef121f1e76426a00665e5c4479674322d4f75edadd46debd5cd992f6ed6060830152815281518083019092527f275dc4a288d1afb3cbb1ac09187524c7db36395df7be3b99e673b13a075a65ec82527f1d9befcd05a5323e6da4d435f3b617cdb3af83285c2df711ef39c01571827f9d60208381019190915281019190915290565b604080518082019091525f80825260208201525f80806138e45f516020615b785f395f51905f5286615301565b90505b6138f0816141ff565b90935091505f516020615b785f395f51905f528283098303613928576040805180820190915290815260208101919091529392505050565b5f516020615b785f395f51905f526001820890506138e7565b6040805180820182528681526020808201869052825180840190935286835282018490525f91829190613972614759565b5f5b6002811015613b29575f6139898260066155a2565b905084826002811061399d5761399d6152ed565b602002015151836139ae835f6153e0565b600c81106139be576139be6152ed565b60200201528482600281106139d5576139d56152ed565b602002015160200151838260016139ec91906153e0565b600c81106139fc576139fc6152ed565b6020020152838260028110613a1357613a136152ed565b6020020151515183613a268360026153e0565b600c8110613a3657613a366152ed565b6020020152838260028110613a4d57613a4d6152ed565b6020020151516001602002015183613a668360036153e0565b600c8110613a7657613a766152ed565b6020020152838260028110613a8d57613a8d6152ed565b6020020151602001515f60028110613aa757613aa76152ed565b602002015183613ab88360046153e0565b600c8110613ac857613ac86152ed565b6020020152838260028110613adf57613adf6152ed565b602002015160200151600160028110613afa57613afa6152ed565b602002015183613b0b8360056153e0565b600c8110613b1b57613b1b6152ed565b602002015250600101613974565b50613b32614778565b5f6020826101808560088cfa9151919c9115159b50909950505050505050505050565b60605f5f613b6284613daf565b61ffff166001600160401b03811115613b7d57613b7d614841565b6040519080825280601f01601f191660200182016040528015613ba7576020820181803683370190505b5090505f805b825182108015613bbe575061010081105b1561325e576001811b935085841615613c04578060f81b838381518110613be757613be76152ed565b60200101906001600160f81b03191690815f1a9053508160010191505b613c0d81615448565b9050613bad565b6065546001600160a01b0316331461234f5760405162461bcd60e51b815260206004820181905260248201527f4f776e61626c653a2063616c6c6572206973206e6f7420746865206f776e6572604482015260640161094c565b609754604080516001600160a01b03928316815291831660208301527fe11cddf1816a43318ca175bbc52cd0185436e9cbead7c83acc54a73e461717e3910160405180910390a1609780546001600160a01b0319166001600160a01b0392909216919091179055565b60c9805460ff19168215159081179091556040519081527f40e4ed880a29e0f6ddce307457fb75cddf4feef7d3ecb0301bfdf4976a0e2dfc906020015b60405180910390a150565b5f5f613d2a8461427b565b9050808360ff166001901b11613da85760405162461bcd60e51b815260206004820152603f60248201527f4269746d61705574696c732e6f72646572656442797465734172726179546f4260448201527f69746d61703a206269746d61702065786365656473206d61782076616c756500606482015260840161094c565b9392505050565b5f805b82156108a257613dc3600184615460565b9092169180613dd181615b41565b915050613db2565b604080518082019091525f80825260208201526102008261ffff1610613e345760405162461bcd60e51b815260206004820152601060248201526f7363616c61722d746f6f2d6c6172676560801b604482015260640161094c565b8161ffff16600103613e475750816108a2565b604080518082019091525f8082526020820181905284906001905b8161ffff168661ffff1610613eaf57600161ffff871660ff83161c81169003613e9257613e8f8484613764565b93505b613e9c8384613764565b92506201fffe600192831b169101613e62565b509195945050505050565b604080518082019091525f80825260208201528151158015613ede57506020820151155b15613efb575050604080518082019091525f808252602082015290565b6040518060400160405280835f015181526020015f516020615b785f395f51905f528460200151613f2c9190615301565b613f43905f516020615b785f395f51905f52615460565b905292915050565b919050565b606580546001600160a01b038381166001600160a01b0319831681179093556040519116919082907f8be0079c531659141344cd1fd0a4f28419497f9722a3daafe3b4186f6b6457e0905f90a35050565b60fc81905560405181815233907fab40a374bc51de372200a8bc981af8c9ecdc08dfdaef0bb6e09f88f3c616ef3d9060200160405180910390a2613fe4826135de565b5050565b6001600160a01b0381165f81815260026020908152604091829020805460ff8082161560ff1990921682179092558351948552161515908301527f5c3265f5fb462ef4930fe47beaa183647c97f19ba545b761f41bc8cd4621d4149101613d14565b6097546001600160a01b0316331461234f5760405162461bcd60e51b815260206004820152604c60248201527f536572766963654d616e61676572426173652e6f6e6c7952657761726473496e60448201527f69746961746f723a2063616c6c6572206973206e6f742074686520726577617260648201526b32399034b734ba34b0ba37b960a11b608482015260a40161094c565b6040516001600160a01b038085166024830152831660448201526064810182905261414a9085906323b872dd60e01b906084015b60408051601f198184030181529190526020810180516001600160e01b03166001600160e01b0319909316929092179091526143fe565b50505050565b604051636eb1769f60e11b81523060048201526001600160a01b0383811660248301525f91839186169063dd62ed3e90604401602060405180830381865afa15801561419e573d5f5f3e3d5ffd5b505050506040513d601f19601f820116820180604052508101906141c2919061538f565b6141cc91906153e0565b6040516001600160a01b03851660248201526044810182905290915061414a90859063095ea7b360e01b90606401614113565b5f80805f516020615b785f395f51905f5260035f516020615b785f395f51905f52865f516020615b785f395f51905f52888909090890505f61426f827f0c19139cb84c680a6e14116da060561765e05aa45a1c72a34f082305b61f3f525f516020615b785f395f51905f526144d4565b91959194509092505050565b5f610100825111156143035760405162461bcd60e51b8152602060048201526044602482018190527f4269746d61705574696c732e6f72646572656442797465734172726179546f42908201527f69746d61703a206f7264657265644279746573417272617920697320746f6f206064820152636c6f6e6760e01b608482015260a40161094c565b81515f0361431257505f919050565b5f5f835f81518110614326576143266152ed565b0160200151600160f89190911c81901b92505b84518110156143f557848181518110614354576143546152ed565b0160200151600160f89190911c1b91508282116143e95760405162461bcd60e51b815260206004820152604760248201527f4269746d61705574696c732e6f72646572656442797465734172726179546f4260448201527f69746d61703a206f72646572656442797465734172726179206973206e6f74206064820152661bdc99195c995960ca1b608482015260a40161094c565b91811791600101614339565b50909392505050565b5f614452826040518060400160405280602081526020017f5361666545524332303a206c6f772d6c6576656c2063616c6c206661696c6564815250856001600160a01b031661457c9092919063ffffffff16565b8051909150156144cf5780806020019051810190614470919061520a565b6144cf5760405162461bcd60e51b815260206004820152602a60248201527f5361666545524332303a204552433230206f7065726174696f6e20646964206e6044820152691bdd081cdd58d8d9595960b21b606482015260840161094c565b505050565b5f5f6144de614778565b6144e6614796565b602080825281810181905260408201819052606082018890526080820187905260a082018690528260c08360056107d05a03fa9250828061452357fe5b50826145715760405162461bcd60e51b815260206004820152601a60248201527f424e3235342e6578704d6f643a2063616c6c206661696c757265000000000000604482015260640161094c565b505195945050505050565b606061458a84845f85614592565b949350505050565b6060824710156145f35760405162461bcd60e51b815260206004820152602660248201527f416464726573733a20696e73756666696369656e742062616c616e636520666f6044820152651c8818d85b1b60d21b606482015260840161094c565b6001600160a01b0385163b61464a5760405162461bcd60e51b815260206004820152601d60248201527f416464726573733a2063616c6c20746f206e6f6e2d636f6e7472616374000000604482015260640161094c565b5f5f866001600160a01b031685876040516146659190615b61565b5f6040518083038185875af1925050503d805f811461469f576040519150601f19603f3d011682016040523d82523d5f602084013e6146a4565b606091505b50915091506146b48282866146bf565b979650505050505050565b606083156146ce575081613da8565b8251156146de5782518084602001fd5b8160405162461bcd60e51b815260040161094c9190615010565b60405180606001604052806003906020820280368337509192915050565b60405180608001604052806004906020820280368337509192915050565b60405180604001604052806147476147b4565b81526020016147546147b4565b905290565b604051806101800160405280600c906020820280368337509192915050565b60405180602001604052806001906020820280368337509192915050565b6040518060c001604052806006906020820280368337509192915050565b60405180604001604052806002906020820280368337509192915050565b60ff8116811461095e575f5ffd5b5f602082840312156147f0575f5ffd5b8135613da8816147d2565b6001600160a01b038116811461095e575f5ffd5b5f6020828403121561481f575f5ffd5b8135613da8816147fb565b5f6020828403121561483a575f5ffd5b5035919050565b634e487b7160e01b5f52604160045260245ffd5b604080519081016001600160401b038111828210171561487757614877614841565b60405290565b60405161010081016001600160401b038111828210171561487757614877614841565b604051606081016001600160401b038111828210171561487757614877614841565b604051601f8201601f191681016001600160401b03811182821017156148ea576148ea614841565b604052919050565b5f60408284031215614902575f5ffd5b61490a614855565b823581526020928301359281019290925250919050565b5f82601f830112614930575f5ffd5b614938614855565b806040840185811115614949575f5ffd5b845b8181101561496357803584526020938401930161494b565b509095945050505050565b5f6080828403121561497e575f5ffd5b614986614855565b90506149928383614921565b81526149a18360408401614921565b602082015292915050565b5f5f5f5f61012085870312156149c0575f5ffd5b843593506149d186602087016148f2565b92506149e0866060870161496e565b91506149ef8660e087016148f2565b905092959194509250565b61ffff8116811461095e575f5ffd5b5f60208284031215614a19575f5ffd5b8135613da8816149fa565b8035613f4b816147fb565b602080825282518282018190525f918401906040840190835b818110156149635783516001600160a01b0316835260209384019390920191600101614a48565b801515811461095e575f5ffd5b5f60208284031215614a8c575f5ffd5b8135613da881614a6f565b63ffffffff8116811461095e575f5ffd5b8035613f4b81614a97565b5f6001600160401b03821115614acb57614acb614841565b5060051b60200190565b5f82601f830112614ae4575f5ffd5b8135614af7614af282614ab3565b6148c2565b8082825260208201915060208360051b860101925085831115614b18575f5ffd5b602085015b83811015614b3e578035614b3081614a97565b835260209283019201614b1d565b5095945050505050565b5f82601f830112614b57575f5ffd5b8135614b65614af282614ab3565b8082825260208201915060208360061b860101925085831115614b86575f5ffd5b602085015b83811015614b3e57614b9d87826148f2565b8352602090920191604001614b8b565b5f82601f830112614bbc575f5ffd5b8135614bca614af282614ab3565b8082825260208201915060208360051b860101925085831115614beb575f5ffd5b602085015b83811015614b3e5780356001600160401b03811115614c0d575f5ffd5b614c1c886020838a0101614ad5565b84525060209283019201614bf0565b5f6101808284031215614c3c575f5ffd5b614c4461487d565b905081356001600160401b03811115614c5b575f5ffd5b614c6784828501614ad5565b82525060208201356001600160401b03811115614c82575f5ffd5b614c8e84828501614b48565b60208301525060408201356001600160401b03811115614cac575f5ffd5b614cb884828501614b48565b604083015250614ccb836060840161496e565b6060820152614cdd8360e084016148f2565b60808201526101208201356001600160401b03811115614cfb575f5ffd5b614d0784828501614ad5565b60a0830152506101408201356001600160401b03811115614d26575f5ffd5b614d3284828501614ad5565b60c0830152506101608201356001600160401b03811115614d51575f5ffd5b614d5d84828501614bad565b60e08301525092915050565b5f5f5f5f5f60808688031215614d7d575f5ffd5b8535945060208601356001600160401b03811115614d99575f5ffd5b8601601f81018813614da9575f5ffd5b80356001600160401b03811115614dbe575f5ffd5b886020828401011115614dcf575f5ffd5b60209190910194509250614de560408701614aa8565b915060608601356001600160401b03811115614dff575f5ffd5b614e0b88828901614c2b565b9150509295509295909350565b5f8151808452602084019350602083015f5b82811015614e515781516001600160601b0316865260209586019590910190600101614e2a565b5093949350505050565b604081525f8351604080840152614e756080840182614e18565b90506020850151603f19848303016060850152614e928282614e18565b925050508260208301529392505050565b5f5f5f5f5f60a08688031215614eb7575f5ffd5b8535614ec2816147fb565b9450602086013593506040860135614ed9816147fb565b925060608601356001600160401b03811115614ef3575f5ffd5b8601601f81018813614f03575f5ffd5b8035614f11614af282614ab3565b8082825260208201915060208360051b85010192508a831115614f32575f5ffd5b6020840193505b82841015614f5d578335614f4c816147fb565b825260209384019390910190614f39565b9450614f6f9250505060808701614a24565b90509295509295909350565b5f5f60408385031215614f8c575f5ffd5b82356001600160401b03811115614fa1575f5ffd5b830160808186031215614fb2575f5ffd5b915060208301356001600160401b03811115614fcc575f5ffd5b614fd885828601614c2b565b9150509250929050565b5f81518084528060208401602086015e5f602082860101526020601f19601f83011685010191505092915050565b602081525f613da86020830184614fe2565b5f6001600160401b0382111561503a5761503a614841565b50601f01601f191660200190565b5f615055614af284615022565b9050828152838383011115615068575f5ffd5b828260208301375f602084830101529392505050565b5f5f6040838503121561508f575f5ffd5b823561509a816147fb565b915060208301356001600160401b038111156150b4575f5ffd5b8301606081860312156150c5575f5ffd5b6150cd6148a0565b81356001600160401b038111156150e2575f5ffd5b8201601f810187136150f2575f5ffd5b61510187823560208401615048565b8252506020828101359082015260409182013591810191909152919491935090915050565b5f5f83601f840112615136575f5ffd5b5081356001600160401b0381111561514c575f5ffd5b6020830191508360208260051b8501011115615166575f5ffd5b9250929050565b5f5f6020838503121561517e575f5ffd5b82356001600160401b03811115615193575f5ffd5b61519f85828601615126565b90969095509350505050565b5f602082840312156151bb575f5ffd5b81356001600160401b038111156151d0575f5ffd5b8201601f810184136151e0575f5ffd5b61458a84823560208401615048565b5f602082840312156151ff575f5ffd5b8135613da881614a97565b5f6020828403121561521a575f5ffd5b8151613da881614a6f565b5f60208284031215615235575f5ffd5b8151613da8816147fb565b6020808252602a908201527f6d73672e73656e646572206973206e6f74207065726d697373696f6e6564206160408201526939903ab73830bab9b2b960b11b606082015260800190565b60208082526028908201527f6d73672e73656e646572206973206e6f74207065726d697373696f6e6564206160408201526739903830bab9b2b960c11b606082015260800190565b5f602082840312156152e2575f5ffd5b8151613da8816147d2565b634e487b7160e01b5f52603260045260245ffd5b5f8261531b57634e487b7160e01b5f52601260045260245ffd5b500690565b5f6060828403128015615331575f5ffd5b5061533a6148a0565b825161534581614a97565b8152602083015161535581614a97565b60208201526040830151615368816147d2565b60408201529392505050565b5f60208284031215615384575f5ffd5b8151613da8816149fa565b5f6020828403121561539f575f5ffd5b5051919050565b5f602082840312156153b6575f5ffd5b81516001600160c01b0381168114613da8575f5ffd5b634e487b7160e01b5f52601160045260245ffd5b808201808211156108a2576108a26153cc565b6001600160601b038116811461095e575f5ffd5b5f6040828403128015615418575f5ffd5b50615421614855565b825161542c816147fb565b8152602083015161543c816153f3565b60208201529392505050565b5f60018201615459576154596153cc565b5060010190565b818103818111156108a2576108a26153cc565b5f60208284031215615483575f5ffd5b815167ffffffffffffffff1981168114613da8575f5ffd5b5f602082840312156154ab575f5ffd5b8151613da8816153f3565b6001600160601b0382811682821603908111156108a2576108a26153cc565b63ffffffff60e01b8360e01b1681525f600482018351602085015f5b8281101561550f5781518452602093840193909101906001016154f1565b50919695505050505050565b63ffffffff81811683821601908111156108a2576108a26153cc565b5f5f8335601e1984360301811261554c575f5ffd5b8301803591506001600160401b03821115615565575f5ffd5b602001915036819003821315615166575f5ffd5b6001600160601b03818116838216029081169081811461559b5761559b6153cc565b5092915050565b80820281158282048414176108a2576108a26153cc565b5f5f8335601e198436030181126155ce575f5ffd5b83016020810192503590506001600160401b038111156155ec575f5ffd5b803603821315615166575f5ffd5b81835281816020850137505f828201602090810191909152601f909101601f19169091010190565b60208082528235828201525f9061563b908401846155b9565b6080604085015261565060a0850182846155fa565b91505061566060408501856155b9565b848303601f190160608601526156778382846155fa565b92505050606084013561568981614a97565b63ffffffff166080939093019290925250919050565b5f602082840312156156af575f5ffd5b81516001600160401b038111156156c4575f5ffd5b8201601f810184136156d4575f5ffd5b80516156e2614af282615022565b8181528560208385010111156156f6575f5ffd5b8160208401602083015e5f91810160200191909152949350505050565b60208082526052908201527f536572766963654d616e61676572426173652e6f6e6c7952656769737472794360408201527f6f6f7264696e61746f723a2063616c6c6572206973206e6f742074686520726560608201527133b4b9ba393c9031b7b7b93234b730ba37b960711b608082015260a00190565b60018060a01b0383168152604060208201525f8251606060408401526157b460a0840182614fe2565b90506020840151606084015260408401516080840152809150509392505050565b5f823560be198336030181126157e9575f5ffd5b9190910192915050565b5f5f8335601e19843603018112615808575f5ffd5b8301803591506001600160401b03821115615821575f5ffd5b6020019150600681901b3603821315615166575f5ffd5b5f5f8335601e1984360301811261584d575f5ffd5b83016020810192503590506001600160401b0381111561586b575f5ffd5b8060061b3603821315615166575f5ffd5b8183526020830192505f815f5b84811015614e5157813561589c816147fb565b6001600160a01b0316865260208201356158b5816153f3565b6001600160601b031660208701526040958601959190910190600101615889565b6001600160a01b038416815260406020820181905281018290525f6060600584901b83018101908301858360be1936839003015b87821015615a3757868503605f190184528235818112615928575f5ffd5b89016159348180615838565b60c0885261594660c08901828461587c565b9150506020820135615957816147fb565b6001600160a01b031660208801526159726040830183615838565b88830360408a015280835290915f91906020015b818310156159c1578335615999816147fb565b6001600160a01b03168152602084810135908201526040938401936001939093019201615986565b6159cd60608601614aa8565b63ffffffff811660608c015293506159e760808601614aa8565b63ffffffff811660808c01529350615a0260a08601866155b9565b9550935089810360a08b0152615a198186866155fa565b9950505050505060208301925060208401935060018201915061590a565b509298975050505050505050565b5f8235609e198336030181126157e9575f5ffd5b602080825281018290525f6040600584901b830181019083018583609e1936839003015b87821015615b3457868503603f190184528235818112615a9b575f5ffd5b8901615aa78180615838565b60a08852615ab960a08901828461587c565b9150506020820135615aca816147fb565b6001600160a01b03166020880152604082810135908801526060820135615af081614a97565b63ffffffff1660608801526080919091013590615b0c82614a97565b63ffffffff821660808801528096505050602083019250602084019350600182019150615a7d565b5092979650505050505050565b5f61ffff821661ffff8103615b5857615b586153cc565b60010192915050565b5f82518060208501845e5f92019182525091905056fe30644e72e131a029b85045b68181585d97816a916871ca8d3c208c16d87cfd47424c535369676e6174757265436865636b65722e636865636b5369676e617475a26469706673582212205d252bd6180e8eddbe8999ddfe1c18b22bb090541a1a1e8e35d3c40acf873ee264736f6c634300081d0033",
    "linkReferences": {}
  },
  "methodIdentifiers": {
    "BLOCK_STALE_MEASURE()": "5e8b3f2d",
    "STORE_DURATION_BLOCKS()": "5e033476",
    "THRESHOLD_DENOMINATOR()": "ef024458",
    "avsDirectory()": "6b3aa72e",
    "batchId()": "4972134a",
    "batchIdToBatchMetadataHash(uint32)": "eccbbfc9",
    "blsApkRegistry()": "5df45946",
    "checkSignatures(bytes32,bytes,uint32,(uint32[],(uint256,uint256)[],(uint256,uint256)[],(uint256[2],uint256[2]),(uint256,uint256),uint32[],uint32[],uint32[][]))": "6efb4636",
    "confirmBatch((bytes32,bytes,bytes,uint32),(uint32[],(uint256,uint256)[],(uint256,uint256)[],(uint256[2],uint256[2]),(uint256,uint256),uint32[],uint32[],uint32[][]))": "7794965a",
    "createAVSRewardsSubmission(((address,uint96)[],address,uint256,uint32,uint32)[])": "fce36c7d",
    "createOperatorDirectedAVSRewardsSubmission(((address,uint96)[],address,(address,uint256)[],uint32,uint32,string)[])": "a20b99bf",
    "delegation()": "df5cf723",
    "deregisterOperatorFromAVS(address)": "a364f4da",
    "eigenDADisperserRegistry()": "eeae17f6",
    "eigenDARelayRegistry()": "72276443",
    "eigenDAThresholdRegistry()": "f8c66814",
    "getBlobParams(uint16)": "2ecfe72b",
    "getIsQuorumRequired(uint8)": "048886d2",
    "getOperatorRestakedStrategies(address)": "33cfb7b7",
    "getQuorumAdversaryThresholdPercentage(uint8)": "ee6c3bcf",
    "getQuorumConfirmationThresholdPercentage(uint8)": "1429c7c2",
    "getRestakeableStrategies()": "e481af9d",
    "initialize(address,uint256,address,address[],address)": "775bbcb5",
    "isBatchConfirmer(address)": "a5b7890a",
    "latestServeUntilBlock(uint32)": "eaefd27d",
    "nextBlobVersion()": "32430f14",
    "owner()": "8da5cb5b",
    "pause(uint256)": "136439dd",
    "pauseAll()": "595c6a67",
    "paused()": "5c975abb",
    "paused(uint8)": "5ac86ab7",
    "pauserRegistry()": "886f1195",
    "paymentVault()": "ed3916f7",
    "quorumAdversaryThresholdPercentages()": "8687feae",
    "quorumConfirmationThresholdPercentages()": "bafa9107",
    "quorumNumbersRequired()": "e15234ff",
    "registerOperatorToAVS(address,(bytes,bytes32,uint256))": "9926ee7d",
    "registryCoordinator()": "6d14a987",
    "renounceOwnership()": "715018a6",
    "rewardsInitiator()": "fc299dee",
    "setBatchConfirmer(address)": "f1220983",
    "setClaimerFor(address)": "a0169ddd",
    "setPauserRegistry(address)": "10d67a2f",
    "setRewardsInitiator(address)": "3bc28c8c",
    "setStaleStakesForbidden(bool)": "416c7e5e",
    "stakeRegistry()": "68304835",
    "staleStakesForbidden()": "b98d0908",
    "taskNumber()": "72d18e8d",
    "transferOwnership(address)": "f2fde38b",
    "trySignatureAndApkVerification(bytes32,(uint256,uint256),(uint256[2],uint256[2]),(uint256,uint256))": "171f1d5b",
    "unpause(uint256)": "fabc1cbc",
    "updateAVSMetadataURI(string)": "a98fb355"
  },
  "id": 183
}